:020000040800F2
:1000000038C001209D010008AD6600087354000847
:10001000655E000865200008E99F000800000000F8
:10002000000000000000000000000000097E000841
:100030006921000800000000917B00084D7E000847
:10004000B7010008B7010008B7010008B7010008B0
:10005000B7010008B7010008B7010008B7010008A0
:10006000B7010008B7010008B701000869200008BF
:10007000B7010008B7010008B7010008B701000880
:10008000B7010008B7010008B7010008B701000870
:10009000B7010008B7010008B7010008B701000860
:1000A000B7010008B7010008B7010008B701000850
:1000B000B7010008F17E0008B7010008B701000889
:1000C000B7010008B7010008B7010008B701000830
:1000D000B7010008B7010008B7010008B701000820
:1000E000B7010008B7010008B7010008B701000810
:1000F000B7010008B7010008B7010008B701000800
:10010000B7010008B7010008B70100085D7C0008CE
:10011000B7010008B7010008B7010008B7010008DF
:10012000B7010008B7010008B701000875200008F2
:10013000B7010008B7010008B7010008B7010008BF
:10014000B7010008B7010008B7010008B7010008AF
:10015000B7010008B7010008B7010008B70100089F
:10016000B7010008B7010008B7010008B70100088F
:10017000B70100082D780008B70100080000000052
:10018000B7010008B7010008DFF80CD000F0D0FD7F
:100190000048004741C3000838C001200648804796
:1001A00006480047FEE7FEE7FEE7FEE7FEE7FEE75C
:1001B000FEE7FEE7FEE7FEE7E17E000889010008B2
:1001C0002DE9F05F0546002092469B46884606468C
:1001D000814640241BE0284641464746224600F01F
:1001E000A8FC53465A46C01A914110D311461846EE
:1001F000224600F08FFC2D1A67EB01084F4622467D
:100200000120002100F086FC17EB00094E41201E62
:10021000A4F10104DFDC484631462A464346BDE8E6
:10022000F09F00000649074A0868504343F239022C
:10023000104408604008704701490860704700009A
:100240005C0300206D4EC641014610B509683C2292
:10025000B1FBF2F302FB1313B1FBF2F11D48036093
:10026000B1FBF2F302FB1313B1FBF2F1182243606E
:10027000B1FBF2F302FB1313B1FBF2F183600A1D31
:100280000723B2FBF3F403FB142282618A0040F2DD
:10029000B55102F66C32B2FBF1F344334361B2FB69
:1002A000F1F301FB13218908C1613B2903D3027DCE
:1002B000920700D0491C0022074C13460261E25C01
:1002C0008A4203D8891A5B1C0361F8E7491CC160A4
:1002D00010BD000008700120383D010870B50546CA
:1002E00001B90721541A241DB4F5B67F09DD286829
:1002F00000F036F9A04204DC2868401C2860012088
:1003000070BD002C05DA2868401E286000F028F92E
:100310000444072094FBF0F0401C70BD2DE9F04F21
:1003200089B01D468A468046002401AF4FF0070B76
:100330000192079057F8241011F8010B47F8241088
:1003400048B125280DD0BAF1010F06D908F8010BE4
:10035000AAF1010A5CE0641E5AE0002009B0BDE881
:10036000F08F11F8010B47F824100028F3D0022673
:100370004FF030095A284BD020DC4D2873D014DCC4
:10038000442871D008DC2528DDD041282AD0422815
:100390002ED043283CD130E0462847D0472857D0BC
:1003A000482862D0492833D161E0523808282FD23A
:1003B000DFE800F0787AA6838A97A6A86138192822
:1003C00026D2DFE800F00D1318202E253513255C0A
:1003D000252560642566256D257375258B9BA000FA
:1003E0006AA000E070A0A9690091B4E07DA000E0DF
:1003F00088482969F8E788A007E06969642091FBCB
:10040000F0F0133082E0E86880E0641C47F82400D4
:10041000002C8FDA002088F800000799A8EB010073
:100420009CE7E8684FF02009009070E07EA0ECE7C0
:10043000686900F26C700090D5E906126846FFF713
:100440004DFF0099642091FBF0F200FB12105DE07B
:100450006869042600F26C700090D5E906126846BF
:10046000FFF73CFF53E010E048E0A8684EE0A868C2
:100470000C21173090FBF1F201FB120001E0E8695A
:100480000326401C42E02869FBE768683EE069A05B
:10049000BBE7A8680C2801DA67A0B6E767A0B4E755
:1004A00067A0B2E769A0B0E728682FE069A0ACE7D1
:1004B000A869012608BB072028E0D5E90610401AE4
:1004C000C01D90FBFBF021E0686900F26C700090A9
:1004D000D5E906126846FFF701FF17E00126A86973
:1004E00014E0A9695846891D91FBF0F20BFB12112B
:1004F000EA69511AC91D91FBFBF007E056A084E799
:1005000058A082E70426686900F26C700090002110
:100510008DF8181006A80A2113E0009A92FBF1F357
:1005200001FB1322303200F8012D009A92FBF1F208
:10053000009232B901E000F8019D321EA6F10106D9
:10054000F9DC321EA6F10106E7DC5EE710F8011BBC
:100550000029FBD100994A1E00920029F6DC54E7DD
:1005600081070CD1642190FBF1F201FB120151B91A
:100570004FF4C87190FBF1F201FB120018B100209A
:1005800000F26D1070470120FAE7000053756E000D
:100590004D6F6E00547565005765640054687500B2
:1005A000467269005361740053756E646179004D41
:1005B0006F6E646179005475657364617900576585
:1005C000646E6573646179005468757273646179EF
:1005D000004672696461790053617475726461796F
:1005E000000000004A616E00466562004D617200C5
:1005F000417072004D6179004A756E004A756C0059
:1006000041756700536570004F6374004E6F76004C
:1006100044656300443D010825612025622025656D
:10062000202554202559000025592D256D2D2564A0
:10063000000000000A000000414D0000504D000085
:1006400025493A254D3A25532025700025483A255D
:100650004D00000009000000256D2F25642F25792D
:100660000000000025483A254D3A255300000000BF
:1006700040EA01039B0703D009E008C9121F08C024
:10068000042AFAD203E011F8013B00F8013B521EA4
:10069000F9D27047D2B201E000F8012B491EFBD21B
:1006A00070470022F6E710B513460A46044619467D
:1006B000FFF7F0FF204610BD10B5484304460BF08D
:1006C00013FF002805D00021002C02D0641E015524
:1006D000FAE710BD2DE9FE4F804681EA0300C00F06
:1006E0000C46009021F0004123F00045B8EB0200D9
:1006F000A94105D24046214690461C460B4602467B
:1007000023F00040104347D0270DC7F30A00C3F37E
:100710000A510290401A019040286BDAC3F313008B
:1007200040F4801B0098924620B10023D2EB030ACC
:1007300063EB0B0B01985946C0F14002504600F0A4
:10074000E9F906460D4650465946019A00F001FA6D
:1007500010EB08006141002487EA115284EAE77334
:100760001A4340D0009A62B3019A012A4FEA075215
:1007700015DC001B61EB02014FF0004202EA075258
:10078000CDE90042001C41F5801132462B4600F0B5
:1007900001FA03B0BDE8F08F40462146F9E7001B9F
:1007A00061EB0201001C41F5801300185B41201829
:1007B000A2F5001747EB030140EAD570B6196D4169
:1007C00011E06D084FEA360645EAC0754FEA075258
:1007D000001B61EB0201001C41F5801149084FEA42
:1007E00030000019514132462B4603B0BDE8F04FAE
:1007F00000F0C1B90098012240000023D0EB0202B2
:1008000063EBE073009821464FEAE074B8EB000018
:1008100061EB0401E9E783F000435BE781F000410D
:1008200058E72DE9FE4F81EA030404F0004421F06B
:10083000004100944FF0000B23F0004350EA010404
:100840005ED052EA03045BD0C3F30A54C1F30A55E5
:100850002C44A4F2F3340194A0FB0254C1F313011D
:1008600041F48011C3F3130343F4801301FB0244EA
:1008700000FB034E840A970A44EA815447EA8357EF
:10088000A4FB076802958D0A05FB07854FEA932CA8
:1008900004FB0C542705029D4FEA065847EA163719
:1008A000B5EB08056EEB070C870E920E47EA811731
:1008B00042EA8312A7FB0201B6EB0B0164EB0004D2
:1008C0002B0D43EA0C335E1844EB1C50DA465146BC
:1008D000E7FB0201C5F313044FEA0B3343EA145359
:1008E0004FEA0432019C43EA0603A4F10C0402948B
:1008F000009CCDE900B400F04DF903B0BDE8F08FE5
:1009000000200146F9E72DE9F04D81EA030404F0E7
:10091000004B21F0004514464FF0000A23F000413F
:1009200050EA050220D054EA01021DD0C5F30A574F
:100930000246C5F31303C1F31300C1F30A5640F492
:10094000801543F48013A7EB0608101BD64608F267
:10095000FD3873EB050002D308F1010801E092189D
:100960005B41B8F1000F03DA00200146BDE8F08DCD
:1009700000204FF48011064684460EE0171B73EBEF
:10098000050705D3121B63EB050306434CEA010C74
:1009900049084FEA300092185B4150EA0107EDD157
:1009A00052EA030012D082EA040083EA05010843F8
:1009B00005D0101BAB4106D20122002306E0002225
:1009C0004FF0004302E06FF0010253101AEB0600F3
:1009D0004CEB085110EB0A0041EB0B01BDE8F04D68
:1009E00000F0C9B80EB5C10F80EAE0700844CA072C
:1009F000002140F233438DE80E000A460B4600F01A
:100A0000C9F803B000BD0EB540F233410291002198
:100A1000CDE900110A460B4600F0BCF803B000BD5A
:100A200070B5C1F30A5201F000450024C1F313016F
:100A300040F2FF3341F480119A4201DA002070BD88
:100A400040F233439A42A2F2334203DC524200F0B6
:100A500070F800E090402C43F1D0404270BDC1F3EB
:100A60000A5210B5C1F3130140F2FF3341F4801173
:100A70009A4201DA002010BD40F233439A42A2F2BA
:100A8000334203DC524200F054F810BD904010BDD8
:100A900000F0004230F000400AD0C10D01F5607155
:100AA000C0F3160042EA0151C208400711437047E3
:100AB000002001467047000030B5041E71F10004AB
:100AC00004DB4FF00044404264EB0101141E73F15B
:100AD000000405DB1C464FF00043524263EB040365
:100AE000994208BF904230BD30B50B460146002008
:100AF0002022012409E021FA02F59D4205D303FAE0
:100B000002F5491B04FA02F52844151EA2F1010260
:100B1000F1DC30BD202A04DB203A00FA02F100208B
:100B200070479140C2F1200320FA03F3194390402B
:100B30007047202A04DB203A21FA02F00021704796
:100B400021FA02F3D040C2F1200291400843194635
:100B50007047202A06DBCB17203A41FA02F043EA1D
:100B6000E07306E041FA02F3D040C2F12002914066
:100B700008431946704710B5141E73F1000408DAD3
:100B8000401C41F1000192185B411A4301D120F051
:100B9000010010BD2DE9F04D92469B4611B1B1FA0E
:100BA00081F202E0B0FA80F220329046FFF7B2FF05
:100BB00004460F4640EA0A0041EA0B0153465A46F2
:100BC000084313D0114653EA010019D0C8F140027E
:100BD0005046FFF7AEFF05460E4650465946424680
:100BE000FFF798FF084305D0012004E0204639466E
:100BF000BDE8F08D0020054346EAE0762C433743FC
:100C00000A986305E40AA0EB08000022FD0A44EA02
:100C100047540A3002D500200146E9E701051019C2
:100C20006941DDE9084500196941BDE8F04DA2E7D9
:100C300070B521F0004303430CD0C1F30A550024E2
:100C4000D5EB040564EB0403D617AD1AB34102DB00
:100C50000020014670BD201841EB025170BD2DE906
:100C6000F04D00231A461B1A8A4103DB002001467F
:100C7000BDE8F08DC1F30A52C1F3130141F48015B0
:100C80004FF0000BD10702D100186D41521E002712
:100C9000044640F2FF11384601EB620A3E468046A8
:100CA000024600204FF48011FFF743FFC219714143
:100CB000BB1846EB0100B4EB030C75EB000C04D33E
:100CC000E41A65EB000517460E46241908F10100E9
:100CD0006D4180463428E3DDF91946EB0600091B17
:100CE000A84103D24FF0FF32134601E00022134621
:100CF0001BEB070046EB0A51BDE8F04DFFF73BBF89
:100D0000C1F30A52C1F3130140F2FF3341F48011E1
:100D10009A4202DA00200146704740F233439A4279
:100D2000A2F2334202DC5242FFF703BFFFF7F2BEEA
:100D3000064C074D06E0E06840F0010394E8070028
:100D400098471034AC42F6D3FFF722FA3813030861
:100D50005813030870B58C1810F8015B15F00703E1
:100D600001D110F8013B2A1106D110F8012B03E044
:100D700010F8016B01F8016B5B1EF9D12B0705D44C
:100D80000023521E0DD401F8013BFAE710F8013B95
:100D9000CB1A921C03E013F8015B01F8015B521EB1
:100DA000F9D5A142D8D3002070BD0000F0B5F1B153
:100DB000002300BF02EB430C32F813E0BCF802C082
:100DC0002EF0030E2CF0030C50F80E5050F80C606F
:100DD00000EB0E0400EB0C0740F80E6040F80C50DE
:100DE0007E68656802338B4266607D60E2D3F0BD49
:100DF0002DE9F0410488984616460746012A0D461B
:100E00000CD1E4B3281D214690ED000A0139B1EE62
:100E1000400A80ED000A00F10800F5D1FF2C0CDD3E
:100E2000B4F5806F10DBB4F5805F22D0B4F5006FAD
:100E300011D0B4F5806F17D021E03F2C10DC102CBE
:100E400012D0202C07D01AE0B4F5807F03D0B4F57F
:100E5000007F0ED013E03846294600F05FF90EE01F
:100E6000402C06D0802C0AD13846294600F08AF85A
:100E700005E07A6828462146012300F0E7FBB8F137
:100E8000000F04D0B989BA682846FFF78FFF012EFA
:100E90001CD100EE104A002CB8EE400A08BFBDE895
:100EA000F081B7EE001A81EE000A00BF95ED001A3E
:100EB00095ED012A20EE011A22EE402A85ED001A56
:100EC00085ED012A013C05F10805EFD1BDE8F0816F
:100ED00000224260FF294FF0FF0201800EDDB1F5D4
:100EE000806F16DB29D0B1F5805F2BD0B1F5006F94
:100EF00046D149F2D833C0F6010336E03F2913DC6E
:100F0000102924D020293BD149F2F833C0F601033F
:100F10002BE0B1F5807F1FD0B1F5007F30D149F2D1
:100F20001843C0F6010320E040291AD0802927D1B8
:100F300049F2B833C0F6010317E049F2A833C0F60E
:100F4000010312E049F20843C0F601030DE049F243
:100F5000C833C0F6010308E049F2E833C0F60103E4
:100F600003E049F22843C0F60103191D03F108020A
:100F70000C331B88126809688381C0E901120022C2
:100F800050B270472DE9F0472DED028B0388804663
:100F9000084601EB830AD8F804200021B1EBD30FF7
:100FA0004FEA530900F0AB80D9080AEB890C00EB3B
:100FB000890E0027C4190AEB070594ED000A95ED88
:100FC000003A94ED011A95ED014A0EEB07030CEB84
:100FD000070694ED022A95ED025A70EE035A93ED3E
:100FE000006AD6ED001AD6ED012AD6ED023AD6ED0A
:100FF000034AC4ED005A71EE045A93ED017AC4ED30
:10100000015A72EE055AD3ED020AC4ED025AD4ED2C
:10101000035AD5ED036A31EE441A35EEA68A36EE50
:10102000214AD3ED037A84ED038A83ED004A37EE3B
:10103000224A83ED014A30EEA34A83ED024A37EE9D
:10104000A44A83ED034AD31931EEC64A33EEE06A6F
:10105000D3ED000AD3ED011A30EE430A32EE452AF1
:1010600032EEC75A60EE202A61EE213A21EE201AB4
:1010700020EE210A31EE400A85ED010A24EE210A14
:1010800025EE211A25EE205A72EEA32A24EE204ADC
:1010900030EE450AC5ED002A86ED000A34EE010A5D
:1010A00086ED010A93ED020A93ED031A35EEE63A56
:1010B00022EE004A23EE015A23EE003A22EE012AE4
:1010C00034EEE77A33EE422A85ED032A26EE012A32
:1010D00027EE011A27EE003A26EE000A34EE054A02
:1010E00032EE432A30EE010A013907F1100785ED8F
:1010F000024A86ED022A86ED030A7FF45BAF494679
:10110000022300F0A3FAD8F80420504649460223EF
:10111000BDEC028BBDE8F04700F098BA2DE9F04F26
:1011200081B02DED088B8EB002880346500801EB8C
:10113000800505EB800691ED000A91ED011A96ED10
:10114000002A96ED013A04935B6806EB800730EEC7
:10115000024A30EE420A31EE032A31EE431A95ED8F
:10116000013A95ED005A0593930897ED017AD7ED72
:10117000000A029374EE452A72EE433A34EE054AB1
:1011800032EE032A6FF0010334EE204A32EE072AD2
:1011900003EB920230EE036A71EE451A30EE430A19
:1011A00031EE051A81ED004A0A9181ED012A5108BC
:1011B00036EE476A71EEA01A72EEE02A73EEC73A75
:1011C00030EE070A31EE601A0095019603970D91F3
:1011D000C10085ED006AC5ED011AC6ED002AC6ED15
:1011E000013A87ED000A87ED011A0C9100EB4001EE
:1011F0006FF007036FF003074FEA800E07EBC00B99
:1012000007EB800A03EB001903EB81028C0000203E
:10121000002500210B9100BF0A9E059B07900695B3
:10122000089406EB04080C9C311806EB040C06EB42
:101230000E0491ED020A9CED022AD4ED020A30EE72
:10124000026AD8ED022A36EE204A34EE224A91EDA7
:10125000031A9CED033AD4ED031AD8ED033A81ED5D
:10126000024A94ED034A31EE037A98ED035A37EEC1
:10127000044ACDF824E034EE054A81ED034A0B9987
:1012800030EE420A31EE431A30EE212A03EB010E12
:1012900032EE634A31EE602A0D9932EE225A36EE72
:1012A000602A37EE613A30EE610A31EE201A1F18DB
:1012B000581932EE622A33EE633A30EE230A0029DF
:1012C00031EE621A00F0CC800A998E1801EB0A0305
:1012D00001EB0905594493ED007AD6ED010AD1EDF1
:1012E000003A77EE202AD5ED014A72EEA35A75EE48
:1012F000A45A13ED016AD6ED001A51ED016AD5ED3D
:10130000007AC3ED005A11ED018A76EE215A95ED6F
:10131000009A35EE888A38EE098A03ED018A97ED46
:10132000028A97ED039A24EE08AA25EE09BA25EE63
:10133000085A24EE094A35EE444A37EE605A84EDE5
:10134000034A36EE614A35EE666A33EEE47A36EEEB
:10135000276A74EE070A66EE091A20EE899A60EE93
:10136000880A26EE086A3AEE0BAA71EEE00A36EE1B
:10137000096A84ED02AAC1ED000A01ED016A90ED4F
:10138000046AD0ED050A62EE061A23EE208A23EEE7
:10139000063A22EE202A33EE422A8CED032A32EE60
:1013A000E32A35EEE63A71EE881A33EE673A32EE0A
:1013B000642A0D98CCED021A62EE461A23EE066AF4
:1013C00023EE203A22EE202A31EEC33A32EE462AAC
:1013D000013886ED013A86ED002A0D909EED062A31
:1013E0009EED073A0C9820EE026A61EE030A21EEA8
:1013F000021A20EE030A083031EE400A37EEE61AF0
:10140000DDF824E00C9088ED030A37EE440A31EE53
:10141000451A0B9821EE034A20EE033A20EE020A09
:1014200036EE206A21EE021A34EE400A183088EDBA
:10143000026A85ED010A31EE030A089C0B9085EDE6
:10144000000A069D07980EF1080E08341035083082
:10145000A9F10809083AABF1080BAAF1080ADBE682
:1014600097ED026A97ED037A64EE060A65EE071AB5
:1014700025EE065A24EE074A30EEA16A35EE444ABC
:1014800084ED026A84ED034A90ED044A90ED055A1A
:1014900022EE046A23EE057A23EE043A22EE052AB0
:1014A00036EE074A33EE422A8CED024A8CED032ACF
:1014B0009EED062A9EED073A029D20EE024A21EE9D
:1014C000035A21EE021A20EE030A0A98059A34EE16
:1014D000052A31EE400A2946042388ED022A88EDC8
:1014E000030A00F0B3F8049C0098626829460423BC
:1014F00000F0ACF8626801982946042300F0A6F8D1
:1015000062680398294604230EB0BDEC088B01B035
:10151000BDE8F04F00F09AB8F0B590ED000A4C1E0F
:101520004FF0000CBCEB940F00F1040E3BD00127F0
:101530002646A50867F301064FF0000C042700BFFC
:101540009EED001A9EED012A9EED023AB4EE410A8C
:101550009EED034AF1EE10FABCBFB0EE410AA7F1CE
:10156000030CB4EE420AF1EE10FABCBFB0EE420A30
:10157000A7F1020CB4EE430AF1EE10FABCBFB0EED4
:10158000430AA7F1010CB4EE440AF1EE10FABCBF15
:10159000B0EE440ABC46013D07F104070EF1100EFF
:1015A000CED100EB860E14F003000ED0404200BFF7
:1015B000BEEC011AB4EE410AF1EE10FABCBFB0EE77
:1015C000410A01EB000C0130F2D382ED000AC3F8AE
:1015D00000C0F0BD80B50023B3EB910F1ED09FED8E
:1015E0001A0A4FEA910E21F0030C034693ED001AFC
:1015F00093ED012A93ED023A30EE010A93ED034A8E
:1016000030EE020A30EE030A30EE040ABEF1010E9B
:1016100003F11003EAD100EB8C0001E09FED0A0A10
:1016200011F0030306D000BFB0EC011A013B30EE0D
:10163000010AF9D101EE101AB8EE411A80EE010A42
:1016400082ED000A80BD00BF000000002DE9F04FD0
:1016500081B02DED108BA0B0DFED04CA00900430F6
:10166000CDE902320190CDE91E1101E0F304353FCE
:101670001F9A4FF0000AD308DF00A7EBD200C0008A
:101680001D904FEAC20C03EB430503EB83025801A4
:1016900006931E01019B2C014FEAC20EED00CDE91D
:1016A0000C0ECDE90A5600BF0A9D191803EB050977
:1016B0001D9D03EB0E0003EB070810ED014A864663
:1016C0009A19181903EB050B13ED011A11ED012AF4
:1016D00018ED013A12ED017A50ED010A59ED011AA7
:1016E0005BED012A31EE025A33EE046A77EE203ABE
:1016F00071EEA24A75EE235A76EE246A75EEA67A4A
:1017000043ED017A75EEE65AD8ED007A9EED008A37
:1017100099ED00BA9BED00CAD3ED006A41ED015A84
:10172000D1ED005A92ED009A90ED00AA37EE88EACA
:101730007BEE0C8A36EEA5DA39EE0AFA35EE635AFC
:1017400036EE646A7EEE684A7DEE0F9A7DEE4F3A81
:1017500035EE24DA35EE645A7EEE28AA02ED01DA7F
:1017600033EEC6DA00ED015A36EE235A31EE421A54
:1017700033EE442A37EE603A31EEE24A37EEC86A79
:101780007BEE4C0A79EEAABA79EEEA9A72EE441A26
:1017900032EE042A36EE604A36EE206AC3ED00BA15
:1017A000C1ED009A82ED00DA80ED005A36EEE55A7E
:1017B00039EE4A7A61EEAC1A22EE2C2A24EE2C4A3B
:1017C00026EE2C6A71EE210A73EE022A75EE043AB7
:1017D00077EE064A31EE611A33EE422A35EE443A8C
:1017E00037EE464A2646744670EEA45A70EEE40A76
:1017F00031EE045A1F9A1E9948ED015A73EEE25ACF
:101800004BED010A72EEA30A204604ED015A33EEB5
:10181000425ADDF834E0C8ED005ACBED000A84ED01
:10182000005A0C9831EE441A34460B9E924409ED4E
:10183000011A32EE031A8A45634489ED001AFFF457
:1018400033AF1F984028C0F0D4810298009E80B228
:1018500005900698CDE90E4CC0EBC000C0000024F6
:1018600001251097049000BF0598039B044403EBE7
:10187000C40191ED000A03EB04128DED1D0A92EDF7
:10188000000A04EB440203EBC2008DED1C0A90ED4C
:10189000000A03EB44118DED1B0A91ED000A04EBE5
:1018A0008401C80003EBC1018DED1A0A91ED000A15
:1018B0004FEAC20A4FEA021B03EB02128DED190A2E
:1018C00092ED000AC4EBC4024FEAC40CD10003EB52
:1018D000C2028DED180A92ED000A0CF104024FEAE3
:1018E000041E1A448DED170A92ED000A0EF104024F
:1018F0001A448DED160A92ED000A0AF104024FEA2D
:1019000044191A448DED150A92ED000A09F10402FA
:101910001A448DED140A92ED000A043018448DED3E
:10192000130A90ED000A0BF1040018448DED120A21
:1019300090ED000A081D18440994D0ED006A07963E
:10194000B44608952B46DDE90C54DDE90A76DDF84E
:1019500010808DED110A00BF10980E990CEB05094F
:101960000CEB000E0CEB04000CEB060B0CEB010A6D
:101970000CEB07020CEB0801DCED027A99ED028A10
:101980009EED029A90ED02AA9BED02DA9AED02EA30
:1019900092ED02FAD1ED028A37EE88BA39EE0ACA20
:1019A0007DEE0E9A7FEE28AA7BEE29BAF0EE6C3A15
:1019B0007CEE2ACA7BEEACDACCED02DA7BEEECBA36
:1019C000DCED03CAD9ED03DADEED03EAD0ED03FA6C
:1019D0009BED030A9AED031A92ED032A91ED033A67
:1019E0003CEEAD4A3EEEAF5A30EE016A32EE037A7B
:1019F00074EE060A75EE071ADDED1A4ADDED135A8C
:101A000070EEA12A70EEE10ACCED032A64EEAB1A67
:101A100065EEA02A71EEA21A64EEA00A65EEAB2A6A
:101A200070EEE20AC9ED021AC9ED030A7BEE690AFB
:101A30007CEE6A1A34EE464A35EE475A9DED1CCAD2
:101A4000DDED154A30EE856A34EE617A6CEE062AD9
:101A500024EE87BA2CEE077A24EE866A30EEC55A59
:101A600031EE844ADDED180ADDED111A37EE466AD3
:101A70008BED036A20EE856A21EE847A20EE844A9B
:101A800021EE855A37EE066A34EE454A39EE4A5A57
:101A90003FEE687A7EEEEF1A30EE410A32EE431ADC
:101AA0007BEE222A35EE472A35EE073A31EEC15A4F
:101AB00031EE811ACBED022A8AED026A8AED034AE1
:101AC00037EEC84A3DEE4E6A7CEEED0A22EE232A3E
:101AD00023EE233A25EE235A21EE231AF0EE63CAB1
:101AE00034EE027A76EE031A70EE852A70EE017AF1
:101AF000DDED1D3ADDED164A37EE278A32EEE19A2A
:101B000023EE88AA24EE89BA23EE899ADDED173AEE
:101B100037EE677A71EEA21A63EE872A66EEA17A33
:101B200063EEA11A26EE877A24EE888A31EEC77A10
:101B300034EE422A36EE433A30EEC54A30EE410AE0
:101B4000DDED190ADDED121A39EE488A32EE001A7F
:101B500034EE435A8EED038A81ED037A20EE816ADA
:101B600021EE857A20EE855A21EE811A3AEE0BAAF3
:101B700072EEA72A36EE076A35EE411A8EED02AAFA
:101B8000C1ED022A80ED026A80ED031A1F9833EE40
:101B9000041A03441E989DED1B4A9DED145A32EE23
:101BA000400A83420F9824EE002A25EE013A24EEE3
:101BB000011A25EE000A32EE032A31EE400A84446F
:101BC00082ED022A82ED030AFFF4C6AE089D069854
:101BD000079E0135099C854206F10806FFF444AED4
:101BE0000298C00002901F983F2806981F903FF669
:101BF0003FAD20B0BDEC108B01B0BDE8F08F10B54B
:101C000078B14FF400710446FFF762F950B94FF410
:101C10008060208249F2B830C0F602006061002086
:101C200000E0FF2040B210BD10B568B1402104466D
:101C3000FFF74EF948B9802020824AF2B830C0F64A
:101C400002006061002000E0FF2040B210BD10B52E
:101C500078B14FF480610446FFF73AF950B94FF478
:101C6000006020824AF2B850C0F602006061002095
:101C700000E0FF2040B210BD10B570B180210446D5
:101C8000FFF726F950B94FF4807020824CF2B8501B
:101C9000C0F602006061002000E0FF2040B210BDED
:101CA00010B568B110210446FFF712F948B9202099
:101CB00020824CF6B810C0F602006061002000E0FF
:101CC000FF2040B210BD10B578B14FF4006104465A
:101CD000FFF7FEF850B94FF4805020824CF63820C0
:101CE000C0F602006061002000E0FF2040B210BD9D
:101CF00010B578B14FF480710446FFF7E9F850B998
:101D00004FF40070208240F63820C0F60300606176
:101D1000002000E0FF2040B210BD10B568B12021C6
:101D20000446FFF7D5F848B94020208241F2382018
:101D3000C0F603006061002000E0FF2040B210BD4B
:101D4000F0B581B014460E46054673B128463146BB
:101D500022461F4600F060F8284621463A460123F5
:101D600001B0BDE8F040FFF743B8284631460022F5
:101D70000123FFF73DF828463146224601B0BDE871
:101D8000F04000F0A3B8B1F5007F0ADA7F2916DC35
:101D9000202929D040293BD141F61B51C0F6000132
:101DA0000847B1F5006F14DAB1F5007F21D0B1F525
:101DB000806F2DD141F6FF31C0F600010847802920
:101DC0001CD0B1F5807F23D141F67941C0F60001E6
:101DD0000847B1F5805F16D0B1F5006F18D141F614
:101DE0004F41C0F60001084741F6A141C0F600018D
:101DF000084741F6F141C0F60001084741F6294184
:101E0000C0F60001084741F6C741C0F60001084787
:101E10004FF0FF307047000080B591ED001A91ED52
:101E2000012AD0F814E0008831EE023AB6EE000A3A
:101E300031EE421AB0F1010C23EE003A21EE001A05
:101E400082ED003A82ED011A08BF80BD01F108035E
:101E500001EBCC010EF108000832043111ED011A3A
:101E600091ED002A93ED003A93ED014A90ED005A6E
:101E700090ED016A33EE417A72EE040A67EE051ABC
:101E800060EE862A27EE066A31EE031A34EE422A05
:101E900025EE205A31EE611A32EE062A31EE621A30
:101EA00032EE452A21EE001A22EE002A82ED001AB7
:101EB00082ED012ABCF1010C03F1080300F10800D6
:101EC00002F10802A1F10801C8D180BD91ED000A1C
:101ED00091ED011A0388406930EE002A31EE011AB3
:101EE000A3F1010C32EE013AB6EE000A32EE411ACD
:101EF00023EE003A21EE001A00F1080301F1080078
:101F000001EBCC0182ED003A82ED011A0832043176
:101F100011ED011A90ED003A91ED002A90ED014A81
:101F200093ED005A93ED016A31EE437A72EE040AA2
:101F300067EE051A27EE067A31EE031A34EE422ACE
:101F400025EE205A20EE866A31EE211A32EE072A5B
:101F500031EE061A32EE452A21EE001A22EE002A50
:101F600082ED001A82ED012ABCF1010C03F1080395
:101F700000F1080002F10802A1F10801C8D1704780
:101F800070B501242725A02603F09EFB2246F221EE
:101F9000762003F0FFFC2A46F421762003F0FAFCB9
:101FA0003246F521762003F0F5FCBDE8704000F0E4
:101FB00001B8000000B589B06B4618228821762050
:101FC00003F0E8FB0122A121762006AB03F0E2FB3F
:101FD0000722E12176200DF1190303F0DBFB2048F5
:101FE000BDF800108180BDF80210C180BDF804105A
:101FF0000181BDF806104181BDF808108181BDF84E
:102000000A10C181BDF80C100182BDF80E1041828A
:10201000BDF810108182BDF81210C182BDF81410F5
:102020000183BDF8161041839DF818100170BDF8AA
:10203000191081839DF81B1041709DF81D109DF8AB
:102040001C300A4663F31F12C2839DF81E20120142
:1020500042EA111101849DF81F10817009B000BD82
:1020600014030020FEE70000014800F097BC0000C8
:10207000C84E0020014800F091BC0000904F0020A5
:1020800001681823CAB2103AB2FBF3F2054B6FF3A2
:102090000901032A9B5CC36500D9091D81650846B7
:1020A0007047000067C6000810B5014600208B6924
:1020B0008A6A4FF0C07453B1B3F5005F15D072B1A6
:1020C000012A0CD0022A0AD0032A09D104E01AB14D
:1020D000012A06D0022A03D1C96AC90100D501200C
:1020E00010BDC96AA142FAD010BD002AF7D0012A5A
:1020F000F2D0022AF3D0032AF3D010BD30B5046821
:10210000256825F480252560046863608368402B7A
:10211000036803D099600068C26030BD9A600068AF
:10212000C16030BD70B50F4D6C6805E0A189A06835
:1021300000F0B0FE60706468002CF7D1002041F21E
:10214000883100BF401C8842FBDB6C6807E0A18936
:10215000A06800F09FFE6178084320706468002C3E
:10216000F5D170BD3C020020704700002DE9F84F0A
:102170003F4FDFF8F4A0DFF8F4908046002407F129
:10218000200643F6E07B3B4830F8141008EB810052
:10219000D0ED000ABAF8000000EE100A4846B8EE8A
:1021A000400A30EEC00AD9ED000A30EE600ABDEEFA
:1021B000C00A10EE101AC9F80810282901DD2821DC
:1021C0008160395D826899ED011A521A00EE102A79
:1021D000B8EEC00AC0EE010A00EE101AB8EE400ACE
:1021E00030EE800ABCEEC00A10EE100AC3B23B55B6
:1021F000305D984201D2335503E002D9A0F10100CD
:10220000305504EB840000F1010005B24FF00302E9
:102210004FF028012846CDF800B004F069FA4FF2DB
:10222000E07000903B5D2846C3F12801032204F0D2
:102230005FFA40F2BF400090305D0323C0F12801F7
:1022400028461A4604F054FA4FF616000090315D05
:10225000032328461A46283104F04AFA641C202C2D
:1022600091DBBDE8F88F00001C000020F802002080
:10227000C86F012038000020032303760023436049
:1022800003614361816082810121817004494A6850
:102290001AB18A685060886070474860FBE70000A8
:1022A0003C02002010B50120FFF73CFF1748002337
:1022B00040F6B832406826E0847801788C4201D933
:1022C000037607E002D24FF0010402E069B14FF05B
:1022D00003040476047E54B1012C0AD0022C0AD0E7
:1022E000446994420BD342610BE00224F1E703619D
:1022F00007E0436105E004690A34046101E00A343F
:102300004461817040680028D6D110BD3C02002095
:1023100070B5244C4FF4FA76002563683FE0184608
:1023200005F096FC187E012817D11869B04208D331
:10233000184603F09FF8187E01280ED11869B042A4
:102340000BD2207810B1187F20B108E0184605F0B4
:1023500020FC23E0012018770FE02078F0B1187FEF
:10236000012802D002280FD018E0187E28B9586939
:10237000F02802D20220187710E05869F0280DD911
:10238000184605F006FC08E0187E012806D11869F9
:10239000B04203D2184604F083F91D775B68002B26
:1023A000BDD170BD3C0200200FB4002310B5CC6934
:1023B0009FED250A237081F820304C6A84ED000AD5
:1023C00081ED0A0A81ED0B0A81F830304B634A61D6
:1023D0009DF814200A71082A1ED2DFE802F01D04BD
:1023E000080E0E080819069A81F8302014E0069AA3
:1023F000CA61127881F820200EE0069A4A62D2ED76
:10240000000AC1ED0B0AD2ED000AC1ED0A0A01E093
:10241000069A8A61079A4A630B60826882B1C26831
:102420005279521C4A71C2681160C1604879C880F3
:1024300081ED020A81ED030A0B8210BC5DF814FBEA
:102440004B718160F1E70000000000000FB4002133
:1024500041618160C16001609DF804200271022A1F
:1024600001D1029A4261074AD36C3BB1116D0B7CDA
:102470005B1C03740860106504B070470174D0647D
:10248000F9E70000480200202DE9F041234C012526
:1024900005F12800002607B206F10A002288394615
:1024A00000B204F0FBFBB61CDD2EF5DBAD1CC92D24
:1024B000EEDB142000F0E4FB04F022FE012505F120
:1024C0002800012607B206F10A002288394600B228
:1024D00004F0E4FBB61CDD2EF5DBAD1CC92DEEDBF4
:1024E000142000F0CDFB04F00BFE002505F12800C0
:1024F000012607B206F10A002288394600B204F02C
:10250000CDFBB61CDD2EF5DBAD1CC92DEEDB14209A
:1025100000F0B6FBBDE8F04104F0F2BDE00200209F
:1025200038B50446204804F047FC204D4FF4807233
:1025300029461F48FFF7A0FE1D486A15294620308E
:10254000FFF79AFE1A484FF400421A494030FFF74D
:1025500093FE2A15184D164829466030FFF78CFE69
:102560001348EA1429468030FFF786FE04F0BAFDCE
:1025700004F09EF834B1114838233A2270210090BB
:102580005B2005E00E4800901C231D227E2169205F
:1025900004F084FE0BA2DF213D2005F015F9BDE813
:1025A000384004F0ADBD0000804600200004024029
:1025B000E457002000000240000802401ACE000844
:1025C000C2C7000845617379554928457242575F73
:1025D000732900002DE9F041214C207E617E0843E3
:1025E000A17E0843E17E0843217F0843617F0843C1
:1025F00034D11C481C4D1D4E0378A3762978E17612
:102600001B4F327822773978617722766176002104
:1026100029700170397031702BB140F2AD4215490B
:1026200015A007F0E3FCE37E2BB140F2AF42114965
:1026300017A007F0DBFC237F2BB140F2B1420D491C
:1026400019A007F0D3FC637F002B07D0BDE8F04151
:1026500040F2B34207491AA007F0C8BCBDE8F081B8
:102660004802002006030020070300200403002086
:1026700005030020A2C7000825735B25645D3A208E
:102680006F706E456E7465723A256420200D0A00E5
:1026900025735B25645D3A206F706E457869743AE6
:1026A000256420200D0A000025735B25645D3A2017
:1026B0006F706E55703A256420200D0A00000000EE
:1026C00025735B25645D3A206F706E446F776E3AB8
:1026D000256420200D0A000072B6FEE72DE9F05FA8
:1026E0004C4F04462DED028B38784B4EDFED4B8A74
:1026F000B2EE048A002518B3606A90ED000A30EE4D
:10270000080A10EE101AB14201DD9FED450A80ED76
:10271000000A606A90ED000A10EE100AB04202D181
:10272000B0EE680A01E020EE080A64223D48BCEEE3
:10273000C00A10EE101A09F0ABFD3B4805703D7061
:10274000DFF8E880DFF8E8B098F8000030B3606A9E
:10275000384A90ED000A30EE480A10EE101A914205
:1027600002DB80ED000A01E080ED008A606A90EDF6
:10277000000A10EE100AB04202D1B0EE680A01E081
:1027800020EE080A64222748BCEEC00A10EE101A98
:1027900009F07EFD8BF8005088F80050DFF8989023
:1027A000DFF898A099F8000050B1606A90ED000A37
:1027B00084ED0B0AFFF768FE8AF8005089F8005094
:1027C0001F480078C0B1606A94ED0B0A80ED000AE2
:1027D00010EE100AB04201D060EE088A642211485F
:1027E000BCEEE80A10EE101A09F052FDFFF74CFE9D
:1027F00013488AF80050057088F800503D700A4868
:1028000089F800508BF800500570BDEC028BBDE8D4
:10281000F09F0000640200200000C842008077445E
:102820000000C842404600206002002065020020EF
:1028300061020020000020416202002049020020C5
:10284000630200202DE9F0474FF400752DED028B57
:102850002946384A3848FEF7BDFE364C0020083C71
:10286000354994ED020A00BF51F8202000EE902A6D
:10287000F8EEE00A70EEC00AFDEEE00A10EE902AD3
:1028800041F82020401CA842EEDB00232B4A2A49B5
:102890002B48FFF755FADFF8A4900027A846012639
:1028A000B3EE048A09F5006509EB860090EC020A94
:1028B00009F047FC07F038FC20EE080A6168BDEE1D
:1028C000C00A10EE100A401A00EE100A05EB87004D
:1028D000B8EEC00A80ED000AB5EEC00AF1EE10FABB
:1028E00003D29FED180A80ED000A761C7F1C464536
:1028F000DADB104B464608331A1F41461248FEF7F2
:102900000BFEDFED120A94ED030A002005EB8001B7
:10291000401C91ED001AB04221EE201AC1EE001ABF
:10292000C1ED001AF2DB03202070BDEC028BBDE884
:10293000F08700001800002070230020702B00207A
:1029400068460020000000007033002000000043B3
:1029500010B5040002D0607910B106E0012010BD6E
:1029600000202071204600F005F801206071002051
:1029700010BD000008B500680649884208D1064825
:10298000016841F480510160006800F480500090BB
:1029900008BD000000300240303802402DE9F84305
:1029A00004464FF00009CDF8009063484FF41651EB
:1029B000A56D0068B0FBF1F72E6894F85C10082054
:1029C00000FA01F131420FD021680A6852070BD595
:1029D0000A6822F004020A6094F85C108840A8603B
:1029E000606D40F00100606594F85C104FF00108E4
:1029F00008FA01F0304208D021684969090604D577
:102A0000A860606D40F00200606594F85C100420DE
:102A10008840304208D021680968890704D5A86039
:102A2000606D40F00400606594F85C1010208840F0
:102A3000304218D021680968090714D5A8602068B9
:102A40000168490304D50068000308D5A16C07E0BC
:102A50000168C90503D4016821F008010160216CF7
:102A600009B12046884794F85C1020208840304205
:102A700031D021680968C9062DD5A86094F83500C1
:102A800005282068016806D0490347D5006800037F
:102A90001DD4616C1CE021F01601016020684169C1
:102AA00021F080014161206C08B9A06C20B1206840
:102AB000016821F00801016094F85C103F20884013
:102AC000A86084F8358084F83490216D1FE0E16BB4
:102AD00009B120468847606D00282BD0606DC00783
:102AE00014D0052084F835002068016821F0010128
:102AF00001600098401C0090B84203D8206800682C
:102B0000C007F6D184F8358084F83490E16C002950
:102B100010D001B02046BDE8F04308470168C90560
:102B2000D5D4016821F01001016084F8358084F863
:102B30003490CCE7BDE8F8838C0000202DE9F0410B
:102B4000044600F0B9F906465CB1022084F835006D
:102B5000002584F834502068016821F001010160EB
:102B60000DE00120BDE8F08100F0A6F9801B0528EA
:102B700005D920206065032084F83500F2E720683D
:102B80000068C007F0D12268116820480140D4E9EC
:102B900001031843D4E903363343184363691843E8
:102BA000A3691843E3691843236A18430843616A19
:102BB000042903D1D4E90B1319430843106020689A
:102BC0004069666A20F0070130460E430127042859
:102BD0000CD1A06A0643E06A40B12046FFF764FAD0
:102BE00020B14020606584F83570BAE720684661FE
:102BF0002046FFF745FA94F85C203F219140816020
:102C0000656584F835700020ACE700003F8010F067
:102C10002DE9F0410446866D90F834000025012826
:102C20000DD0012084F8340094F835700020012F75
:102C300007D084F8340002252846BDE8F081022040
:102C4000FBE7022784F8357060652046FFF756FAE7
:102C500094F85C103F208840B0602068016841F023
:102C600016010160206C20B12068016841F0080164
:102C700001602068016841F001010160DCE70000AB
:102C800070B5044600F018F90546601C02D00448EF
:102C90000078044400F010F9401BA042FAD370BD44
:102CA000800000202DE9F84FDFF8BCA100220125AB
:102CB00003264FF00F090AF1040BAAF1040E00BF1E
:102CC0000B6805FA02F42340A34270D10F7907F094
:102CD0000307012F01D0022F16D187684FEA42085F
:102CE00006FA08FC27EA0C07D1F80CC00CFA08FC1D
:102CF0004CEA070CC0F808C04768A7430C79C4F336
:102D0000001494403C4344600C79E443A4070AD087
:102D1000C4684FEA420C06FA0CF7BC438F6807FA06
:102D20000CF72743C7600C7904F00304022C12D17E
:102D3000D40800EB840CDCF820405707FF0E09FA9A
:102D400007F824EA0804D1F8108008FA07F848EADE
:102D50000408CCF8208004684FEA420C06FA0CF70D
:102D6000BC430F7907F0030707FA0CF72743076006
:102D70004C6814F4403F70D03C4C276847F48047BF
:102D80002760246822F0030704F480440094384C40
:102D900007EB040CDCF8084897074FEA177809FAA4
:102DA00008F7BC43334FB84202D1002724E054E077
:102DB000314FB84201D101271EE0304FB84201D156
:102DC000022719E02E4FB84201D1032714E02D4FFE
:102DD000B84201D104270FE02B4FB84201D105279B
:102DE0000AE02A4FB84201D1062705E0284FB84231
:102DF00001D1072700E0082707FA08F72743CCF896
:102E00000878DAF800405746D1F804C09C435FEADE
:102E1000CC2C00D51C433C60DBF800405F46D1F869
:102E200004C09C435FEA8C2C00D51C433C60DEF858
:102E300000407746D1F804C09C435FEA8C3C00D543
:102E40001C433C60084F083F3C68D1F804C09C43D9
:102E50005FEACC3C00D51C433C60521C102AFFF4B6
:102E60002FAFBDE8F88F0000083C01404438024015
:102E7000003001400000024000040240000802400F
:102E8000000C0240001002400014024000180240F2
:102E9000001C02400069084000D0012070474269D0
:102EA00021EA02030A4043EA0241816170470AB104
:102EB000816170470904FBE70148806870470000A2
:102EC000800000202DE9FF410446006881680091E0
:102ED0007749784E4FF04027884201D1324600E0D2
:102EE0003A469268019240688846029001D1304685
:102EF00000E038464068039060684FF00105B0F587
:102F0000007F1CD0D8B1900705D50398000602D5E4
:102F1000204602F0E5FA0098C0070FD0029840065C
:102F20007FD521682046CA68E16A8B1CE3620A806B
:102F3000618E491E6186618E002967D071E000981C
:102F4000800719D50298000616D5616A20468A1CAA
:102F5000626222680988D160618D491E6185618D38
:102F600051B901684A6822F0A0024A60418E19B93D
:102F700080F8415000F0A0F80198C00705D00398F0
:102F8000400602D5204602F07BFA0198400622D581
:102F9000039880061FD52168414501D1304600E0E5
:102FA0003846406820F0600101D1304600E03846E4
:102FB00041602068416821F0A00141602068C1683B
:102FC0008068019084F84150606C40F002006064B9
:102FD000204600F072F80098000767D50298800636
:102FE00064D52068416821F0A00141602168414515
:102FF00001D1304600E03846406820F0600000D043
:103000003E46706020688068009043E001684A682E
:1030100022F060024A60418D19B980F8415000F0F9
:103020004BF8009840061ED5029880061BD52068F4
:10303000416821F0600141602168414501D130467D
:1030400000E03846406820F0A00101D1304600E0A1
:103050003846416084F84150606C40F00200606482
:10306000204600F02AF8019800071FD50398800633
:103070001CD52168414501D1304600E03846406802
:1030800020F0A00000D03E4670602068416821F02A
:103090006001416084F84150606C40F0040060645D
:1030A00004B02046BDE8F04100F007B8BDE8FF815C
:1030B000003800400034004070477047416B0847BB
:1030C0002DE9F047040005D094F841004FF00008C6
:1030D00018B109E00120BDE8F08784F8408051482C
:1030E0006063204600F0A6F8022684F8416020685C
:1030F000C16940F6BF77B943C16120680662606963
:103100004FF4007902282FD0E06870B12025A06824
:10311000202800D86D00012000F0DEFF216949451C
:103120001FD1E16819B1A90002E01025EFE7E9001D
:10313000B0FBF1F000EB800061694000B0FBF1F002
:10314000401D0A21B0FBF1F000F00101401A4008D7
:103150000902821EFE2A09D3606C40F010006064F0
:10316000B8E7B0FBF5F0E5E702200021226908434B
:10317000024320680262D4E901010843A269E168C0
:10318000114308432168CA69BA43104340F4006000
:10319000C861206A01283AD1234860632348216826
:1031A000234A4FF04023814201D1114600E01946E5
:1031B000C96921EA070101D1154600E01D46E96110
:1031C0002168814201D1114600E019460E6225684E
:1031D000854201D1114600E01946C9698EB2616885
:1031E00049451BD0D1B100212789B4F80CC047EA6A
:1031F0000C07B4F818C04CEA010C47EA0C07B9B246
:10320000314341F40061854200D01A46D161C4F8CF
:103210004480012084F8410000205CE74FF4807175
:10322000E2E7000097550008C52E0008003800406E
:1032300000340040F0B58BB0064614216846FDF717
:1032400030FA0025059506950795089530493068B0
:1032500088425AD101200590C0200224CDE90604FD
:1032600005A800F067FF08B1FFF736FA29480168A2
:1032700041F4004101600068264900F40040103923
:103280000990086840F001000860086800F001003B
:103290000990086840F0040008600868062700F0FC
:1032A000040009904FF400408DE83100CDE9035748
:1032B00069461948FFF7F6FC4FF4A0508DE831003D
:1032C000CDE9035769461548FFF7ECFC154C144847
:1032D000C4E900050015A560C4E9035080006061E1
:1032E0008000C4E90605256220466562FFF726FCDA
:1032F00008B1FFF7F1F9F463002211463320A66309
:1033000000F030F9332000F01FF90BB0F0BD0000E1
:10331000003C0040403802400000024000080240EB
:1033200010600240C84E0020F8B5044681B17AB161
:1033300094F84000012809D0012684F8406094F8F0
:1033400041000025012805D084F840500220F8BD36
:103350000120F8BD042084F841006564E162206822
:10336000C06900F00700032813D0052811D0228679
:103370006286E16B1E480864E16B1E48C863E16B1E
:103380001D48C8642168C869C0F30120032807D01C
:1033900009E04FF6FF7000EA420020866086E8E709
:1033A000C86888680090238E0C31E26AE06BFFF7F2
:1033B0002FFC40B154F8440F40F0080044F80409D1
:1033C00066702570C4E72068C169490503D4C169E6
:1033D00041F48061C16120684168C90703D1416837
:1033E00041F00101416084F840500020F8BD000028
:1033F0008D55000869550008415500082DE9F8432E
:10340000194988422ED1194F002407F500564FF470
:10341000007800BF07EB0415E868009095E80E00FF
:1034200013A006F0E3FD28686968000200EB112193
:1034300046F8241014A006F0D9FD56F82400010225
:1034400003D540F07F4046F82400641C4445E1DB8E
:10345000FFF7F8F9BDE8F8434FF40062034902486A
:10346000FFF762BFBDE8F883804E002070030020A4
:10347000253038582C253038582C253038582C25F4
:103480003038580D0A000000253038580D0A000069
:103490007047704702488168027811448160704724
:1034A000800000200B4810B5016841F400710160F4
:1034B000016841F480610160016841F4807101603C
:1034C000032000F06FF80F2000F006F800F024F859
:1034D000002010BD003C024070B50D4D04464FF475
:1034E0007A712878B1FBF0F00A490968B1FBF0F075
:1034F00001F074FB48B9102C07D200222146501E5F
:1035000000F030F800206C6070BD012070BD00003C
:10351000800000208C0000200A4808B5016841F4B2
:1035200080410160006800F4804000900548001F61
:10353000016841F080510160006800F08050009007
:1035400008BD000044380240002809DB00F01F02DB
:10355000012191404009800000F1E020C0F80011F5
:1035600070470000F0B40E4B1B680C46C3F30223F7
:10357000C3F10705042D00D90425191D072901D21F
:10358000002300E0DB1E012606FA05F1491E21405A
:1035900099409E40761E16403143F0BC06F04EBD69
:1035A0000CED00E0064900F0070208684FF6FF0343
:1035B000184040EA0220034A1043086070470000A8
:1035C0000CED00E00000FA05704700684162002041
:1035D0007047F0B50368586A39B19C6A4FF4827637
:1035E00000EB144400204D1E0AE040EA02409862BD
:1035F0000FE006EB8007DF59401C04EB1744C0B214
:10360000A842F6D344EA02404FF4807202EB8101F3
:1036100058500020F0BDD0F8080505F0C3B801EB04
:10362000C10200EB8202D0F80805D26C05F02EB87A
:1036300001EBC10200EB8202D0F80805D2F88C221F
:1036400005F079B8D0F8080505F0AEB80A0601F023
:103650000F0101EBC10100EB810101D53C3101E01B
:1036600001F51F71006806F007BB70B504460B0634
:1036700001F00F0000EBC00104EB81014FF00102EB
:103680004FF0000503D581F83D203C3103E081F87F
:103690007D5201F51F71087094F8BC04012808D010
:1036A00084F8BC24206805F0A1FF84F8BC540020F5
:1036B00070BD022070BD70B5044601F00F00626855
:1036C000904201D9012070BD0B0601F00F0101EB02
:1036D000C10104EB81014FF001024FF0000503D559
:1036E00081F83D203C3103E081F87D5201F51F71E6
:1036F0008D70087094F8BC04012808D084F8BC24AC
:10370000206806F06FF984F8BC54002070BD0220D8
:1037100070BD01F00F0101EBC10100EB8100D0F899
:103720009C0270472DE9F04104460F0601F00F009E
:1037300000EBC00104EB81014FF001064FF00005E2
:1037400003D581F83D603C3103E081F87D5201F5FD
:103750001F710870CA600B714A7802B10881022B90
:1037600000D14D7194F8BC04012809D084F8BC64E0
:10377000206805F093FE284684F8BC54BDE8F0812B
:103780000220FBE770B50C4601F00F0505EBC50103
:1037900000EB8101C1F89432C1F88C220023C1F8FA
:1037A0009C3281F87D3281F87C52036901F51F71EA
:1037B000012B00D14A612207027C006803D006F089
:1037C00069F9002070BD06F053F8FAE770B50446B9
:1037D0000D4601F00F006168884201D9012070BDDB
:1037E00029064FF000064FF0010207D500EBC0019B
:1037F00004EB810181F83D203C3107E005EBC50178
:1038000004EB810181F87D6201F51F718A700870F7
:1038100094F8BC04012807D084F8BC24206806F082
:103820000DF9280702D007E0022070BD217C04F2C8
:10383000C442206806F0AAF884F8BC64002070BD79
:1038400070B50C4601F00F0505EBC50100EB8101D9
:103850004B65CA640023CB65012381F83D3001F834
:103860003C5F0369012B00D14A612207027C00689A
:1038700003D006F00FF9002070BD05F0F9FFFAE75C
:103880002DE9FC5F05680446284606F096FA0028F4
:103890007DD1206806F0BDFA002878D0D5F8080858
:1038A000C0F30D20C4F8FC04206806F0B2FA8007CB
:1038B00004D52068416901F002014161206806F0E9
:1038C000A8FAC10604F2C440009034D5206881698A
:1038D00021F0100181612F6A07F00F0000EBC0009A
:1038E00004EB8006C7F3434006F51F76022802D09A
:1038F000062811D01AE047F6F070074216D0C7F339
:103900000A1217462846316906F087FA30693844AA
:103910003061306A384408E008222846009906F0F1
:103920007CFA306AC7F30A11084430622068816962
:1039300041F010018161206806F06BFA00034FF03E
:10394000080B4FF0000A4FF001097CD500262068D3
:1039500006F03EFA074674E0F80770D0F1B220682E
:1039600006F04FFA8046C00707D005EB4611C1F8B4
:10397000089B3146204603F05FFF5FEA087024D5BC
:1039800005EB4611C1F808BB2068016C00E025E298
:1039900000EB46100191D0F8082BFC4B994205D959
:1039A000110403D54FF40041C0F8081B204600F075
:1039B0002FFBF6490198884207D92069012804D1D4
:1039C00020680121009A05F0E1FF5FEAC86004D594
:1039D00005EB46111020C1F8080B5FEA88701DD571
:1039E0006869000605D5D5F8040840F48061C5F87B
:1039F000041806EBC60004EB800090F87F1200F577
:103A00001F70012905D180F803A0F1B2204600F013
:103A1000EBF905EB46110220C1F8080B5FEA88605C
:103A200004D505EB46102021C0F8081B5FEA88404A
:103A300005D505EB46104FF40051C0F8081B7F0870
:103A4000761C002F88D1206806F0E3F940036FD57B
:103A5000206806F0B6F90746002667E0F80763D04D
:103A6000F1B2206806F0BBF98046C00723D006F00B
:103A70000F0209FA02F0D5F834288243C5F8342839
:103A800005EB4610C0F80899206901280FD106EB14
:103A9000C60004EB8000D0E912211144C16436B99C
:103AA000606D20B920680121009A05F06FFFF1B226
:103AB0002046FFF7B4FD5FEA087003D505EB461119
:103AC000C1F808B95FEAC86004D505EB46111020BB
:103AD000C1F808095FEA486004D505EB46104021AB
:103AE000C0F808195FEA887017D53146284606F0F5
:103AF00037F906EBC60004EB800090F83F103C302D
:103B0000012905D180F803A0F1B2204600F068F940
:103B100005EB46110220C1F808095FEA086003D5E9
:103B20003146204603F0EEFE7F08761C002F95D12B
:103B3000206806F06EF9002811DAD5F8040820F0A4
:103B40000101C5F8041894F8F40401282BD020468C
:103B500000F042FA2068416901F0004141612068AB
:103B600006F057F900050BD5D5F80808C00702D0B4
:103B7000204600F099FA2068416901F40061416132
:103B8000206806F046F9C00466D5D5F8040820F090
:103B90000100C5F804081021206806F0E1F80021B2
:103BA0004FF67F321FE084F8F4A400212046FFF78F
:103BB0000BFDCFE705EB4110C0F80829D0F800391C
:103BC00023F40013C0F80039C0F8082BD0F8003BEC
:103BD00023F40013C0F8003BD0F8003B43F000632F
:103BE000C0F8003B491C60688842E3D8D5F81C083F
:103BF00040F00111C5F81C18206B002828460DD094
:103C0000D0F8840840F00B01C5F88418D5F84408B2
:103C100040F00B012846C5F844180DE0D0F8140810
:103C200042F22B010843C5F81408D5F8100840F0FB
:103C30000B012846C5F81018D0F8000820F4FE61E2
:103C4000C5F80018217C2068009A05F09FFE2068C6
:103C5000416901F480514161206806F0DAF880047E
:103C600015D5206805F05AFC206806F099F8E06048
:103C700000F098FB0146227B206806F02DF92046D3
:103C800000F094F92068416901F400514161206815
:103C900006F0BFF8000707D5204600F0A1F920681C
:103CA000416901F008014161206806F0B2F80006A0
:103CB00016D5A86920F08000A86101260DE000BF9C
:103CC00006EBC60004EB800090F87F02012803D1C8
:103CD000F1B22046FFF7BAFC761C6068B042EFD81C
:103CE000206806F096F8C00221D501264F4616E05E
:103CF00005EB4610D0F8001906EBC60004EB800077
:103D000090F84020012A09D1002907DA80F83F7095
:103D1000F0B240F080012046FFF798FC761C606806
:103D2000B042E5D82068416901F480114161206802
:103D300006F06FF8800234D501204B4629E000BF21
:103D400005EB4011D1F8001B00EBC00204EB82062A
:103D500096F88022012A1BD1002919DA94F8FC2454
:103D600001F4803102F00102914211D186F87F32D4
:103D7000A96941F08002AA616969090608D4D5F8E9
:103D8000040840F40070C5F8040805E00A30544FF8
:103D9000401C61688142D3D82068416901F4001158
:103DA0004161206806F035F8400007D52046FFF74E
:103DB00032FC2068416901F080414161206806F0D1
:103DC00028F840070AD520684568680702D52046CC
:103DD000FFF738FC2068416829434160BDE8FC9F3B
:103DE000D0F8080504F034BDD0F8080504F032BD61
:103DF0002DE9F0418AB0040005D094F8BD0426688E
:103E0000002520B108E001200AB0BDE8F08184F867
:103E1000BC54204600F05EF8032084F8BD04F06B2B
:103E2000C00500D42561206805F01CFD04F11001D7
:103E3000282288466846FCF71BFC94E80F0005F032
:103E40007BFB0226C8BB0021206806F005F8002095
:103E500001270EE000EBC00104EB810181F83D7009
:103E600001F83C0F08810D71CD600D61401CC0B29E
:103E70008D6161688142EDD8002011E000EBC00146
:103E800004EB810181F87D5281F87C0281F8805237
:103E9000C1F88852C1F88C52401CC0B2C1F894528B
:103EA00061688142EAD8282241466846FCF7E0FB77
:103EB00094E80F0005F01CFC10B184F8BD64A2E783
:103EC00084F8385084F8BD74206805F003FC0020A5
:103ED0009AE700002DE9F04186B0044614216846B7
:103EE000FCF7DFFB2C492068884251D12B4C4FF066
:103EF0000008206840F004002060206800F0040002
:103F00000590206840F001002060206800F001006A
:103F10000590206840F0020020602068022500F033
:103F2000020005900D208DE8210103260A2769462D
:103F30001B48CDE90367FEF7B5FE28208DE8210177
:103F400069461848CDE90367FEF7ACFE43F6234007
:103F50008DE8210169461448CDE90367FEF7A2FE0A
:103F6000206840F000502060206800F0005005906C
:103F7000206840F0804020602068002200F08040EF
:103F8000059001214D20FFF7EDFA4D20FFF7DCFAF7
:103F900006B0BDE8F0810000000004403038024067
:103FA00000080240000002400004024070B50446D0
:103FB000C068012570B1022801D0FEF78DFB2946AB
:103FC000D4F8080504F09CFCD4F80805BDE870405E
:103FD00004F057BC0025F2E7D0F8080504F07ABCDD
:103FE000D0F8080504F080BC10B5044690F8BC0475
:103FF00001280BD0012084F8BC0484F83810206814
:1040000005F058FF002084F8BC0410BD022010BD4C
:104010002DE9F04100F2C441D0F80845054604F20C
:10402000AA200F46064605F04DF894F8AA12002083
:10403000C90603D13146204604F056FD94F8AA1271
:1040400001F01F01012903D13146204604F090FD03
:10405000002806D13946D5F80805BDE8F04104F03E
:104060005BBCBDE8F08110B50446006894F8BC1450
:10407000012906D0012184F8BC14A16A012902D0CB
:1040800008E0022010BDA169012903D0816B41F431
:1040900080318163206805F03EFE206805F00CFB4E
:1040A000002084F8BC0410BD10B50446D0F8080503
:1040B00004F074FC2068D0F8001E41F00101C0F843
:1040C000001E206A002804D00248016841F0060161
:1040D000016010BD10ED00E001460020012907D16C
:1040E0001049096811F4000103D0012900D10E48DC
:1040F00070470C48001F01680068490200F03F004B
:1041000001D50A4900E00A49064AB1FBF0F07C32C9
:104110001168C1F3881141431068C0F30270B1FB0C
:10412000F0F07047083802400080BB0000127A00AF
:104130000024F4002DE9F843054600684FF001091A
:10414000C1074FF0000601D1400727D5DFF80C81E9
:10415000C8F86860FEF7B0FE0746414C05E000BFB6
:10416000FEF7AAFEC01B022857D820680001F7D42A
:1041700068688101287A41EA007039498431086011
:10418000C8F86890FEF798FE074604E0FEF794FE34
:10419000C01B022841D820680001F7D52878800785
:1041A00052D52F484030016841F0805101600068CD
:1041B0002C4C00F080500090206840F4807020600B
:1041C000FEF77AFE074604E0FEF776FEC01B0228E3
:1041D00023D82068C005F7D5214C7034206810F42E
:1041E000407020D0A98901F4407181421BD0206821
:1041F0001D4920F44070C1F800900E6020602068D6
:10420000C00710D0FEF758FE064641F2883707E097
:10421000FEF752FE801BB84202D90320BDE8F883A6
:1042200020688007F4D5E9680D48C1F30122083001
:10423000032A0BD0016821F4F81101602068A989D4
:10424000C1F30B01084320600020E7E70268074B39
:1042500022F4F81219400A430260EFE700004742D7
:104260000038024000700040400E4742FFFCFF0F44
:104270002DE9F0470E46050065D0DFF81481D8F827
:104280000000F7B200F00700B04207D288F80070D3
:10429000D8F8000000F00700B04254D128683D4C27
:1042A000810712D5400703D5206840F4E050206014
:1042B0002878000703D5206840F46040206020681B
:1042C000A96820F0F000084320602878C0072DD0AE
:1042D000304968680839012812D0022813D0032811
:1042E00011D00968890700292DDA216821F003011E
:1042F00001432160FEF7E0FD814641F2883A0EE07D
:1043000009688903EFE709688901ECE7FEF7D4FD46
:10431000A0EB0901514502D90320BDE8F0872068D0
:10432000696800F00C00B0EB810FEFD1D8F80010F5
:10433000404601F00701B14207D90770006800F05C
:104340000700B04201D00120E7E72878400705D5F3
:104350002068E96820F4E0500843206028780007CE
:1043600006D52068296920F4604040EAC100206039
:1043700000F03EF82168084AC1F30311515CC840BF
:104380000649086006480068FFF7A6F80020C4E761
:10439000003C0240083802406FC600088C00002034
:1043A0008400002001480068704700008C00002055
:1043B0000448054900680968044AC1F38221515C38
:1043C000C84070478C000020083802407FC60008B3
:1043D0000448054900680968044AC1F34231515C48
:1043E000C84070478C000020083802407FC6000893
:1043F000154810B5006810F00C02144813D0411095
:10440000042A0FD0082A0ED10F4C241F22682368DB
:1044100002F03F025B0207D52068C0F38810A0FBC2
:10442000010106E0084610BD2168C1F38811A1FB17
:1044300000010023FBF7C4FE2168C1F30141491CC0
:104440004900B0FBF1F010BD083802400024F40030
:104450002DE9F84F04006ED02078DFF84C93C007A8
:10446000A9F104054AD009F104000168C1F38101F2
:10447000012908D00068C0F3810002280AD1D9F8C8
:104480000000400206D52868800337D56068002800
:10449000E1D033E06068B0F5803F10D0B0F5A02FD8
:1044A000286810D020F480302860286820F480200C
:1044B00028606068A8B1FEF7FFFC06460DE028689A
:1044C00040F48030F4E740F480202860F7E700BF34
:1044D000FEF7F2FC801B642873D828688003F7D5A8
:1044E0000CE0FEF7E9FC064605E000BFFEF7E4FC41
:1044F000801B6428F0D828688003F7D42078DFF880
:10450000AC8280074FF0000A3ED5A748001D016825
:1045100011F00C0F08D00068C0F3810002280BD105
:10452000D9F80000400207D42868800716D5E06853
:10453000012800D112E033E1E068B8B10120C8F8E9
:104540000000FEF7B9FC064605E000BFFEF7B4FC2C
:10455000801B0228C0D828688007F7D52868216901
:1045600020F0F80040EAC10028600DE0C8F800A083
:10457000FEF7A2FC064604E0FEF79EFC801B022824
:104580001FD828688007F7D42078000722D5864FE7
:1045900087486169703771B101210160FEF78CFCB9
:1045A000064604E0FEF788FC801B022809D838681C
:1045B0008007F7D50EE0C0F800A0FEF77DFC0646A8
:1045C00005E082E0FEF778FC801B02287DD8386881
:1045D0008007F7D42078400768D5DFF8CCB10027F2
:1045E0000BF13C0BDBF80000C0000BD4DBF8001033
:1045F00041F08051CBF80010DBF80000012700F0FB
:10460000805000906B4E3068C00510D4306840F484
:1046100080703060FEF750FC009005E0FEF74CFC27
:104620000099401A022850D83068C005F6D55E4E71
:10463000A0686C3601280FD00528306810D020F013
:1046400001003060306820F004003060A068B8B12C
:10465000FEF732FC00900FE0306840F00100F4E714
:1046600040F004003060F7E7FEF726FC0099411A9D
:1046700041F28830814266D830688007F4D50EE078
:10468000FEF71AFC009007E0FEF716FC0099411AAD
:1046900041F28830814256D830688007F4D42FB177
:1046A000DBF8001021F08051CBF80010A069C8B3EE
:1046B0003D49091D0968C1F3810102294AD0022838
:1046C000504607D0C8F8600000E03CE0FEF7F4FB7D
:1046D00004463BE04746C8F86000FEF7EDFB06469F
:1046E00005E000BFFEF7E8FB801B02282BD82868F6
:1046F0008001F7D4D4E907010843A16A2E4A49088A
:1047000002EB0141626A41EA8211084394F82C10DD
:1047100040EA0161C9F8001001203866FEF7CCFBC1
:10472000044606E03EE000BFFEF7C6FB001B022881
:1047300009D828688001F7D534E000BFFEF7BCFB3C
:10474000001B022802D90320BDE8F88F28688001E9
:10475000F4D427E00128F7D0D9F80000E26900F48A
:10476000800191421CD1226A00F03F01914217D191
:1047700047F6C071626A0140B1EB821F10D1A26A94
:104780004FF0FF3300F4403103EB5202B1EB024F24
:1047900006D194F82C1000F07060B0EB016F01D0DE
:1047A0000120D1E70020CFE7043802400000474253
:1047B000800E4742007000400000FFFF70B504000B
:1047C00003D06079002510B105E0012070BD25718E
:1047D000204600F00DF8022060712068016841F069
:1047E0000401016001206071A560002070BD00001F
:1047F00008B500680649884208D10648016841F0BA
:1048000040010160006800F04000009008BD000019
:104810000008065034380240704770B5040009D0D3
:10482000606A002540B125616561A56294F8510078
:1048300040B10CE0012070BD6068B0F5827FF4D01B
:10484000E561F2E784F85050204600F045F8022078
:1048500084F851002068016821F040010160A088BF
:10486000218900F4827001F404410843A18901F414
:1048700000610843217C01F002010843217D01F021
:1048800001010843218B01F400710843217F01F0ED
:104890003801084394F8201001F080010843218D6D
:1048A00001F40051084321680860A069042101EA6D
:1048B000104094F8241001F010010843216848606A
:1048C0002068C16921F40061C1616565012084F837
:1048D0005100002070BD00002DE9F04186B0064671
:1048E00014216846FBF7DDFE25493068884244D133
:1048F00024480025016841F4805101600068214985
:1049000000F4805014390590086840F001000860F8
:10491000086800F001000590086840F00200086097
:104920000868022400F002000590802003274FF061
:1049300005088DE8B10169461348FEF7B3F9082070
:104940008DE8B10169461148FEF7ACF9114C1048E9
:104950002060780660604020C4E902050001C4E9D7
:104960000405A561E561256220466562FEF7E6F86B
:1049700008B1FDF7B1FEB464A66306B0BDE8F081EE
:104980000030014044380240000002400004024070
:1049900058640240904F00202DE9F84F044690F8EB
:1049A000500000271D461646894601280DD04FF0BD
:1049B000010B84F850B0FEF77FFA804694F851005E
:1049C000BA46012804D0022793E00220BDE8F88F00
:1049D000B9F1000F73D0002E71D0032084F851007C
:1049E000C4F854A0C4F83090A686E686C4F838A06F
:1049F000A4F83CA0A4F83EA0C4F844A0C4F840A089
:104A0000A068B0F5004F09D12068016821F040018D
:104A100001602068016841F48041016020680168FC
:104A2000490603D4016841F040010160E068B0F537
:104A3000006F606803D030B3012E24D041E008B18C
:104A4000012E1CD1206B21680088C86006E0206818
:104A50008168890709D5216B0988C160206B801C9A
:104A60002063E08E401EE08609E0FEF725FAA0EB09
:104A70000800A84202D3681C01D031E07DB3E08E6B
:104A80000028E4D120E0206B21680078087306E05C
:104A900020688168890709D5216B09780173206B2B
:104AA000401C2063E08E401EE0860AE0FEF704FA18
:104AB000A0EB0800A84203D3681C02D010E017E066
:104AC0006DB1E08E0028E3D142462946204603F02E
:104AD00013F908B120206065A06818B106E0FFE76F
:104AE000032706E02068C16880680090606D00B10F
:104AF000012784F851B084F850A0384666E70000DA
:104B00002DE9F041044690F850000026012809D014
:104B1000012784F8507094F851000025012804D032
:104B200002264EE00220BDE8F08189B182B1032067
:104B300084F8510065652163A286E286A5636564F9
:104B40002564A587E587A068B0F5004F02D00BE08B
:104B5000012636E02068016821F0400101602068EC
:104B6000016841F480410160A16C18480864A16C9F
:104B70001748C863A16C1748C864A06C0565E38E2C
:104B80002268216B0C32A06CFEF742F838B1606DE0
:104B900040F010006065012684F8517011E0206833
:104BA0000168490603D4016841F0400101602068B2
:104BB000416841F0200141602068416841F00201F4
:104BC000416084F850503046ADE700008B7C00080F
:104BD000957C0008697C00087047704710B5401E3E
:104BE000B0F1807F01D3012010BD4FF0E02460615F
:104BF0000F21601705F022FA0020A0610720206134
:104C0000002010BD7047704770B590F83C20012A15
:104C100032D0012480F83C40022280F83D20036815
:104C20005A689D6822F070060A6832435A60134B36
:104C300002689A4214D0B2F1804F11D0104B9A42C0
:104C40000ED0104B9A420BD00F4B9A4208D00F4B0C
:104C50009A4205D00E4B9A4202D00E4B9A4204D192
:104C6000496825F080031943916080F83D40002198
:104C700080F83C10084670BD022070BD0000014065
:104C80000004004000080040000C00400004014007
:104C9000004001400018004010B5040003D094F813
:104CA0003D0010B107E0012010BD002084F83C0059
:104CB000204600F01FF8022084F83D00211D2068E6
:104CC00003F01CF9012084F8460084F83E0084F8C3
:104CD0003F0084F8400084F8410084F8420084F8E2
:104CE000430084F8440084F8450084F83D00002027
:104CF00010BD000008B5114A01681148914211D158
:104D0000016841F0020101600068002200F0020029
:104D1000009011461D20FEF725FCBDE808401D202F
:104D2000FEF712BC074A914207D1016841F08001A9
:104D30000160006800F08000009008BD00040040A1
:104D400040380240001C004090F83D10012901D07D
:104D500001207047022180F83D100168CA6842F0C6
:104D60000102CA6000681149884214D0B0F1804F36
:104D700011D00F4988420ED00E4988420BD00E49FF
:104D8000884208D00D49884205D00D49884202D09A
:104D90000C49884204D1816801F00701062903D03B
:104DA000016841F0010101600020704700000140EE
:104DB0000004004000080040000C004000040140D6
:104DC000004001400018004070B5044690F83C00D7
:104DD0000025012817D0012684F83C60022084F8C1
:104DE0003D002068826822F0770222F47F428260D0
:104DF0000868502838D00DDC20284FD005DC90B34F
:104E0000102811D14AE0022070BD302846D0402839
:104E10000AD13BE060282FD070280DD0B0F5805F1C
:104E200003D0B0F5005F12D0012584F83D6000206A
:104E300084F83C00284670BDCB68D1E90121206888
:104E400003F0CDF82068816841F0770109E0CB6874
:104E5000D1E90121206803F0C2F82068816841F49B
:104E600080418160E1E719E0CA684968206803F081
:104E70008BF95021206806E0CA684968206803F071
:104E800094F96021206803F0B4F8CEE7CA68496855
:104E9000206803F079F940212068F4E72268014690
:104EA0001046F0E7704770B50446006801694FF09E
:104EB0000005C943890715D4C168C943890711D4BE
:104EC000E91E016101202077206880698007204663
:104ED00002D0FFF7E7FF04E000F0C2F8204600F040
:104EE00054F9257720680169C943490717D4C16877
:104EF000C943490713D46FF00401016102202077F0
:104F00002068806910F4407F204602D0FFF7CAFF76
:104F100004E000F0A5F8204600F037F92577206876
:104F20000169C943090716D4C168C943090712D4E6
:104F30006FF008010161042020772068C0698007B4
:104F4000204602D0FFF7AEFF04E000F089F82046CB
:104F500000F01BF9257720680169C943C90617D4F9
:104F6000C168C943C90613D46FF01001016108205C
:104F700020772068C06910F4407F204602D0FFF7F8
:104F800091FF04E000F06CF8204600F0FEF8257771
:104F900020680169C943C90708D1C168C943C90765
:104FA00004D1891E0161204600F092F92068016950
:104FB000C943090609D4C168C943090605D46FF07D
:104FC000800101612046FFF71DFE20680169C94389
:104FD000490609D4C168C943490605D46FF04001A8
:104FE0000161204600F086F920680169C9438906FD
:104FF0000BD4C168C943890607D46FF02001016151
:105000002046BDE87040FFF7FEBD70BD10B586B00C
:10501000044614216846FBF744FB0E492068884289
:1050200015D10D480021026842F0010202600068BB
:1050300000F001000590402000900220CDE9010120
:105040000920CDE9031069460448FDF72BFE06B0A0
:1050500010BD0000001C004030380240000002403B
:10506000704770B5044690F83C0000260D460128B4
:105070000FD0012084F83C006AB1042A1DD0082A10
:105080002FD00C2A3FD00126002084F83C00304667
:1050900070BD022070BD206802F0B4FF20688169F5
:1050A00041F0080181612068816921F0040181617A
:1050B000206881692A69114311E0206802F0D2FF5B
:1050C0002068816941F4006181612068816921F46F
:1050D00080618161206881692A6941EA02218161D8
:1050E000D2E7206802F0F4FF2068C16941F00801AE
:1050F000C1612068C16921F00401C1612068C169F2
:105100002A69114311E0206803F016F82068C1698C
:1051100041F40061C1612068C16921F48061C1610D
:105120002068C1692A6941EA0221C161ACE710B572
:10513000040003D094F83D0010B107E0012010BD39
:10514000002084F83C00204600F01EF8022084F87D
:105150003D00211D206802F0D1FE012084F84600A8
:1051600084F83E0084F83F0084F8400084F8410051
:1051700084F8420084F8430084F8440084F8450031
:1051800084F83D00002010BD7047704710B50446FC
:10519000022249B104290ED0082913D094F8410005
:1051A000012816D0012010BD94F83E000128F9D145
:1051B00084F83E200FE094F83F000128F2D184F8F3
:1051C0003F2008E094F840000128EBD184F840200B
:1051D00001E084F841200122206802F0F3FE164924
:1051E0002068164A884201D0904203D1436C43F4B0
:1051F000004343642068884213D0B0F1804F10D040
:105200000F4988420DD00F4988420AD00E49884282
:1052100007D0904205D00D49884202D00C498842FF
:1052200004D1816801F00701062903D0016841F02B
:1052300001010160002010BD000001400004014098
:105240000004004000080040000C00400040014005
:105250000018004030B504460D460068002202F0F8
:10526000B1FE194B41F2111120688A10984202D008
:10527000164B984209D1036A0B4206D1036A1342C6
:1052800003D1436C23F4004343642068036A0B4258
:1052900006D1016A114203D1016821F001010160C8
:1052A00001203DB1042D08D0082D09D084F841001B
:1052B000002030BD84F83E00FAE784F83F00F7E7AD
:1052C00084F84000F4E700000000014000040140C1
:1052D00010B5074900680968884207D1FCF7E2FF6A
:1052E000FDF716F8BDE81040FDF774B910BD0000D9
:1052F000F04F0020704770B5040004D094F83D00D2
:10530000002510B106E0012070BD84F83C50204615
:1053100000F022F8242084F83D002068C16821F4C0
:105320000051C160204602F053FF2068016921F45A
:10533000904101612068416921F02A0141612068A2
:10534000C16841F40051C1602564202084F83D000B
:1053500084F83E00002070BD10B586B004461421CC
:105360006846FBF79EF913492068884220D112480D
:105370000021026842F010020260006800F0100094
:1053800005900D481438026842F00202026000687D
:1053900000F002000590C02000900220CDE901013C
:1053A000032003900720049069460448FDF77AFC27
:1053B00006B010BD00100140443802400004024015
:1053C0002DE9F843044690F83D001F4616460D4669
:1053D00020284CD1C5B1BEB194F83C00012846D07C
:1053E000012084F83C004FF00008C4F840802120E0
:1053F00084F83D00FDF760FDA6848146E684A06840
:10540000B0F5805F03D004E00120BDE8F883206997
:1054100028B12E465FF0000584F83C800EE000269F
:10542000FAE78021204602F059FFA0B9AEB116F884
:10543000010B21684860E08C401EE084E08C4B4604
:105440004FF0000200970028EBD14FF040012046BA
:1054500002F044FF30B10320D7E735F8020BC0F368
:105460000800E6E7202084F83D000020CDE7022078
:10547000CBE7FEE70021C1764176012181767047B6
:1054800070B515490268154B4FF040248A4201D18E
:105490001A4600E02246D568C26A961CC66215808C
:1054A000428E521E4286428E002A14D102688A42DF
:1054B00001D1194600E02146496821F0600100D081
:1054C00023465960418D002905D14FF0010180F834
:1054D0004110FDF7F1FD70BD003800400034004080
:1054E00070B5416A144B8A1C426205680988134AE8
:1054F0004FF040249D4201D1154600E02546E96069
:10550000418D491E4185418D002914D10168994280
:1055100001D1114600E02146496821F0A00100D0E8
:1055200022465160418E002905D14FF0010180F8DB
:105530004110FDF7C1FD70BD00380040003400404F
:1055400010B5806B01684A6822F003024A600021AE
:1055500041854186012180F84110416C41F00801EC
:105560004164FDF7AAFD10BD10B50146806BC96905
:1055700049B901684A6822F001024A600021418667
:10558000012180F84110FDF739FF10BD10B5806B87
:10559000FDF77EFF10BD7CB5016804468868009069
:1055A00094F841000125042834D10098C00718D090
:1055B0004868C043400614D4C9682046E26A118096
:1055C000E16A891CE162618E491E6186618E41B982
:1055D00001684A6822F060024A6080F84150FDF795
:1055E0000DFF0098400615D520684168C94389061B
:1055F00010D4416821F0600141602068C168806872
:10560000019084F84150606C40F0020060642046D4
:10561000FDF753FD94F84100032834D1009880072A
:1056200019D521684868C043000614D4626A204630
:105630001288CA60616A891C6162618D491E618538
:10564000618D41B901684A6822F0A0024A6080F881
:105650004150FDF71EFF0098000714D520684168EF
:10566000C94389060FD4416821F0A0014160206838
:105670008068009084F84150606C40F004006064E1
:105680002046FDF71AFD7CBD10B50D4B0024C3F874
:1056900080420C48016821F00C010160016841F072
:1056A00004010160C3F88442022003F5207306F070
:1056B00059FD01201860022006F054FD1C6010BD49
:1056C00000004042000002400E4810B5016886B05C
:1056D00041F0010101600068012400F00100059023
:1056E0000320CDE900040220CDE9024069460648C6
:1056F000FDF7D8FA0548C0F88042C0F8844206B0E9
:1057000010BD00003038024000000240000040425E
:1057100030B50D4B0024C3F880420C48016821F0DD
:105720000C010160016841F0040101600125C3F82A
:105730008452022003F5207306F014FD1D60022040
:1057400006F010FD1C6030BD000040420000024029
:1057500030B50D46044600F0B1F86006000E00F0CA
:1057600081F800F0EDF8284600F07CF800F0E8F849
:1057700000F0A4F8012000EB4400C0B200F072F881
:1057800000F0DEF8002000F039F8044600F0B6F82A
:10579000204630BDF0B51D4614460F46064600F0C3
:1057A0008DF87006000E00F05DF800F0C9F818B131
:1057B00000F0A4F80120F0BD384600F053F800F0E6
:1057C000BFF800F07BF8012000EB4600C0B200F00B
:1057D00049F800F0B5F809E0012C0DD05FF00100A8
:1057E00000F00CF8641E05F8010BE4B2002CF3D1B4
:1057F00000F084F80020F0BD0020F1E72DE9F04131
:10580000804616480024016821F00C0101600168FF
:105810000160134D234626465FF00107C5F88062FC
:10582000022006F09FFCC5F880726006040ED5F8D1
:10583000040208B1641CE4B2012006F093FC5B1C76
:10584000DBB2082BEAD3B8F1000F04D0FFF71CFF3E
:105850002046BDE8F081FFF75BFFF9E7000002405A
:1058600000004042F0B505461248016821F00C01E5
:105870000160016841F0040101600F4B0026C3F88C
:10588000806234460127E809C3F884026806050EE1
:10589000022006F067FCC3F88072022006F062FC6A
:1058A000C3F88062022006F05DFC641CE4B2082CA0
:1058B000E9D3F0BD00000240000040420D4810B5A1
:1058C000016821F00C010160016841F004010160F0
:1058D000094B0120C3F88402C3F88002042003F5B9
:1058E000207306F03FFC00245C60042006F03AFCC4
:1058F0001C6010BD00000240000040420E4800B590
:10590000016821F00C010160016841F004010160AF
:105910000A4B0020C3F88002C3F88402042003F578
:10592000207306F01FFC01201860586004205DF809
:1059300004EB06F017BC00000000024000004042EB
:1059400030B512480023016821F00C0101600168A4
:1059500001600F4C0125C4F88452284606F002FC71
:10596000C4F88052012006F0FDFB07E05B1CDBB2AF
:10597000FA2B03D9FFF7C2FF012030BDD4F804028F
:105980000028F3D1C4F8800230BD000000000240BE
:105990000000404270B515460E460446FFF78EFFE4
:1059A0006006000EFFF75EFFFFF7CAFF50B93046F2
:1059B000FFF758FFFFF7C4FF2846FFF753FFFFF735
:1059C000BFFF18B1FFF79AFF012070BDFFF796FFE8
:1059D000002070BDF0B500230A24302537261F466D
:1059E00011E000BFB4EB107F02D905EB107C01E0A1
:1059F00006EB107C01F813C001EB430C00015B1CAB
:105A00008CF80170DBB29342ECD3F0BD10B5FFF718
:105A10005BFE80226B216820FFF7BCFF6420FDF74E
:105A20002FF900226B216820FFF7B4FF032000F05C
:105A300037F8002000F02EF8322000F050F8002255
:105A400038216820FFF7A6FF00226A216820FFF7AF
:105A5000A1FF002223216820FFF79CFF802237212D
:105A60006820FFF797FF75216820FFF771FE68280F
:105A700001D0012010BD01226B216820FFF78AFFB1
:105A800000226C216820FFF785FF642000F027F8D2
:105A9000002010BDC006020E1C216820FFF77ABF4F
:105AA000C006020E1B216820FFF774BFBC2801D37B
:105AB000012210E0622801D302220CE02A2801D33F
:105AC000032208E0142801D3042204E00A2801D3A9
:105AD000052200E006221A216820FFF75BBF10B5FF
