:020000040801F1
:1000000040F701209D010108D5470108F74201088A
:1000100051460108AF0D01083D85010800000000B0
:10002000000000000000000000000000396301082B
:10003000A50E010800000000816101087D63010830
:10004000B7010108B7010108B7010108B7010108AC
:10005000B7010108B7010108B7010108B70101089C
:10006000B7010108B7010108B7010108B70101088C
:10007000B7010108B7010108B7010108B70101087C
:10008000B7010108B7010108B7010108B70101086C
:10009000B7010108B7010108B7010108B70101085C
:1000A000B7010108B7010108B7010108B70101084C
:1000B000B70101082D640108B7010108B701010863
:1000C000B7010108B7010108B7010108B70101082C
:1000D000B7010108B7010108B7010108B70101081C
:1000E000B7010108B7010108B7010108B70101080C
:1000F000B7010108B7010108B7010108B7010108FC
:10010000B7010108B7010108B7010108B7010108EB
:10011000B7010108B7010108B7010108B7010108DB
:10012000B7010108B7010108B7010108B10D0108C5
:10013000B7010108B7010108B7010108B7010108BB
:10014000B7010108B7010108B7010108B7010108AB
:10015000B7010108B7010108B7010108B70101089B
:10016000B7010108B7010108B7010108B70101088B
:10017000B7010108255E0108B70101080000000071
:10018000B7010108B7010108DFF80CD000F0D2FD7B
:100190000048004705A8010840F7012006488047AD
:1001A00006480047FEE7FEE7FEE7FEE7FEE7FEE75C
:1001B000FEE7FEE7FEE7FEE711640108890101089A
:1001C0002DE9F05F0546002092469B46884606468C
:1001D000814640241BE0284641464746224600F01F
:1001E000AAFC53465A46C01A914110D311461846EC
:1001F000224600F091FC2D1A67EB01084F4622467B
:100200000120002100F088FC17EB00094E41201E60
:10021000A4F10104DFDC484631462A464346BDE8E6
:10022000F09F0000014610B509683C22B1FBF2F3D3
:1002300002FB1313B1FBF2F11D480360B1FBF2F3B3
:1002400002FB1313B1FBF2F118224360B1FBF2F38E
:1002500002FB1313B1FBF2F183600A1D0723B2FB0B
:10026000F3F403FB142282618A0040F2B55102F6D6
:100270006C32B2FBF1F344334361B2FBF1F301FBA7
:1002800013218908C1613B2903D3027D920700D065
:10029000491C0022074C13460261E25C8A4203D8E3
:1002A000891A5B1C0361F8E7491CC16010BD00009E
:1002B00014270120D820020870B5054601B907218E
:1002C000541A241DB4F5B67F09DD286800F036F90C
:1002D000A04204DC2868401C2860012070BD002C6E
:1002E00005DA2868401E286000F028F90444072039
:1002F00094FBF0F0401C70BD2DE9F04F89B01D4615
:100300008A468046002401AF4FF0070B0192079008
:1003100057F8241011F8010B47F8241048B125288C
:100320000DD0BAF1010F06D908F8010BAAF1010AA4
:100330005CE0641E5AE0002009B0BDE8F08F11F8BF
:10034000010B47F824100028F3D002264FF03009A3
:100350005A284BD020DC4D2873D014DC442871D0AF
:1003600008DC2528DDD041282AD042282ED0432879
:100370003CD130E0462847D0472857D0482862D0A3
:10038000492833D161E0523808282FD2DFE800F045
:10039000787AA6838A97A6A86138192826D2DFE83A
:1003A00000F00D1318202E253513255C25256064DB
:1003B0002566256D257375258B9BA0006AA000E03E
:1003C00070A0A9690091B4E07DA000E08848296987
:1003D000F8E788A007E06969642091FBF0F013302A
:1003E00082E0E86880E0641C47F82400002C8FDA83
:1003F000002088F800000799A8EB01009CE7E86856
:100400004FF02009009070E07EA0ECE7686900F2F0
:100410006C700090D5E906126846FFF74DFF009911
:10042000642091FBF0F200FB12105DE06869042685
:1004300000F26C700090D5E906126846FFF73CFFA9
:1004400053E010E048E0A8684EE0A8680C2117309F
:1004500090FBF1F201FB120001E0E8690326401C69
:1004600042E02869FBE768683EE069A0BBE7A8684E
:100470000C2801DA67A0B6E767A0B4E767A0B2E787
:1004800069A0B0E728682FE069A0ACE7A869012659
:1004900008BB072028E0D5E90610401AC01D90FBD4
:1004A000FBF021E0686900F26C700090D5E906125B
:1004B0006846FFF701FF17E00126A86914E0A96963
:1004C0005846891D91FBF0F20BFB1211EA69511A93
:1004D000C91D91FBFBF007E056A084E758A082E716
:1004E0000426686900F26C70009000218DF81810E5
:1004F00006A80A2113E0009A92FBF1F301FB1322F4
:10050000303200F8012D009A92FBF1F2009232B9DC
:1005100001E000F8019D321EA6F10106F9DC321E51
:10052000A6F10106E7DC5EE710F8011B0029FBD10C
:1005300000994A1E00920029F6DC54E781070CD18D
:10054000642190FBF1F201FB120151B94FF4C87123
:1005500090FBF1F201FB120018B1002000F26D10C7
:1005600070470120FAE7000053756E004D6F6E0072
:1005700054756500576564005468750046726900DB
:100580005361740053756E646179004D6F6E6461E0
:10059000790054756573646179005765646E65739D
:1005A0006461790054687572736461790046726998
:1005B00064617900536174757264617900000000B0
:1005C0004A616E00466562004D61720041707200C2
:1005D0004D6179004A756E004A756C00417567007F
:1005E000536570004F6374004E6F7600446563007E
:1005F000E42002082561202562202565202554205D
:100600002559000025592D256D2D25640000000079
:100610000A000000414D0000504D000025493A25D8
:100620004D3A25532025700025483A254D000000FD
:1006300009000000256D2F25642F2579000000009A
:1006400025483A254D3A25530000000010B5431ABD
:10065000934209D28318881803E010F8011D03F8AB
:10066000011D521EF9D210BD40EA01039B0703D0C1
:1006700009E008C9121F08C0042AFAD203E011F8E1
:10068000013B00F8013B521EF9D210BDD2B201E08D
:1006900000F8012B491EFBD270470022F6E710B587
:1006A00013460A4604461946FFF7F0FF204610BDE0
:1006B000421C10F8011B0029FBD1801A704710B5AD
:1006C0004843044609F028FA002805D00021002CF0
:1006D00002D0641E0155FAE710BD2DE9FE4F804699
:1006E00081EA0300C00F0C46009021F0004123F086
:1006F0000045B8EB0200A94105D24046214690468C
:100700001C460B46024623F00040104347D0270DFD
:10071000C7F30A00C3F30A510290401A019040281F
:100720006BDAC3F3130040F4801B0098924620B1AB
:100730000023D2EB030A63EB0B0B01985946C0F17F
:100740004002504600F0E8F906460D46504659462C
:10075000019A00F000FA10EB08006141002487EADA
:10076000115284EAE7731A4340D0009A62B3019AA7
:10077000012A4FEA075215DC001B61EB02014FF022
:10078000004202EA0752CDE90042001C41F5801107
:1007900032462B4600F000FA03B0BDE8F08F404629
:1007A0002146F9E7001B61EB0201001C41F58013B3
:1007B00000185B412018A2F5001747EB030140EA3F
:1007C000D570B6196D4111E06D084FEA360645EA5D
:1007D000C0754FEA0752001B61EB0201001C41F596
:1007E000801149084FEA30000019514132462B462A
:1007F00003B0BDE8F04F00F0C0B9009801224000FE
:100800000023D0EB020263EBE073009821464FEA2D
:10081000E074B8EB000061EB0401E9E783F000430A
:100820005BE781F0004158E72DE9FE4F81EA0304C0
:1008300004F0004421F0004100944FF0000B23F03D
:10084000004350EA01045ED052EA03045BD0C3F3D4
:100850000A54C1F30A552C44A4F2F3340194A0FBCA
:100860000254C1F3130141F48011C3F3130343F4A1
:10087000801301FB024400FB034E840A970A44EAFA
:10088000815447EA8357A4FB076802958D0A05FB4C
:1008900007854FEA932C04FB0C542705029D4FEA71
:1008A000065847EA1637B5EB08056EEB070C870EBE
:1008B000920E47EA811742EA8312A7FB0201B6EBC8
:1008C0000B0164EB00042B0D43EA0C335E1844EB80
:1008D0001C50DA465146E7FB0201C5F313044FEA08
:1008E0000B3343EA14534FEA0432019C43EA0603F4
:1008F000A4F10C040294009CCDE900B400F04CF982
:1009000003B0BDE8F08F00200146F9E72DE9F04D76
:1009100081EA030404F0004B21F0004514464FF037
:10092000000A23F0004150EA050220D054EA0102F7
:100930001DD0C5F30A570246C5F31303C1F31300D4
:10094000C1F30A5640F4801543F48013A7EB060860
:10095000101BD64608F2FD3873EB050002D308F1F0
:10096000010801E092185B41B8F1000F03DA0020A2
:100970000146BDE8F08D00204FF480110646844604
:100980000EE0171B73EB050705D3121B63EB050382
:1009900006434CEA010C49084FEA300092185B41CB
:1009A00050EA0107EDD152EA030012D082EA0400B6
:1009B00083EA0501084305D0101BAB4106D2012292
:1009C000002306E000224FF0004302E06FF0010236
:1009D00053101AEB06004CEB085110EB0A0041EBE8
:1009E0000B01BDE8F04D00F0C8B80EB5C10F80EAAC
:1009F000E0700844CA07002140F233438DE80E003E
:100A00000A460B4600F0C8F803B000BD0EB540F230
:100A1000334102910021CDE900110A460B4600F056
:100A2000BBF803B000BD70B5C1F30A5201F0004538
:100A30000024C1F3130140F2FF3341F480119A42C4
:100A400001DA002070BD40F233439A42A2F23342F1
:100A500003DC524200F06FF800E090402C43F1D0EC
:100A6000404270BDC1F30A5210B5C1F3130140F208
:100A7000FF3341F480119A4201DA002010BD40F2A8
:100A800033439A42A2F2334203DC524200F053F85D
:100A900010BD904010BD00F0004230F000400AD080
:100AA000C10D01F56071C0F3160042EA0151C208A0
:100AB00040071143704700200146704730B5041EBF
:100AC00071F1000404DB4FF00044404264EB01018B
:100AD000141E73F1000405DB1C464FF00043524224
:100AE00063EB0403994208BF904230BD30B50B461A
:100AF000014600202022012409E021FA02F59D424E
:100B000005D303FA02F5491B04FA02F52844151E21
:100B1000A2F10102F1DC30BD202A04DB203A00FA08
:100B200002F1002070479140C2F1200320FA03F344
:100B3000194390407047202A04DB203A21FA02F042
:100B40000021704721FA02F3D040C2F12002914007
:100B5000084319467047202A06DBCB17203A41FA92
:100B600002F043EAE07306E041FA02F3D040C2F13A
:100B70002002914008431946704710B5141E73F1C6
:100B8000000408DA401C41F1000192185B411A434D
:100B900001D120F0010010BD2DE9F04D92469B4699
:100BA00011B1B1FA81F202E0B0FA80F2203290463F
:100BB000FFF7B2FF04460F4640EA0A0041EA0B0184
:100BC00053465A46084313D0114653EA010019D040
:100BD000C8F140025046FFF7AEFF05460E465046AC
:100BE00059464246FFF798FF084305D0012004E02C
:100BF00020463946BDE8F08D0020054346EAE07600
:100C00002C4337430A986305E40AA0EB080000224E
:100C1000FD0A44EA47540A3002D500200146E9E7BC
:100C2000010510196941DDE9084500196941BDE870
:100C3000F04DA2E770B521F0004303430CD0C1F39F
:100C40000A550024D5EB040564EB0403D617AD1A4E
:100C5000B34102DB0020014670BD201841EB025178
:100C600070BD2DE9F04D00231A461B1A8A4103DBA3
:100C700000200146BDE8F08DC1F30A52C1F3130113
:100C800041F480154FF0000BD10702D100186D41DF
:100C9000521E0027044640F2FF11384601EB620A5B
:100CA0003E468046024600204FF48011FFF743FF86
:100CB000C2197141BB1846EB0100B4EB030C75EB94
:100CC000000C04D3E41A65EB000517460E46241900
:100CD00008F101006D4180463428E3DDF91946EB47
:100CE0000600091BA84103D24FF0FF32134601E072
:100CF000002213461BEB070046EB0A51BDE8F04DFE
:100D0000FFF73BBFC1F30A52C1F3130140F2FF33B7
:100D100041F480119A4202DA00200146704740F205
:100D200033439A42A2F2334202DC5242FFF703BF3E
:100D3000FFF7F2BE064C074D06E0E06840F0010305
:100D400094E8070098471034AC42F6D3FFF720FA36
:100D5000702202089022020870B58C1810F8015B0E
:100D600015F0070301D110F8013B2A1106D110F844
:100D7000012B03E010F8016B01F8016B5B1EF9D148
:100D80002B0705D40023521E0DD401F8013BFAE7CE
:100D900010F8013BCB1A921C03E013F8015B01F839
:100DA000015B521EF9D5A142D8D3002070BDFEE7E9
:100DB000014801F0E9B80000F0150020016818238F
:100DC000CAB2103AB2FBF3F2054B6FF30901032AE2
:100DD0009B5CC36500D9091D81650846704700000A
:100DE00043AA010810B5014600208B698A6A4FF0BA
:100DF000C07453B1B3F5005F15D072B1012A0CD0A5
:100E0000022A0AD0032A09D104E01AB1012A06D025
:100E1000022A03D1C96AC90100D5012010BDC96ADF
:100E2000A142FAD010BD002AF7D0012AF2D0022A3E
:100E3000F3D0032AF3D010BD30B50468256825F43B
:100E400080252560046863608368402B036803D0B5
:100E500099600068C26030BD9A600068C16030BDB2
:100E600070B50F4D6C6805E0A189A06801F008FB22
:100E700060706468002CF7D1002041F2883100BF17
:100E8000401C8842FBDB6C6807E0A189A06801F088
:100E9000F7FA6178084320706468002CF5D170BDC2
:100EA000C80100207047000003230376002343603D
:100EB00003614361816082810121817004494A6834
:100EC0001AB18A685060886070474860FBE700008C
:100ED000C801002010B50120FFF7C2FF174800230A
:100EE00040F6B832406826E0847801788C4201D917
:100EF000037607E002D24FF0010402E069B14FF03F
:100F000003040476047E54B1012C0AD0022C0AD0CA
:100F1000446994420BD342610BE00224F1E7036180
:100F200007E0436105E004690A34046101E00A3422
:100F30004461817040680028D6D110BDC8010020EE
:100F400070B5244C4FF4FA76002563683FE01846EC
:100F500005F01DF9187E012817D11869B04208D391
:100F6000184603F0C9F9187E01280ED11869B0425D
:100F70000BD2207810B1187F20B108E0184605F098
:100F800000F923E0012018770FE02078F0B1187FF6
:100F9000012802D002280FD018E0187E28B958691D
:100FA000F02802D20220187710E05869F0280DD9F5
:100FB000184605F0E6F808E0187E012806D1186901
:100FC000B04203D2184603F0FFFB1D775B68002B8D
:100FD000BDD170BDC80100200FB4002310B5CC698D
:100FE0009FED250A237081F820304C6A84ED000AB9
:100FF00081ED0A0A81ED0B0A81F830304B634A61BA
:101000009DF814200A71082A1ED2DFE802F01D04A0
:10101000080E0E080819069A81F8302014E0069A86
:10102000CA61127881F820200EE0069A4A62D2ED59
:10103000000AC1ED0B0AD2ED000AC1ED0A0A01E077
:10104000069A8A61079A4A630B60826882B1C26815
:101050005279521C4A71C2681160C1604879C880D7
:1010600081ED020A81ED030A0B8210BC5DF814FBCE
:101070004B718160F1E70000000000000FB4002117
:1010800041618160C16001609DF804200271022A03
:1010900001D1029A4261074AD36C3BB1116D0B7CBE
:1010A0005B1C03740860106504B070470174D06461
:1010B000F9E70000D80100202DE9F041204C01267D
:1010C0004FF48C78002537B22288394628B204F0D4
:1010D0003BF8AD1CF12DF7DB4546B61CAE42F1DD09
:1010E000142001F0C3F804F0C9FA0126A84601252E
:1010F00037B22288394628B204F026F8AD1CF12D0B
:10110000F7DB4546B61CAE42F1DD142001F0AEF827
:1011100004F0B4FA0026A846012537B222883946E1
:1011200028B204F011F8AD1CF12DF7DBB61C4645D2
:10113000F2DD142001F09AF8BDE8F04104F09EBA07
:10114000680200201CB504460079B4F91010072885
:101150007BD2DFE800F00D04283D3D1010004BA2CB
:10116000022004F02DFEB4F910101120626985E010
:101170000220626982E046A2022004F021FEB4F956
:1011800010101120626904F01BFEE06901210223A6
:101190000078CDE90001208A1222401E01B2D3203E
:1011A00000F08EF81CBD3AA2022004F009FEB4F94A
:1011B00010101120626904F003FEE069B4F9101008
:1011C000007810B133A2CD2058E033A2C12055E001
:1011D0002FA2022004F0F4FDB4F91010112062696E
:1011E00004F0EEFD606A2D4990ED000A10EE100A41
:1011F00088420ADAB5EEC00AF1EE10FA05DB0223E6
:101200000422B4F91010BC202FE010EE100A24497B
:1012100088420ADA10EE100A2249884205D20223D7
:101220000422B4F91010B0201FE010EE100A1E497D
:1012300088420BDA10EE100A1C49884206D20223BB
:101240000422B4F91010A4200FE01CE010EE100AE4
:10125000174988420EDA10EE100A1649884209D260
:10126000B4F9101002230422982002B0BDE8104007
:1012700004F067BDB4F910100FA2A92002B0BDE8B8
:10128000104004F09DBD02A26AE700002B000000A0
:101290002D0000006F6E00006F66660000002041A8
:1012A0000000C842000020C100007A440000C8C20B
:1012B00000401C4600007AC42A2A2E2A2A00000078
:1012C0002DE9FC47114FDDE90AA681463888CDE9B2
:1012D00000061C46154688461346484603F0C2FFE2
:1012E000BAF1000F0FD03888CDE90006604205EB57
:1012F000400083B282B208EB040001B209EB0400A3
:1013000000B203F04BFFBDE8FC870000660200203E
:101310002DE9F0430E4646219146B1FBF9F82DED3B
:10132000028B0746007983B000287CD1794C94ED7C
:10133000170ABDEEC00A10EE100A98B9B868B2EEEE
:10134000088A0179406979B1FFF7B2F9401C00EED3
:10135000100AF8EE400AB2EE000A00BF00EE880A5A
:1013600084ED170ABD6840E0FFF7A2F900EE100A0D
:10137000F8EE400AB1EE040AF0E76879B04233D1E2
:1013800028790028686921D0FFF792F900EB400026
:101390005FF0140101EB80002086E8884FF6FF71B2
:1013A00000EB800001EA80006086E07986421ED072
:1013B000301A00D54042F9684979884217DAB5F900
:1013C0001000002808DAB2EE0E0A0AE0FFF770F902
:1013D00000EB40000521DDE7B0F58C7F07DB9FEDDA
:1013E0004E0A84ED180A02E02D68002DC5D1E08D6B
:1013F00010B1E1798E4223D0218ED4ED170A00EE90
:10140000101AB8EE400A70EE600A00EE108AB8EECC
:10141000400A80EE801A84ED151A618E00EE101AD3
:10142000B8EE400A00E06FE0D4ED180A70EE600AF2
:1014300000EE108AB8EE400A80EE801A84ED161A8B
:1014400046280CD3208E00EE100AB8EE400A84ED38
:10145000170A608E00EE100AB8EE400A0DE094ED17
:10146000170AD4ED150A30EE200A84ED170A94ED20
:10147000180AD4ED160A30EE200A022084ED180A6C
:1014800004F058F9254F012514233888CDE90005CB
:1014900094ED170ABDEEC00A10EE100A94ED180A7A
:1014A00082B2BDEEC00A10EE100A01B2002003F0B5
:1014B00075FE012004F03EF93888CDE9000594ED71
:1014C000180A14230422BDEEC00A10EE100A01B25D
:1014D000EC2003F063FEE67194ED170A218EBDEE59
:1014E000C00A10EE100A88420AD194ED180A618EE3
:1014F000BDEEC00A10EE100A884201D1002002E0C1
:10150000E18D01EB0900E08503B0BDEC028BBDE885
:10151000F0830000D801002000007543660200201F
:101520002DE9FC418046FFF7C3F800EB40000521A0
:1015300001EB800085B2C5F1F00000EBD0704408EB
:10154000FFF7BAFD124F012680213888CDE9000649
:10155000A01C00B214232A4603F084FE3888CDE98B
:101560000006A01E842100B214232A4603F016FEB2
:10157000022004F0DFF8862120B2424604F020FC6D
:10158000012004F0D7F8BDE8FC4104F077B8000072
:1015900066020020F8B50546012004F0CBF8534C54
:1015A0002A20A0846869FFF783F8401C0C280CD916
:1015B0006869FFF77DF800EB4000132101EB800024
:1015C00080B26084A02802D303E097206084A0202A
:1015D000608480B2C0F1F00101EBD1714F10E7835C
:1015E000A18C434EC1F58C7202EBD2724FEA620CB1
:1015F000A4F820C0A0F15202E2843288891C801C29
:1016000000928BB282B2ACF1010C7F1E0FFA8CF10A
:1016100038B203F0F6FC374800880090A38C628C47
:10162000B4F92010B4F91E0003F0F6F8208CE1782C
:101630006A69084401B2E08BC01C00B204F0C0FB30
:101640006869FFF735F8E18B00EB400001EB8000A3
:10165000218CE278C01C114400B209B226A204F029
:10166000AFFB30880090208CE178102308441430C0
:1016700001B2E08BE28CC01C00B203F0C2FC686ACD
:101680009FED1E1A0C2390ED000AE08CC0EE010ABB
:1016900000EE100AB8EE401AB1EE000A10EE810A10
:1016A000BCEEC00A10EE100A82B230880090208C86
:1016B000E1780844163001B2E08B401D00B203F01F
:1016C000ABF8686AE178628C90ED000A208C022306
:1016D0000844143001B2E08B10444C3800B20322AD
:1016E00004F02FFBBDE8F84003F0C8BFD80100208C
:1016F00066020020680200203A0000000000C84294
:101700002DE9F047824603F0ABFF012004F012F808
:101710006B4DDFF8B0812878EC6C18F8000000E021
:101720002468217C8142FBD16878A8B1A468A87D97
:101730000EE0617981420AD12079042802D1204645
:10174000FFF728FF2046616BBDE8F0470847246893
:10175000002CEED1BDE8F08703F03EF82079DFF8E9
:101760006491002609F10A09022803D0012827D034
:10177000A7684EE06169204688476E772E77AE767F
:101780006E762E762878C8B1E97E91B1EE7608F8AB
:10179000006009F80060401EC0B2287019F800000F
:1017A000A87500F061FA01235246A97D2046FFF793
:1017B000AFFD4548007800287DD1CBE7EE767AE092
:1017C0006E772E77AE766E762E7628780028F5D056
:1017D000E97E00296FD0EE7608F8006009F8006015
:1017E000401EC0B2287019F80000A87500F03CFA3D
:1017F00001235246A97D2046FFF78AFD5BE0534650
:10180000AA7D3946204600F063F83846FFF79AFC77
:101810003F68002FF3D100235246A97D2046FFF7F1
:1018200077FDE0684079E875297E41B1A97D814264
:1018300002D2491CA97502E0A97801B1AE75697E92
:1018400039B1A97D11B1491EA97502E0A97801B18C
:10185000A875A87E70B1A87DA16809E04A79824286
:1018600005D1174A2046163200F000F902E0096857
:101870000029F3D16E772E77AE766E762E762878A5
:1018800000289BD0E97EB1B1EE7608F8006009F837
:101890000060401EC0B2287019F80000A8759FEDC6
:1018A0000B0AA06803E0068280ED020A00680028A7
:1018B000F9D100F0D9F9BDE8F04703F0DFBE000030
:1018C000D8010020301E00204C0200200000000043
:1018D000F0B54624B4FBF3F7364C8568A679E6B933
:1018E000284617E090F805C0944506D1B0F906E007
:1018F000BEF1000F01DAC08808E0944509D1B0F9C3
:1019000006C0BCF10D0F04DDC0880D3860850126CE
:1019100002E000680028E5D1A671B4F92A0003E0CE
:10192000EE88361AEE802D68002DF9D16585A571F7
:10193000C888267900EB800006EB800000B2A08505
:10194000268D1EB194F805C0624513D0B1F910C0C0
:1019500000EE10CAF8EEC00A00EE100AB8EEC00A97
:1019600070EE600A00EE107AB8EE400A80EE801A3F
:1019700081ED031A462E04D300EE100AB8EEC00A19
:1019800005E091ED020AD1ED030A30EE200A81ED67
:10199000020ABDEEC00A10EE107A3FB20F826271E9
:1019A0000968002902D1874201D12585F0BDF018D0
:1019B0002085F0BDD801002038B50446204803F04A
:1019C000B9FC204D4FF4807229461F48FFF76CFA8E
:1019D0001D486A1529462030FFF766FA1A484FF469
:1019E00000421A494030FFF75FFA2A15184D164891
:1019F00029466030FFF758FA1348EA142946803028
:101A0000FFF752FA03F02CFE02F0E6FE34B1114863
:101A100038233A22702100905B2005E00E480090A8
:101A20001C231D227E21692003F0F6FE0BA240F24A
:101A30000711472004F0C4F9BDE8384003F01EBE8A
:101A4000880D002000040240441E002000000240D7
:101A500000080240F6B101089EAB010845617379A8
:101A6000554928457242575F73290000F0B40E793A
:101A70000125264C0023082E29D2DFE806F0280491
:101A8000383D3D2A38412578092D20D0204F167841
:101A90009FED200A7E556D1CEDB22570A7F10A045A
:101AA00091F8301061551370806807E0B0F90610A6
:101AB000002902DB038280ED020A00680028F5D1CC
:101AC000F0BC00F0D1B8012100E000210170F0BCB1
:101AD0007047806809E00279052A05D142794C797E
:101AE000A24201D0C269137000680028F3D1C8690E
:101AF00001780029E9D1E6E76570F0BCFFF7DCBAB0
:101B000065708869F0BCFFF70BBD0000D8010020AC
:101B10003A1E00200000000010B52A4C207E617E95
:101B20000843A17E0843E17E0843217F084348D152
:101B3000607F002845D12448437E20302376407EB4
:101B4000607621484030417EA176807EE0761E4856
:101B50004038407E20771C482038407E60772BB18B
:101B60004FF4926219491AA006F0EAFC637E2BB189
:101B700040F2924215491DA006F0E2FCA37E2BB173
:101B800040F29442114920A006F0DAFCE37E2BB12A
:101B900040F296420D4922A006F0D2FC237F2BB1E1
:101BA0004FF49362094924A006F0CAFC637F002B1E
:101BB00007D0BDE8104040F29A42044924A006F044
:101BC000BFBC10BDD8010020841E00207EAB0108E0
:101BD00025735B25645D3A206F706E466F72776186
:101BE00072643A256420200D0A00000025735B25ED
:101BF000645D3A206F706E4261636B776172643A24
:101C0000256420200D0A000025735B25645D3A20C1
:101C10006F706E456E7465723A256420200D0A005F
:101C200025735B25645D3A206F706E457869743A60
:101C3000256420200D0A000025735B25645D3A2091
:101C40006F706E55703A256420200D0A0000000068
:101C500025735B25645D3A206F706E446F776E3A32
:101C6000256420200D0A00002DE9F0412C4C0126AE
:101C70004FF48C78002537B22288394628B203F019
:101C800063FAAD1CF12DF7DB4546B61CAE42F1DD23
:101C90000F2000F0EBFA03F0F1FC0126A846012525
:101CA00037B22288394628B203F04EFAAD1CF12D26
:101CB000F7DB4546B61CAE42F1DD0F2000F0D6FA48
:101CC00003F0DCFC0026A846012537B222883946FD
:101CD00028B203F039FAAD1CF12DF7DB4546B61CEE
:101CE000AE42F1DD0F2000F0C1FA03F0C7FC01267F
:101CF000A8460125701E07B2681E2288394600B228
:101D000003F022FAAD1CF12DF6DBB61C4645F0DDE2
:101D10000F2000F0ABFABDE8F04103F0AFBC0000CB
:101D20006802002072B6FEE72DE9F04FDFF8D4918B
:101D300004462DED028B89B099F80000724D734F67
:101D40004FF0640BDFED728AB2EE048A002690B386
:101D5000606A90ED000A30EE080A10EE101AA942EF
:101D600001DD9FED6C0A80ED000A3A89CDF800B0E4
:101D7000606A90ED000A10EE100AA84202D1B0EE9F
:101D8000680A01E020EE080A634B01A8BCEEC00A15
:101D900010EE101A08F0CEFC202201A95F48FEF7D1
:101DA00055FC606A90ED000A10EE100AA84203D1BB
:101DB000B0EE680A02E00AE020EE080ABCEEC00AB3
:101DC00010EE100A38815648067089F80060DFF876
:101DD000548198F80000A0B3606A534A90ED000A5D
:101DE00030EE480A10EE101A914202DB80ED000A34
:101DF00001E080ED008A3A89CDF800B0606A90ED8C
:101E0000000A10EE100AA84202D1B0EE680A01E002
:101E100020EE080A404B01A8BCEEC00A10EE101AD2
:101E200008F088FC202201A93C48FEF70FFC606AFC
:101E300090ED000A10EE100AA84203D1B0EE680A35
:101E400002E00AE020EE080ABCEEC00A10EE100A1A
:101E500038813648067088F80060DFF8D4A09AF818
:101E6000000050B1606A90ED000A84ED0B0AFFF7A4
:101E700023F9304806708AF800602F48007888B34C
:101E8000606A94ED0B0A80ED000A10EE100A3A89A0
:101E9000CDF800B0A84202D1B0EE680A01E020EE11
:101EA000080A1D4B01A8BCEEC00A10EE101A08F07B
:101EB00041FC202201A91948FEF7C8FB606A90ED99
:101EC000000A10EE100AA84201D060EE088ABCEEAB
:101ED000E80A10EE100A3881FFF7EEF81548067090
:101EE0001548067088F80060104889F800608AF884
:101EF000006006700A48067009B0BDEC028BBDE8B0
:101F0000F08F0000F40100200000C842580D0020AE
:101F1000008077440000C8426DA90108680D0020C8
:101F2000F0010020F501002000002041F101002017
:101F3000F2010020D9010020F301002010B50400B7
:101F400002D0607910B106E0012010BD00202071A0
:101F5000204600F005F801206071002010BD00004F
:101F600008B500680649884208D10648016841F46E
:101F700080510160006800F48050009008BD0000AE
:101F800000300240303802402DE9F84304464FF05B
:101F90000009CDF8009063484FF41651A56D006814
:101FA000B0FBF1F72E6894F85C10082000FA01F1FC
:101FB00031420FD021680A6852070BD50A6822F017
:101FC00004020A6094F85C108840A860606D40F0DC
:101FD0000100606594F85C104FF0010808FA01F008
:101FE000304208D021684969090604D5A860606DAF
:101FF00040F00200606594F85C1004208840304294
:1020000008D021680968890704D5A860606D40F090
:102010000400606594F85C1010208840304218D0AD
:1020200021680968090714D5A86020680168490378
:1020300004D50068000308D5A16C07E00168C90554
:1020400003D4016821F008010160216C09B1204628
:10205000884794F85C1020208840304231D02168B5
:102060000968C9062DD5A86094F8350005282068B0
:10207000016806D0490347D5006800031DD4616C90
:102080001CE021F0160101602068416921F0800107
:102090004161206C08B9A06C20B12068016821F072
:1020A0000801016094F85C103F208840A86084F823
:1020B000358084F83490216D1FE0E16B09B1204632
:1020C0008847606D00282BD0606DC00714D00520B4
:1020D00084F835002068016821F001010160009852
:1020E000401C0090B84203D820680068C007F6D1B1
:1020F00084F8358084F83490E16C002910D001B068
:102100002046BDE8F04308470168C905D5D40168F9
:1021100021F01001016084F8358084F83490CCE718
:10212000BDE8F883180000202DE9F041044600F0D6
:10213000B9F906465CB1022084F83500002584F820
:1021400034502068016821F0010101600DE0012098
:10215000BDE8F08100F0A6F9801B052805D92020F4
:102160006065032084F83500F2E720680068C00746
:10217000F0D12268116820480140D4E901031843D6
:10218000D4E903363343184363691843A3691843FA
:10219000E3691843236A18430843616A042903D199
:1021A000D4E90B1319430843106020684069666A3C
:1021B00020F0070130460E43012704280CD1A06A05
:1021C0000643E06A40B12046FEF70CFE20B14020F5
:1021D000606584F83570BAE7206846612046FEF7EE
:1021E000EDFD94F85C203F2191408160656584F8A5
:1021F00035700020ACE700003F8010F02DE9F04181
:102200000446866D90F83400002501280DD0012089
:1022100084F8340094F835700020012F07D084F83A
:10222000340002252846BDE8F0810220FBE70227A2
:1022300084F8357060652046FEF7FEFD94F85C106A
:102240003F208840B0602068016841F016010160BD
:10225000206C20B12068016841F00801016020680D
:10226000016841F001010160DCE7000070B504463F
:1022700000F018F90546601C02D0044800780444B8
:1022800000F010F9401BA042FAD370BD0C000020F2
:102290002DE9F84FDFF8BCA10022012503264FF0FD
:1022A0000F090AF1040BAAF1040E00BF0B6805FA2E
:1022B00002F42340A34270D10F7907F00307012FE6
:1022C00001D0022F16D187684FEA420806FA08FCAF
:1022D00027EA0C07D1F80CC00CFA08FC4CEA070CF2
:1022E000C0F808C04768A7430C79C4F300149440B1
:1022F0003C4344600C79E443A4070AD0C4684FEA25
:10230000420C06FA0CF7BC438F6807FA0CF7274318
:10231000C7600C7904F00304022C12D1D40800EB3E
:10232000840CDCF820405707FF0E09FA07F824EA6E
:102330000804D1F8108008FA07F848EA0408CCF835
:10234000208004684FEA420C06FA0CF7BC430F7970
:1023500007F0030707FA0CF7274307604C6814F4EB
:10236000403F70D03C4C276847F480472760246882
:1023700022F0030704F480440094384C07EB040C6B
:10238000DCF8084897074FEA177809FA08F7BC43C2
:10239000334FB84202D1002724E054E0314FB84215
:1023A00001D101271EE0304FB84201D1022719E0C8
:1023B0002E4FB84201D1032714E02D4FB84201D16E
:1023C00004270FE02B4FB84201D105270AE02A4F1E
:1023D000B84201D1062705E0284FB84201D10727AE
:1023E00000E0082707FA08F72743CCF80878DAF85E
:1023F00000405746D1F804C09C435FEACC2C00D57E
:102400001C433C60DBF800405F46D1F804C09C43AD
:102410005FEA8C2C00D51C433C60DEF80040774618
:10242000D1F804C09C435FEA8C3C00D51C433C605F
:10243000084F083F3C68D1F804C09C435FEACC3C9D
:1024400000D51C433C60521C102AFFF42FAFBDE89E
:10245000F88F0000083C0140443802400030014041
:10246000000002400004024000080240000C02404C
:10247000001002400014024000180240001C0240FC
:102480000069084000D001207047426921EA020338
:102490000A4043EA0241816170470AB18161704795
:1024A0000904FBE701488068704700000C00002029
:1024B0000248816802781144816070470C00002056
:1024C0000B4810B5016841F400710160016841F4E6
:1024D00080610160016841F480710160032000F0B7
:1024E0006FF80F2000F006F800F024F8002010BD6F
:1024F000003C024070B50D4D04464FF47A712878C7
:10250000B1FBF0F00A490968B1FBF0F001F0A8FA5C
:1025100048B9102C07D200222146501E00F030F896
:1025200000206C6070BD012070BD00000C00002018
:10253000180000200A4808B5016841F48041016094
:10254000006800F4804000900548001F016841F0D9
:1025500080510160006800F08050009008BD0000CC
:1025600044380240002809DB00F01F02012191409D
:102570004009800000F1E020C0F800117047000021
:10258000F0B40E4B1B680C46C3F30223C3F10705DE
:10259000042D00D90425191D072901D2002300E0CC
:1025A000DB1E012606FA05F1491E214099409E4096
:1025B000761E16403143F0BC05F0EABF0CED00E09A
:1025C000064900F0070208684FF6FF03184040EA8A
:1025D0000220034A10430860704700000CED00E041
:1025E0000000FA0570470068416200207047F0B5AE
:1025F0000368586A39B19C6A4FF4827600EB144440
:1026000000204D1E0AE040EA024098620FE006EB0F
:102610008007DF59401C04EB1744C0B2A842F6D330
:1026200044EA02404FF4807202EB810158500020CE
:10263000F0BDD0F8080504F053BB01EBC10200EB7C
:102640008202D0F80805D26C04F0BEBA01EBC102D8
:1026500000EB8202D0F80805D2F88C2204F009BB06
:10266000D0F8080504F03EBB0A0601F00F0101EBAB
:10267000C10100EB810101D53C3101E001F51F7181
:10268000006805F0A3BD70B504460B0601F00F000D
:1026900000EBC00104EB81014FF001024FF0000597
:1026A00003D581F83D203C3103E081F87D5201F5EE
:1026B0001F71087094F8BC04012808D084F8BC2469
:1026C000206805F03DFA84F8BC54002070BD02205B
:1026D00070BD70B5044601F00F006268904201D9E8
:1026E000012070BD0B0601F00F0101EBC10104EBED
:1026F00081014FF001024FF0000503D581F83D2024
:102700003C3103E081F87D5201F51F718D70087036
:1027100094F8BC04012808D084F8BC24206805F093
:102720000BFC84F8BC54002070BD022070BD01F089
:102730000F0101EBC10100EB8100D0F89C02704752
:102740002DE9F04104460F0601F00F0000EBC00137
:1027500004EB81014FF001064FF0000503D581F82D
:102760003D603C3103E081F87D5201F51F71087036
:10277000CA600B714A7802B10881022B00D14D71F9
:1027800094F8BC04012809D084F8BC64206805F0E2
:102790002FF9284684F8BC54BDE8F0810220FBE7FD
:1027A00070B50C4601F00F0505EBC50100EB81018A
:1027B000C1F89432C1F88C220023C1F89C3281F810
:1027C0007D3281F87C52036901F51F71012B00D124
:1027D0004A612207027C006803D005F005FC002056
:1027E00070BD05F0EFFAFAE770B504460D4601F04A
:1027F0000F006168884201D9012070BD29064FF0A1
:1028000000064FF0010207D500EBC00104EB810187
:1028100081F83D203C3107E005EBC50104EB810167
:1028200081F87D6201F51F718A70087094F8BC040C
:10283000012807D084F8BC24206805F0A9FB2807EC
:1028400002D007E0022070BD217C04F2C44220685F
:1028500005F046FB84F8BC64002070BD70B50C46E2
:1028600001F00F0505EBC50100EB81014B65CA6462
:102870000023CB65012381F83D3001F83C5F0369FB
:10288000012B00D14A612207027C006803D005F0C9
:10289000ABFB002070BD05F095FAFAE72DE9FC5F6F
:1028A00005680446284605F032FD00287DD12068E1
:1028B00005F059FD002878D0D5F80808C0F30D20A0
:1028C000C4F8FC04206805F04EFD800704D520689C
:1028D000416901F002014161206805F044FDC10633
:1028E00004F2C440009034D52068816921F01001C1
:1028F00081612F6A07F00F0000EBC00004EB800637
:10290000C7F3434006F51F76022802D0062811D0EF
:102910001AE047F6F070074216D0C7F30A121746BE
:102920002846316905F023FD306938443061306A4A
:10293000384408E008222846009905F018FD306A5E
:10294000C7F30A11084430622068816941F0100120
:102950008161206805F007FD00034FF0080B4FF080
:10296000000A4FF001097CD50026206805F0DAFC4A
:10297000074674E0F80770D0F1B2206805F0EBFC70
:102980008046C00707D005EB4611C1F8089B3146C9
:10299000204603F04DFA5FEA087024D505EB461196
:1029A000C1F808BB2068016C00E025E200EB46108E
:1029B0000191D0F8082BFC4B994205D9110403D59D
:1029C0004FF40041C0F8081B204600F02FFBF649E9
:1029D0000198884207D92069012804D12068012183
:1029E000009A05F07DFA5FEAC86004D505EB461150
:1029F0001020C1F8080B5FEA88701DD568690006D1
:102A000005D5D5F8040840F48061C5F8041806EB34
:102A1000C60004EB800090F87F1200F51F700129BA
:102A200005D180F803A0F1B2204600F0EBF905EBE8
:102A300046110220C1F8080B5FEA886004D505EB57
:102A400046102021C0F8081B5FEA884005D505EB39
:102A500046104FF40051C0F8081B7F08761C002F69
:102A600088D1206805F07FFC40036FD5206805F011
:102A700052FC0746002667E0F80763D0F1B22068F1
:102A800005F057FC8046C00723D006F00F0209FA74
:102A900002F0D5F834288243C5F8342805EB4610F7
:102AA000C0F80899206901280FD106EBC60004EB95
:102AB0008000D0E912211144C16436B9606D20B99B
:102AC00020680121009A05F00BFAF1B22046FFF7C9
:102AD000B4FD5FEA087003D505EB4611C1F808B9EB
:102AE0005FEAC86004D505EB46111020C1F808095B
:102AF0005FEA486004D505EB46104021C0F808198C
:102B00005FEA887017D53146284605F0D3FB06EBFF
:102B1000C60004EB800090F83F103C30012905D13D
:102B200080F803A0F1B2204600F068F905EB4611E9
:102B30000220C1F808095FEA086003D53146204643
:102B400003F0DCF97F08761C002F95D1206805F092
:102B50000AFC002811DAD5F8040820F00101C5F8B4
:102B6000041894F8F40401282BD0204600F042FA0F
:102B70002068416901F000414161206805F0F3FBE4
:102B800000050BD5D5F80808C00702D0204600F094
:102B900099FA2068416901F400614161206805F0FB
:102BA000E2FBC00466D5D5F8040820F00100C5F8A2
:102BB00004081021206805F07DFB00214FF67F32CC
:102BC0001FE084F8F4A400212046FFF70BFDCFE7B7
:102BD00005EB4110C0F80829D0F8003923F40013A0
:102BE000C0F80039C0F8082BD0F8003B23F40013DC
:102BF000C0F8003BD0F8003B43F00063C0F8003B56
:102C0000491C60688842E3D8D5F81C0840F00111DF
:102C1000C5F81C18206B002828460DD0D0F8840871
:102C200040F00B01C5F88418D5F8440840F00B01BA
:102C30002846C5F844180DE0D0F8140842F22B01DC
:102C40000843C5F81408D5F8100840F00B012846D1
:102C5000C5F81018D0F8000820F4FE61C5F8001877
:102C6000217C2068009A05F03BF92068416901F455
:102C700080514161206805F076FB800415D52068FD
:102C800004F0F6FE206805F035FBE06000F0CCFAB9
:102C90000146227B206805F0C9FB204600F094F92C
:102CA0002068416901F400514161206805F05BFB37
:102CB000000707D5204600F0A1F92068416901F01E
:102CC00008014161206805F04EFB000616D5A86991
:102CD00020F08000A86101260DE000BF06EBC600D1
:102CE00004EB800090F87F02012803D1F1B2204666
:102CF000FFF7BAFC761C6068B042EFD8206805F098
:102D000032FBC00221D501264F4616E005EB4610E6
:102D1000D0F8001906EBC60004EB800090F84020C4
:102D2000012A09D1002907DA80F83F70F0B240F09B
:102D300080012046FFF798FC761C6068B042E5D819
:102D40002068416901F480114161206805F00BFBA6
:102D5000800234D501204B4629E000BF05EB40112D
:102D6000D1F8001B00EBC00204EB820696F880222B
:102D7000012A1BD1002919DA94F8FC2401F48031CE
:102D800002F00102914211D186F87F32A96941F027
:102D90008002AA616969090608D4D5F8040840F4DC
:102DA0000070C5F8040805E00A30544F401C616803
:102DB0008142D3D82068416901F400114161206843
:102DC00005F0D1FA400007D52046FFF732FC206815
:102DD000416901F080414161206805F0C4FA400773
:102DE0000AD520684568680702D52046FFF738FCF9
:102DF0002068416829434160BDE8FC9FD0F8080580
:102E000003F0C4BFD0F8080503F0C2BF2DE9F041BC
:102E10008AB0040005D094F8BD042668002520B1CE
:102E200008E001200AB0BDE8F08184F8BC542046D7
:102E300000F05EF8032084F8BD04F06BC00500D4F8
:102E40002561206804F0B8FF04F1100128228846AB
:102E50006846FDF7FBFB94E80F0004F017FE02261E
:102E6000C8BB0021206805F0A1FA002001270EE070
:102E700000EBC00104EB810181F83D7001F83C0FCB
:102E800008810D71CD600D61401CC0B28D6161681B
:102E90008142EDD8002011E000EBC00104EB81017C
:102EA00081F87D5281F87C0281F88052C1F8885205
:102EB000C1F88C52401CC0B2C1F894526168814282
:102EC000EAD8282241466846FDF7C0FB94E80F0087
:102ED00004F0B8FE10B184F8BD64A2E784F838505D
:102EE00084F8BD74206804F09FFE00209AE700007B
:102EF0002DE9F04186B0044614216846FDF7CDFB6C
:102F00002C492068884251D12B4C4FF00008206892
:102F100040F004002060206800F004000590206864
:102F200040F001002060206800F00100059020685A
:102F300040F0020020602068022500F002000590A9
:102F40000D208DE8210103260A2769461B48CDE99B
:102F50000367FFF79DF928208DE82101694618488D
:102F6000CDE90367FFF794F943F623408DE821018B
:102F700069461448CDE90367FFF78AF9206840F0F5
:102F800000502060206800F000500590206840F05C
:102F9000804020602068002200F0804005900121E0
:102FA0004D20FFF7EDFA4D20FFF7DCFA06B0BDE843
:102FB000F081000000000440303802400008024068
:102FC000000002400004024070B50446C0680125BC
:102FD00070B1022801D0FEF7A5FE2946D4F80805F5
:102FE00003F02CFFD4F80805BDE8704003F0E7BEFD
:102FF0000025F2E7D0F8080503F00ABFD0F808056D
:1030000003F010BF10B5044690F8BC0401280BD0A3
:10301000012084F8BC0484F83810206805F0F4F925
:10302000002084F8BC0410BD022010BD2DE9F04141
:1030300000F2C441D0F80845054604F2AA200F4624
:10304000064604F0E9FA94F8AA120020C90603D152
:103050003146204603F0E6FF94F8AA1201F01F0162
:10306000012903D13146204604F020F8002806D17A
:103070003946D5F80805BDE8F04103F0EBBEBDE8E0
:10308000F08110B50446006894F8BC14012906D0FC
:10309000012184F8BC14A16A012902D008E00220B1
:1030A00010BDA169012903D0816B41F48031816396
:1030B000206805F0DAF8206804F0A8FD002084F804
:1030C000BC0410BD10B50446D0F8080503F004FF99
:1030D0002068D0F8001E41F00101C0F8001E206AEF
:1030E000002804D00248016841F00601016010BDCB
:1030F00010ED00E02DE9F0470E46050065D0DFF841
:103100001481D8F80000F7B200F00700B04207D2EF
:1031100088F80070D8F8000000F00700B04254D1E1
:1031200028683D4C810712D5400703D5206840F43C
:10313000E05020602878000703D5206840F4604004
:1031400020602068A96820F0F000084320602878FB
:10315000C0072DD0304968680839012812D00228EC
:1031600013D0032811D00968890700292DDA2168B6
:1031700021F0030101432160FFF794F9814641F2F8
:10318000883A0EE009688903EFE709688901ECE7EE
:10319000FFF788F9A0EB0901514502D90320BDE8EA
:1031A000F0872068696800F00C00B0EB810FEFD168
:1031B000D8F80010404601F00701B14207D9077066
:1031C000006800F00700B04201D00120E7E728784E
:1031D000400705D52068E96820F4E05008432060E6
:1031E0002878000706D52068296920F4604040EA65
:1031F000C100206000F03EF82168084AC1F30311C5
:10320000515CC8400649086006480068FFF772F93B
:103210000020C4E7003C0240083802404BAA0108E5
:1032200018000020100000200148006870470000CE
:10323000180000200448054900680968044AC1F3E1
:103240008221515CC84070471800002008380240B5
:103250005BAA01080448054900680968044AC1F3EB
:103260004231515CC84070471800002008380240C5
:103270005BAA0108154810B5006810F00C0214484C
:1032800013D04110042A0FD0082A0ED10F4C241F4E
:103290002268236802F03F025B0207D52068C0F372
:1032A0008810A0FB010106E0084610BD2168C1F3AB
:1032B0008811A1FB00010023FCF782FF2168C1F304
:1032C0000141491C4900B0FBF1F010BD0838024033
:1032D0000024F4002DE9F84F04006ED02078DFF8C8
:1032E0004C93C007A9F104054AD009F10400016814
:1032F000C1F38101012908D00068C0F381000228D0
:103300000AD1D9F80000400206D52868800337D5D5
:1033100060680028E1D033E06068B0F5803F10D0ED
:10332000B0F5A02F286810D020F4803028602868DD
:1033300020F4802028606068A8B1FFF7B3F8064643
:103340000DE0286840F48030F4E740F480202860E5
:10335000F7E700BFFFF7A6F8801B642873D828683A
:103360008003F7D50CE0FFF79DF8064605E000BFA7
:10337000FFF798F8801B6428F0D828688003F7D4FA
:103380002078DFF8AC8280074FF0000A3ED5A748CE
:10339000001D016811F00C0F08D00068C0F3810017
:1033A00002280BD1D9F80000400207D42868800712
:1033B00016D5E068012800D112E033E1E068B8B129
:1033C0000120C8F80000FFF76DF8064605E000BFD1
:1033D000FFF768F8801B0228C0D828688007F7D557
:1033E0002868216920F0F80040EAC10028600DE05B
:1033F000C8F800A0FFF756F8064604E0FFF752F8B9
:10340000801B02281FD828688007F7D4207800077F
:1034100022D5864F87486169703771B101210160FB
:10342000FFF740F8064604E0FFF73CF8801B02284F
:1034300009D838688007F7D50EE0C0F800A0FFF77C
:1034400031F8064605E082E0FFF72CF8801B0228E1
:103450007DD838688007F7D42078400768D5DFF832
:10346000CCB100270BF13C0BDBF80000C0000BD403
:10347000DBF8001041F08051CBF80010DBF80000C1
:10348000012700F0805000906B4E3068C00510D4CA
:10349000306840F480703060FFF704F8009005E079
:1034A000FFF700F80099401A022850D83068C0058C
:1034B000F6D55E4EA0686C3601280FD0052830681E
:1034C00010D020F001003060306820F0040030603F
:1034D000A068B8B1FEF7E6FF00900FE0306840F05A
:1034E0000100F4E740F004003060F7E7FEF7DAFF90
:1034F0000099411A41F28830814266D830688007CD
:10350000F4D50EE0FEF7CEFF009007E0FEF7CAFF0D
:103510000099411A41F28830814256D830688007BC
:10352000F4D42FB1DBF8001021F08051CBF800105B
:10353000A069C8B33D49091D0968C1F38101022989
:103540004AD00228504607D0C8F8600000E03CE0AE
:10355000FEF7A8FF04463BE04746C8F86000FEF7C8
:10356000A1FF064605E000BFFEF79CFF801B022876
:103570002BD828688001F7D4D4E907010843A16A51
:103580002E4A490802EB0141626A41EA821108436E
:1035900094F82C1040EA0161C9F800100120386647
:1035A000FEF780FF044606E03EE000BFFEF77AFF2C
:1035B000001B022809D828688001F7D534E000BF35
:1035C000FEF770FF001B022802D90320BDE8F88F28
:1035D00028688001F4D427E00128F7D0D9F800004A
:1035E000E26900F4800191421CD1226A00F03F019F
:1035F000914217D147F6C071626A0140B1EB821F58
:1036000010D1A26A4FF0FF3300F4403103EB5202B5
:10361000B1EB024F06D194F82C1000F07060B0EBC3
:10362000016F01D00120D1E70020CFE7043802402C
:1036300000004742800E4742007000400000FFFF3C
:1036400070B5040003D06079002510B105E00120B9
:1036500070BD2571204600F00DF8022060712068D1
:10366000016841F00401016001206071A560002043
:1036700070BD000008B500680649884208D10648B8
:10368000016841F040010160006800F040000090D6
:1036900008BD00000008065034380240704770B57D
:1036A000040009D0606A002540B125616561A5620A
:1036B00094F8510040B10CE0012070BD6068B0F595
:1036C000827FF4D0E561F2E784F85050204600F0A4
:1036D00045F8022084F851002068016821F040017B
:1036E0000160A088218900F4827001F4044108433C
:1036F000A18901F400610843217C01F00201084323
:10370000217D01F001010843218B01F40071084380
:10371000217F01F03801084394F8201001F0800166
:103720000843218D01F40051084321680860A06915
:10373000042101EA104094F8241001F0100108431C
:10374000216848602068C16921F40061C161656534
:10375000012084F85100002070BD00002DE9F041E7
:1037600086B0064614216846FCF797FF2549306865
:10377000884244D124480025016841F48051016009
:103780000068214900F4805014390590086840F021
:1037900001000860086800F001000590086840F02A
:1037A000020008600868022400F0020005908020F2
:1037B00003274FF005088DE8B10169461348FEF76D
:1037C00067FD08208DE8B10169461148FEF760FDEC
:1037D000114C10482060780660604020C4E9020562
:1037E0000001C4E90405A561E56125622046656222
:1037F000FEF79AFC08B1FEF795FAB464A66306B02A
:10380000BDE8F08100300140443802400000024031
:103810000004024058640240F01500202DE9F84FE2
:10382000044690F8500000271D4616468946012898
:103830000DD04FF0010B84F850B0FEF733FE8046F8
:1038400094F85100BA46012804D0022793E00220E0
:10385000BDE8F88FB9F1000F73D0002E71D00320AE
:1038600084F85100C4F854A0C4F83090A686E686C7
:10387000C4F838A0A4F83CA0A4F83EA0C4F844A022
:10388000C4F840A0A068B0F5004F09D120680168D5
:1038900021F0400101602068016841F4804101602D
:1038A00020680168490603D4016841F040010160C5
:1038B000E068B0F5006F606803D030B3012E24D00B
:1038C00041E008B1012E1CD1206B21680088C8603E
:1038D00006E020688168890709D5216B0988C160E5
:1038E000206B801C2063E08E401EE08609E0FEF71E
:1038F000D9FDA0EB0800A84202D3681C01D031E03A
:103900007DB3E08E0028E4D120E0206B21680078B0
:10391000087306E020688168890709D5216B09785A
:103920000173206B401C2063E08E401EE0860AE09D
:10393000FEF7B8FDA0EB0800A84203D3681C02D034
:1039400010E017E06DB1E08E0028E3D14246294631
:10395000204602F069FC08B120206065A06818B11B
:1039600006E0FFE7032706E02068C1688068009052
:10397000606D00B1012784F851B084F850A038463A
:1039800066E700002DE9F041044690F8500000265B
:10399000012809D0012784F8507094F851000025BF
:1039A000012804D002264EE00220BDE8F08189B152
:1039B00082B1032084F8510065652163A286E28606
:1039C000A56365642564A587E587A068B0F5004F09
:1039D00002D00BE0012636E02068016821F04001AA
:1039E00001602068016841F480410160A16C1848C1
:1039F0000864A16C1748C863A16C1748C864A06C20
:103A00000565E38E2268216B0C32A06CFEF7F6FB95
:103A100038B1606D40F010006065012684F8517087
:103A200011E020680168490603D4016841F04001B3
:103A300001602068416841F02001416020684168D0
:103A400041F00201416084F850503046ADE700007B
:103A5000BB610108C56101089961010870477047A1
:103A600010B5401EB0F1807F01D3012010BD4FF092
:103A7000E02460610F21601704F08AFD0020A0613E
:103A800007202061002010BD7047704770B590F886
:103A90003C20012A32D0012480F83C40022280F8E8
:103AA0003D2003685A689D6822F070060A68324318
:103AB0005A60134B02689A4214D0B2F1804F11D071
:103AC000104B9A420ED0104B9A420BD00F4B9A4299
:103AD00008D00F4B9A4205D00E4B9A4202D00E4BA3
:103AE0009A4204D1496825F080031943916080F817
:103AF0003D40002180F83C10084670BD022070BD9A
:103B0000000001400004004000080040000C00409C
:103B100000040140004001400018004010B50400BE
:103B200003D094F83D0010B107E0012010BD002043
:103B300084F83C00204600F01FF8022084F83D0085
:103B4000211D206802F078FC012084F8460084F8EA
:103B50003E0084F83F0084F8400084F8410084F877
:103B6000420084F8430084F8440084F8450084F857
:103B70003D00002010BD000008B5114A0168114841
:103B8000914211D1016841F00201016000680022F8
:103B900000F00200009011461D20FEF7F1FCBDE888
:103BA00008401D20FEF7DEBC074A914207D101689C
:103BB00041F080010160006800F08000009008BDC5
:103BC0000004004040380240001C004090F83D10C6
:103BD000012901D001207047022180F83D100168C1
:103BE000CA6842F00102CA6000681149884214D0D4
:103BF000B0F1804F11D00F4988420ED00E49884253
:103C00000BD00E49884208D00D49884205D00D4995
:103C1000884202D00C49884204D1816801F0070132
:103C2000062903D0016841F00101016000207047BE
:103C3000000001400004004000080040000C00406B
:103C400000040140004001400018004070B50446E7
:103C500090F83C000025012817D0012684F83C602C
:103C6000022084F83D002068826822F0770222F466
:103C70007F4282600868502838D00DDC20284FD061
:103C800005DC90B3102811D14AE0022070BD302825
:103C900046D040280AD13BE060282FD070280DD0B4
:103CA000B0F5805F03D0B0F5005F12D0012584F835
:103CB0003D60002084F83C00284670BDCB68D1E907
:103CC0000121206802F029FC2068816841F0770119
:103CD00009E0CB68D1E90121206802F01EFC2068D0
:103CE000816841F480418160E1E719E0CA68496870
:103CF000206802F0E7FC5021206806E0CA684968A5
:103D0000206802F0F0FC6021206802F010FCCEE791
:103D1000CA684968206802F0D5FC40212068F4E7B1
:103D2000226801461046F0E7704770B50446006807
:103D300001694FF00005C943890715D4C168C9431B
:103D4000890711D4E91E016101202077206880696C
:103D50008007204602D0FFF7E7FF04E000F0C2F83A
:103D6000204600F054F9257720680169C9434907C6
:103D700017D4C168C943490713D46FF00401016126
:103D8000022020772068806910F4407F204602D00E
:103D9000FFF7CAFF04E000F0A5F8204600F037F96D
:103DA000257720680169C943090716D4C168C9434A
:103DB000090712D46FF00801016104202077206800
:103DC000C0698007204602D0FFF7AEFF04E000F094
:103DD00089F8204600F01BF9257720680169C9435E
:103DE000C90617D4C168C943C90613D46FF01001BE
:103DF0000161082020772068C06910F4407F2046C8
:103E000002D0FFF791FF04E000F06CF8204600F0CC
:103E1000FEF8257720680169C943C90708D1C16840
:103E2000C943C90704D1891E0161204600F092F9F7
:103E300020680169C943090609D4C168C943090654
:103E400005D46FF0800101612046FFF71DFE206858
:103E50000169C943490609D4C168C943490605D463
:103E60006FF040010161204600F086F92068016989
:103E7000C94389060BD4C168C943890607D46FF0CA
:103E8000200101612046BDE87040FFF7FEBD70BD16
:103E900010B586B0044614216846FCF7FEFB0E49B7
:103EA0002068884215D10D480021026842F00102C5
:103EB0000260006800F001000590402000900220A0
:103EC000CDE901010920CDE9031069460448FEF758
:103ED000DFF906B010BD0000001C00403038024081
:103EE00000000240704770B5044690F83C00002680
:103EF0000D4601280FD0012084F83C006AB1042A45
:103F00001DD0082A2FD00C2A3FD00126002084F88B
:103F10003C00304670BD022070BD206802F010FBEE
:103F20002068816941F0080181612068816921F080
:103F300004018161206881692A69114311E02068C8
:103F400002F02EFB2068816941F4006181612068E4
:103F5000816921F480618161206881692A6941EA6F
:103F600002218161D2E7206802F050FB2068C1691C
:103F700041F00801C1612068C16921F00401C161FB
:103F80002068C1692A69114311E0206802F072FBC0
:103F90002068C16941F40061C1612068C16921F4F0
:103FA0008061C1612068C1692A6941EA0221C16159
:103FB000ACE710B5040003D094F83D0010B107E061
:103FC000012010BD002084F83C00204600F01EF8BF
:103FD000022084F83D00211D206802F02DFA012006
:103FE00084F8460084F83E0084F83F0084F84000DE
:103FF00084F8410084F8420084F8430084F84400C7
:1040000084F8450084F83D00002010BD70477047DB
:1040100010B50446022249B104290ED0082913D054
:1040200094F84100012816D0012010BD94F83E00FC
:104030000128F9D184F83E200FE094F83F000128D0
:10404000F2D184F83F2008E094F840000128EBD139
:1040500084F8402001E084F841200122206802F029
:104060004FFA16492068164A884201D0904203D17F
:10407000436C43F4004343642068884213D0B0F19A
:10408000804F10D00F4988420DD00F4988420AD086
:104090000E49884207D0904205D00D49884202D08F
:1040A0000C49884204D1816801F00701062903D038
:1040B000016841F001010160002010BD00000140D5
:1040C000000401400004004000080040000C0040D3
:1040D000004001400018004030B504460D4600681D
:1040E000002202F00DFA194B41F2111120688A10DA
:1040F000984202D0164B984209D1036A0B4206D16E
:10410000036A134203D1436C23F4004343642068E1
:10411000036A0B4206D1016A114203D1016821F002
:104120000101016001203DB1042D08D0082D09D006
:1041300084F84100002030BD84F83E00FAE784F89E
:104140003F00F7E784F84000F4E70000000001407A
:104150000004014010B5074900680968884207D18A
:10416000FCF7B8FEFCF7ECFEBDE81040FDF7D4BC50
:1041700010BD000050160020704770B5040004D038
:1041800094F83D00002510B106E0012070BD84F8D0
:104190003C50204600F022F8242084F83D0020689E
:1041A000C16821F40051C160204602F0AFFA2068D6
:1041B000016921F4904101612068416921F02A01DF
:1041C00041612068C16841F40051C160256420202C
:1041D00084F83D0084F83E00002070BD10B586B024
:1041E000044614216846FCF758FA134920688842AF
:1041F00020D112480021026842F0100202600068DB
:1042000000F0100005900D481438026842F00202D8
:104210000260006800F002000590C02000900220BB
:10422000CDE901010320039007200490694604486A
:10423000FEF72EF806B010BD0010014044380240D1
:10424000000402402DE9F843044690F83D001F4663
:1042500016460D4620284CD1C5B1BEB194F83C009D
:10426000012846D0012084F83C004FF00008C4F833
:104270004080212084F83D00FEF714F9A684814691
:10428000E684A068B0F5805F03D004E00120BDE8BB
:10429000F883206928B12E465FF0000584F83C8041
:1042A0000EE00026FAE78021204602F0B5FAA0B918
:1042B000AEB116F8010B21684860E08C401EE08426
:1042C000E08C4B464FF0000200970028EBD14FF0F6
:1042D0004001204602F0A0FA30B10320D7E735F8BC
:1042E000020BC0F30800E6E7202084F83D00002020
:1042F000CDE70220CBE7FEE70021C1764176012120
:1043000081767047F0B500230A24302537261F46F2
:1043100011E000BFB4EB107F02D905EB107C01E087
:1043200006EB107C01F813C001EB430C00015B1C91
:104330008CF80170DBB29342ECD3F0BD074910B5A5
:10434000054808600846FDF7F9FD002803D0BDE8E0
:104350001040FDF7E7BC10BD003002400400002013
:10436000094808B5016841F4800101600068002235
:1043700000F48000009011463B20FEF701F9BDE8F3
:1043800008403B20FEF7EEB8303802402DE9F04FF0
:1043900087B014216846FCF780F94B480025016876
:1043A00041F004010160016801F004010591016818
:1043B00041F080010160016801F080010591016810
:1043C00041F001010160016801F0010105910168FE
:1043D00041F002010160016801F0020105910168EC
:1043E00041F0080101600068DFF8E0B000F008006B
:1043F0004FF400540590002221465846FEF74DF830
:104400004FF48876012231463148FEF746F84FF4E2
:104410004047002239462F48FEF73FF8DFF8B8A0A2
:104420004FF48078002241465046FEF736F84FF4AC
:104430000079012249465846FEF72FF800940124DE
:10444000694658460194CDE90245FDF721FFCDE9C3
:1044500000640326CDE9024669461D48FDF718FFB2
:10446000CDE9007469461B48CDE90245FDF710FF10
:10447000CDE9008469465046CDE90245FDF708FFC5
:10448000CDE90094CDE9024669465846FDF700FFA4
:10449000E003CDE90005694602940D48FDF7F8FEFA
:1044A000B002CDE90005694602945846FDF7F0FEDA
:1044B0003002CDE90005694602940648FDF7E8FEA2
:1044C00007B0BDE8F08F000030380240000802401D
:1044D0000000024000040240000C0240074910B5F1
:1044E000054808600846FFF7ABF8002803D0BDE890
:1044F0001040FDF717BC10BD0008065088150020BD
:104500000F4810B50D4901604FF4827141600021E0
:104510008160C1604FF400720161C0E90512C161A0
:104520000162416281620A21C162FFF7B8F8002886
:1045300003D0BDE81040FDF7F5BB10BD00300140D1
:104540009815002010B588B01C216846FCF7A5F826
:1045500015481449002401605321C0E9011440F2B8
:10456000E731C0E903148461FFF7D8FA08B1FDF719
:10457000D9FB0D48FFF71DFD08B1FDF7D3FB602007
:10458000CDE9000402940022694607480494FFF72D
:10459000AAFC08B1FDF7C6FB0348FFF779FC08B099
:1045A00010BD0000001C00409816002010B586B019
:1045B000002417480094019402940394049413492E
:1045C000059401605321C0E9011442F20F71C0E962
:1045D00003148461FFF7A2FA08B1FDF7A3FB4FF4BF
:1045E0008050009069460A48FFF730FB08B1FDF79C
:1045F00099FB049404A906480594FFF747FA00289C
:1046000001D0FDF78FFB06B010BD00000004004094
:10461000501600200C4810B50A4901600B49416052
:10462000002181600C22C160C0E904128161C16176
:10463000FFF7A3FD002803D0BDE81040FDF772BBD3
:1046400010BD000000100140E016002040420F00A5
:10465000FEE700001CB500213A48FCF70FFD394881
:1046600000213030FCF70AFD3648374A0221183065
:10467000FCF704FD3348354A02214830FCF7FEFCC4
:104680003048304918300123007C009030A260315E
:104690002C48FCF7A1FC2B482A4930300123007C30
:1046A00000902DA298312748FCF796FC254801235D
:1046B00048302BA2007C00902B492248FCF78CFC50
:1046C00029490023383929A2A1F58870FCF784FC18
:1046D00025492948A8390090022328A2A1F1A00069
:1046E000FCF77AFC28492948CDE900011E4904233A
:1046F000703927A2A1F1D800FCF76EFC27480A21E7
:104700000089401CB0FBF1F000EE100A1F48B8EE23
:10471000400A103880ED040A10EE100AFCF7BBF9CD
:10472000CDE900019E221E491EA003F009FF054AA3
:1047300002B06532511FBDE81040A1F14800FDF7FD
:1047400095B90000E41E002065610108A15F010821
:10475000555342466F726D0053657474696E6700FD
:104760003C41626F75743E005C2000205B536574B1
:1047700074696E675D000000640200205265766512
:104780007273656400000000291D01085C020020AE
:104790004272696768746E6573730000580D00207B
:1047A00095AB010825735B25645D3A2073657474CD
:1047B000696E675F6272696768746E6573733A20C9
:1047C000256620200D0A00000121C17600214176D6
:1047D00081767047FEE7000010B5064C208905F091
:1047E0008EFE02466189A089BDE81040414302481F
:1047F000FBF74CBF6002002094200020054A00BF58
:1048000092F85130012BFBD10A4601460148FFF7CF
:10481000B9B80000981500202DE9F04786188146A8
:104820000C46CF18DDF820A00CE04D460FFA84F8B6
:1048300005E05246414628B200F086FC6D1CAE42AF
:10484000F7DC641CA742F0DCBDE8F0872DE9FF4FE0
:1048500091462DED048B83B00D4606469FEDC10BAE
:10486000DDF8508003F0A4FEB0EE408AF0EE608ADE
:104870004846FCF7CBF8834653EC182B0091FBF726
:10488000D3FFFCF7EFF884B2C4F101079FEDB78BBB
:1048900078E03846FCF7A9F841EC100BB0EE481A66
:1048A000F0EE681A03F0E8FEB0EE402AF0EE602A5F
:1048B0000099B0EE429AF0EE629A41EC10BBB0EE75
:1048C000481AF0EE681A03F0D7FE53EC192B51EC9E
:1048D000100BFBF7A3FF41EC100B04F0F5FC51ECBF
:1048E000100BFCF7BFF81FFA80FA5FEAC8700FD010
:1048F000A5EB0A0001B2F01B00B20A9A00F024FCFA
:10490000E81901B206EB0A0000B20A9A00F01CFC9A
:104910005FEA88700FD5A5EB0A0001B2F01900B26A
:104920000A9A00F011FCE81901B2A6EB0A0000B2E5
:104930000A9A00F009FC5FEA48700FD505EB0A00FF
:1049400001B2F01900B20A9A00F0FEFBE81B01B2B6
:10495000A6EB0A0000B20A9A00F0F6FB5FEA0870C4
:104960000FD505EB0A0001B2F01B00B20A9A00F065
:10497000EBFBE81B01B206EB0A0000B20A9A00F05A
:10498000E3FB7F1C002F84DB2046FCF73FF841EC63
:10499000100BB0EE481AF0EE681A03F06DFEB0EEA0
:1049A000402AF0EE602A0099B0EE429AF0EE629A48
:1049B00041EC10BBB0EE481AF0EE681A03F05CFE52
:1049C00053EC192B51EC100BFBF728FF41EC100BAB
:1049D00004F07AFC51EC100BFCF744F887B2A5EB1D
:1049E000090000B2019006EB09005FEAC8710FFAF6
:1049F00080FB20D0B9F1010F09D9584629460A9AFF
:104A000000F0A2FB30460A9A019900F09DFBBC42DF
:104A100003D1281B01B2301909E0E81B01B230199B
:104A200000B20A9A00F090FB281B01B2F01900B204
:104A30000A9A00F089FBA6EB090000B25FEA8871D0
:104A4000009020D5B9F1010F09D929460A9A00989A
:104A500000F07AFB30460A9A019900F075FBBC42DF
:104A600003D1281B01B2301B09E0E81B01B2301B47
:104A700000B20A9A00F068FB281B01B2F01B00B2DA
:104A80000A9A00F061FB05EB09005FEA48710FFA32
:104A900080FA20D5B9F1010F09D929460A9A009860
:104AA00000F052FB514630460A9A00F04DFBBC42E2
:104AB00003D1281901B2301B09E0E81901B2301BFB
:104AC00000B20A9A00F040FB281901B2F01B00B2B4
:104AD0000A9A00F039FB5FEA087020D5B9F1010F9E
:104AE00009D9584629460A9A00F02EFB514630460D
:104AF0000A9A00F029FBBC4203D1281901B23019EF
:104B000009E0E81901B2301900B20A9A00F01CFB62
:104B1000281901B2F01900B20A9A00F015FBB8F199
:104B20000F0F19D1584629460A9A00F00DFB294665
:104B30000A9A009800F008FB30460A9A019900F0A2
:104B400003FB0A9A03B05146BDEC048B04B0304617
:104B5000BDE8F04F00F0F8BA03B0BDEC048BBDE83F
:104B6000FF8F000054E3A59BC420E93F0000000034
:104B7000000000402DE9F04F1F462DED048B85B05D
:104B800090460D4606469FEDF80BDDF848A003F071
:104B90000FFDB0EE408AF0EE608A4046FBF736FF2C
:104BA000CDE9010153EC182BFBF73EFEFBF75AFF52
:104BB00084B2C4F1010081469FEDED8BA7E000BFF8
:104BC000FBF713FF41EC100BB0EE481AF0EE681A39
:104BD00003F052FDDDE90101B0EE402AF0EE602A5B
:104BE000B0EE429AF0EE629A41EC100BB0EE481A29
:104BF000F0EE681A03F040FD53EC192B51EC100B4A
:104C0000FBF70CFE41EC100B04F05EFB51EC100BBB
:104C1000FBF728FF1FFA80FB5FEACA701AD005EB8A
:104C2000090001B2A6EB090000B2A5EB0B020FFAD6
:104C300082FC0097CDE903010B460246614600F075
:104C40000EFA0097DDE9032106EB0B0000B20B46DC
:104C500000F005FA5FEA8A701AD505EB090001B287
:104C600006EB090000B2A5EB0B020FFA82FC0097DD
:104C7000CDE903010B460246614600F0F0F90097CA
:104C8000DDE90321A6EB0B0000B20B4600F0E7F9CB
:104C90005FEA4A701AD5A5EB090001B206EB0900DC
:104CA00000B205EB0B020FFA82FC0097CDE903017D
:104CB0000B460246614600F0D2F90097DDE9032178
:104CC000A6EB0B0000B20B4600F0C9F95FEA0A70D0
:104CD0001AD5A5EB090001B2A6EB090000B205EB5D
:104CE0000B020FFA82FC0097CDE903010B46024646
:104CF000614600F0B4F90097DDE9032106EB0B00F3
:104D000000B20B4600F0ABF909F101008146B9F1A0
:104D1000000FFFF655AF3A462946304600F014FA28
:104D2000B8F1020F04D03A462946304600F00CFA9A
:104D30002046FBF76BFE41EC100BB0EE481AF0EE8C
:104D4000681A03F099FCDDE90101B0EE409AF0EE3B
:104D5000609A41EC100BB0EE481AF0EE681A03F0BE
:104D60008BFC53EC192B51EC100BFBF757FD41EC6E
:104D7000100B04F0A9FA51EC100BFBF773FE1FFAAD
:104D800080F9A5EB080000B2029006EB080000B223
:104D90005FEACA7103903AD0B8F1010F19D92B46D6
:104DA000009732461946039800F059F932460097A9
:104DB0002B461046029900F052F9B8F1020F08D9BB
:104DC000281B03B2301902B229463046009700F082
:104DD00046F94C4504D1281B01B2301900B213E04A
:104DE000A5EB090001B2301900B23A46009000F07C
:104DF000ABF9281B01B206EB09008B4600B23A461C
:104E000000F0A2F9009859463A4600F09DF9A6EB49
:104E1000080000B25FEA8A7104903AD5B8F1010F38
:104E200019D92B46009732461946049800F017F915
:104E3000324600972B461046029900F010F9B8F15F
:104E4000020F08D9281B03B2301B02B22946304694
:104E5000009700F004F94C4504D1281B01B2301B27
:104E600000B213E0A5EB090001B2301B00B283468B
:104E70003A4600F069F9281B01B2A6EB090000B21E
:104E80003A46009100F060F9009958463A4600F021
:104E90005BF905EB08005FEA4A710FFA80FB3BD52E
:104EA000B8F1010F19D92B460097324619460498DC
:104EB00000F0D5F8324659462B461046009700F0D0
:104EC000CEF8B8F1020F08D9281903B2301B02B28C
:104ED00029463046009700F0C2F84C4505D1281904
:104EE00001B2301B00B23A4614E005EB090001B2F2
:104EF000301B00B23A46019000F026F9281901B2A1
:104F0000A6EB090000B23A46009100F01DF9DDE978
:104F100000103A4600F018F95FEA0A7043D5B8F17C
:104F2000010F19D92B46009732461946039800F015
:104F300096F8324659462B461046009700F08FF8F7
:104F4000B8F1020F08D9281903B2301902B2294664
:104F50003046009700F083F84C450DD1281901B276
:104F6000301900B21CE0000054E3A59BC420E93FC7
:104F7000000000000000004005EB090001B23019FC
:104F800000B280463A4600F0DFF8281904B206EB7A
:104F9000090000B23A46214600F0D6F821464046C4
:104FA0003A4600F0D1F8BAF10F0F25D12B46009701
:104FB00032461946039800F052F82B4600973246C5
:104FC0001946049800F04BF8324600972B461046DD
:104FD000029900F044F8324659462B461046009795
:104FE00000F03DF805B03A46BDEC048B294630464A
:104FF000BDE8F04F00F0A8B805B0BDEC048BBDE8EB
:10500000F08F2DE9F05F814604468618CD18681EA2
:10501000884607B2DDF828B00BE020B25A46414678
:10502000824600F091F839465A46504600F08CF816
:10503000641CA642F1DC761E444636B20BE021B277
:105040005A460F46484600F07FF830465A463946E1
:1050500000F07AF8641CA542F1DCBDE8F09F2DE970
:10506000F04705462DED028B1746DDF828A01E46B9
:105070000C464FF0FF30BD4201DA012100E001464D
:105080008946B44200DA01208046BD4226D0A11BE9
:1050900000EE101AE81B0029F8EEC00A00EE100A14
:1050A000B8EEC00AC0EE808A00EE104AB8EEC08AA0
:1050B00000EE105AB8EEC00A00EE688A00D5311B27
:1050C000002800D5781B814223DC3AE05246214675
:1050D000284600F039F804EB080004B2B442F5D1D8
:1050E000BDEC028BBDE8F08752462146284600F011
:1050F0002BF804EB080004B200EE104AB8EEC00A28
:1051000030EE480AC0EE280ABDEEE00A10EE100AA2
:1051100005B2B442E8D1E3E752462146284600F002
:1051200013F805EB090005B200EE105AF8EEC00ABC
:10513000B0EE480A00EEA80ABDEEC00A10EE100A52
:1051400004B2BD42E8D1CBE72DE9F041114D044650
:1051500017466889844216DAA889814213DA002C3E
:1051600011DB00290FDBC1EB0110AA780A49022AE2
:1051700001EB001609D1384605F0C1F9315D8842CE
:1051800003D1287A3055BDE8F081384605F0B7F9EB
:10519000F8E7000060020020942000202DE9FF4F76
:1051A00085B08146DDE9126402200090081905B23D
:1051B000019009EB040002901746884600B283462E
:1051C000334622462946FFF7D5FC0120009009EB23
:1051D0000700001B401E00B2294682463346224685
:1051E000FFF7C8FC04200899009008EB0100001BA1
:1051F000401E05B25846334622462946FFF7BAFC00
:10520000082000902946504633462246FFF7B2FC5C
:105210006042039007EB4000A0F1020B0298009659
:10522000401C00B21FFA8BF28246631C4146FFF716
:10523000F3FA08990398009601EB4000801E83B2B0
:1052400001983A46401C01B24846FFF7E5FA1FFABA
:105250008BF229465046631C0096FFF7DDFA09B031
:10526000BDE8F08F2DE9FF4F81B09B4601980F9D5F
:1052700000EB020800EB050901EB0B00401EA8EB58
:1052800005060F4609F101040FFA80FA761E0BE0BD
:1052900020B239460E9A0090FFF756FF51460E9AFB
:1052A0000098FFF751FF641CA642F1DC07EB050AEA
:1052B00007EB0B00471BA8F101000AF101040FFAEC
:1052C00080F87F1E0BE021B28B460E9A0198FFF703
:1052D0003BFF404659460E9AFFF736FF641CA74233
:1052E000F1DC02200FFA8AF10FFA89F40090884667
:1052F0002A4620460E9BFFF7A9FA012036B20090FD
:1053000041462A4630460E9BFFF7A0FA04203FB2E2
:10531000009020462A4639460E9BFFF797FA082050
:105320000090394630462A460E9BFFF78FFA05B0AB
:10533000BDE8F08F70B5C84CC84D20614FF00070CB
:105340002860C820FCF792FF681528600A20FCF747
:105350008DFFFD2005F0FEFA062005F023FB082056
:1053600005F020FB612005F0F5FA072005F01AFB97
:10537000042005F017FB622005F0ECFA002005F090
:1053800011FB442005F00EFB452005F00BFB6320CC
:1053900005F0E0FA412005F005FB072005F002FBCF
:1053A000122005F0FFFA122005F0FCFA642005F047
:1053B000D1FA372005F0F6FA652005F0CBFA09207E
:1053C00005F0F0FA102005F0EDFA212005F0EAFAD8
:1053D000662005F0BFFA092005F0E4FA102005F078
:1053E000E1FA212005F0DEFA672005F0B3FA20206B
:1053F00005F0D8FA402005F0D5FA682005F0AAFAA1
:10540000902005F0CFFA4C2005F0CCFA7C2005F076
:10541000C9FA662005F0C6FAB12005F09BFA0F2004
:1054200005F0C0FA022005F0BDFA012005F0BAFA35
:10543000B42005F08FFA012005F0B4FAB52005F08C
:1054400089FA022005F0AEFA022005F0ABFA0A2034
:1054500005F0A8FA142005F0A5FAB62005F07AFAAE
:10546000042005F09FFA012005F09CFA9F2005F02A
:1054700099FA002005F096FA022005F093FADF2051
:1054800005F068FA112005F08DFAE22005F062FAC5
:10549000132005F087FA002005F084FA002005F0BB
:1054A00081FA302005F07EFA332005F07BFA3F20A8
:1054B00005F078FAE52005F04DFA3F2005F072FA84
:1054C000332005F06FFA302005F06CFA002005F06B
:1054D00069FA002005F066FA132005F063FAE1206E
:1054E00005F038FA002005F05DFA572005F05AFA69
:1054F000E42005F02FFA582005F054FA002005F0BA
:1055000051FAE02005F026FA012005F04BFA0320BD
:1055100005F048FA0D2005F045FA0E2005F042FA94
:105520000E2005F03FFA0C2005F03CFA152005F09E
:1055300039FA192005F036FAE32005F00BFA1A20A3
:1055400005F030FA162005F02DFA0C2005F02AFAA5
:105550000F2005F027FA0E2005F024FA0D2005F0A3
:1055600021FA022005F01EFA012005F01BFAE620C0
:1055700005F0F0F9002005F015FAFF2005F012FA09
:10558000E72005F0E7F9012005F00CFA042005F00A
:1055900009FA032005F006FA032005F003FA0020BB
:1055A00005F000FA122005F0FDF9E82005F0D2F927
:1055B000002005F0F7F9702005F0F4F9002005F05F
:1055C000F1F9EC2005F0C6F9522005F0EBF9F120D5
:1055D00005F0C0F9012005F0E5F9012005F0E2F938
:1055E000022005F0DFF9F62005F0B4F9092005F0F6
:1055F000D9F9102005F0D6F9002005F0D3F90020E4
:1056000005F0D0F9FD2005F0A5F9FA2005F0CAF95A
:10561000FC2005F0C7F93A2005F09CF9052005F0BB
:10562000C1F9352005F096F9002005F0BBF9207886
:1056300000F0D6F8212005F08DF9112005F08AF947
:10564000C820FCF713FE292005F084F9BDE870405E
:105650000A20FCF70BBE0000600200201808024080
:10566000054800224FF6FF71037913B1C280018112
:105670007047C18002817047600200202DE9F84F19
:105680002A4C0021284EA089401E83B26089401E0A
:1056900082B2084600F054F800254FF4F07A3AE060
:1056A000E27801209043E070D4F810C00020C5EBF0
:1056B0000517E94600EB47111D4A715C126800921C
:1056C00001F01C02930101F0C00843EA481301F005
:1056D000E00843EA082301F0030843EAC20219F88C
:1056E000081011430A0A42EA0121E278C2EB0212D1
:1056F00000EB4212401C2CF812105045DADBE07827
:105700002169C0EB001001EB801000224FF4707192
:10571000FFF774F86D1C6089A189484390FBFAF08B
:10572000A842BDDCBDE8F88F942000206002002074
:10573000482002080149887070470000600200207C
:105740002DE9F04704462348994690468A4600BF13
:1057500090F851100129FBD11F4F1020B8611F484C
:1057600001780AF1140609F1140509B30178012939
:105770001ED0007808F1140514342A2005F0EAF848
:10578000A0B205F0FDF8A8B205F0FAF82B2005F05C
:10579000E1F8504605F0F4F84FEA090005F0F0F89A
:1057A0002C2005F0D7F84FF48010B861BDE8F087E1
:1057B0002A2005F0CFF8204605F0E2F8404605F033
:1057C000DFF82B2005F0C6F8B0B205F0D9F8A8B282
:1057D000E4E700009815002000000240600200206D
:1057E00010B50C4C2070362005F0B4F8207850B17C
:1057F0002078012809D02078022808D0A820BDE808
:10580000104005F0CFB80820F9E7C820F7E7782066
:10581000F5E70000600200202DE9FF5F0446DDF897
:1058200038B0904604F0FF09500701D0012100E094
:10583000002101EBD80058431FFA80FA00251DE033
:105840001BF805700026F80705D00E480199C2889C
:105850002046FFF779FC641C24B27F08A4EB090101
:10586000414505D101984C46401C00B2019003E02F
:10587000761CF6B2082EE6D36D1CADB25545DFD3CB
:10588000BDE8FF9F600200202DE9FC5FDFF814B443
:105890000C4605469BF8011002EB4200092927D26D
:1058A000DFE801F00528619BD7FDFCFBFA00FE490B
:1058B000002601EB400A00BF0AEB0600002710F8A3
:1058C000C08CA8190FFA80F95FEAC87006D0E019F9
:1058D00001B24846BBF80620FFF736FC7F1CFFB23A
:1058E0004FEA5808082FEFD3761CF6B2062EE3D302
:1058F000BDE8FC9FED48002600EB0210009030440C
:10590000A0F58050002790F8008E90F8089EA81906
:105910000FFA80FA5FEAC87006D0E01901B250466B
:10592000BBF80620FFF710FC7F1CFFB24FEA5808B7
:10593000082FEFD35FF000075FEAC97007D0E019C6
:10594000083001B25046BBF80620FFF7FDFB7F1C74
:10595000FFB24FEA5909082FEED3761CF6B2082E93
:10596000C6D20098CBE7D248002600EB0210009088
:105970003044A0F58050002790F8009E90F8088EE3
:10598000A8190FFA80FA00BF5FEAC97006D0E019C3
:1059900001B25046BBF80620FFF7D6FB7F1CFFB2D2
:1059A0004FEA5909082FEFD35FF000075FEAC8708C
:1059B00007D0E019083001B25046BBF80620FFF7C7
:1059C000C3FB7F1CFFB24FEA5808082FEED3761CAA
:1059D000F6B2082E8CD20098CAE7B64802EB8201D4
:1059E00000EB8100002600903044A0F58050002795
:1059F00090F8808D90F88A9DA8190FFA80FA00BF60
:105A00005FEAC87006D0E01901B25046BBF8062024
:105A1000FFF79AFB7F1CFFB24FEA5808082FEFD31D
:105A20005FF000075FEAC97007D0E019083001B2E3
:105A30005046BBF80620FFF787FB7F1CFFB24FEAFA
:105A40005909082FEED3761CF6B20A2E88D2009898
:105A5000CAE79949002601EBC00000903044A0F548
:105A60008050002790F8008D90F80C9DA8190FFA2F
:105A700080FA00BF5FEAC87006D0E01901B2504654
:105A8000BBF80620FFF760FB7F1CFFB24FEA580807
:105A9000082FEFD3002703E0F1E0A2E051E016E089
:105AA0005FEAC97007D0E019083001B25046BBF870
:105AB0000620FFF749FB7F1CFFB24FEA5909082F68
:105AC000E9D3761CF6B20C2E84D20098C6E77B4947
:105AD000002601EBC00000903044A0F58050002764
