:020000040801F1
:10000000A0B200209D0101085F1F01085F1D0108CB
:100010005D1F01086B030108593D01080000000045
:10002000000000000000000000000000DD200108CA
:10003000F503010800000000DB200108E9200108A9
:10004000B7010108B7010108B7010108B7010108AC
:10005000B7010108B7010108B7010108B70101089C
:10006000B7010108B7010108B7010108B70101088C
:10007000B7010108B7010108B7010108B70101087C
:10008000B7010108B7010108B7010108B70101086C
:10009000B7010108B7010108B7010108B70101085C
:1000A000B7010108B7010108B7010108B70101084C
:1000B000B7010108B7010108B7010108B70101083C
:1000C000B7010108B7010108B7010108B70101082C
:1000D000B7010108B7010108B7010108B70101081C
:1000E000B7010108B7010108B7010108B70101080C
:1000F000B7010108B7010108B7010108B7010108FC
:10010000B7010108B7010108B7010108B7010108EB
:10011000B7010108B7010108B7010108B7010108DB
:10012000B7010108B7010108B70101086D03010813
:10013000B7010108B7010108B7010108B7010108BB
:10014000B7010108B7010108B7010108B7010108AB
:10015000B7010108B7010108B7010108B70101089B
:10016000B7010108B7010108B7010108B70101088B
:10017000B7010108611F0108B70101080000000074
:10018000B7010108B7010108DFF80CD000F0B0F8A2
:10019000004800478D3F0108A0B200200648804774
:1001A00006480047FEE7FEE7FEE7FEE7FEE7FEE75C
:1001B000FEE7FEE7FEE7FEE781210108890101086D
:1001C0002DE9F05F0546002092469B46884606468C
:1001D000814640241BE0284641464746224600F01F
:1001E00077F853465A46C01A914110D31146184623
:1001F000224600F05EF82D1A67EB01084F462246B2
:100200000120002100F055F817EB00094E41201E97
:10021000A4F10104DFDC484631462A464346BDE8E6
:10022000F09F40EA01039B0703D009E008C9121FB1
:1002300008C0042AFAD203E011F8013B00F8013BA0
:10024000521EF9D27047D2B201E000F8012B491ECC
:10025000FBD270470022F6E710B513460A46044663
:100260001946FFF7F0FF204610BD10B5484304467D
:1002700003F0CEFE002805D00021002C02D0641E21
:100280000155FAE710BD30B50B460146002020228B
:10029000012409E021FA02F59D4205D303FA02F593
:1002A000491B04FA02F52844151EA2F10102F1DCF3
:1002B00030BD202A04DB203A00FA02F1002070470A
:1002C0009140C2F1200320FA03F319439040704794
:1002D000202A04DB203A21FA02F00021704721FA9B
:1002E00002F3D040C2F12002914008431946704702
:1002F000064C074D06E0E06840F0010394E8070073
:1003000098471034AC42F6D3FFF742FFDC410108B6
:10031000FC41010870B58C1810F8015B15F007035B
:1003200001D110F8013B2A1106D110F8012B03E08E
:1003300010F8016B01F8016B5B1EF9D12B0705D496
:100340000023521E0DD401F8013BFAE710F8013BDF
:10035000CB1A921C03E013F8015B01F8015B521EFB
:10036000F9D5A142D8D3002070BDFEE7014800F0C6
:1003700045B80000F0A4002001681823CAB2103A62
:10038000B2FBF3F2054B6FF30901032A9B5CC365D3
:1003900000D9091D816508467047000081400108A9
:1003A00010B5014600208B698A6A4FF0C07453B1C2
:1003B000B3F5005F15D072B1012A0CD0022A0AD021
:1003C000032A09D104E01AB1012A06D0022A03D176
:1003D000C96AC90100D5012010BDC96AA142FAD07D
:1003E00010BD002AF7D0012AF2D0022AF3D0032A46
:1003F000F3D010BD704772B6FEE700002DE9F84358
:1004000004464FF00009CDF8009063484FF41651B0
:10041000A56D0068B0FBF1F72E6894F85C10082019
:1004200000FA01F131420FD021680A6852070BD55A
:100430000A6822F004020A6094F85C108840A86000
:10044000606D40F00100606594F85C104FF00108A9
:1004500008FA01F0304208D021684969090604D53C
:10046000A860606D40F00200606594F85C100420A4
:100470008840304208D021680968890704D5A860FF
:10048000606D40F00400606594F85C1010208840B6
:10049000304218D021680968090714D5A86020687F
:1004A0000168490304D50068000308D5A16C07E082
:1004B0000168C90503D4016821F008010160216CBD
:1004C00009B12046884794F85C10202088403042CB
:1004D00031D021680968C9062DD5A86094F8350087
:1004E00005282068016806D0490347D50068000345
:1004F0001DD4616C1CE021F0160101602068416987
:1005000021F080014161206C08B9A06C20B1206805
:10051000016821F00801016094F85C103F208840D8
:10052000A86084F8358084F83490216D1FE0E16B79
:1005300009B120468847606D00282BD0606DC00748
:1005400014D0052084F835002068016821F00101ED
:1005500001600098401C0090B84203D820680068F1
:10056000C007F6D184F8358084F83490E16C002916
:1005700010D001B02046BDE8F04308470168C90526
:10058000D5D4016821F01001016084F8358084F829
:100590003490CCE7BDE8F8830C0000202DE9F04151
:1005A000044600F07DF906465CB1022084F835006F
:1005B000002584F834502068016821F001010160B1
:1005C0000DE00120BDE8F08100F06AF9801B0528EC
:1005D00005D920206065032084F83500F2E7206803
:1005E0000068C007F0D12268116820480140D4E9B2
:1005F00001031843D4E903363343184363691843AE
:10060000A3691843E3691843236A18430843616ADE
:10061000042903D1D4E90B1319430843106020685F
:100620004069666A20F0070130460E43012704281E
:100630000CD1A06A0643E06A40B12046FFF7B0FE45
:1006400020B14020606584F83570BAE720684661C3
:100650002046FFF791FE94F85C203F219140816095
:10066000656584F835700020ACE700003F8010F02D
:1006700070B5044600F014F90546601C02D0044829
:100680000078044400F00CF9401BA042FAD370BD7E
:10069000000000202DE9F84FDFF8BCA10022012561
:1006A00003264FF00F090AF1040BAAF1040E00BF54
:1006B0000B6805FA02F42340A34270D10F7907F0CA
:1006C0000307012F01D0022F16D187684FEA420895
:1006D00006FA08FC27EA0C07D1F80CC00CFA08FC53
:1006E0004CEA070CC0F808C04768A7430C79C4F36C
:1006F000001494403C4344600C79E443A4070AD0BE
:10070000C4684FEA420C06FA0CF7BC438F6807FA3C
:100710000CF72743C7600C7904F00304022C12D1B4
:10072000D40800EB840CDCF820405707FF0E09FAD0
:1007300007F824EA0804D1F8108008FA07F848EA14
:100740000408CCF8208004684FEA420C06FA0CF743
:10075000BC430F7907F0030707FA0CF7274307603C
:100760004C6814F4403F70D03C4C276847F48047F5
:100770002760246822F0030704F480440094384C76
:1007800007EB040CDCF8084897074FEA177809FADA
:1007900008F7BC43334FB84202D1002724E054E0AD
:1007A000314FB84201D101271EE0304FB84201D18C
:1007B000022719E02E4FB84201D1032714E02D4F34
:1007C000B84201D104270FE02B4FB84201D10527D1
:1007D0000AE02A4FB84201D1062705E0284FB84267
:1007E00001D1072700E0082707FA08F72743CCF8CC
:1007F0000878DAF800405746D1F804C09C435FEA15
:10080000CC2C00D51C433C60DBF800405F46D1F89F
:1008100004C09C435FEA8C2C00D51C433C60DEF88E
:1008200000407746D1F804C09C435FEA8C3C00D579
:100830001C433C60084F083F3C68D1F804C09C430F
:100840005FEACC3C00D51C433C60521C102AFFF4EC
:100850002FAFBDE8F88F0000083C0140443802404B
:100860000030014000000240000402400008024045
:10087000000C024000100240001402400018024028
:10088000001C0240426921EA02030A4043EA024195
:10089000816170470AB1816170470904FBE700007C
:1008A000014880687047000000000020024881680D
:1008B0000278114481607047000000200B4810B599
:1008C000016841F400710160016841F480610160D8
:1008D000016841F480710160032000F06FF80F207F
:1008E00000F006F800F024F8002010BD003C0240A3
:1008F00070B50D4D04464FF47A712878B1FBF0F0D5
:100900000A490968B1FBF0F001F056F948B9102C1A
:1009100007D200222146501E00F030F800206C6003
:1009200070BD012070BD0000000000200C00002000
:100930000A4808B5016841F480410160006800F48C
:10094000804000900548001F016841F0805101601F
:10095000006800F08050009008BD0000443802405C
:10096000002809DB00F01F020121914040098000AE
:1009700000F1E020C0F8001170470000F0B40E4B09
:100980001B680C46C3F30223C3F10705042D00D9ED
:100990000425191D072901D2002300E0DB1E0126D2
:1009A00006FA05F1491E214099409E40761E1640E8
:1009B0003143F0BC03F0E2B90CED00E0064900F071
:1009C000070208684FF6FF03184040EA0220034A76
:1009D00010430860704700000CED00E00000FA05CD
:1009E00070470068416200207047F0B50368586A9C
:1009F00039B19C6A4FF4827600EB144400204D1EFE
:100A00000AE040EA024098620FE006EB8007DF59F7
:100A1000401C04EB1744C0B2A842F6D344EA02409B
:100A20004FF4807202EB810158500020F0BDD0F8E5
:100A3000080501F09DBE01EBC10200EB8202D0F877
:100A40000805D26C01F008BE01EBC10200EB820286
:100A5000D0F80805D2F88C2201F053BED0F8080572
:100A600001F088BE0A0601F00F0101EBC10100EBA5
:100A7000810101D53C3101E001F51F71006802F0F0
:100A8000B3BF70B504460B0601F00F0000EBC001C8
:100A900004EB81014FF001024FF0000503D581F80E
:100AA0003D203C3103E081F87D5201F51F71087053
:100AB00094F8BC04012808D084F8BC24206802F013
:100AC0004DFC84F8BC54002070BD022070BD70B590
:100AD000044601F00F006268904201D9012070BD08
:100AE0000B0601F00F0101EBC10104EB81014FF096
:100AF00001024FF0000503D581F83D203C3103E0B1
:100B000081F87D5201F51F718D70087094F8BC0456
:100B1000012808D084F8BC24206802F01BFE84F869
:100B2000BC54002070BD022070BD01F00F0101EB2C
:100B3000C10100EB8100D0F89C0270472DE9F04123
:100B400004460F0601F00F0000EBC00104EB810129
:100B50004FF001064FF0000503D581F83D603C31B0
:100B600003E081F87D5201F51F710870CA600B71B6
:100B70004A7802B10881022B00D14D7194F8BC046F
:100B8000012809D084F8BC64206802F03FFB2846A5
:100B900084F8BC54BDE8F0810220FBE770B50C4638
:100BA00001F00F0505EBC50100EB8101C1F894329E
:100BB000C1F88C220023C1F89C3281F87D3281F883
:100BC0007C52036901F51F71012B00D14A61220794
:100BD000027C006803D002F015FE002070BD02F018
:100BE000FFFCFAE770B504460D4601F00F0061689E
:100BF000884201D9012070BD29064FF000064FF050
:100C0000010207D500EBC00104EB810181F83D2012
:100C10003C3107E005EBC50104EB810181F87D6201
:100C200001F51F718A70087094F8BC04012807D080
:100C300084F8BC24206802F0B9FD280702D007E040
:100C4000022070BD217C04F2C442206802F056FDEF
:100C500084F8BC64002070BD70B50C4601F00F052F
:100C600005EBC50100EB81014B65CA640023CB6530
:100C7000012381F83D3001F83C5F0369012B00D16D
:100C80004A612207027C006803D002F0BBFD00200D
:100C900070BD02F0A5FCFAE72DE9FC5F056804468B
:100CA000284602F042FF00287DD1206802F069FF4B
:100CB000002878D0D5F80808C0F30D20C4F8FC044B
:100CC000206802F05EFF800704D52068416901F0CA
:100CD00002014161206802F054FFC10604F2C440E1
:100CE000009034D52068816921F0100181612F6A5C
:100CF00007F00F0000EBC00004EB8006C7F3434091
:100D000006F51F76022802D0062811D01AE047F611
:100D1000F070074216D0C7F30A1217462846316909
:100D200002F033FF306938443061306A384408E0FB
:100D300008222846009902F028FF306AC7F30A11FA
:100D4000084430622068816941F0100181612068A7
:100D500002F017FF00034FF0080B4FF0000A4FF0AE
:100D600001097CD50026206802F0EAFE074674E0FF
:100D7000F80770D0F1B2206802F0FBFE8046C00791
:100D800007D005EB4611C1F8089B3146204601F01B
:100D9000EDF85FEA087024D505EB4611C1F808BBF1
:100DA0002068016C00E025E200EB46100191D0F8CC
:100DB000082BFC4B994205D9110403D54FF400418F
:100DC000C0F8081B204600F02FFBF6490198884226
:100DD00007D92069012804D120680121009A02F076
:100DE0008DFC5FEAC86004D505EB46111020C1F800
:100DF000080B5FEA88701DD56869000605D5D5F82F
:100E0000040840F48061C5F8041806EBC60004EB42
:100E1000800090F87F1200F51F70012905D180F83D
:100E200003A0F1B2204600F0EBF905EB46110220D9
:100E3000C1F8080B5FEA886004D505EB4610202155
:100E4000C0F8081B5FEA884005D505EB46104FF453
:100E50000051C0F8081B7F08761C002F88D120683D
:100E600002F08FFE40036FD5206802F062FE074655
:100E7000002667E0F80763D0F1B2206802F067FE51
:100E80008046C00723D006F00F0209FA02F0D5F819
:100E900034288243C5F8342805EB4610C0F8089979
:100EA000206901280FD106EBC60004EB8000D0E9D1
:100EB00012211144C16436B9606D20B92068012146
:100EC000009A02F01BFCF1B22046FFF7B4FD5FEA86
:100ED000087003D505EB4611C1F808B95FEAC86090
:100EE00004D505EB46111020C1F808095FEA4860F7
:100EF00004D505EB46104021C0F808195FEA887058
:100F000017D53146284602F0E3FD06EBC60004EB98
:100F1000800090F83F103C30012905D180F803A0F3
:100F2000F1B2204600F068F905EB46110220C1F845
:100F300008095FEA086003D53146204601F07CF8D5
:100F40007F08761C002F95D1206802F01AFE002839
:100F500011DAD5F8040820F00101C5F8041894F856
:100F6000F40401282BD0204600F042FA20684169A1
:100F700001F000414161206802F003FE00050BD53D
:100F8000D5F80808C00702D0204600F099FA20687A
:100F9000416901F400614161206802F0F2FDC00482
:100FA00066D5D5F8040820F00100C5F80408102122
:100FB000206802F08DFD00214FF67F321FE084F89B
:100FC000F4A400212046FFF70BFDCFE705EB41100D
:100FD000C0F80829D0F8003923F40013C0F800390C
:100FE000C0F8082BD0F8003B23F40013C0F8003BF6
:100FF000D0F8003B43F00063C0F8003B491C606838
:101000008842E3D8D5F81C0840F00111C5F81C1837
:10101000206B002828460DD0D0F8840840F00B0142
:10102000C5F88418D5F8440840F00B012846C5F8E7
:1010300044180DE0D0F8140842F22B010843C5F81B
:101040001408D5F8100840F00B012846C5F8101810
:10105000D0F8000820F4FE61C5F80018217C206853
:10106000009A02F04BFB2068416901F48051416114
:10107000206802F086FD800415D5206802F006F98C
:10108000206802F045FDE06000F0CCFA0146227BCA
:10109000206802F0D9FD204600F094F920684169EB
:1010A00001F400514161206802F06BFD000707D593
:1010B000204600F0A1F92068416901F00801416172
:1010C000206802F05EFD000616D5A86920F08000B9
:1010D000A86101260DE000BF06EBC60004EB80000E
:1010E00090F87F02012803D1F1B22046FFF7BAFC45
:1010F000761C6068B042EFD8206802F042FDC00262
:1011000021D501264F4616E005EB4610D0F8001910
:1011100006EBC60004EB800090F84020012A09D1BC
:10112000002907DA80F83F70F0B240F080012046D5
:10113000FFF798FC761C6068B042E5D820684169EA
:1011400001F480114161206802F01BFD800234D55A
:1011500001204B4629E000BF05EB4011D1F8001BF0
:1011600000EBC00204EB820696F88022012A1BD114
:10117000002919DA94F8FC2401F4803102F001020C
:10118000914211D186F87F32A96941F08002AA61AB
:101190006969090608D4D5F8040840F40070C5F858
:1011A000040805E00A30544F401C61688142D3D8DE
:1011B0002068416901F400114161206802F0E1FCFE
:1011C000400007D52046FFF732FC2068416901F056
:1011D00080414161206802F0D4FC40070AD52068B4
:1011E0004568680702D52046FFF738FC206841684B
:1011F00029434160BDE8FC9FD0F8080501F00EBB13
:10120000D0F8080501F00CBB2DE9F0418AB00400CC
:1012100005D094F8BD042668002520B108E001201F
:101220000AB0BDE8F08184F8BC54204600F05EF8B6
:10123000032084F8BD04F06BC00500D4256120684C
:1012400002F0C8F904F11001282288466846FEF72A
:10125000E8FF94E80F0002F027F80226C8BB00213F
:10126000206802F0B1FC002001270EE000EBC00175
:1012700004EB810181F83D7001F83C0F08810D718C
:10128000CD600D61401CC0B28D6161688142EDD8B6
:10129000002011E000EBC00104EB810181F87D52D8
:1012A00081F87C0281F88052C1F88852C1F88C52D2
:1012B000401CC0B2C1F8945261688142EAD8282229
:1012C00041466846FEF7ADFF94E80F0002F0C8F80B
:1012D00010B184F8BD64A2E784F8385084F8BD7476
:1012E000206802F0AFF800209AE700002DE9F041F5
:1012F00086B0044614216846FEF7ACFF2C492068EE
:10130000884251D12B4C4FF00008206840F0040077
:101310002060206800F004000590206840F0010083
:101320002060206800F001000590206840F0020075
:1013300020602068022500F0020005900D208DE855
:10134000210103260A2769461B48CDE90367FFF7F9
:10135000A1F928208DE8210169461848CDE90367E5
:10136000FFF798F943F623408DE8210169461448B8
:10137000CDE90367FFF78EF9206840F00050206048
:10138000206800F000500590206840F08040206008
:101390002068002200F08040059011464D20FFF7A4
:1013A000EDFA4D20FFF7DCFA06B0BDE8F081000051
:1013B00000000440303802400008024000000240B3
:1013C0000004024070B50446C068012570B10228CF
:1013D00001D0FFF710F82946D4F8080501F076FA95
:1013E000D4F80805BDE8704001F031BA0025F2E7F5
:1013F000D0F8080501F054BAD0F8080501F05ABA3F
:1014000010B5044690F8BC0401280BD0012084F8E4
:10141000BC0484F83810206802F004FC002084F832
:10142000BC0410BD022010BD2DE9F04100F2C44102
:10143000D0F80845054604F2AA200F46064601F0FA
:10144000F9FC94F8AA120020C90603D131462046BF
:1014500001F0F8FA94F8AA1201F01F01012903D152
:101460003146204601F032FB002806D13946D5F836
:101470000805BDE8F04101F035BABDE8F08110B5CE
:101480000446006894F8BC14012906D0012184F8B0
:10149000BC14A16A012902D008E0022010BDA16994
:1014A000012903D0816B41F480318163206802F00F
:1014B000EAFA206801F0B8FF002084F8BC0410BDEF
:1014C00010B50446D0F8080501F04EFA2068D0F8AF
:1014D000001E41F00101C0F8001E206A002804D05F
:1014E0000248016841F00601016010BD10ED00E006
:1014F0002DE9F0470E46050065D0DFF81481D8F8D5
:101500000000F7B200F00700B04207D288F8007080
:10151000D8F8000000F00700B04254D128683D4CD4
:10152000810712D5400703D5206840F4E0502060C1
:101530002878000703D5206840F4604020602068C8
:10154000A96820F0F000084320602878C0072DD05B
:10155000304968680839012812D0022813D00328BE
:1015600011D00968890700292DDA216821F00301CB
:1015700001432160FFF794F9814641F2883A0EE079
:1015800009688903EFE709688901ECE7FFF788F943
:10159000A0EB0901514502D90320BDE8F08720687E
:1015A000696800F00C00B0EB810FEFD1D8F80010A3
:1015B000404601F00701B14207D90770006800F00A
:1015C0000700B04201D00120E7E72878400705D5A1
:1015D0002068E96820F4E05008432060287800077C
:1015E00006D52068296920F4604040EAC1002060E7
:1015F00000F03EF82168084AC1F30311515CC8406D
:101600000649086006480068FFF772F90020C4E741
:10161000003C024008380240894001080C000020CC
:101620000400002001480068704700000C00002002
:101630000448054900680968044AC1F38221515CE5
:10164000C84070470C00002008380240994001084B
:101650000448054900680968044AC1F34231515CF5
:10166000C84070470C00002008380240994001082B
:10167000154810B5006810F00C02144813D0411042
:10168000042A0FD0082A0ED10F4C241F2268236889
:1016900002F03F025B0207D52068C0F38810A0FB70
:1016A000010106E0084610BD2168C1F38811A1FBC5
:1016B00000010023FEF784FD2168C1F30141491CAC
:1016C0004900B0FBF1F010BD083802400024F400DE
:1016D0002DE9F84F04006ED02078DFF84C93C00756
:1016E000A9F104054AD009F104000168C1F38101A0
:1016F000012908D00068C0F3810002280AD1D9F876
:101700000000400206D52868800337D560680028AD
:10171000E1D033E06068B0F5803F10D0B0F5A02F85
:10172000286810D020F480302860286820F48020B9
:1017300028606068A8B1FFF7B3F806460DE0286896
:1017400040F48030F4E740F480202860F7E700BFE1
:10175000FFF7A6F8801B642873D828688003F7D5A4
:101760000CE0FFF79DF8064605E000BFFFF798F88C
:10177000801B6428F0D828688003F7D42078DFF82D
:10178000AC8280074FF0000A3ED5A748001D0168D3
:1017900011F00C0F08D00068C0F3810002280BD1B3
:1017A000D9F80000400207D42868800716D5E06801
:1017B000012800D112E033E1E068B8B10120C8F897
:1017C0000000FFF76DF8064605E000BFFFF768F878
:1017D000801B0228C0D828688007F7D528682169AF
:1017E00020F0F80040EAC10028600DE0C8F800A031
:1017F000FFF756F8064604E0FFF752F8801B022870
:101800001FD828688007F7D42078000722D5864F94
:1018100087486169703771B101210160FFF740F8B5
:10182000064604E0FFF73CF8801B022809D8386818
:101830008007F7D50EE0C0F800A0FFF731F80646A4
:1018400005E082E0FFF72CF8801B02287DD838687D
:101850008007F7D42078400768D5DFF8CCB100279F
:101860000BF13C0BDBF80000C0000BD4DBF80010E0
:1018700041F08051CBF80010DBF80000012700F0A8
:10188000805000906B4E3068C00510D4306840F432
:1018900080703060FFF704F8009005E0FFF700F873
:1018A0000099401A022850D83068C005F6D55E4E1F
:1018B000A0686C3601280FD00528306810D020F0C1
:1018C00001003060306820F004003060A068B8B1DA
:1018D000FEF7E6FF00900FE0306840F00100F4E70B
:1018E00040F004003060F7E7FEF7DAFF0099411A94
:1018F00041F28830814266D830688007F4D50EE026
:10190000FEF7CEFF009007E0FEF7CAFF0099411AEC
:1019100041F28830814256D830688007F4D42FB124
:10192000DBF8001021F08051CBF80010A069C8B39B
:101930003D49091D0968C1F3810102294AD00228E5
:10194000504607D0C8F8600000E03CE0FEF7A8FF72
:1019500004463BE04746C8F86000FEF7A1FF064694
:1019600005E000BFFEF79CFF801B02282BD82868EB
:101970008001F7D4D4E907010843A16A2E4A490837
:1019800002EB0141626A41EA8211084394F82C108B
:1019900040EA0161C9F8001001203866FEF780FFB7
:1019A000044606E03EE000BFFEF77AFF001B022877
:1019B00009D828688001F7D534E000BFFEF770FF32
:1019C000001B022802D90320BDE8F88F2868800197
:1019D000F4D427E00128F7D0D9F80000E26900F438
:1019E000800191421CD1226A00F03F01914217D13F
:1019F00047F6C071626A0140B1EB821F10D1A26A42
:101A00004FF0FF3300F4403103EB5202B1EB024FD1
:101A100006D194F82C1000F07060B0EB016F01D08B
:101A20000120D1E70020CFE7043802400000474200
:101A3000800E4742007000400000FFFF70B50400B8
:101A400009D0606A002540B125616561A56294F8FE
:101A5000510040B10CE0012070BD6068B0F5827F9C
:101A6000F4D0E561F2E784F85050204600F044F8E5
:101A7000022084F851002068016821F040010160D3
:101A8000A088218900F4827001F404410843A189EF
:101A900001F400610843217C01F002010843217D2B
:101AA00001F001010843218B01F400710843217FFB
:101AB00001F03801084394F8201001F08001084338
:101AC000218D01F40051084321680860A0690421B8
:101AD00001EA104094F8241001F010010843216835
:101AE00048602068C16921F40061C1616565012019
:101AF00084F85100002070BD2DE9F04186B0064603
:101B000014216846FEF7A6FB25493068884244D177
:101B100024480025016841F4805101600068214992
:101B200000F4805014390590086840F00100086006
:101B3000086800F001000590086840F002000860A5
:101B40000868022400F002000590802003274FF06F
:101B500005088DE8B10169461348FEF79BFD082092
:101B60008DE8B10169461148FEF794FD114C10480B
:101B70002060780660604020C4E902050001C4E9E5
:101B80000405A561E561256220466562FEF706FD54
:101B900008B1FEF730FCB464A66306B0BDE8F0817E
:101BA000003001404438024000000240000402407E
:101BB00058640240F0A4002010B5401EB0F1807FB0
:101BC00001D3012010BD4FF0E02460610F216017A8
:101BD00002F0D4F80020A06107202061002010BD91
:101BE00070B5040004D094F83D00002510B106E063
:101BF000012070BD84F83C50204600F023F82420DA
:101C000084F83D002068C16821F40051C16020467D
:101C100000F0C4FA2068016921F490410161206854
:101C2000416921F02A0141612068C16841F40051F5
:101C3000C1602564202084F83D0084F83E00002027
:101C400070BD000010B586B0044614216846FEF74A
:101C500001FB13492068884220D112480021026804
:101C600042F010020260006800F0100005900D487C
:101C70001438026842F002020260006800F00200BC
:101C80000590C02000900220CDE9010103200390BF
:101C90000720049069460448FEF7FCFC06B010BD1E
:101CA0000010014044380240000402402DE9F8438E
:101CB000044690F83D001F4616460D4620284CD19C
:101CC000C5B1BEB194F83C00012846D0012084F88B
:101CD0003C004FF00008C4F84080212084F83D000B
:101CE000FEF7DEFDA6848146E684A068B0F5805F3D
:101CF00003D004E00120BDE8F883206928B12E4616
:101D00005FF0000584F83C800EE00026FAE78021B1
:101D1000204600F0C9FAA0B9AEB116F8010B21684F
:101D20004860E08C401EE084E08C4B464FF000029F
:101D300000970028EBD14FF04001204600F0B4FAA4
:101D400030B10320D7E735F8020BC0F30800E6E70F
:101D5000202084F83D000020CDE70220CBE7FEE7FD
:101D6000F0B500230A24302537261F4611E000BFB6
:101D7000B4EB107F02D905EB107C01E006EB107C80
:101D800001F813C001EB430C00015B1C8CF80170DF
:101D9000DBB29342ECD3F0BD094808B5016841F4C9
:101DA000800101600068002200F48000009011466C
:101DB0003B20FEF7E3FDBDE808403B20FEF7D0BD29
:101DC000303802402DE9F04F87B014216846FEF705
:101DD00041FA3E480025016841F0040101600168B4
:101DE00001F004010591016841F080010160016882
:101DF00001F080010591016841F001010160016875
:101E000001F001010591016841F0020101600168E2
:101E100001F002010591016841F0080101600068CC
:101E2000DFF8AC9000F008004FF400540590002259
:101E300021464846FEF72EFDDFF898A04FF488763D
:101E4000012231465046FEF725FD4FF4404700225F
:101E500039462148FEF71EFDDFF880B04FF4807848
:101E6000002241465846FEF715FD009401246946BC
:101E700048460194CDE90245FEF70CFCCDE900642B
:101E80000326CDE9024669465046FEF703FCCDE93C
:101E9000007469461048CDE90245FEF7FBFBCDE929
:101EA000008469465846CDE90245FEF7F3FB60021F
:101EB000009001A9022081E8610009200490694690
:101EC0000548FEF7E7FB07B0BDE8F08F3038024069
:101ED000000802400000024000040240000C0240E2
:101EE0000F4810B50D4901604FF482714160002127
:101EF0008160C1604FF400720161C0E90512C161E7
:101F00000162416281620A21C162FFF797FD0028E8
:101F100003D0BDE81040FEF76EBA10BD003001409E
:101F200098A400200C4810B50A4901604FF4E13133
:101F30004160002181600C22C160C0E9041281610E
:101F4000C161FFF74DFE002803D0BDE81040FEF749
:101F500052BA10BD0010014050A50020FEE7FEE778
:101F60000148FEF799BE000094A700202DE9F0413A
:101F700003680D4604461E6C03EB4511D1F8080BAF
:101F8000D4F810E04FF400474FF0200C04F2C442A4
:101F9000BEF1010F09D0DFF898E0764539D102048F
:101FA00032D500BFC1F8087B3FE0224B5FEA007EDC
:101FB00004D59E4239D90004F4D436E05FEA806E3D
:101FC00002D5C1F808CB30E010F0280F2DD19E4289
:101FD00001D90004E6D405EBC50004EB8000D1F87C
:101FE000101BD0F89832C1F31201591AC0F89C1294
:101FF00000F51F70ADB983691BB10269114401611D
:102000000FE0012120680AE080060AD5C1F808CB5C
:1020100007E035B9D4F8940218B90021184601F048
:102020006DFBE9B22046FEF70FFD0020BDE8F08110
:102030000A31544F0A30544F2DE9F84F0E4601EB48
:10204000C60100EB810481460568616DE06D3C349A
:10205000884202D90120BDE8F88F081AE168814260
:1020600000D20846C01C870805EB46181BE000BFDD
:10207000A0EB010AE068504500D282460AF1030055
:10208000870899F8100000901FFA8AF3F2B22846E8
:10209000216901F04DFE216901EB0A002061216AEE
:1020A00001EB0A002062D8F8180980B2B84205D3C3
:1020B000216AA069814201D20028D9D1216AA06990
:1020C000884208D806F00F0101208840D5F834185E
:1020D0008143C5F834180020BDE770477047017888
:1020E000407841EA00207047FEF7E0BB30B593B07E
:1020F00030216846FEF7AEF814210CA8FEF7AAF8C6
:102100001D480025016841F080510160006800F021
:10211000805011901948016841F4804101600068C5
:10212000022400F4804011900120009000040190EE
:102130008001CDE9064004200890A820CDE90904DB
:1021400007200B906846FFF7C3FA08B172B6FEE7A6
:102150000CA90F2081E831004FF4A0500F904FF4EC
:102160008050109005210CA8FFF7C2F9002801D07B
:1021700072B6FEE713B030BD403802400070004038
:102180000448016841F47001016002490248803945
:102190000860704788ED00E00000010870B5044653
:1021A00000680169E26821F440511143016121692D
:1021B000A068E26908436169114308432168CA685D
:1021C00049F20C639A430243CA6020684169A269DC
:1021D00021F440711143416131492068884202D0A5
:1021E0003049884202D1FFF733FA01E0FFF720FAC5
:1021F000E2690023192164253226B2F5004F626896
:1022000028D0A0FB0101930F9200FDF7D9FF0146F2
:10221000B0FBF5F06FF01802504301EB800006EBC5
:102220000010B0FBF5F000F0F002B1FBF5F002EBAE
:102230000012B1FBF5F06FF01803584301EB80007A
:1022400006EB0010B0FBF5F000F00F002168104421
:10225000886070BDA0FB010192185B41FDF7B0FFE3
:102260000146B0FBF5F00201B1FBF5F06FF0180389
:10227000584301EB800006EBC000B0FBF5F000F026
:10228000F80002EB4002B1FBF5F0584301EB80008F
:1022900006EBC000B0FBF5F000F00700D6E7000049
:1022A00000100140001401402DE9F0419846174606
:1022B0000E460446069D27E0681C25D02DB1FEF78A
:1022C000EFFAA0EB0800A8421ED920680C3050E8B5
:1022D000001F21F4D07140E80012002AF5D12068D7
:1022E000143050E8001F21F0010140E80012002ADC
:1022F000F5D1202084F83D0084F83E00002084F8C9
:102300003C000320BDE8F0812068006836EA000048
:1023100004D00020B842CFD00020F3E70120F9E735
:1023200010B5D0F8B8220AB152689047002010BD0D
:10233000134610B50A46002100F080FA002010BDB7
:10234000134610B50A46002100F017FB002010BD0F
:1023500010B50446802100F0F5FA2046BDE8104093
:10236000002100F0EFBA10B50323C0F85821C0F8DF
:102370009432C0F85C2113460A46002100F05EFA50
:10238000002010BD10B505210023C0F894121A4694
:10239000194600F053FA002010BD10B502238261E7
:1023A000C0F89432C26113460A46002100F0E5FAF3
:1023B000002010BD10B504210023C0F894121A4665
:1023C000194600F0DAFA002010BD000010B50A46E8
:1023D000024903A000F0E4F8004810BD94A50020D5
:1023E0006E65785F6C696E6B20636F6E66696700FF
:1023F00012200880004870478C01002010B50A4662
:10240000024903A000F0CCF8004810BD94A50020BC
:102410006E65785F6C696E6B20696E74657266615B
:102420006365000004200880004870478801002090
:1024300010B50A46024903A000F0B2F8004810BDEA
:1024400094A500204E65784C696E6B0010B50A4665
:10245000024903A000F0A4F8004810BD94A5002094
:102460004E65784C696E6B2D53544D3332463400B3
:1024700010B51A2008800A480168001D0468001D74
:102480000068081809D008220649FFF769FC0549C9
:10249000042210312046FFF763FC0248801E10BD65
:1024A000107AFF1FA2010020F8B504460020ADF805
:1024B000000048880D46010A082968D2DFE801F0CB
:1024C000670409176767454ED4F8B412207C0A6880
:1024D00019E0207C02260028D4F8B80205D0C16A91
:1024E000684688470146467042E0816AF8E7C1B213
:1024F000062921D2DFE801F0030A1014181CD4F8D1
:10250000B402426805E06946904725E0D4F8B40279
:102510008268DAB3207CF6E7D4F8B402C268F8E740
:10252000D4F8B4020269F4E7D4F8B4024269F0E7DF
:10253000D4F8B4028269ECE7D4F8B8128B6B2BB3F1
:10254000C1B26A462046984706E0207CF0B9D4F82C
:10255000B802416B68468847014609E0207CA8B96B
:10256000D4F8B802016B68468847014607204870D6
:10257000EA888AB1BDF8000040B1824200D9024623
:10258000ADF800202046FFF708FFF8BDFFE7294619
:102590002046FFF7DDFEF8E72046FFF70BFFF4E7E4
:1025A00070B5002300281ED00025044602E06D1CF3
:1025B000EDB2641C2678002EF9D1022404EB450408
:1025C00014801278CA545B1C0322CA5400245B1C7A
:1025D00006E0CA545B1CDAB28C54521CD3B2401CC5
:1025E0000278002AF5D170BD01004FF0000004D040
:1025F000012901D0022901D0032070470120704732
:1026000030B4A0B1D0F8B84200230CB1C0F8B83251
:10261000D0F8CC420CB1C0F8CC3209B1C0F8B41239
:10262000012180F89C12027030BC00F0B3B830BCBD
:102630000320704710B5D0F8C402FEF748FABDE891
:102640001040FFF7D1BF10B5D0F8C402FEF719FA59
:10265000BDE81040FFF7C8BF70B51646044649B143
:10266000D4F8B80242691AB194F89C02032842D007
:10267000032070BDD4F89412002504F1140002293F
:1026800032D1D0E902318B4206D95A1A82603146E2
:102690002046FFF755FE0FE0994214D1406888426A
:1026A00011D3D4F8981288420DD200221146204648
:1026B000FFF746FEC4F8985200231A4619462046F2
:1026C00000F0BCF810E0D4F8B802C16829B194F861
:1026D0009C02032801D1204688478021204600F033
:1026E00031F92046FFF74EFE94F8A002012806D1EA
:1026F00084F8A05203E0204690470028B9D100207A
:1027000070BD10B51346044649B1D4F8B8028269C9
:102710001AB194F89C02032824D0032010BDD4F8E9
:10272000941204F5AA70032920D1D0E90212914233
:102730000AD98A1A8260C068824200D302461946CA
:102740002046FFF7F5FD11E0D4F8B802016929B180
:1027500094F89C02032801D1204688472046FFF7C1
:1027600029FE03E0204690470028D7D1002010BD65
:102770000020704710B5012180F89C12D0F8B822D3
:1027800012B1526801799047002010BDD0F8C40200
:10279000FEF7CBB910B50178012929D115490122DD
:1027A000C1F80805C0F8C412134808600620486044
:1027B0000020C8600861C1E9062008624862C8625A
:1027C000086348630846FEF71FFD08B1FDF713FED6
:1027D0004FF400710748FEF704F9802200210548F4
:1027E000FEF703F94FF4BA7201210248FEF7FDF833
:1027F000002010BD94A70020000004400A0601F04C
:102800007F01D0F8C40201EBC10100EB810002D5C9
:1028100090F83E00704790F87E02704700207047A5
:102820000020704710B51C461346D0F8C40222465B
:10283000FEF784F9BDE81040FFF7D6BE10B5D0F81A
:10284000C402FEF7ABF9BDE81040FFF7CDBE70B58E
:102850000125044680F89C520020C4F89402606070
:10286000C4F8A402D4F8BC0228B1D4F8B8020021FC
:102870004268204690470022402311462046FFF739
:10288000D1FF4026A4F8645133460022802120461F
:10289000C4F86061FFF7C6FFA5840020266270BD02
:1028A00090F89C12042903D190F89D1280F89C1294
:1028B0000020704710B590F89C12032904D1D0F87D
:1028C000B812C96901B18847002010BD0174002009
:1028D000704710B5D0F8C402FEF792FDBDE8104075
:1028E000FFF782BE70B5044600F2AA20054600F04C
:1028F000A1FA0120C4F89402B4F8B002C4F8980216
:1029000094F8AA0210F01F010AD001290ED0022962
:1029100012D000F080012046BDE8704000F012B8EF
:1029200029462046BDE8704000F016BB29462046E7
:10293000BDE8704000F041BC29462046BDE870402B
:1029400000F095BB10B5D0F8C402FEF74BF9BDE816
:102950001040FFF749BE10B5D0F8C402FEF78FFD56
:10296000BDE81040FFF740BE90F89C1280F89D1221
:10297000042180F89C120020704710B5D0F8C402E2
:10298000FEF76AF9BDE81040FFF72EBE70B50D46A0
:102990000646D0F8BC4240F2B3121D491DA001F01A
:1029A000DDF968780A2825D2DFE800F0050505245E
:1029B000180F20052205286860646868A064EA880A
:1029C00021463046FFF7CFFC18E0114887380168F0
:1029D0002160416861608068A06005E00C492822A0
:1029E0007B392046FDF71DFCEA880CE0E06E08E02C
:1029F000688828B129463046FFF7AAFC002070BD40
:102A00000F480422206021463046FFF7C6FCF5E758
:102A10002841010825735B25645D3A2055534244E3
:102A20005F4E45585F4C494E4B5F436F6E6669671A
:102A30005F5265717565737420200D0A00000000F7
:102A4000EFBEADDE70B50C4605464FF4FC72114981
:102A500011A001F083F9607820280ED1A088042805
:102A600002D0052809D106E0E28817494020402A13
:102A70000BD9024609E0608808B1002070BD1249F8
:102A8000E28840319220922AF3D82846FFF785FC4D
:102A9000012070BD6241010825735B25645D3A2009
:102AA000555342445F4E45585F4C494E4B5F43750A
:102AB00073746F6D4465766963655265717565738E
:102AC0007420200D0A00000098000020FFF7BABF14
:102AD00010B504464FF40E72044905A001F03EF90A
:102AE000D4F8BC0200210164084610BD98410108D9
:102AF00025735B25645D3A20555342445F4E45582B
:102B00005F4C494E4B5F44617461496E20200D0A51
:102B10000000000070B5D0F8BC4206460325E06D09
:102B2000401CE0653046FFF731FE616D08444FF40C
:102B30002041B0FBF1F201FB1200606520B94FF4B7
:102B400080710448FDF79EFE304600F08BF8284661
:102B500070BD0000000C024010B504468121FFF753
:102B600072FD02212046FFF76EFD002010BD00001F
:102B700070B50646D0F8BC4240F267120B490CA073
:102B800001F0ECF804F14405687802280AD2DFE885
:102B900000F001042068E06404E000206065304635
:102BA00000F060F8FF206870002070BD0E41010841
:102BB00025735B25645D3A20555342445F4E45586A
:102BC0005F4C494E4B5F4550305F527852656164AF
:102BD0007920200D0A000000322101800048704752
:102BE0005000002010B5EE2905D000211180FFF71C
:102BF000AFFB002010BD12201080014810BD000066
:102C0000840000202DE9F0410F460646032574217B
:102C10000120FDF72AFB044640F22312084909A0CF
:102C200001F09CF8002134B1C4E91471C6F8BC422B
:102C30000025A16501E0C6F8BC122846BDE8F08178
:102C4000D540010825735B25645D3A205553424405
:102C50005F4E45585F4C494E4B5F496E697420206A
:102C60000D0A0000D0F8BC124023D1E914210A4417
:102C70000221FFF7E3BD000010B54FF4AB7203492A
:102C800003A001F06BF8002010BD0000FC4001081B
:102C900025735B25645D3A20555342445F4E455889
:102CA0005F4C494E4B5F534F4620200D0A000000F9
:102CB00070B50C4605464FF400411048FDF7E2FDA3
:102CC0004FF407720E490FA001F048F8207810F079
:102CD000600009D0202801D040280DD12146284687
:102CE000BDE8704000F054B860780A2804D1012291
:102CF0000C492846FFF751FB002070BD000402403C
:102D00008441010825735B25645D3A205553424494
:102D10005F4E45585F4C494E4B5F5365747570204C
:102D2000200D0A004C00002070B50646032540F235
:102D300039120E490EA001F011F8D6F8BC429CB130
:102D40004FF480652B46022281213046FFF76AFD51
:102D500002222B4611463046FFF764FD00206065D5
:102D60003046FFF77FFF0025284670BDE840010888
:102D700025735B25645D3A20555342445F4E4558A8
:102D80005F4C494E4B5F537461727420200D0A00F2
:102D90002DE9F041064608780D4600F01F07C0F304
:102DA000411440F2E712174917A000F0D7FF012C99
:102DB00004D1012F02D1A888012805D02946304628
:102DC000BDE8F041FFF7E2BD6A78D6F8BC123046A4
:102DD00000243AB1032A09D02946FFF7B9FA204660
:102DE000BDE8F081012081F86800F8E70C704C70B4
:102DF0008C70CC700C71FF224A710622FFF7CDFA5D
:102E0000EDE700004541010825735B25645D3A202C
:102E1000555342445F4E45585F4C494E4B5F566593
:102E20006E646F725F5265717565737420200D0A50
:102E30000000000070B5054611F8010B28700878F5
:102E400068704C1C2046FFF74AF96880A41C204695
:102E5000FFF745F9A880A01CFFF741F9E88070BD95
:102E600038B504460020ADF8000041B1C4F8B812EE
:102E7000896A68468847C4F8CC02002038BD032020
:102E800038BD02460320D2F8B832002B02D01B68AE
:102E900010461847704700002DE9F0410F462C4EB0
:102EA0008978002504463170012906D93946204623
:102EB000FFF74EFA0320BDE8F08194F89C02022847
:102EC0000CD003281DD039462046FFF741FA31784F
:102ED0002046FFF725FA03252846ECE799B320465C
:102EE0006160FFF7CEFF050004D039462046FFF7AA
:102EF0002FFAF1E72046FFF75DFA032084F89C02E1
:102F0000EAE74FF00208C1B1606888421BD0C1B245
:102F10002046FFF705FA317820466160FFF7B1FFE0
:102F2000050010D039462046FFF712FA21792046D5
:102F3000FFF7F6F984F89C82CEE784F89C8220465D
:102F40006160FFF7EDF92046FFF734FAC4E70000AF
:102F5000BA010020FFF7FFBC2DE9F0410A780025F7
:102F600012F0600208D0202A01D0402A72D1D0F895
:102F7000B8229268904732E04B78002201264FF049
:102F800002080A2B66D2DFE803F0405D655765084A
:102F900005652C28FFF788FA5EE004468888D0B9DA
:102FA000C888C0B94888802815D200F07F0794F8F7
:102FB0009C0203280FD084F89E7239462046FFF702
:102FC00088FC2046FFF7F6F917B184F89C8243E0AD
:102FD00084F89C6240E020463CE0FFF75DFF054638
:102FE0003AE0CB88012B35D190F89C32012B04D0EC
:102FF000022B02D0032B2DD104E08260012200F1CC
:10300000080116E00122011D13E090F89C32012B0B
:1030100003D0022B01D0032B1CD1CB88022B19D15A
:10302000C260D0F8A41209B1C0F80C80022200F1ED
:103030000C01FFF7B2F90FE0498801290CD1C0F863
:10304000A46211E090F89C32012B08D0022B06D02C
:10305000032B04D0FFF77CF92846BDE8F0814988AE
:103060000129F9D1C0F8A422FFF7A4F9F4E72DE96A
:10307000F0410D46044628780027097910F06000D9
:103080000BD0202801D0402873D1D4F8B8022946AB
:1030900082682046904707468CE06878D8B30128BC
:1030A00022D0032865D194F89C02022802D003287C
:1030B0007CD10BE0002979D0802977D02046FFF71A
:1030C00041FC80212046FFF73DFC73E0688838B959
:1030D00031B1802904D0E88810B92046FFF732FCCE
:1030E0002046FFF767F965E094F89C020228E1D0DA
:1030F00003285BD16888D8BB480602D02046FFF77A
:1031000099FA2046FFF756F9D4F8B80229468268A2
:10311000204690474EE0FFE794F89C0200260228E4
:1031200002D0032842D111E009B180293ED108061E
:1031300001F07F0000EB800004EB800101D5143129
:1031400001E001F5AA7102220E602BE0080601F0F1
:103150000F0000EB800004EB80000BD5808C40B1A9
:1031600001F07F0000EB800004EB800514350CE0DB
:1031700020E01BE0B0F86401C0B101F07F0000EB7B
:10318000800004EB800505F5AA7541B1802906D0C1
:103190002046FFF733FB10B10120286000E02E60CD
:1031A000022229462046FFF7F8F803E02946204688
:1031B000FFF7CEF83846BDE8F08170B506460878CE
:1031C00000240D4610F0600003D0202801D04028D4
:1031D00017D196F89C02012803D0022801D00328B9
:1031E0000FD1287901280CD8D6F8B8028268304669
:1031F00090470446E888204306D13046FFF7DAF8C6
:1032000002E03046FFF7A4F8204670BD70B50A789A
:10321000012302F00F054E78AB401B4CD0F81C5830
:10322000012E17D045EA0343C0F81C3800EB4210CA
:10323000D0F8002B12040BD4D0F8002B8B8909791D
:10324000C3F30A031A4344EA81410A43C0F8002B3E
:10325000002070BD9BB21D43C0F81C5800EB42100B
:10326000D0F800391B04F3D4D0F800398D890979DE
:10327000C5F30A0589042B4341EA82510B432343DA
:10328000C0F80039E4E7000000800010D0F8001911
:103290006FF30A01C0F80019D0F8041841F48071E6
:1032A000C0F804180020704770B5044606990A9EBD
:1032B000049D0D98012916D0E06840F04000E060C0
:1032C000204600F02BF8A16B1EB321F48031A163DE
:1032D000012D07D1A16841F00601A160A16841F06C
:1032E0002001A16070BDA16B21F48031A163E16870
:1032F000094A1140E160E16821F44011E1600128D0
:1033000003D1E06840F48010E060204600F006F849
:10331000DEE741F48031DAE7BFFFBDFF08B50022E8
:103320000D490092009B5B1C00938B420CD80369F3
:10333000002BF7DA0092026942F001020261009A62
:10334000521C00928A4201D9032008BD0269D207AB
:10335000F5D1002008BD0000400D030030B54C78C9
:103360000A78012300EB4212012C2CD0D2F8004B3A
:10337000002C0BDAD2F8004B44F00064C2F8004B8A
:10338000D2F8004B44F08044C2F8004BD0F83C58CF
:103390000C7804F00F0403FA04F425EA0444C0F89E
:1033A0003C48D0F81C48097801F00F018B4024EA12
:1033B0000341C0F81C18D2F8000B19490840C2F8A4
:1033C000000B002030BDD2F80049002C0BDAD2F8F7
:1033D000004944F00064C2F80049D2F8004944F0C2
:1033E0008044C2F80049D0F83C480D7805F00F053C
:1033F00003FA05F5ADB2AC43C0F83C48D0F81C4820
:10340000097801F00F018B4099B28C43C0F81C4839
:10341000D2F8000903490840C2F80009D1E70000CA
:103420000078F3EF007833ECD0F8001E21F00301B0
:10343000C0F8001ED0F8041821F00201C0F80418EA
:1034400000207047D0F8001E21F00301C0F8001ED4
:10345000D0F8041841F00201C0F8041800207047A9
:103460002DE9F04F00250E460446DDF82CC0DDF8AE
:1034700024B0109F2846294604EB8002C2F80411AC
:10348000401C0F28F8D32046C7B1806B20F40012EF
:10349000A263A06B40F40022A26308468846C4F8E9
:1034A000000ED4F800182046C4F80018BCF1010F33
:1034B00016D0D0F8001841F0030116E0D0F8040847
:1034C00040F00202C4F80428A06B40F40012A2638A
:1034D000A06B20F40022A263A06B20F48022DBE723
:1034E000D0F800180BB141F00101C0F8001810210C
:1034F00000F0EEFA00B10125204600F0CBFA00B151
:1035000001254046C4F81088C4F81488C4F81C8803
:1035100000214FF000694FF0904A4FF67F3314E0DE
:1035200004EB4112D2F800C9BCF1000F06DA11B168
:10353000C2F800A904E0C4F8009901E0C2F800094B
:10354000C2F81009C2F80839491C8E42E8D8002197
:1035500015E000BF04EB4112D2F800CBBCF1000F24
:1035600006DA11B1C2F800AB04E0C4F8009B01E038
:10357000C2F8000BC2F8100BC2F8083B491C8E427F
:10358000E8D8D4F8101821F48072C4F81028A0618B
:103590006FF080406061BBF1000F03D1A06940F083
:1035A0001000A061A06909490843A0610C9818B1F6
:1035B000A06940F00800A061012F03D1A06904496F
:1035C0000843A0612846BDE8F08F000000383C8029
:1035D00004000040816821F00101816000207047F3
:1035E00070B50D784E78444CEBB200EB4313012ECE
:1035F00021D0D3F8100B6FF31200C3F8100BD3F8DF
:10360000100B2040C3F8100B886908B1C8688861A6
:10361000C868C861D3F8100B40F40020C3F8100B41
:10362000D3F8100BCC69C4F312042043C3F8100B79
:10363000012A55D058E08E69002ED3F8106932D097
:103640006FF31206C3F81069D3F810692640C3F867
:1036500010698E69CC68A64200D98C61D3F81049F4
:1036600044F40024C3F81049D3F810498E69C6F316
:1036700012063443C3F81049012A22D000EB451248
:10368000D2F8003943F00443C2F800398A6932B3F2
:10369000D0F83428097801F00F03012199400A433A
:1036A000C0F8342826E02640C3F81069D3F8104942
:1036B00044F40024C3F81049D3F810496FF31204FE
:1036C000D8E7496919B100EB4512C2F8141900EBAB
:1036D0004510D0F8001941F00441C0F8001909E084
:1036E000086908B1C3F8140BD3F8000B40F004408C
:1036F000C3F8000B002070BDFFFF07E010B5036C9E
:10370000134CA34203D9D0F8003B002B1EDB00234F
:10371000C0F8103BD0F8103B43F40023C0F8103B36
:10372000D0F8103B43F01803C0F8103BD0F8103B22
:1037300043F0C043C0F8103B012907D1C0F8142B57
:10374000D0F8001B41F08021C0F8001B002010BD04
:103750000A30544F4A780B78012A00EB43100BD003
:10376000D0F8002B22F40012C0F8002B09790329AD
:1037700014D0022912D017E0D0F8002922F4001248
:10378000C0F800290979032901D002290CD1D0F809
:10379000001941F08051C0F8001905E0D0F8001B75
:1037A00041F08051C0F8001B002070470A784B7828
:1037B000D1B200EB4110012B12D0D0F8001B002930
:1037C00006DB2AB1D0F8001B21F08041C0F8001BB5
:1037D000D0F8001B41F40011C0F8001B0020704716
:1037E000D0F80019002906DB2AB1D0F8001921F021
:1037F0008041C0F80019D0F8001941F40011C0F858
:103800000019EBE7F8B50C784F78764DE3B26FF01E
:10381000604600EB4313012F27D0D3F8104B6FF312
:103820001204C3F8104BD3F8104B2C40C3F8104BC4
:103830008D69002D75D0CC6825446D1EB5FBF4F55F
:10384000ADB26C43CC61D3F8104B06EAC5452C43AE
:10385000C3F8104BD3F8104BCD69C5F312052C43B8
:10386000C3F8104B012A71D0A4E08F691FB3D3F8BD
:1038700010796FF31207C3F81079D3F810792F403D
:10388000C3F810798F69CD682F447F1EB7FBF5F51B
:1038900006EAC545D3F810693543C3F81059D3F883
:1038A00010598E69C6F312063543C3F810590D79C5
:1038B000012D10D01BE0D3F810692E40C3F8106919
:1038C000D3F8105945F40025C3F81059D3F810590E
:1038D0006FF3120509E0D3F8105925F0C045C3F87D
:1038E0001059D3F8105945F00055C3F81059012A62
:1038F00018D000EB4413D3F8004944F00444C3F853
:1039000000490C79012C2FD08A6962B3D0F8342891
:10391000097801F00F03012199400A43C0F83428C7
:103920005EE036E04A691AB100EB4413C3F814298B
:10393000097901290FD1D0F80818C90500EB441105
:10394000D1F8002903D442F0005202E02EE042F008
:103950008052C1F8002900EB4410D0F8001941F062
:103960000441C0F800193BE0D0F80848E405D3F85A
:10397000004902D444F0005401E044F08054C3F8FC
:10398000004900920A8B93B20A78096900F0D0F9D5
:1039900026E0D3F8104BCD68C5F312052C43C3F8CD
:1039A000104BD3F8104B44F4002459E70A690AB1CC
:1039B000C3F8142B097901290CD1D0F80808C005E7
:1039C000D3F8000B02D440F0005001E040F08050EA
:1039D000C3F8000BD3F8000B40F00440C3F8000B11
:1039E0000020F8BDFFFF07E038B500220092134623
:1039F0004D780A7842F2107400EB4212012D19D072
:103A0000D2F8005B002D3CDAD2F8005B45F000658F
:103A1000C2F8005B0A7800EB4212D2F8005B45F076
:103A20008045C2F8005B009A521C0092A24221D944
:103A3000012326E0D2F80059002D22DAD2F80059ED
:103A400045F00065C2F800590A7800EB4212D2F83E
:103A5000005945F08045C2F80059009A521C009266
:103A6000A242E5D80A7800EB4212D2F80029002AD7
:103A7000F3DB06E00A7800EB4212D2F8002B002AB2
:103A8000D1DB184638BD816841F00101816000201A
:103A90007047000008B500220C490092009B5B1C97
:103AA00000938B420AD80369002BF7DA00921022A8
:103AB0000261009A521C00928A4201D9032008BD7B
:103AC0000269D206F5D4002008BD0000400D0300B5
:103AD00018B500230D4A0093009C641C0094944286
:103AE0000CD80469002CF7DA0093202343EA8111F3
:103AF00001610099491C0091914201D9032018BD30
:103B000001698906F5D4002018BD0000400D0300AE
:103B1000D0F8080810F0060004D0022803D00628C8
:103B200001D00F20704702207047406900F001006B
:103B30007047D0F81818D0F81C08084080B27047B9
:103B4000D0F81818D0F81C080840000C704710B5C1
:103B5000D0F81038D0F8342801F00F0400EB4110F1
:103B6000E24002F00102D0F8080943EAC212104014
:103B700010BD00EB4111D1F8081BD0F81408084023
:103B80007047416980690840704730B50346084670
:103B9000940802F00301002203F5805303E01D683E
:103BA00040F8045B521CA242F9D300290BD01C68D8
:103BB0000022D50024FA05F3491E521C090400F81E
:103BC000013B090CF5D130BD70B50446C068002535
:103BD00020F0C040E060012901D079B120E0E06828
:103BE00040F00050E0600120FCF742FD60696D1C70
:103BF00010F0010F10D1322DF5D30DE0E06840F048
:103C00008040E0600120FCF733FD60696D1C10F01E
:103C1000010F01D0322DF5D3322D01D0002070BD1F
:103C2000012070BDD0F8002822F4FE62C0F8002800
:103C3000D0F800284FF4FE6303EA01110A43C0F8EC
:103C40000028002070470000022A3ED1264A274B58
:103C50000A449A4201D20F2138E0254A254B0A44F2
:103C60009A4201D20E2131E0234A244B0A449A425F
:103C700001D20D212AE0224A224B0A449A4201D263
:103C80000C2123E0204A214B0A449A4201D20B2105
:103C90001CE01F4A1F4B0A449A4201D20A2115E038
:103CA0001D4A1E4B0A449A420FD31D4A1D4B0A441B
:103CB0009A4201D2082109E01B4A11441B4A914251
:103CC00001D2072102E0062100E00921C26822F4A6
:103CD0007052C260C2684FF4705303EA81210A43F4
:103CE000C260002070470000405327FF00350C00E1
:103CF000401E1BFF40420F0000DC0BFF804F1200F4
:103D0000808CF9FE20D6130060B6E5FE60E3160055
:103D100000D3CEFE40771B00C05BB3FEC0912100F4
:103D200000CA91FE20753800E05459FEE09C410025
:103D300010B5029C74B9DB1C9C0800EB0230002318
:103D400000F5805004E000BF51F8042B02605B1CBA
:103D5000A342F9D3002010BDFEE700000FB4054BCD
:103D600010B503A9044A029800F028F810BC5DF8C9
:103D700014FB0000753F0108BC0100200907090E73
:103D8000002804DB00F1E02080F80014704700F008
:103D90000F0000F1E02080F8141D704702E008C811
:103DA000121F08C1002AFAD170477047002001E0B5
:103DB00001C1121F002AFBD1704700002DE9FF4FFF
:103DC0008BB09A460F460546002606E025280BD004
:103DD00052460D9990476D1C761C28780028F5D125
:103DE0000FB03046BDE8F08F0024A04601226049A4
:103DF00000E0044315F8013F203B02FA03F00842BB
:103E0000F7D128782E2817D115F8010F44F00404B3
:103E10002A280ED06FF02F022878A0F1300109294E
:103E20000AD808EB880102EB410100EB01086D1C88
:103E3000F2E757F8048B6D1C287869283ED006DC21
:103E40000028CDD063280BD0642804D136E0732835
:103E500010D075284BD052460D999047761C85E0BE
:103E600017F8040B8DF8000000208DF80100E946DA
:103E7000012003E057F8049B4FF0FF3061074FF03B
:103E8000000401D40AE0641C44450DDA8442FADBE4
:103E900019F804100029F6D106E0641C8442FCDB0A
:103EA00019F804100029F8D1264404E019F8010B90
:103EB00052460D999047641EF8D257E001CF4FF05B
:103EC0000A0B002802DA40422D2102E0210504D528
:103ED0002B218DF82410012103E0E10705D02021DA
:103EE000F7E70DF1200908910CE00021F9E701CF77
:103EF0004FF00A0BF9E75946FCF7C5F901F130021A
:103F000009F8012D0028F6D1ADEB090000F1200BD6
:103F1000600701D44FF00108D84502DDA8EB0B0083
:103F200000E000208046002406E009A85246005D1B
:103F30000D999047641C761C08988442F5DB04E0D8
:103F4000302052460D999047761CB8F10001A8F137
:103F50000108F5DC05E019F8010B52460D99904770
:103F6000761CBBF10001ABF1010BF4DC6D1C34E7F6
:103F70000928010013B54FF0FF33012269460248BA
:103F8000FDF794FE00981CBD50A50020FCF796FCA0
:103F9000FEF7ACF8FDF716FFFDF7C4FFFDF7FCFEDA
:103FA000FDF79EFF6B220F490FA0FFF7D7FE0122FE
:103FB00012491348FEF724FB12491148FEF750FF3F
:103FC00011490F48FEF71EFE0D48FEF7C3FF0F4DC7
:103FD0004FF4804421462846FCF754FC6420FCF74B
:103FE00047FBF7E77C40010825735B25645D3A20B9
:103FF00068656C6C6F20200D0A0000006C010020C9
:10400000C801002010000020980400200004024095
:10401000F0B50B30154D20F007010024144A0FE0D5
:1040200003688B420BD38B4205D95E1A431847684D
:10403000C3E9006700E04368136002C004E0021DAA
:1040400010680028ECD12046002802D1286808B169
:104050000020F0BD064A07481060074A121A22F0F5
:104060000702C0E9002401202860D7E7C40100202E
:10407000C0010020A4AC0020A0B100206D61696ED9
:1040800000000610160006101600000000000000D8
:1040900000010203040607080900000000010203F2
:1040A00004000000000200000001000000F3000016
:1040B0000080DE800201000000100000000100000E
:1040C00000080000000400000001000000000400DF
:1040D0000001000000555342445F4E45585F4C4973
:1040E0004E4B5F496E697400555342445F4E4558CC
:1040F0005F4C494E4B5F5374617274005553424498
:104100005F4E45585F4C494E4B5F534F46005553E9
:1041100042445F4E45585F4C494E4B5F4550305FBF
:104120005278526561647900555342445F4E455858
:104130005F4C494E4B5F436F6E6669675F526571B6
:104140007565737400555342445F4E45585F4C4942
:104150004E4B5F56656E646F725F52657175657325
:104160007400555342445F4E45585F4C494E4B5F77
:10417000437573746F6D44657669636552657175D7
:1041800065737400555342445F4E45585F4C494E29
:104190004B5F536574757000555342445F4E4558EC
:1041A0005F4C494E4B5F44617461496E0055534208
:1041B000445F4E45585F4C494E4B5F5478526561A1
:1041C000647900555342445F4E45585F4C494E4B0D
:1041D0005F5472616E736D6974000000FC410108E8
:1041E00000000020C8010000140301081843010862
:1041F000C8010020D8B00000AC3D01083201821097
:104200001324F4400D292D0108592B0108B12C016C
:10421000081A710C1ED12A010815085A7914411A7E
:10422000D9106904415AE508140902321302012524
:10423000804B09041502FFFFFF15070581021A04D0
:10424000072A02071B0904722009FE0101E0092167
:104250000BFF1B081A0F1412034D1253124612546F
:1042600012311A3002322042401301048202000847
:10427000100157494E5553420A1501183A921D1222
:1042800005120132883207122A1244126512761280
:10429000691A63081249126E1A7408127212663A89
:1042A000611212471A55161244327332501A7B1695
:1042B00012311235126212341A339612381A2D0640
:1042C00012341A640E1A2D1A1A31341A360A1A6266
:1042D000101A65441A2D0E1A30301A371A12383A4D
:1042E000391E3A343C727D180AF123010825240155
:1042F0000831041A4D041A71041ACD141AFD043F32
:10430000040309041201EF1E40501D6F60BD24021A
:08431000030103261A0300005B
:040000050801018964
:00000001FF
