:020000040801F1
:10000000D80501209D010108CF2901080F2501080D
:10001000CD290108F10701080D4A01080000000080
:10002000000000000000000000000000212D010879
:10003000A5080108000000004B2B01082D2D010828
:10004000B7010108B7010108B7010108B7010108AC
:10005000B7010108B7010108B7010108B70101089C
:10006000B7010108B7010108B7010108B70101088C
:10007000B7010108B7010108B7010108B70101087C
:10008000B7010108B7010108B7010108B70101086C
:10009000B7010108B7010108B7010108B70101085C
:1000A000B7010108B7010108B7010108B70101084C
:1000B000B7010108B7010108B7010108B70101083C
:1000C000B7010108B7010108B7010108B70101082C
:1000D000B7010108B7010108B7010108B70101081C
:1000E000B7010108B7010108B7010108B70101080C
:1000F000B7010108B7010108B7010108B7010108FC
:10010000B7010108B7010108B7010108B7010108EB
:10011000B7010108B7010108B7010108B7010108DB
:10012000B7010108B7010108B7010108F507010887
:10013000B7010108B7010108B7010108B7010108BB
:10014000B7010108B7010108B7010108B7010108AB
:10015000B7010108B7010108B7010108B70101089B
:10016000B7010108B7010108B7010108B70101088B
:10017000B7010108D1290108B701010800000000FA
:10018000B7010108B7010108DFF80CD000F0C6FA8A
:1001900000480047414C0108D80501200648804727
:1001A00006480047FEE7FEE7FEE7FEE7FEE7FEE75C
:1001B000FEE7FEE7FEE7FEE7C52D0108890101081D
:1001C0002DE9F05F0546002092469B46884606468C
:1001D000814640241BE0284641464746224600F01F
:1001E0008CFA53465A46C01A914110D3114618460C
:1001F000224600F073FA2D1A67EB01084F4622469B
:100200000120002100F06AFA17EB00094E41201E80
:10021000A4F10104DFDC484631462A464346BDE8E6
:10022000F09F0000014610B509683C22B1FBF2F3D3
:1002300002FB1313B1FBF2F11D480360B1FBF2F3B3
:1002400002FB1313B1FBF2F118224360B1FBF2F38E
:1002500002FB1313B1FBF2F183600A1D0723B2FB0B
:10026000F3F403FB142282618A0040F2B55102F6D6
:100270006C32B2FBF1F344334361B2FBF1F301FBA7
:1002800013218908C1613B2903D3027D920700D065
:10029000491C0022074C13460261E25C8A4203D8E3
:1002A000891A5B1C0361F8E7491CC16010BD00009E
:1002B000ACED00201957010870B5054601B90721BA
:1002C000541A241DB4F5B67F09DD286800F036F90C
:1002D000A04204DC2868401C2860012070BD002C6E
:1002E00005DA2868401E286000F028F90444072039
:1002F00094FBF0F0401C70BD2DE9F04F89B01D4615
:100300008A468046002401AF4FF0070B0192079008
:1003100057F8241011F8010B47F8241048B125288C
:100320000DD0BAF1010F06D908F8010BAAF1010AA4
:100330005CE0641E5AE0002009B0BDE8F08F11F8BF
:10034000010B47F824100028F3D002264FF03009A3
:100350005A284BD020DC4D2873D014DC442871D0AF
:1003600008DC2528DDD041282AD042282ED0432879
:100370003CD130E0462847D0472857D0482862D0A3
:10038000492833D161E0523808282FD2DFE800F045
:10039000787AA6838A97A6A86138192826D2DFE83A
:1003A00000F00D1318202E253513255C25256064DB
:1003B0002566256D257375258B9BA0006AA000E03E
:1003C00070A0A9690091B4E07DA000E08848296987
:1003D000F8E788A007E06969642091FBF0F013302A
:1003E00082E0E86880E0641C47F82400002C8FDA83
:1003F000002088F800000799A8EB01009CE7E86856
:100400004FF02009009070E07EA0ECE7686900F2F0
:100410006C700090D5E906126846FFF74DFF009911
:10042000642091FBF0F200FB12105DE06869042685
:1004300000F26C700090D5E906126846FFF73CFFA9
:1004400053E010E048E0A8684EE0A8680C2117309F
:1004500090FBF1F201FB120001E0E8690326401C69
:1004600042E02869FBE768683EE069A0BBE7A8684E
:100470000C2801DA67A0B6E767A0B4E767A0B2E787
:1004800069A0B0E728682FE069A0ACE7A869012659
:1004900008BB072028E0D5E90610401AC01D90FBD4
:1004A000FBF021E0686900F26C700090D5E906125B
:1004B0006846FFF701FF17E00126A86914E0A96963
:1004C0005846891D91FBF0F20BFB1211EA69511A93
:1004D000C91D91FBFBF007E056A084E758A082E716
:1004E0000426686900F26C70009000218DF81810E5
:1004F00006A80A2113E0009A92FBF1F301FB1322F4
:10050000303200F8012D009A92FBF1F2009232B9DC
:1005100001E000F8019D321EA6F10106F9DC321E51
:10052000A6F10106E7DC5EE710F8011B0029FBD10C
:1005300000994A1E00920029F6DC54E781070CD18D
:10054000642190FBF1F201FB120151B94FF4C87123
:1005500090FBF1F201FB120018B1002000F26D10C7
:1005600070470120FAE7000053756E004D6F6E0072
:1005700054756500576564005468750046726900DB
:100580005361740053756E646179004D6F6E6461E0
:10059000790054756573646179005765646E65739D
:1005A0006461790054687572736461790046726998
:1005B00064617900536174757264617900000000B0
:1005C0004A616E00466562004D61720041707200C2
:1005D0004D6179004A756E004A756C00417567007F
:1005E000536570004F6374004E6F7600446563007E
:1005F00028570108256120256220256520255420E3
:100600002559000025592D256D2D25640000000079
:100610000A000000414D0000504D000025493A25D8
:100620004D3A25532025700025483A254D000000FD
:1006300009000000256D2F25642F2579000000009A
:1006400025483A254D3A25530000000040EA0103B1
:100650009B0703D009E008C9121F08C0042AFAD278
:1006600003E011F8013B00F8013B521EF9D270473C
:10067000D2B201E000F8012B491EFBD270470022E4
:10068000F6E710B513460A4604461946FFF7F0FF91
:10069000204610BD10B54843044604F009FB00286D
:1006A00005D00021002C02D0641E0155FAE710BDD0
:1006B00030B50B46014600202022012409E021FA32
:1006C00002F59D4205D303FA02F5491B04FA02F52F
:1006D0002844151EA2F10102F1DC30BD202A04DB02
:1006E000203A00FA02F1002070479140C2F1200345
:1006F00020FA03F3194390407047202A04DB203A84
:1007000021FA02F00021704721FA02F3D040C2F131
:10071000200291400843194670470000064C074DDF
:1007200006E0E06840F0010394E8070098471034C1
:10073000AC42F6D3FFF72CFD80570108A057010803
:1007400070B58C1810F8015B15F0070301D110F893
:10075000013B2A1106D110F8012B03E010F8016BC0
:1007600001F8016B5B1EF9D12B0705D40023521E43
:100770000DD401F8013BFAE710F8013BCB1A921CAB
:1007800003E013F8015B01F8015B521EF9D5A142A9
:10079000D8D3002070BD2DE9F04107461C46154610
:1007A0000E462A2001F0EEFFC7F3072001F0B6FF46
:1007B000F8B201F0B3FFC5F3072001F0AFFFE8B2D4
:1007C00001F0ACFF2B2001F0DDFFC6F3072001F0A4
:1007D000A5FFF0B201F0A2FFC4F3072001F09EFFD5
:1007E000E0B201F09BFFBDE8F0412C2001F0CABF50
:1007F000FEE70000014800F059B80000FCE50020C9
:1008000001681823CAB2103AB2FBF3F2054B6FF33A
:100810000901032A9B5CC36500D9091D816508464F
:1008200070470000F455010810B5014600208B699F
:100830008A6A4FF0C07453B1B3F5005F15D072B13E
:10084000012A0CD0022A0AD0032A09D104E01AB1E5
:10085000012A06D0022A03D1C96AC90100D50120A4
:1008600010BDC96AA142FAD010BD002AF7D0012AF2
:10087000F2D0022AF3D0032AF3D010BD30B50468B9
:10088000256825F480252560046863608368402B13
:10089000036803D099600068C26030BD9A60006848
:1008A000C16030BD704772B6FEE700002DE9F84325
:1008B00004464FF00009CDF8009063484FF41651FC
:1008C000A56D0068B0FBF1F72E6894F85C10082065
:1008D00000FA01F131420FD021680A6852070BD5A6
:1008E0000A6822F004020A6094F85C108840A8604C
:1008F000606D40F00100606594F85C104FF00108F5
:1009000008FA01F0304208D021684969090604D587
:10091000A860606D40F00200606594F85C100420EF
:100920008840304208D021680968890704D5A8604A
:10093000606D40F00400606594F85C101020884001
:10094000304218D021680968090714D5A8602068CA
:100950000168490304D50068000308D5A16C07E0CD
:100960000168C90503D4016821F008010160216C08
:1009700009B12046884794F85C1020208840304216
:1009800031D021680968C9062DD5A86094F83500D2
:1009900005282068016806D0490347D50068000390
:1009A0001DD4616C1CE021F01601016020684169D2
:1009B00021F080014161206C08B9A06C20B1206851
:1009C000016821F00801016094F85C103F20884024
:1009D000A86084F8358084F83490216D1FE0E16BC5
:1009E00009B120468847606D00282BD0606DC00794
:1009F00014D0052084F835002068016821F0010139
:100A000001600098401C0090B84203D8206800683C
:100A1000C007F6D184F8358084F83490E16C002961
:100A200010D001B02046BDE8F04308470168C90571
:100A3000D5D4016821F01001016084F8358084F874
:100A40003490CCE7BDE8F883180000202DE9F04190
:100A5000044600F0B5F906465CB1022084F8350082
:100A6000002584F834502068016821F001010160FC
:100A70000DE00120BDE8F08100F0A2F9801B0528FF
:100A800005D920206065032084F83500F2E720684E
:100A90000068C007F0D12268116820480140D4E9FD
:100AA00001031843D4E903363343184363691843F9
:100AB000A3691843E3691843236A18430843616A2A
:100AC000042903D1D4E90B131943084310602068AB
:100AD0004069666A20F0070130460E43012704286A
:100AE0000CD1A06A0643E06A40B12046FFF79CFEA5
:100AF00020B14020606584F83570BAE7206846610F
:100B00002046FFF77DFE94F85C203F2191408160F4
:100B1000656584F835700020ACE700003F8010F078
:100B20002DE9F0410446866D90F834000025012837
:100B30000DD0012084F8340094F835700020012F86
:100B400007D084F8340002252846BDE8F081022051
:100B5000FBE7022784F8357060652046FFF78EFEBC
:100B600094F85C103F208840B0602068016841F034
:100B700016010160206C20B12068016841F0080175
:100B800001602068016841F001010160DCE70000BC
:100B900070B5044600F014F90546601C02D0044804
:100BA0000078044400F00CF9401BA042FAD370BD59
:100BB0000C0000202DE9F84FDFF8BCA10022012530
:100BC00003264FF00F090AF1040BAAF1040E00BF2F
:100BD0000B6805FA02F42340A34270D10F7907F0A5
:100BE0000307012F01D0022F16D187684FEA420870
:100BF00006FA08FC27EA0C07D1F80CC00CFA08FC2E
:100C00004CEA070CC0F808C04768A7430C79C4F346
:100C1000001494403C4344600C79E443A4070AD098
:100C2000C4684FEA420C06FA0CF7BC438F6807FA17
:100C30000CF72743C7600C7904F00304022C12D18F
:100C4000D40800EB840CDCF820405707FF0E09FAAB
:100C500007F824EA0804D1F8108008FA07F848EAEF
:100C60000408CCF8208004684FEA420C06FA0CF71E
:100C7000BC430F7907F0030707FA0CF72743076017
:100C80004C6814F4403F70D03C4C276847F48047D0
:100C90002760246822F0030704F480440094384C51
:100CA00007EB040CDCF8084897074FEA177809FAB5
:100CB00008F7BC43334FB84202D1002724E054E088
:100CC000314FB84201D101271EE0304FB84201D167
:100CD000022719E02E4FB84201D1032714E02D4F0F
:100CE000B84201D104270FE02B4FB84201D10527AC
:100CF0000AE02A4FB84201D1062705E0284FB84242
:100D000001D1072700E0082707FA08F72743CCF8A6
:100D10000878DAF800405746D1F804C09C435FEAEF
:100D2000CC2C00D51C433C60DBF800405F46D1F87A
:100D300004C09C435FEA8C2C00D51C433C60DEF869
:100D400000407746D1F804C09C435FEA8C3C00D554
:100D50001C433C60084F083F3C68D1F804C09C43EA
:100D60005FEACC3C00D51C433C60521C102AFFF4C7
:100D70002FAFBDE8F88F0000083C01404438024026
:100D80000030014000000240000402400008024020
:100D9000000C024000100240001402400018024003
:100DA000001C0240426921EA02030A4043EA024170
:100DB000816170470AB1816170470904FBE7000057
:100DC00001488068704700000C00002002488168DC
:100DD00002781144816070470C0000200B4810B568
:100DE000016841F400710160016841F480610160B3
:100DF000016841F480710160032000F06FF80F205A
:100E000000F006F800F024F8002010BD003C02407D
:100E100070B50D4D04464FF47A712878B1FBF0F0AF
:100E20000A490968B1FBF0F001F09FFA48B9102CAB
:100E300007D200222146501E00F030F800206C60DE
:100E400070BD012070BD00000C00002018000020C3
:100E50000A4808B5016841F480410160006800F467
:100E6000804000900548001F016841F080510160FA
:100E7000006800F08050009008BD00004438024037
:100E8000002809DB00F01F02012191404009800089
:100E900000F1E020C0F8001170470000F0B40E4BE4
:100EA0001B680C46C3F30223C3F10705042D00D9C8
:100EB0000425191D072901D2002300E0DB1E0126AD
:100EC00006FA05F1491E214099409E40761E1640C3
:100ED0003143F0BC03F0ACBD0CED00E0064900F07E
:100EE000070208684FF6FF03184040EA0220034A51
:100EF00010430860704700000CED00E00000FA05A8
:100F000070470068416200207047F0B50368586A76
:100F100039B19C6A4FF4827600EB144400204D1ED8
:100F20000AE040EA024098620FE006EB8007DF59D2
:100F3000401C04EB1744C0B2A842F6D344EA024076
:100F40004FF4807202EB810158500020F0BDD0F8C0
:100F5000080502F02FBA01EBC10200EB8202D0F8C3
:100F60000805D26C02F09AB901EBC10200EB8202D3
:100F7000D0F80805D2F88C2202F0E5B9D0F80805BF
:100F800002F01ABA0A0601F00F0101EBC10100EBF1
:100F9000810101D53C3101E001F51F71006803F0CA
:100FA0007DBB70B504460B0601F00F0000EBC001DD
:100FB00004EB81014FF001024FF0000503D581F8E9
:100FC0003D203C3103E081F87D5201F51F7108702E
:100FD00094F8BC04012808D084F8BC24206803F0ED
:100FE00017F884F8BC54002070BD022070BD70B5A5
:100FF000044601F00F006268904201D9012070BDE3
:101000000B0601F00F0101EBC10104EB81014FF070
:1010100001024FF0000503D581F83D203C3103E08B
:1010200081F87D5201F51F718D70087094F8BC0431
:10103000012808D084F8BC24206803F0E5F984F87E
:10104000BC54002070BD022070BD01F00F0101EB07
:10105000C10100EB8100D0F89C0270472DE9F041FE
:1010600004460F0601F00F0000EBC00104EB810104
:101070004FF001064FF0000503D581F83D603C318B
:1010800003E081F87D5201F51F710870CA600B7191
:101090004A7802B10881022B00D14D7194F8BC044A
:1010A000012809D084F8BC64206802F009FF2846B2
:1010B00084F8BC54BDE8F0810220FBE770B50C4613
:1010C00001F00F0505EBC50100EB8101C1F8943279
:1010D000C1F88C220023C1F89C3281F87D3281F85E
:1010E0007C52036901F51F71012B00D14A6122076F
:1010F000027C006803D003F0DFF9002070BD03F02C
:10110000C9F8FAE770B504460D4601F00F006168B2
:10111000884201D9012070BD29064FF000064FF02A
:10112000010207D500EBC00104EB810181F83D20ED
:101130003C3107E005EBC50104EB810181F87D62DC
:1011400001F51F718A70087094F8BC04012807D05B
:1011500084F8BC24206803F083F9280702D007E054
:10116000022070BD217C04F2C442206803F020F903
:1011700084F8BC64002070BD70B50C4601F00F050A
:1011800005EBC50100EB81014B65CA640023CB650B
:10119000012381F83D3001F83C5F0369012B00D148
:1011A0004A612207027C006803D003F085F9002021
:1011B00070BD03F06FF8FAE72DE9FC5F056804469F
:1011C000284603F00CFB00287DD1206803F033FB98
:1011D000002878D0D5F80808C0F30D20C4F8FC0426
:1011E000206803F028FB800704D52068416901F0DE
:1011F00002014161206803F01EFBC10604F2C440F5
:10120000009034D52068816921F0100181612F6A36
:1012100007F00F0000EBC00004EB8006C7F343406B
:1012200006F51F76022802D0062811D01AE047F6EC
:10123000F070074216D0C7F30A12174628463169E4
:1012400003F0FDFA306938443061306A384408E010
:1012500008222846009903F0F2FA306AC7F30A110F
:10126000084430622068816941F010018161206882
:1012700003F0E1FA00034FF0080B4FF0000A4FF0C3
:1012800001097CD50026206803F0B4FA074674E013
:10129000F80770D0F1B2206803F0C5FA8046C007A5
:1012A00007D005EB4611C1F8089B3146204601F0F6
:1012B00095FB5FEA087024D505EB4611C1F808BB21
:1012C0002068016C00E025E200EB46100191D0F8A7
:1012D000082BFC4B994205D9110403D54FF400416A
:1012E000C0F8081B204600F02FFBF6490198884201
:1012F00007D92069012804D120680121009A03F050
:1013000057F85FEAC86004D505EB46111020C1F814
:10131000080B5FEA88701DD56869000605D5D5F809
:10132000040840F48061C5F8041806EBC60004EB1D
:10133000800090F87F1200F51F70012905D180F818
:1013400003A0F1B2204600F0EBF905EB46110220B4
:10135000C1F8080B5FEA886004D505EB4610202130
:10136000C0F8081B5FEA884005D505EB46104FF42E
:101370000051C0F8081B7F08761C002F88D1206818
:1013800003F059FA40036FD5206803F02CFA0746A2
:10139000002667E0F80763D0F1B2206803F031FA65
:1013A0008046C00723D006F00F0209FA02F0D5F8F4
:1013B00034288243C5F8342805EB4610C0F8089954
:1013C000206901280FD106EBC60004EB8000D0E9AC
:1013D00012211144C16436B9606D20B92068012121
:1013E000009A02F0E5FFF1B22046FFF7B4FD5FEA94
:1013F000087003D505EB4611C1F808B95FEAC8606B
:1014000004D505EB46111020C1F808095FEA4860D1
:1014100004D505EB46104021C0F808195FEA887032
:1014200017D53146284603F0ADF906EBC60004EBAC
:10143000800090F83F103C30012905D180F803A0CE
:10144000F1B2204600F068F905EB46110220C1F820
:1014500008095FEA086003D53146204601F024FB05
:101460007F08761C002F95D1206803F0E4F900284E
:1014700011DAD5F8040820F00101C5F8041894F831
:10148000F40401282BD0204600F042FA206841697C
:1014900001F000414161206803F0CDF900050BD552
:1014A000D5F80808C00702D0204600F099FA206855
:1014B000416901F400614161206803F0BCF9C00496
:1014C00066D5D5F8040820F00100C5F804081021FD
:1014D000206803F057F900214FF67F321FE084F8AF
:1014E000F4A400212046FFF70BFDCFE705EB4110E8
:1014F000C0F80829D0F8003923F40013C0F80039E7
:10150000C0F8082BD0F8003B23F40013C0F8003BD0
:10151000D0F8003B43F00063C0F8003B491C606812
:101520008842E3D8D5F81C0840F00111C5F81C1812
:10153000206B002828460DD0D0F8840840F00B011D
:10154000C5F88418D5F8440840F00B012846C5F8C2
:1015500044180DE0D0F8140842F22B010843C5F8F6
:101560001408D5F8100840F00B012846C5F81018EB
:10157000D0F8000820F4FE61C5F80018217C20682E
:10158000009A02F015FF2068416901F48051416121
:10159000206803F050F9800415D5206802F0D0FCD3
:1015A000206803F00FF9E06000F0CCFA0146227BDE
:1015B000206803F0A3F9204600F094F920684169FF
:1015C00001F400514161206803F035F9000707D5A7
:1015D000204600F0A1F92068416901F0080141614D
:1015E000206803F028F9000616D5A86920F08000CD
:1015F000A86101260DE000BF06EBC60004EB8000E9
:1016000090F87F02012803D1F1B22046FFF7BAFC1F
:10161000761C6068B042EFD8206803F00CF9C00275
:1016200021D501264F4616E005EB4610D0F80019EB
:1016300006EBC60004EB800090F84020012A09D197
:10164000002907DA80F83F70F0B240F080012046B0
:10165000FFF798FC761C6068B042E5D820684169C5
:1016600001F480114161206803F0E5F8800234D56F
:1016700001204B4629E000BF05EB4011D1F8001BCB
:1016800000EBC00204EB820696F88022012A1BD1EF
:10169000002919DA94F8FC2401F4803102F00102E7
:1016A000914211D186F87F32A96941F08002AA6186
:1016B0006969090608D4D5F8040840F40070C5F833
:1016C000040805E00A30544F401C61688142D3D8B9
:1016D0002068416901F400114161206803F0ABF812
:1016E000400007D52046FFF732FC2068416901F031
:1016F00080414161206803F09EF840070AD52068C8
:101700004568680702D52046FFF738FC2068416825
:1017100029434160BDE8FC9FD0F8080501F0A0BE58
:10172000D0F8080501F09EBE2DE9F0418AB0040012
:1017300005D094F8BD042668002520B108E00120FA
:101740000AB0BDE8F08184F8BC54204600F05EF891
:10175000032084F8BD04F06BC00500D42561206827
:1017600002F092FD04F11001282288466846FEF737
:101770006DFF94E80F0002F0F1FB0226C8BB0021C8
:10178000206803F07BF8002001270EE000EBC00189
:1017900004EB810181F83D7001F83C0F08810D7167
:1017A000CD600D61401CC0B28D6161688142EDD891
:1017B000002011E000EBC00104EB810181F87D52B3
:1017C00081F87C0281F88052C1F88852C1F88C52AD
:1017D000401CC0B2C1F8945261688142EAD8282204
:1017E00041466846FEF732FF94E80F0002F092FC93
:1017F00010B184F8BD64A2E784F8385084F8BD7451
:10180000206802F079FC00209AE700002DE9F04101
:1018100086B0044614216846FEF731FF2C49206843
:10182000884251D12B4C4FF00008206840F0040052
:101830002060206800F004000590206840F001005E
:101840002060206800F001000590206840F0020050
:1018500020602068022500F0020005900D208DE830
:10186000210103260A2769461B48CDE90367FFF7D4
:10187000A1F928208DE8210169461848CDE90367C0
:10188000FFF798F943F623408DE821016946144893
:10189000CDE90367FFF78EF9206840F00050206023
:1018A000206800F000500590206840F080402060E3
:1018B0002068002200F08040059011464D20FFF77F
:1018C000EDFA4D20FFF7DCFA06B0BDE8F08100002C
:1018D000000004403038024000080240000002408E
:1018E0000004024070B50446C068012570B10228AA
:1018F00001D0FEF7D8FF2946D4F8080501F008FE0C
:10190000D4F80805BDE8704001F0C3BD0025F2E73A
:10191000D0F8080501F0E6BDD0F8080501F0ECBDEF
:1019200010B5044690F8BC0401280BD0012084F8BF
:10193000BC0484F83810206802F0CEFF002084F840
:10194000BC0410BD022010BD2DE9F04100F2C441DD
:10195000D0F80845054604F2AA200F46064602F0D4
:10196000C3F894F8AA120020C90603D131462046D4
:1019700001F078FE94F8AA1201F01F01012903D1A9
:101980003146204601F0B2FE002806D13946D5F88E
:101990000805BDE8F04101F0C7BDBDE8F08110B514
:1019A0000446006894F8BC14012906D0012184F88B
:1019B000BC14A16A012902D008E0022010BDA1696F
:1019C000012903D0816B41F480318163206802F0EA
:1019D000B4FE206802F082FB002084F8BC0410BD35
:1019E00010B50446D0F8080501F0E0FD2068D0F8F5
:1019F000001E41F00101C0F8001E206A002804D03A
:101A00000248016841F00601016010BD10ED00E0E0
:101A10002DE9F0470E46050065D0DFF81481D8F8AF
:101A20000000F7B200F00700B04207D288F800705B
:101A3000D8F8000000F00700B04254D128683D4CAF
:101A4000810712D5400703D5206840F4E05020609C
:101A50002878000703D5206840F4604020602068A3
:101A6000A96820F0F000084320602878C0072DD036
:101A7000304968680839012812D0022813D0032899
:101A800011D00968890700292DDA216821F00301A6
:101A900001432160FFF794F9814641F2883A0EE054
:101AA00009688903EFE709688901ECE7FFF788F91E
:101AB000A0EB0901514502D90320BDE8F087206859
:101AC000696800F00C00B0EB810FEFD1D8F800107E
:101AD000404601F00701B14207D90770006800F0E5
:101AE0000700B04201D00120E7E72878400705D57C
:101AF0002068E96820F4E050084320602878000757
:101B000006D52068296920F4604040EAC1002060C1
:101B100000F03EF82168084AC1F30311515CC84047
:101B20000649086006480068FFF772F90020C4E71C
:101B3000003C024008380240FC5501081800002013
:101B400010000020014800687047000018000020C5
:101B50000448054900680968044AC1F38221515CC0
:101B6000C840704718000020083802400C56010891
:101B70000448054900680968044AC1F34231515CD0
:101B8000C840704718000020083802400C56010871
:101B9000154810B5006810F00C02144813D041101D
:101BA000042A0FD0082A0ED10F4C241F2268236864
:101BB00002F03F025B0207D52068C0F38810A0FB4B
:101BC000010106E0084610BD2168C1F38811A1FBA0
:101BD00000010023FEF7F4FA2168C1F30141491C1A
:101BE0004900B0FBF1F010BD083802400024F400B9
:101BF0002DE9F84F04006ED02078DFF84C93C00731
:101C0000A9F104054AD009F104000168C1F381017A
:101C1000012908D00068C0F3810002280AD1D9F850
:101C20000000400206D52868800337D56068002888
:101C3000E1D033E06068B0F5803F10D0B0F5A02F60
:101C4000286810D020F480302860286820F4802094
:101C500028606068A8B1FFF7B3F806460DE0286871
:101C600040F48030F4E740F480202860F7E700BFBC
:101C7000FFF7A6F8801B642873D828688003F7D57F
:101C80000CE0FFF79DF8064605E000BFFFF798F867
:101C9000801B6428F0D828688003F7D42078DFF808
:101CA000AC8280074FF0000A3ED5A748001D0168AE
:101CB00011F00C0F08D00068C0F3810002280BD18E
:101CC000D9F80000400207D42868800716D5E068DC
:101CD000012800D112E033E1E068B8B10120C8F872
:101CE0000000FFF76DF8064605E000BFFFF768F853
:101CF000801B0228C0D828688007F7D5286821698A
:101D000020F0F80040EAC10028600DE0C8F800A00B
:101D1000FFF756F8064604E0FFF752F8801B02284A
:101D20001FD828688007F7D42078000722D5864F6F
:101D300087486169703771B101210160FFF740F890
:101D4000064604E0FFF73CF8801B022809D83868F3
:101D50008007F7D50EE0C0F800A0FFF731F806467F
:101D600005E082E0FFF72CF8801B02287DD8386858
:101D70008007F7D42078400768D5DFF8CCB100277A
:101D80000BF13C0BDBF80000C0000BD4DBF80010BB
:101D900041F08051CBF80010DBF80000012700F083
:101DA000805000906B4E3068C00510D4306840F40D
:101DB00080703060FFF704F8009005E0FFF700F84E
:101DC0000099401A022850D83068C005F6D55E4EFA
:101DD000A0686C3601280FD00528306810D020F09C
:101DE00001003060306820F004003060A068B8B1B5
:101DF000FEF7E6FF00900FE0306840F00100F4E7E6
:101E000040F004003060F7E7FEF7DAFF0099411A6E
:101E100041F28830814266D830688007F4D50EE000
:101E2000FEF7CEFF009007E0FEF7CAFF0099411AC7
:101E300041F28830814256D830688007F4D42FB1FF
:101E4000DBF8001021F08051CBF80010A069C8B376
:101E50003D49091D0968C1F3810102294AD00228C0
:101E6000504607D0C8F8600000E03CE0FEF7A8FF4D
:101E700004463BE04746C8F86000FEF7A1FF06466F
:101E800005E000BFFEF79CFF801B02282BD82868C6
:101E90008001F7D4D4E907010843A16A2E4A490812
:101EA00002EB0141626A41EA8211084394F82C1066
:101EB00040EA0161C9F8001001203866FEF780FF92
:101EC000044606E03EE000BFFEF77AFF001B022852
:101ED00009D828688001F7D534E000BFFEF770FF0D
:101EE000001B022802D90320BDE8F88F2868800172
:101EF000F4D427E00128F7D0D9F80000E26900F413
:101F0000800191421CD1226A00F03F01914217D119
:101F100047F6C071626A0140B1EB821F10D1A26A1C
:101F20004FF0FF3300F4403103EB5202B1EB024FAC
:101F300006D194F82C1000F07060B0EB016F01D066
:101F40000120D1E70020CFE70438024000004742DB
:101F5000800E4742007000400000FFFF704770B5E0
:101F6000040009D0606A002540B125616561A56261
:101F700094F8510040B10CE0012070BD6068B0F5EC
:101F8000827FF4D0E561F2E784F85050204600F0FB
:101F900045F8022084F851002068016821F04001D2
:101FA0000160A088218900F4827001F40441084393
:101FB000A18901F400610843217C01F0020108437A
:101FC000217D01F001010843218B01F400710843D8
:101FD000217F01F03801084394F8201001F08001BE
:101FE0000843218D01F40051084321680860A0696D
:101FF000042101EA104094F8241001F01001084374
:10200000216848602068C16921F40061C16165658B
:10201000012084F85100002070BD00002DE9F0413E
:1020200086B0064614216846FEF729FB254930682C
:10203000884244D124480025016841F48051016060
:102040000068214900F4805014390590086840F078
:1020500001000860086800F001000590086840F081
:10206000020008600868022400F002000590802049
:1020700003274FF005088DE8B10169461348FEF7C4
:1020800099FD08208DE8B10169461148FEF792FDDF
:10209000114C10482060780660604020C4E90205B9
:1020A0000001C4E90405A561E56125622046656279
:1020B000FEF7CCFC08B1FEF7F6FBB464A66306B0ED
:1020C000BDE8F08100300140443802400000024089
:1020D0000004024058640240FCE500202DE9F84F5E
:1020E000044690F8500000271D46164689460128F0
:1020F0000DD04FF0010B84F850B0FEF761FE804622
:1021000094F85100BA46012804D0022793E0022037
:10211000BDE8F88FB9F1000F73D0002E71D0032005
:1021200084F85100C4F854A0C4F83090A686E6861E
:10213000C4F838A0A4F83CA0A4F83EA0C4F844A079
:10214000C4F840A0A068B0F5004F09D1206801682C
:1021500021F0400101602068016841F48041016084
:1021600020680168490603D4016841F0400101601C
:10217000E068B0F5006F606803D030B3012E24D062
:1021800041E008B1012E1CD1206B21680088C86095
:1021900006E020688168890709D5216B0988C1603C
:1021A000206B801C2063E08E401EE08609E0FEF775
:1021B00007FEA0EB0800A84202D3681C01D031E062
:1021C0007DB3E08E0028E4D120E0206B2168007808
:1021D000087306E020688168890709D5216B0978B2
:1021E0000173206B401C2063E08E401EE0860AE0F5
:1021F000FEF7E6FDA0EB0800A84203D3681C02D05E
:1022000010E017E06DB1E08E0028E3D14246294688
:10221000204600F0FDFC08B120206065A06818B1E0
:1022200006E0FFE7032706E02068C16880680090A9
:10223000606D00B1012784F851B084F850A0384691
:1022400066E700002DE9F041044690F850000026B2
:10225000012809D0012784F8507094F85100002516
:10226000012804D002264EE00220BDE8F08189B1A9
:1022700082B1032084F8510065652163A286E2865D
:10228000A56365642564A587E587A068B0F5004F60
:1022900002D00BE0012636E02068016821F0400101
:1022A00001602068016841F480410160A16C184818
:1022B0000864A16C1748C863A16C1748C864A06C77
:1022C0000565E38E2268216B0C32A06CFEF728FCBA
:1022D00038B1606D40F010006065012684F85170DF
:1022E00011E020680168490603D4016841F040010B
:1022F00001602068416841F0200141602068416828
:1023000041F00201416084F850503046ADE70000D2
:10231000A32B0108AD2B0108812B010810B5006823
:102320000549884207D11D22044905A002F070FB2F
:102330000C490020087010BD00300140DD55010837
:1023400025735B25645D3A2048414C5F5350495FDB
:10235000547843706C7443616C6C6261636B2020D1
:102360000D0A000000000020704710B5401EB0F1BB
:10237000807F01D3012010BD4FF0E02460610F2168
:10238000601702F055FB0020A061072020610020AB
:1023900010BD70B5040004D094F83D00002510B1C4
:1023A00006E0012070BD84F83C50204600F022F881
:1023B000242084F83D002068C16821F40051C160E8
:1023C000204600F00DFD2068016921F49041016173
:1023D0002068416921F02A0141612068C16841F407
:1023E0000051C1602564202084F83D0084F83E003F
:1023F000002070BD10B586B0044614216846FEF773
:102400003EF913492068884220D112480021026811
:1024100042F010020260006800F0100005900D48C4
:102420001438026842F002020260006800F0020004
:102430000590C02000900220CDE901010320039007
:102440000720049069460448FEF7B4FB06B010BDAF
:102450000010014044380240000402402DE9F843D6
:10246000044690F83D001F4616460D4620284CD1E4
:10247000C5B1BEB194F83C00012846D0012084F8D3
:102480003C004FF00008C4F84080212084F83D0053
:10249000FEF796FCA6848146E684A068B0F5805FCE
:1024A00003D004E00120BDE8F883206928B12E465E
:1024B0005FF0000584F83C800EE00026FAE78021FA
:1024C000204600F013FDA0B9AEB116F8010B21684B
:1024D0004860E08C401EE084E08C4B464FF00002E8
:1024E00000970028EBD14FF04001204600F0FEFCA1
:1024F00030B10320D7E735F8020BC0F30800E6E758
:10250000202084F83D000020CDE70220CBE7FEE745
:10251000F0B500230A24302537261F4611E000BFFE
:10252000B4EB107F02D905EB107C01E006EB107CC8
:1025300001F813C001EB430C00015B1C8CF8017027
:10254000DBB29342ECD3F0BD0021074A030A43EA11
:102550000020926880B24FF4E14300BF22F81100DE
:10256000491C9942FADB70470000002070B56849A9
:102570000022886010216748FEF71CFC664D4FF46E
:102580000074002221462846FEF714FC1420FEF7B2
:10259000FFFA012221462846FEF70CFC1420FEF724
:1025A000F7FA362000F0EEF8002000F0B7F83A20F5
:1025B00000F0E8F8052000F0B1F8B22000F0E2F8F1
:1025C0000C2000F0ABF80C2000F0A8F8002000F080
:1025D000A5F8332000F0A2F8332000F09FF8B720D0
:1025E00000F0D0F8352000F099F8BB2000F0CAF8D0
:1025F000192000F093F8C02000F0C4F82C2000F05F
:102600008DF8C22000F0BEF8012000F087F8C3204A
:1026100000F0B8F8122000F081F8C42000F0B2F801
:10262000202000F07BF8C62000F0ACF80F2000F06E
:1026300075F8D02000F0A6F8A42000F06FF8A120D3
:1026400000F06CF8E02000F09DF8D02000F066F873
:10265000042000F063F80D2000F060F8112000F075
:102660005DF8132000F05AF82B2000F057F83F20B7
:1026700000F054F8542000F051F84C2000F04EF8CF
:10268000182000F04BF80D2000F048F80B2000F067
:1026900045F81F2000F042F8232000F03FF8E12029
:1026A00000F070F8D02000F039F8042000F036F87F
:1026B0000C2000F033F8112000F030F8132000F067
:1026C0002DF82C2000F02AF83F2000F027F84420B5
:1026D00000F024F8512000F021F82F2000F01EF81F
:1026E0001F2000F01BF81F2000F018F8202000F039
:1026F00015F8232000F012F8212000F043F81120F3
:1027000000F040F8BDE87040292000F03BB8000020
:1027100000000020000002400008024010B50446FE
:10272000074800E000BF01780029FBD10122110217
:102730000448FEF73FFB2046BDE8104000F044B8D7
:10274000000000200000024070B50D4606460A4C0D
:1027500000E000BF20780028FBD1012211020748C9
:10276000FEF728FB012020702A463146BDE8704064
:102770000348FFF767BD0000000000200000024092
:10278000A4E5002070B504460D4800E000BF0178C4
:102790000029FBD10B4D012210212846FEF70AFB30
:1027A000002210212846FEF705FB0022A915284625
:1027B000FEF700FB2046BDE8704000F005B80000C1
:1027C000000000200000024001B5074800E000BF03
:1027D00001780029FBD14FF6FF73012269460348B7
:1027E000FFF77CFC08BD000000000020A4E50020ED
:1027F000094808B5016841F48001016000680022C1
:1028000000F48000009011463B20FEF747FBBDE836
:1028100008403B20FEF734BB303802402DE9F04F32
:1028200087B014216846FDF72AFF44480025016857
:1028300041F004010160016801F0040105910168A3
:1028400041F080010160016801F08001059101689B
:1028500041F001010160016801F001010591016889
:1028600041F002010160016801F002010591016877
:1028700041F0080101600068DFF8C4B000F0080012
:102880004FF400540590002221465846FEF792FA74
:102890004FF48876012231462A48FEF78BFA4FF42E
:1028A0004048002241462848FEF784FADFF89CA001
:1028B0004FF48079002249465046FEF77BFA012208
:1028C000570239465846FEF775FA009401246946C6
:1028D00058460194CDE90245FEF76CF9CDE9006454
:1028E0000326CDE9024669461648FEF763F9CDE9AD
:1028F000008469461448CDE90245FEF75BF9CDE94D
:10290000009469465046CDE90245FEF753F9CDE9FA
:102910000074CDE9024669465846FEF74BF901A915
:102920000220009781E8610009200490694606486A
:10293000FEF740F907B0BDE8F08F000030380240E4
:10294000000802400000024000040240000C024067
:102950000F4810B50D4901604FF4827141600021AC
:102960008160C1604FF400720161C0E90512C1616C
:102970000162416281620A21C162FFF7F0FA002818
:1029800003D0BDE81040FDF78EBF10BD0030014000
:10299000A4E500200C4810B50A4901604FF4E1316C
:1029A0004160002181600C22C160C0E90412816194
:1029B000C161FFF7EEFC002803D0BDE81040FDF731
:1029C00072BF10BD001001405CE60020FEE7FEE78C
:1029D0000148FEF7F1BB0000A0E800202DE9F0411E
:1029E00003680D4604461E6C03EB4511D1F8080B35
:1029F000D4F810E04FF400474FF0200C04F2C4422A
:102A0000BEF1010F09D0DFF898E0764539D1020414
:102A100032D500BFC1F8087B3FE0224B5FEA007E61
:102A200004D59E4239D90004F4D436E05FEA806EC2
:102A300002D5C1F808CB30E010F0280F2DD19E420E
:102A400001D90004E6D405EBC50004EB8000D1F801
:102A5000101BD0F89832C1F31201591AC0F89C1219
:102A600000F51F70ADB983691BB1026911440161A2
:102A70000FE0012120680AE080060AD5C1F808CBE2
:102A800007E035B9D4F8940218B90021184601F0CE
:102A90008FFCE9B22046FEF767FA0020BDE8F0811E
:102AA0000A31544F0A30544F2DE9F84F0E4601EBCE
:102AB000C60100EB810481460568616DE06D3C3420
:102AC000884202D90120BDE8F88F081AE1688142E6
:102AD00000D20846C01C870805EB46181BE000BF63
:102AE000A0EB010AE068504500D282460AF10300DB
:102AF000870899F8100000901FFA8AF3F2B228466E
:102B0000216901F06FFF216901EB0A002061216A50
:102B100001EB0A002062D8F8180980B2B84205D348
:102B2000216AA069814201D20028D9D1216AA06915
:102B3000884208D806F00F0101208840D5F83418E3
:102B40008143C5F834180020BDE7704710B501284F
:102B500013D8C0EB0011772202EBC103C0EB0010C9
:102B6000C100EF220020FDF716FE04484FF461413A
:102B70008068BDE81040FFF7E7BD10BD00000020F1
:102B800010B5806B01684A6822F003024A60416D0B
:102B900041F010014165012180F85110FFF7DEF985
:102BA00010BD10B5806BFFF7DFFB10BD38B50546D3
:102BB000846BFEF705F9024628680068C00523D437
:102BC0002068416821F0200141602068416821F0BF
:102BD000020141606421204600F01AF818B1606DCE
:102BE00040F020006065A068002118B92068C26824
:102BF00080680090E186012084F85100606D18B172
:102C00002046FFF7ABF938BD2046FFF787FB38BDFC
:102C100038B504461248134B0068B0FBF3F04FF48C
:102C20007A73584300906068B0F5827F0DD10B46EF
:102C3000009200228021204600F016F870B1606DED
:102C400040F020006065032038BD009830B1401E80
:102C5000009020688068C0430006F6D5002038BD8B
:102C60001800002000366E012DE9F8431E469146FB
:102C700088460446089DFEF7A3F8401B351AFEF768
:102C80009FF8074625480068C0F3CB30684338E01A
:102C9000701C37D0FEF794F8C01BA84203D215B1C0
:102CA000009860B32CE02068416821F0E0014160A9
:102CB0006068B0F5827F0BD1A068B0F5004F02D0FC
:102CC000B0F5806F04D12068016821F040010160F7
:102CD000A06AB0F5005F09D12068016821F40051B5
:102CE00001602068016841F400510160012084F80E
:102CF0005100002084F850000320BDE8F88300252F
:102D0000401E00902068816838EA010004D000214C
:102D10004945BDD10020F0E70121F9E71800002066
:102D200070470178407841EA00207047FEF74EB8BE
:102D300030B593B030216846FDF7A1FC14210CA8F2
:102D4000FDF79DFC1D480025016841F080510160A0
:102D5000006800F0805011901948016841F48041EA
:102D600001600068022400F480401190012000906E
:102D7000000401908001CDE9064004200890A820BD
:102D8000CDE9090407200B906846FEF731FF08B132
:102D900072B6FEE70CA90F2081E831004FF4A05075
:102DA0000F904FF48050109005210CA8FEF730FED4
:102DB000002801D072B6FEE713B030BD40380240A3
:102DC000007000400448016841F47001016002494C
:102DD000024880390860704788ED00E00000010873
:102DE00070B5044600680169E26821F4405111435E
:102DF00001612169A068E2690843616911430843E0
:102E00002168CA6849F20C639A430243CA60206889
:102E10004169A26921F4407111434161314920683F
:102E2000884202D03049884202D1FEF7A1FE01E07B
:102E3000FEF78EFEE2690023192164253226B2F5E1
:102E4000004F626828D0A0FB0101930F9200FDF7AC
:102E5000B7F90146B0FBF5F06FF01802504301EBF3
:102E6000800006EB0010B0FBF5F000F0F002B1FBC3
:102E7000F5F002EB0012B1FBF5F06FF018035843C8
:102E800001EB800006EB0010B0FBF5F000F00F0046
:102E900021681044886070BDA0FB010192185B415D
:102EA000FDF78EF90146B0FBF5F00201B1FBF5F03C
:102EB0006FF01803584301EB800006EBC000B0FB35
:102EC000F5F000F0F80002EB4002B1FBF5F05843DA
:102ED00001EB800006EBC000B0FBF5F000F007004E
:102EE000D6E7000000100140001401402DE9F04138
:102EF000984617460E460446069D27E0681C25D0D6
:102F00002DB1FDF75DFFA0EB0800A8421ED9206897
:102F10000C3050E8001F21F4D07140E80012002A64
:102F2000F5D12068143050E8001F21F0010140E87D
:102F30000012002AF5D1202084F83D0084F83E00DC
:102F4000002084F83C000320BDE8F0812068006880
:102F500036EA000004D00020B842CFD00020F3E7CA
:102F60000120F9E710B5D0F8B8220AB152689047AD
:102F7000002010BD134610B50A46002100F080FA6B
:102F8000002010BD134610B50A46002100F017FBC3
:102F9000002010BD10B50446802100F0F5FA20464F
:102FA000BDE81040002100F0EFBA10B50323C0F8CF
:102FB0005821C0F89432C0F85C2113460A4600211B
:102FC00000F05EFA002010BD10B505210023C0F806
:102FD00094121A46194600F053FA002010BD10B59D
:102FE00002238261C0F89432C26113460A4600216E
:102FF00000F0E5FA002010BD10B504210023C0F850
:1030000094121A46194600F0DAFA002010BD0000AA
:1030100010B50A46024903A000F0E4F8004810BDCC
:10302000A0E600206E65785F6C696E6B20636F6E42
:1030300066696700122008800048704798010020E8
:1030400010B50A46024903A000F0CCF8004810BDB4
:10305000A0E600206E65785F6C696E6B20696E7407
:10306000657266616365000004200880004870474F
:103070009401002010B50A46024903A000F0B2F8FE
:10308000004810BDA0E600204E65784C696E6B00CC
:1030900010B50A46024903A000F0A4F8004810BD8C
:1030A000A0E600204E65784C696E6B2D53544D336D
:1030B0003246340010B51A2008800A480168001D05
:1030C0000468001D0068081809D008220649FFF7A7
:1030D0001FFA0549042210312046FFF719FA024869
:1030E000801E10BD107AFF1FAE010020F8B5044607
:1030F0000020ADF8000048880D46010A082968D272
:10310000DFE801F0670409176767454ED4F8B41289
:10311000207C0A6819E0207C02260028D4F8B80236
:1031200005D0C16A684688470146467042E0816A18
:10313000F8E7C1B2062921D2DFE801F0030A101432
:10314000181CD4F8B402426805E06946904725E0AF
:10315000D4F8B4028268DAB3207CF6E7D4F8B4027B
:10316000C268F8E7D4F8B4020269F4E7D4F8B4020C
:103170004269F0E7D4F8B4028269ECE7D4F8B812F7
:103180008B6B2BB3C1B26A462046984706E0207C81
:10319000F0B9D4F8B802416B68468847014609E0A7
:1031A000207CA8B9D4F8B802016B6846884701466C
:1031B00007204870EA888AB1BDF8000040B1824219
:1031C00000D90246ADF800202046FFF708FFF8BD01
:1031D000FFE729462046FFF7DDFEF8E72046FFF728
:1031E0000BFFF4E770B5002300281ED0002504462D
:1031F00002E06D1CEDB2641C2678002EF9D1022489
:1032000004EB450414801278CA545B1C0322CA5490
:1032100000245B1C06E0CA545B1CDAB28C54521CBE
:10322000D3B2401C0278002AF5D170BD01004FF0E6
:10323000000004D0012901D0022901D003207047E9
:103240000120704730B4A0B1D0F8B84200230CB1CF
:10325000C0F8B832D0F8CC420CB1C0F8CC3209B1C9
:10326000C0F8B412012180F89C12027030BC00F04A
:10327000B3B830BC0320704710B5D0F8C402FDF7D6
:10328000B6FEBDE81040FFF7D1BF10B5D0F8C402BC
:10329000FDF787FEBDE81040FFF7C8BF70B51646C2
:1032A000044649B1D4F8B80242691AB194F89C02B4
:1032B000032842D0032070BDD4F89412002504F1F5
:1032C0001400022932D1D0E902318B4206D95A1AB0
:1032D000826031462046FFF755FE0FE0994214D137
:1032E0004068884211D3D4F8981288420DD2002247
:1032F00011462046FFF746FEC4F8985200231A46AE
:103300001946204600F0BCF810E0D4F8B802C168B5
:1033100029B194F89C02032801D1204688478021D6
:10332000204600F031F92046FFF74EFE94F8A00247
:10333000012806D184F8A05203E0204690470028D7
:10334000B9D1002070BD10B51346044649B1D4F878
:10335000B80282691AB194F89C02032824D0032091
:1033600010BDD4F8941204F5AA70032920D1D0E935
:10337000021291420AD98A1A8260C068824200D33E
:10338000024619462046FFF7F5FD11E0D4F8B802D1
:10339000016929B194F89C02032801D1204688478D
:1033A0002046FFF729FE03E0204690470028D7D1AA
:1033B000002010BD0020704710B5012180F89C123C
:1033C000D0F8B82212B1526801799047002010BDA0
:1033D000D0F8C402FDF739BE10B50178012929D112
:1033E00015490122C1F80805C0F8C4121348086045
:1033F000062048600020C8600861C1E90620086214
:103400004862C862086348630846FEF78DF908B150
:10341000FDF749FA4FF400710748FDF772FD80226D
:1034200000210548FDF771FD4FF4BA7201210248F1
:10343000FDF76BFD002010BDA0E800200000044057
:103440000A0601F07F01D0F8C40201EBC10100EBD4
:10345000810002D590F83E00704790F87E027047D8
:10346000002070470020704710B51C461346D0F866
:10347000C4022246FDF7F2FDBDE81040FFF7D6BEBC
:1034800010B5D0F8C402FDF719FEBDE81040FFF7F3
:10349000CDBE70B50125044680F89C520020C4F8CA
:1034A00094026060C4F8A402D4F8BC0228B1D4F835
:1034B000B80200214268204690470022402311466E
:1034C0002046FFF7D1FF4026A4F86451334600227E
:1034D00080212046C4F86061FFF7C6FFA584002064
:1034E000266270BD90F89C12042903D190F89D12B9
:1034F00080F89C120020704710B590F89C120329A8
:1035000004D1D0F8B812C96901B18847002010BDB4
:1035100001740020704710B5D0F8C402FEF700FA1D
:10352000BDE81040FFF782BE70B5044600F2AA2045
:10353000054600F0D9FA0120C4F89402B4F8B002AC
:10354000C4F8980294F8AA0210F01F010AD00129C9
:103550000ED0022912D000F080012046BDE8704054
:1035600000F012B829462046BDE8704000F04EBB7E
:1035700029462046BDE8704000F079BC2946204627
:10358000BDE8704000F0CDBB10B5D0F8C402FDF727
:10359000B9FDBDE81040FFF749BE10B5D0F8C40230
:1035A000FEF7FDF9BDE81040FFF740BE90F89C1211
:1035B00080F89D12042180F89C120020704710B5FD
:1035C000D0F8C402FDF7D8FDBDE81040FFF72EBECD
:1035D00070B50D460646D0F8BC424FF4BF7215498F
:1035E00015A001F015FA012084F84400687801283C
:1035F00007D0022813D029463046FFF7CBFC002025
:1036000070BD2868C4F846006868C4F84A00EA88B3
:1036100021463046FFF7C9FC00202064EFE7D4E9DB
:103620001A01C4E90001082221463046FFF7D7FC01
:10363000E5E700006756010825735B25645D3A20C5
:10364000555342445F4E45585F4C494E4B5F436F64
:103650006E6669675F5265717565737420200D0A27
:103660000000000070B50C4605464FF4DB721149AE
:1036700011A001F0CDF9607820280ED1A08804288F
:1036800002D0052809D106E0E28817494020402AE7
:103690000BD9024609E0608808B1002070BD1249CC
:1036A000E28840319220922AF3D82846FFF797FC0F
:1036B000012070BDA156010825735B25645D3A2089
:1036C000555342445F4E45585F4C494E4B5F4375DE
:1036D00073746F6D44657669636552657175657362
:1036E0007420200D0A000000A4000020FFF7BABFDC
:1036F00010B5044640F2F512044905A001F088F91E
:10370000D4F8BC0200210164084610BDD756010858
:1037100025735B25645D3A20555342445F4E4558FE
:103720005F4C494E4B5F44617461496E20200D0A25
:103730000000000070B5D0F8BC4206460325A06D1D
:10374000401CA0653046FFF743FE616D08444FF40E
:103750006141B0FBF1F201FB1200606538B94FF432
:1037600080710548FDF71EFB0020FFF7EFF930469A
:1037700000F0D0F8284670BD000C024010B5044699
:103780008121FFF782FD02212046FFF77EFD002008
:1037900010BD000070B50646D0F8BC4288B04FF4AA
:1037A000A372184918A001F033F904F146056878AE
:1037B000012821D1D4E90001C4E91A010020606583
:1037C00004F16800FCF72EFD034619A2202168468B
:1037D000FCF792FD38B16B464FF4A972094919A064
:1037E00001F016F905E04FF4AA7206491DA001F098
:1037F0000FF9304600F08EF8FF20687008B0002006
:1038000070BD00004D56010825735B25645D3A20AC
:10381000555342445F4E45585F4C494E4B5F4550AF
:10382000305F5278526561647920200D0A000000F3
:1038300025592D256D2D25642025483A254D3A25FD
:103840005300000025735B25645D3A20466F726D5E
:1038500061747465642074696D653A2025730A206B
:10386000200D0A0025735B25645D3A204661696C72
:10387000656420746F20666F726D61742074696D69
:10388000650A20200D0A000032210180004870479F
:103890005C00002010B5EE2905D000211180FFF753
:1038A00079FB002010BD12201080014810BD0000DF
:1038B000900000202DE9F0410F46064603257821AF
:1038C0000120FCF7E7FE04464FF48172084909A085
:1038D00001F09EF800212CB1C4E914710025C6F84E
:1038E000BC4201E0C6F8BC122846BDE8F0810000E9
:1038F0001456010825735B25645D3A2055534244F4
:103900005F4E45585F4C494E4B5F496E69742020AD
:103910000D0A0000D0F8BC124023D1E9142102EBBB
:1039200041020221FFF7ACBD10B540F23512034948
:1039300003A001F06DF8002010BD00003B56010807
:1039400025735B25645D3A20555342445F4E4558CC
:103950005F4C494E4B5F534F4620200D0A0000003C
:1039600070B50C4605464FF400411048FDF71AFAB1
:1039700040F2D9120E490FA001F04AF8207810F059
:10398000600009D0202801D040280DD121462846CA
:10399000BDE8704000F056B860780A2804D10122D2
:1039A0000C492846FFF71BFB002070BD00040240B5
:1039B000C356010825735B25645D3A205553424484
:1039C0005F4E45585F4C494E4B5F53657475702090
:1039D000200D0A005800002070B50546032640F26D
:1039E00017120F490FA001F013F8D5F8BC42ACB183
:1039F0004FF480663346022281212846FFF734FDCA
:103A00000222334611462846FFF72EFD002060654E
:103A100084F844002846FFF77DFF0026304670BD3D
:103A20002756010825735B25645D3A2055534244AF
:103A30005F4E45585F4C494E4B5F53746172742022
:103A4000200D0A002DE9F041064608780D4600F0E9
:103A50001F07C0F3411440F2A512174917A000F048
:103A6000D7FF012C04D1012F02D1A888012805D04D
:103A700029463046BDE8F041FFF7AABD6A78D6F87E
:103A8000BC12304600243AB1032A09D02946FFF778
:103A900081FA2046BDE8F081012081F86400F8E752
:103AA0000C704C708C70CC700C71FF224A71062225
:103AB000FFF795FAEDE700008456010825735B25B2
:103AC000645D3A20555342445F4E45585F4C494E21
:103AD0004B5F56656E646F725F5265717565737486
:103AE00020200D0A0000000070B5054611F8010BFA
:103AF0002870087868704C1C2046FFF712F968801F
:103B0000A41C2046FFF70DF9A880A01CFFF709F9B7
:103B1000E88070BD38B504460020ADF8000041B122
:103B2000C4F8B812896A68468847C4F8CC020020F5
:103B300038BD032038BD02460320D2F8B832002B2E
:103B400002D01B6810461847704700002DE9F0416D
:103B50000F462C4E8978002504463170012906D97C
:103B600039462046FFF716FA0320BDE8F08194F8A5
:103B70009C0202280CD003281DD039462046FFF7AE
:103B800009FA31782046FFF7EDF903252846ECE7DE
:103B900099B320466160FFF7CEFF050004D0394697
:103BA0002046FFF7F7F9F1E72046FFF725FA032053
:103BB00084F89C02EAE74FF00208C1B160688842CD
:103BC0001BD0C1B22046FFF7CDF9317820466160A5
:103BD000FFF7B1FF050010D039462046FFF7DAF9AC
:103BE00021792046FFF7BEF984F89C82CEE784F85D
:103BF0009C8220466160FFF7B5F92046FFF7FCF98B
:103C0000C4E70000C6010020FFF7C7BC2DE9F04162
:103C10000A78002512F0600208D0202A01D0402A3C
:103C200072D1D0F8B8229268904732E04B780022E7
:103C300001264FF002080A2B66D2DFE803F0405D50
:103C40006557650805652C28FFF750FA5EE00446C5
:103C50008888D0B9C888C0B94888802815D200F0B3
:103C60007F0794F89C0203280FD084F89E7239468F
:103C70002046FFF750FC2046FFF7BEF917B184F845
:103C80009C8243E084F89C6240E020463CE0FFF7E1
:103C90005DFF05463AE0CB88012B35D190F89C3288
:103CA000012B04D0022B02D0032B2DD104E0826023
:103CB000012200F1080116E00122011D13E090F835
:103CC0009C32012B03D0022B01D0032B1CD1CB88BB
:103CD000022B19D1C260D0F8A41209B1C0F80C802F
:103CE000022200F10C01FFF77AF90FE0498801295F
:103CF0000CD1C0F8A46211E090F89C32012B08D0DE
:103D0000022B06D0032B04D0FFF744F92846BDE868
:103D1000F08149880129F9D1C0F8A422FFF76CF994
:103D2000F4E72DE9F0410D4604462878002709798B
:103D300010F060000BD0202801D0402873D1D4F8B7
:103D4000B802294682682046904707468CE068788A
:103D5000D8B3012822D0032865D194F89C02022808
:103D600002D003287CD10BE0002979D0802977D0BC
:103D70002046FFF709FC80212046FFF705FC73E091
:103D8000688838B931B1802904D0E88810B9204654
:103D9000FFF7FAFB2046FFF72FF965E094F89C0245
:103DA0000228E1D003285BD16888D8BB480602D03E
:103DB0002046FFF761FA2046FFF71EF9D4F8B80253
:103DC00029468268204690474EE0FFE794F89C021F
:103DD0000026022802D0032842D111E009B180292F
:103DE0003ED1080601F07F0000EB800004EB80016B
:103DF00001D5143101E001F5AA7102220E602BE019
:103E0000080601F00F0000EB800004EB80000BD5EA
:103E1000808C40B101F07F0000EB800004EB800556
:103E200014350CE020E01BE0B0F86401C0B101F0F3
:103E30007F0000EB800004EB800505F5AA7541B119
:103E4000802906D02046FFF7FBFA10B10120286038
:103E500000E02E60022229462046FFF7C0F803E06A
:103E600029462046FFF796F83846BDE8F08170B540
:103E70000646087800240D4610F0600003D0202884
:103E800001D0402817D196F89C02012803D00228BF
:103E900001D003280FD1287901280CD8D6F8B80210
:103EA0008268304690470446E888204306D1304671
:103EB000FFF7A2F802E03046FFF76CF8204670BD2D
:103EC00070B50A78012302F00F054E78AB401B4C09
:103ED000D0F81C58012E17D045EA0343C0F81C380F
:103EE00000EB4210D0F8002B12040BD4D0F8002BBA
:103EF0008B890979C3F30A031A4344EA81410A43CF
:103F0000C0F8002B002070BD9BB21D43C0F81C58A8
:103F100000EB4210D0F800391B04F3D4D0F800397C
:103F20008D890979C5F30A0589042B4341EA825139
:103F30000B432343C0F80039E4E700000080001081
:103F4000D0F800196FF30A01C0F80019D0F804186E
:103F500041F48071C0F804180020704770B5044621
:103F600006990A9E049D0D98012916D0E06840F03C
:103F70004000E060204600F02BF8A16B1EB321F456
:103F80008031A163012D07D1A16841F00601A16034
:103F9000A16841F02001A16070BDA16B21F48031C6
:103FA000A163E168094A1140E160E16821F4401130
:103FB000E160012803D1E06840F48010E060204611
:103FC00000F006F8DEE741F48031DAE7BFFFBDFF1D
:103FD00008B500220D490092009B5B1C00938B42A8
:103FE0000CD80369002BF7DA0092026942F0010253
:103FF0000261009A521C00928A4201D9032008BD36
:104000000269D207F5D1002008BD0000400D030071
:1040100030B54C780A78012300EB4212012C2CD0E9
:10402000D2F8004B002C0BDAD2F8004B44F00064BD
:10403000C2F8004BD2F8004B44F08044C2F8004B69
:10404000D0F83C580C7804F00F0403FA04F425EA85
:104050000444C0F83C48D0F81C48097801F00F012E
:104060008B4024EA0341C0F81C18D2F8000B194910
:104070000840C2F8000B002030BDD2F80049002CE7
:104080000BDAD2F8004944F00064C2F80049D2F8D3
:10409000004944F08044C2F80049D0F83C480D780B
:1040A00005F00F0503FA05F5ADB2AC43C0F83C4886
:1040B000D0F81C48097801F00F018B4099B28C436D
:1040C000C0F81C48D2F8000903490840C2F80009AA
:1040D000D1E700000078F3EF007833ECD0F8001E51
:1040E00021F00301C0F8001ED0F8041821F00201ED
:1040F000C0F8041800207047D0F8001E21F003011A
:10410000C0F8001ED0F8041841F00201C0F80418ED
:10411000002070472DE9F04F00250E460446DDF8DB
:104120002CC0DDF824B0109F2846294604EB8002FD
:10413000C2F80411401C0F28F8D32046C7B1806B89
:1041400020F40012A263A06B40F40022A263084690
:104150008846C4F8000ED4F800182046C4F80018A9
:10416000BCF1010F16D0D0F8001841F0030116E0A1
:10417000D0F8040840F00202C4F80428A06B40F410
:104180000012A263A06B20F40022A263A06B20F4B3
:104190008022DBE7D0F800180BB141F00101C0F834
:1041A0000018102100F0EEFA00B10125204600F0C1
:1041B000CBFA00B101254046C4F81088C4F8148831
:1041C000C4F81C8800214FF000694FF0904A4FF668
:1041D0007F3314E004EB4112D2F800C9BCF1000FA8
:1041E00006DA11B1C2F800A904E0C4F8009901E0B0
:1041F000C2F80009C2F81009C2F80839491C8E42F9
:10420000E8D8002115E000BF04EB4112D2F800CB42
:10421000BCF1000F06DA11B1C2F800AB04E0C4F83B
:10422000009B01E0C2F8000BC2F8100BC2F8083B7B
:10423000491C8E42E8D8D4F8101821F48072C4F8D2
:104240001028A0616FF080406061BBF1000F03D1C6
:10425000A06940F01000A061A06909490843A0616D
:104260000C9818B1A06940F00800A061012F03D19B
:10427000A06904490843A0612846BDE8F08F00000A
:1042800000383C8004000040816821F00101816019
:104290000020704770B50D784E78444CEBB200EBBF
:1042A0004313012E21D0D3F8100B6FF31200C3F883
:1042B000100BD3F8100B2040C3F8100B886908B11D
:1042C000C8688861C868C861D3F8100B40F4002042
:1042D000C3F8100BD3F8100BCC69C4F312042043BD
:1042E000C3F8100B012A55D058E08E69002ED3F880
:1042F000106932D06FF31206C3F81069D3F8106951
:104300002640C3F810698E69CC68A64200D98C613A
:10431000D3F8104944F40024C3F81049D3F81049E5
:104320008E69C6F312063443C3F81049012A22D01D
:1043300000EB4512D2F8003943F00443C2F80039CB
:104340008A6932B3D0F83428097801F00F030121CB
:1043500099400A43C0F8342826E02640C3F8106983
:10436000D3F8104944F40024C3F81049D3F8104995
:104370006FF31204D8E7496919B100EB4512C2F88E
:10438000141900EB4510D0F8001941F00441C0F8B1
:10439000001909E0086908B1C3F8140BD3F8000B41
:1043A00040F00440C3F8000B002070BDFFFF07E0A1
:1043B00010B5036C134CA34203D9D0F8003B002B7B
:1043C0001EDB0023C0F8103BD0F8103B43F4002361
:1043D000C0F8103BD0F8103B43F01803C0F8103B76
:1043E000D0F8103B43F0C043C0F8103B012907D17F
:1043F000C0F8142BD0F8001B41F08021C0F8001B3E
:10440000002010BD0A30544F4A780B78012A00EB87
:1044100043100BD0D0F8002B22F40012C0F8002B70
:104420000979032914D0022912D017E0D0F8002905
:1044300022F40012C0F800290979032901D00229C9
:104440000CD1D0F8001941F08051C0F8001905E0F6
:10445000D0F8001B41F08051C0F8001B00207047CD
:104460000A784B78D1B200EB4110012B12D0D0F872
:10447000001B002906DB2AB1D0F8001B21F0804187
:10448000C0F8001BD0F8001B41F40011C0F8001B5D
:1044900000207047D0F80019002906DB2AB1D0F8B7
:1044A000001921F08041C0F80019D0F8001941F43A
:1044B0000011C0F80019EBE7F8B50C784F78764D8D
:1044C000E3B26FF0604600EB4313012F27D0D3F81F
:1044D000104B6FF31204C3F8104BD3F8104B2C4061
:1044E000C3F8104B8D69002D75D0CC6825446D1E26
:1044F000B5FBF4F5ADB26C43CC61D3F8104B06EAD2
:10450000C5452C43C3F8104BD3F8104BCD69C5F308
:1045100012052C43C3F8104B012A71D0A4E08F6917
:104520001FB3D3F810796FF31207C3F81079D3F8DB
:1045300010792F40C3F810798F69CD682F447F1E02
:10454000B7FBF5F506EAC545D3F810693543C3F85E
:104550001059D3F810598E69C6F312063543C3F8C3
:1045600010590D79012D10D01BE0D3F810692E40A1
:10457000C3F81069D3F8105945F40025C3F8105951
:10458000D3F810596FF3120509E0D3F8105925F04C
:10459000C045C3F81059D3F8105945F00055C3F879
:1045A0001059012A18D000EB4413D3F8004944F005
:1045B0000444C3F800490C79012C2FD08A6962B3F6
:1045C000D0F83428097801F00F03012199400A43FB
:1045D000C0F834285EE036E04A691AB100EB4413B3
:1045E000C3F81429097901290FD1D0F80818C90591
:1045F00000EB4411D1F8002903D442F0005202E04C
:104600002EE042F08052C1F8002900EB4410D0F8AF
:10461000001941F00441C0F800193BE0D0F8084807
:10462000E405D3F8004902D444F0005401E044F01A
:104630008054C3F8004900920A8B93B20A78096942
:1046400000F0D0F926E0D3F8104BCD68C5F3120581
:104650002C43C3F8104BD3F8104B44F4002459E713
:104660000A690AB1C3F8142B097901290CD1D0F8D1
:104670000808C005D3F8000B02D440F0005001E058
:1046800040F08050C3F8000BD3F8000B40F004401A
:10469000C3F8000B0020F8BDFFFF07E038B500228B
:1046A000009213464D780A7842F2107400EB4212E1
:1046B000012D19D0D2F8005B002D3CDAD2F8005B56
:1046C00045F00065C2F8005B0A7800EB4212D2F8B0
:1046D000005B45F08045C2F8005B009A521C0092D6
:1046E000A24221D9012326E0D2F80059002D22DA76
:1046F000D2F8005945F00065C2F800590A7800EB7D
:104700004212D2F8005945F08045C2F80059009A8B
:10471000521C0092A242E5D80A7800EB4212D2F86D
:104720000029002AF3DB06E00A7800EB4212D2F8F7
:10473000002B002AD1DB184638BD816841F0010109
:10474000816000207047000008B500220C490092EB
:10475000009B5B1C00938B420AD80369002BF7DA9D
:10476000009210220261009A521C00928A4201D9E2
:10477000032008BD0269D206F5D4002008BD000060
:10478000400D030018B500230D4A0093009C641CE3
:10479000009494420CD80469002CF7DA009320238B
:1047A00043EA811101610099491C0091914201D9AC
:1047B000032018BD01698906F5D4002018BD00004A
:1047C000400D0300D0F8080810F0060004D00228BD
:1047D00003D0062801D00F2070470220704740699F
:1047E00000F001007047D0F81818D0F81C080840F5
:1047F00080B27047D0F81818D0F81C080840000C98
:10480000704710B5D0F81038D0F8342801F00F04F4
:1048100000EB4110E24002F00102D0F8080943EA3F
:10482000C212104010BD00EB4111D1F8081BD0F8A6
:10483000140808407047416980690840704730B5E6
:1048400003460846940802F00301002203F5805352
:1048500003E01D6840F8045B521CA242F9D3002912
:104860000BD01C680022D50024FA05F3491E521C07
:10487000090400F8013B090CF5D130BD70B50446C0
:10488000C068002520F0C040E060012901D079B166
:1048900020E0E06840F00050E0600120FCF778F98B
:1048A00060696D1C10F0010F10D1322DF5D30DE0B1
:1048B000E06840F08040E0600120FCF769F9606941
:1048C0006D1C10F0010F01D0322DF5D3322D01D027
:1048D000002070BD012070BDD0F8002822F4FE62D7
:1048E000C0F80028D0F800284FF4FE6303EA011155
:1048F0000A43C0F80028002070470000022A3ED179
:10490000264A274B0A449A4201D20F2138E0254A11
:10491000254B0A449A4201D20E2131E0234A244B0E
:104920000A449A4201D20D212AE0224A224B0A442B
:104930009A4201D20C2123E0204A214B0A449A4298
:1049400001D20B211CE01F4A1F4B0A449A4201D29C
:104950000A2115E01D4A1E4B0A449A420FD31D4AF4
:104960001D4B0A449A4201D2082109E01B4A114416
:104970001B4A914201D2072102E0062100E00921F1
:10498000C26822F47052C260C2684FF4705303EAE6
:1049900081210A43C260002070470000405327FF76
:1049A00000350C00401E1BFF40420F0000DC0BFFD7
:1049B000804F1200808CF9FE20D6130060B6E5FE11
:1049C00060E3160000D3CEFE40771B00C05BB3FE51
:1049D000C091210000CA91FE20753800E05459FEB4
:1049E000E09C410010B5029C74B9DB1C9C0800EBF4
:1049F0000230002300F5805004E000BF51F8042B82
:104A000002605B1CA342F9D3002010BDFEE700004A
:104A10000FB4054B10B503A9044A029800F028F81A
:104A200010BC5DF814FB0000294C0108C8010020EF
:104A30000907090E002804DB00F1E02080F80014CB
:104A4000704700F00F0000F1E02080F8141D70475F
:104A500002E008C8121F08C1002AFAD17047704747
:104A6000002001E001C1121F002AFBD170470000A5
:104A70002DE9FF4F8BB09A460F460546002606E00B
:104A800025280BD052460D9990476D1C761C28782E
:104A90000028F5D10FB03046BDE8F08F0024A046C5
:104AA0000122604900E0044315F8013F203B02FA6F
:104AB00003F00842F7D128782E2817D115F8010FF6
:104AC00044F004042A280ED06FF02F022878A0F1B9
:104AD000300109290AD808EB880102EB410100EBFB
:104AE00001086D1CF2E757F8048B6D1C28786928C3
:104AF0003ED006DC0028CDD063280BD0642804D13A
:104B000036E0732810D075284BD052460D99904747
:104B1000761C85E017F8040B8DF8000000208DF856
:104B20000100E946012003E057F8049B4FF0FF30F5
:104B300061074FF0000401D40AE0641C44450DDA1B
:104B40008442FADB19F804100029F6D106E0641C4F
:104B50008442FCDB19F804100029F8D1264404E053
:104B600019F8010B52460D999047641EF8D257E090
:104B700001CF4FF00A0B002802DA40422D2102E05B
:104B8000210504D52B218DF82410012103E0E10734
:104B900005D02021F7E70DF1200908910CE0002154
:104BA000F9E701CF4FF00A0BF9E75946FBF780FD13
:104BB00001F1300209F8012D0028F6D1ADEB090012
:104BC00000F1200B600701D44FF00108D84502DD49
:104BD000A8EB0B0000E000208046002406E009A8B6
:104BE0005246005D0D999047641C761C08988442DB
:104BF000F5DB04E0302052460D999047761CB8F161
:104C00000001A8F10108F5DC05E019F8010B524696
:104C10000D999047761CBBF10001ABF1010BF4DC60
:104C20006D1C34E70928010013B54FF0FF33012252
:104C300069460248FDF712FC00981CBD5CE60020A6
:104C4000FCF7CCF8FEF774F8FDF7E8FDFDF7A2FEDF
:104C5000FDF7CEFDFDF77CFE7F220B490BA0FFF791
:104C6000D7FE01220E490F48FEF7ECFA0E490D4817
:104C7000FEF750FF0D490B48FEF71CFE0948FEF7F2
:104C8000C3FF00F04BF80000684D010825735B2559
:104C9000645D3A2068656C6C6F20200D0A0000008E
:104CA00078010020D40100201C000020A404002072
:104CB000F0B50B30154D20F007010024144A0FE029
:104CC00003688B420BD38B4205D95E1A43184768A1
:104CD000C3E9006700E04368136002C004E0021DFE
:104CE00010680028ECD12046002802D1286808B1BD
:104CF0000020F0BD064A07481060074A121A22F049
:104D00000702C0E9002401202860D7E7D001002075
:104D1000CC010020DCED0020D8F500201148FDF783
:104D200025FC4FF478444FF4FC652046FDF70CFC5D
:104D30000020FDF70BFF0120FDF708FF2846FDF7D7
:104D400003FC0020FDF702FF0120FDF7FFFE1F20FE
:104D5000FDF7FAFB0020FDF7F9FE0120FDF7F6FE56
:104D6000E3E70000A40400206D61696E000000000C
:104D700000000000000080000000800100008001B1
:104D8000000080010000800100008001001080010F
:104D90000CF0FFFF0F3080010430800104308001EF
:104DA000043080010430800104308001043080012F
:104DB0000430800104F0FFFF0730800104308001DF
:104DC00004008001000080010000800100008001DB
:104DD00000008001000080010000800100008001CF
:104DE00000008001000080000000000000000000C2
:104DF0000000000000000000000001800100FFFF33
:104E000001000380010003800100FFFF0100038017
:104E1000010003800100FFFF010081810000000309
:104E2000000000031CFCFFFF3F000040000003C027
:104E30000100FFFF010003C0000003C0000003C029
:104E40000000FFFF000001410000040100000E719E
:104E50000000078101800101076000010E18980120
:104E60001C04E0011800C000000000000000000069
:104E7000000000000000000008F0FFFF1F300000ED
:104E80000C3000000C3000100C30FE3F0C300400E1
:104E90000C3000000C3000000C3000000C3000C062
:104EA0000CF0FFFF0D3030060E3030060C301006CF
:104EB0000C3010060C3010060C3018860C3018869A
:104EC0000C3008060D300C860D3006EE0F3002FC5B
:104ED0000D3001000CF000000C3000000CF0FFFF62
:104EE0000F3000000C100000040000000000000063
:104EF000000000000000C0000000C0010000C00071
:104F00000000C0000000C0000000C00000E0FFFF83
:104F10000360C0000360C0000360C0000360C00005
:104F20000360C0000360C00003E0FFFF0360C00037
:104F30000360C0000360C0000360C0000360C000E5
:104F400003E0FFFF0360C0000160C0000000C0007C
:104F50000800C0001000C0001000C0001800C00110
:104F6000380080FF1F00000000000000000000006B
:104F700000000000000000000000000003C0FFFF70
:104F800007000080070000C000000060000000185B
:104F90000000000C0000800300008003000080017E
:104FA00000008001080080011CFCFFFF3F00800121
:104FB00000008001000080010000800100008001ED
:104FC00000008001000080010000800100008001DD
:104FD0000000800100008001000080010000FC0151
:104FE0000000E000000040000000000000000000A1
:104FF00000000000000000000000000000000000B1
:105000000808080808080800001818000000486C84
:10501000241200000000000000000000000000005A
:105020002424247F1212127F1212120000000008A2
:105030001C2A2A0A0C1828282A2A1C080800000002
:1050400022251515152A585454542200000000003A
:105050000C1212120A76252911916E000000060624
:1050600004030000000000000000000000004020D9
:10507000101008080808080810102040000002045A
:10508000080810101010101008080402000000009A
:105090000008086B1C1C6B080800000000000000E2
:1050A00000080808087F0808080800000000000041
:1050B00000000000000000000006060403000000DD
:1050C0000000000000FE00000000000000000000E2
:1050D0000000000000000000000606000000008044
:1050E00040402020101008080404020200000000C4
:1050F000182442424242424242241800000000006A
:10510000080E08080808080808083E00000000000B
:105110003C4242422020100804427E000000000071
:105120003C4242201820404042221C000000000067
:10513000203028242422227E202078000000000035
:105140007E0202021A26404042221C00000000009B
:10515000382402021A2642424224180000000000AD
:105160007E2222101008080808080800000000002D
:105170003C4242422418244242423C0000000000CB
:10518000182442424264584040241C0000000000A1
:1051900000000018180000000018180000000000AF
:1051A00000000000080000000000080804000000E3
:1051B00040201008040204081020400000000000F5
:1051C0000000007F0000007F0000000000000000E1
:1051D0000204081020402010080402000000000013
:1051E0003C42424640201010001818000000000009
:1051F0001C225A555555552D42221C000000000016
:105200000808181414243C224242E7000000000061
:105210001F2222221E22424242221F0000000000C2
:105220007C4242010101010142221C0000000000F9
:105230001F2242424242424242221F00000000001E
:105240003F4212121E12120242423F0000000000B2
:105250003F4212121E12120202020700000000005A
:105260003C2222010101712122221C0000000000C9
:10527000E7424242427E42424242E70000000000D2
:105280003E0808080808080808083E00000000005A
:105290007C10101010101010101010110F000000D2
:1052A0007722120A0E0A1212222277000000000052
:1052B000070202020202020202427F000000000016
:1052C00077363636362A2A2A2A2A6B000000000052
:1052D000E346464A4A5252526262470000000000CA
:1052E0001C2241414141414141221C00000000007B
:1052F0003F424242423E020202020700000000001A
:105300001C2241414141414D53321C6000000000CC
:105310003F4242423E1212222242C70000000000D9
:105320007C4242020418204042423E00000000003D
:105330007F4908080808080808081C000000000049
:10534000E74242424242424242423C0000000000E8
:10535000E742422224241414180808000000000028
:105360006B49494949555536222222000000000068
:10537000E7422424181818242442E7000000000003
:10538000772222141408080808081C0000000000F6
:105390007E2120101008040442423F0000007808DB
:1053A000080808080808080808080878000000022B
:1053B00002040408080810102020204040001E109D
:1053C00010101010101010101010101E0000384493
:1053D00000000000000000000000000000000000CD
:1053E000000000000000000000000000FF000608B0
:1053F00000000000000000000000000000000000AD
:10540000000000003C4278444242FC0000000000E2
:10541000030202021A26424242261A00000000003D
:10542000000000003844020202443800000000007E
:1054300060404040784442424264D800000000008E
:10544000000000003C427E0202423C0000000000DE
:10545000F08808087E08080808083E0000000000E0
:10546000000000007C22221C023C42423C00000062
:10547000030202023A4642424242E70000000000B4
:105480000C0C00000E08080808083E000000000090
:105490003030000038202020202020221E00000074
:1054A0000302020272120A161222770000000000A4
:1054B0000E0808080808080808083E000000000058
:1054C000000000007F9292929292B70000000000CC
:1054D000000000003B4642424242E700000000005C
:1054E000000000003C42424242423C0000000000FA
:1054F000000000001B26424242221E02070000005C
:10550000000000007844424242447840E00000003D
:1055100000000000774C040404041F000000000099
:10552000000000007C42023C40423E0000000000BF
:10553000000008083E0808080808300000000000C5
:1055400000000000634242424262DC0000000000B2
:1055500000000000E74224241408080000000000B6
:1055600000000000EB4949555522220000000000D0
:10557000000000007624181818246E0000000000B7
:1055800000000000E7422424141808080700000067
:10559000000000007E22100808447E000000C020A9
:1055A0002020202010202020202020C000101010BB
:1055B000101010101010101010101010100006080D
:1055C000080808081008080808080806000C32C275
:1055D0000000000000000000000000000048414CF6
:1055E0005F5350495F547843706C7443616C6C62D4
:1055F00061636B0000061016000610160000000024
:105600000000000001020304060708090000000072
:1056100001020304555342445F4E45585F4C494EC6
:105620004B5F496E697400555342445F4E45585F65
:105630004C494E4B5F537461727400555342445F42
:105640004E45585F4C494E4B5F534F4600555342B1
:10565000445F4E45585F4C494E4B5F4550305F525A
:1056600078526561647900555342445F4E45585FF6
:105670004C494E4B5F436F6E6669675F526571754B
:1056800065737400555342445F4E45585F4C494E14
:105690004B5F56656E646F725F52657175657374AA
:1056A00000555342445F4E45585F4C494E4B5F4353
:1056B0007573746F6D446576696365526571756560
:1056C000737400555342445F4E45585F4C494E4BEE
:1056D0005F536574757000555342445F4E45585F83
:1056E0004C494E4B5F44617461496E0055534244CE
:1056F0005F4E45585F4C494E4B5F5478526561642C
:105700007900555342445F4E45585F4C494E4B5FBC
:105710005472616E736D6974001F1D1F1E1F1E1F62
:105720001F1E1F1E1F0000004A616E756172790006
:105730004665627275617279004D617263680041FD
:105740007072696C004D6179004A756E65004A752A
:105750006C79004175677573740053657074656D7D
:10576000626572004F63746F626572004E6F76659A
:105770006D62657200446563656D6265720000006C
:10578000A057010800000020D401000040070108D4
:10579000B8580108D401002004040100604A01083F
:1057A000C1320182101324F4180AD93901087D3757
:1057B00001086108411A950C1EF136010835085A96
:1057C0002914416D8938010804392859081409023F
:1057D0003213020125804B09041502FFFFFF150754
:1057E0000581021A04072A02071B0904722009FE18
:1057F0000101E009210BFF1B081A0F1412034D12BF
:10580000531246125412311A300232203A409D127D
:10581000047A02A9071057494E5553420A15011838
:105820003A921D1A05E032883207122A1244126594
:10583000127612691A63081249126E1A74081272EB
:1058400012663A611212471A5516124432733250D8
:105850001A7B1612311235126212341A339612382C
:105860001A2D0612341A640E1A2D1A1A31341A36E9
:105870000A1A62101A65441A2D0E1A30301A371A95
:1058800012383A391E3A343C727D1E3530010869AF
:10589000041A75041A91041AB5041A11041A410461
:1058A0003F040309041201EF1E40501D6F60BD2428
:0858B00002030103261A0300A4
:040000050801018964
:00000001FF
