:020000040800F2
:10000000786901209D010008495A00080F4800083E
:100010000152000811150008859300080000000037
:10002000000000000000000000000000A5710008B2
:1000300015160008000000002D6F0008E971000887
:10004000B7010008B7010008B7010008B7010008B0
:10005000B7010008B7010008B7010008B7010008A0
:10006000B7010008B7010008B7010008151500081E
:10007000B7010008B7010008B7010008B701000880
:10008000B7010008B7010008B7010008B701000870
:10009000B7010008B7010008B7010008B701000860
:1000A000B7010008B7010008B7010008B701000850
:1000B000B70100088D720008B7010008B7010008F9
:1000C000B7010008B7010008B7010008B701000830
:1000D000B7010008B7010008B7010008B701000820
:1000E000B7010008B7010008B7010008B701000810
:1000F000B7010008B7010008B7010008B701000800
:10010000B7010008B7010008B7010008F96F00083F
:10011000B7010008B7010008B7010008B7010008DF
:10012000B7010008B7010008B70100082115000851
:10013000B7010008B7010008B7010008B7010008BF
:10014000B7010008B7010008B7010008B7010008AF
:10015000B7010008B7010008B7010008B70100089F
:10016000B7010008B7010008B7010008B70100088F
:10017000B7010008C96B0008B701000800000000C3
:10018000B7010008B7010008DFF80CD001F012F940
:1001900000480047E9B40008786901200648804714
:1001A00006480047FEE7FEE7FEE7FEE7FEE7FEE75C
:1001B000FEE7FEE7FEE7FEE77D7200088901000822
:1001C0002DE9F04F4FF0000C4FF0000301EB1C6ED7
:1001D000BEF90250BEF900400EF5807EBEF90290D5
:1001E000BEF900800EF5807EBEF90270BEF9006097
:1001F0000EF5807EBEF902B0BEF900A00EF5807E3D
:10020000D044D944A8EB4A0AA9EB4B0B4FEAA4040B
:100210004FEAA50504EBA60405EBA705A4EB6606CB
:10022000A5EB670704EBA80405EBA905A4EB680898
:10023000A5EB690906EBAB06A7EBAA07A6EB6B0BD0
:1002400007EB6A0A458020F8044B478020F8046BCE
:10025000A0F8029020F8048BA0F802A020F804BBBC
:1002600003F1010393FAA3FC402BAFD1A0EB820171
:100270004FF0100312090FF2361000F1000006B41F
:1002800003EB430C6144A2F5803202EB8332B1F9F7
:100290000250B1F90040A1EB0301B0F902B0B0F98E
:1002A00000A000F10400A5EB040E0EFB0BFC0AEB12
:1002B0004B0E05FB0ACB04FB0ECAB1F90250B1F993
:1002C0000040A1EB0301B0F90290B0F9008000F109
:1002D0000400A5EB040E0EFB09FC08EB490E05FB20
:1002E00008C904FB0EC8B1F90250B1F90040A1EBF6
:1002F0000301B0F90270B0F9006000F10400A5EB51
:10030000040E0EFB07FC06EB470E05FB06C704FBBD
:100310000EC6B1F90250B1F9004001F10001D0441C
:10032000D944A8EB4A0AA9EB4B0B4FEAA4044FEAC5
:10033000A50504EB264405EB2745A4EBE636A5EB23
:10034000E73704EB284405EB2945A4EBE838A5EB97
:10035000E93906EB2B46A7EB2A47A6EBEB3B07EB6D
:10036000EA3A4D800C8019444F800E801944A1F860
:100370000290A1F800801944A1F802A021F804BB62
:10038000B2F5803283DA03EB430C6144A2F101023F
:100390005FEA024E18BFA0EB0C007FF476AF06BCFC
:1003A0004FEA830392087FF46AAFBDE8F08F004004
:1003B000000000400000004000005DDD213BA32262
:1003C0007E180000412D7EA5412D0000412D00C06A
:1003D00000405DDD82E75DDD213B7EA5412D0040D3
:1003E00000000040000000400000AA2A94126B396F
:1003F000460649327C0CA8118E2349327C0CA3227C
:100400007E1821F77931AA2A9412A8118E235DDD76
:10041000213BA3227E180000412D95C6B13F461A0C
:100420002B1E58EE3735BEB4C53EA8118E235DDDB8
:10043000213B63A97138DF089A28B7CDC53E7EA558
:10044000412D0000412D00C0004063A92B1E21F763
:100450007931BEB4C53EBEB47C0C58EE373561ACC4
:10046000213B95C6BAF9BAE571383BA737355DDD52
:1004700082E75DDD213B7EA5412D21F766D756D56C
:100480003F3D3BA78E23A811C9CAB7CDC53E61AC7D
:100490007E18AA2AC1C295C6B13FBEB47C0C0040EA
:1004A000000000400000004000001E3BB504693E13
:1004B0009201C83C2403EB356409C83C24036B3922
:1004C00046066C30060E1E3BB504EB356409AA2ABD
:1004D00094126B39460649327C0CAE240917AF37AB
:1004E000D607882E8D0F7E1E5D1BEB356409AA2A68
:1004F000941224188C1F1E34F10AB3269015A811EB
:100500008E2349327C0CA3227E18140B60276C309A
:10051000060E7E1E5D1B7104FB2A882E8D0F461A67
:100520002B1EC7FD5A2E9D2C1211FE15E72021F718
:100530007931AA2A9412A8118E2387F05334B22855
:100540001314480D202602EAE536B3269015DF087D
:100550009A289CE32B39AE2409177104FB2A5DDD30
:10056000213BA3227E180000412D4ED7C53C93208D
:10057000EF198FFB6C2F78D1153E7E1E5D1B21F786
:100580007931E2CB0F3F641CC61CB8F2683395C6C4
:10059000B13F461A2B1E58EE373597C1FB3F241842
:1005A0008C1F02EAE536F0BCEC3FFE15E720BAE509
:1005B0007138A6B8853FD5133D2282E1DB39BEB440
:1005C000C53EA8118E235DDD213B40B1AF3D790FC3
:1005D000DA244DD9423C2EAE423C480D202656D559
:1005E0003F3D8EAB823A140B602778D1153E63A94C
:1005F0007138DF089A28B7CDC53EB1A71236A906D3
:10060000CE2915CA4F3F78A668337104FB2A95C6D8
:10061000B13FBCA576303902212C38C3EC3F7EA512
:10062000412D0000412D00C00040BCA5CE29C7FDD2
:100630005A2EF0BCEC3F78A620268FFB6C2F09BA0F
:10064000B13FB1A73D2257F976304DB74F3F63A96F
:100650002B1E21F77931BEB4C53E8EABEF19ECF4F9
:1006600074325EB2153E2EAE9015B8F268332DB0DE
:100670003F3D40B1121187F053342EAE423CBEB420
:100680007C0C58EE373561AC213BA6B8D6072BEC75
:100690001236C8AADB39F0BC240302EAE53663A9A6
:1006A000713897C16EFEDCE7B03734A8E53695C6E1
:1006B000BAF9BAE571383BA73735E2CB0FF59CE3C1
:1006C0002B3978A6683378D173F082E1DB39EDA558
:1006D00079314ED7EDEB6DDF823A99A56C2F5DDD58
:1006E00082E75DDD213B7EA5412D9CE33AE352DBB1
:1006F000B63B99A5FB2A02EA19DF4DD9423CEDA58C
:100700009A2887F026DB4ED7C53C78A6202621F70D
:1007100066D756D53F3D3BA78E23C7FDDFD363D3B6
:10072000AF3D34A8E720710494D078D1153E63A979
:100730002B1E140B8CCD94CF723EC8AA5D1BA81142
:10074000C9CAB7CDC53E61AC7E18241850C8E2CBEB
:100750000F3F2EAE90157E1E25C615CA4F3F2DB0F9
:100760009412AE244AC451C8853F5EB28D0FAA2AA6
:10077000C1C295C6B13FBEB47C0C6C308EC1E2C420
:10078000D43F4DB76409EB35B1C038C3EC3F09BA6B
:1007900046061E3B2CC097C1FB3FF0BC24032DE94D
:1007A000F05F0546002092469B46884606468146F5
:1007B00040241BE0284641464746224600F0C3FC41
:1007C00053465A46C01A914110D311461846224644
:1007D00000F0AAFC2D1A67EB01084F4622460120C3
:1007E000002100F0A1FC17EB00094E41201EA4F1EE
:1007F0000104DFDC484631462A464346BDE8F09F07
:100800000649074A0868504343F239021044086019
:10081000400870470149086070470000F802002056
:100820006D4EC641014610B509683C22B1FBF2F39A
:1008300002FB1313B1FBF2F11D480360B1FBF2F3AD
:1008400002FB1313B1FBF2F118224360B1FBF2F388
:1008500002FB1313B1FBF2F183600A1D0723B2FB05
:10086000F3F403FB142282618A0040F2B55102F6D0
:100870006C32B2FBF1F344334361B2FBF1F301FBA1
:1008800013218908C1613B2903D3027D920700D05F
:10089000491C0022074C13460261E25C8A4203D8DD
:1008A000891A5B1C0361F8E7491CC16010BD000098
:1008B00048510120982E010870B5054601B907215D
:1008C000541A241DB4F5B67F09DD286800F036F906
:1008D000A04204DC2868401C2860012070BD002C68
:1008E00005DA2868401E286000F028F90444072033
:1008F00094FBF0F0401C70BD2DE9F04F89B01D460F
:100900008A468046002401AF4FF0070B0192079002
:1009100057F8241011F8010B47F8241048B1252886
:100920000DD0BAF1010F06D908F8010BAAF1010A9E
:100930005CE0641E5AE0002009B0BDE8F08F11F8B9
:10094000010B47F824100028F3D002264FF030099D
:100950005A284BD020DC4D2873D014DC442871D0A9
:1009600008DC2528DDD041282AD042282ED0432873
:100970003CD130E0462847D0472857D0482862D09D
:10098000492833D161E0523808282FD2DFE800F03F
:10099000787AA6838A97A6A86138192826D2DFE834
:1009A00000F00D1318202E253513255C25256064D5
:1009B0002566256D257375258B9BA0006AA000E038
:1009C00070A0A9690091B4E07DA000E08848296981
:1009D000F8E788A007E06969642091FBF0F0133024
:1009E00082E0E86880E0641C47F82400002C8FDA7D
:1009F000002088F800000799A8EB01009CE7E86850
:100A00004FF02009009070E07EA0ECE7686900F2EA
:100A10006C700090D5E906126846FFF74DFF00990B
:100A2000642091FBF0F200FB12105DE0686904267F
:100A300000F26C700090D5E906126846FFF73CFFA3
:100A400053E010E048E0A8684EE0A8680C21173099
:100A500090FBF1F201FB120001E0E8690326401C63
:100A600042E02869FBE768683EE069A0BBE7A86848
:100A70000C2801DA67A0B6E767A0B4E767A0B2E781
:100A800069A0B0E728682FE069A0ACE7A869012653
:100A900008BB072028E0D5E90610401AC01D90FBCE
:100AA000FBF021E0686900F26C700090D5E9061255
:100AB0006846FFF701FF17E00126A86914E0A9695D
:100AC0005846891D91FBF0F20BFB1211EA69511A8D
:100AD000C91D91FBFBF007E056A084E758A082E710
:100AE0000426686900F26C70009000218DF81810DF
:100AF00006A80A2113E0009A92FBF1F301FB1322EE
:100B0000303200F8012D009A92FBF1F2009232B9D6
:100B100001E000F8019D321EA6F10106F9DC321E4B
:100B2000A6F10106E7DC5EE710F8011B0029FBD106
:100B300000994A1E00920029F6DC54E781070CD187
:100B4000642190FBF1F201FB120151B94FF4C8711D
:100B500090FBF1F201FB120018B1002000F26D10C1
:100B600070470120FAE7000053756E004D6F6E006C
:100B700054756500576564005468750046726900D5
:100B80005361740053756E646179004D6F6E6461DA
:100B9000790054756573646179005765646E657397
:100BA0006461790054687572736461790046726992
:100BB00064617900536174757264617900000000AA
:100BC0004A616E00466562004D61720041707200BC
:100BD0004D6179004A756E004A756C004175670079
:100BE000536570004F6374004E6F76004465630078
:100BF000A42E01082561202562202565202554208A
:100C00002559000025592D256D2D25640000000073
:100C10000A000000414D0000504D000025493A25D2
:100C20004D3A25532025700025483A254D000000F7
:100C300009000000256D2F25642F25790000000094
:100C400025483A254D3A25530000000040EA0103AB
:100C50009B0703D009E008C9121F08C0042AFAD272
:100C600003E011F8013B00F8013B521EF9D2704736
:100C7000D2B201E000F8012B491EFBD270470022DE
:100C8000F6E710B513460A4604461946FFF7F0FF8B
:100C9000204610BD10B5484304460AF0F3FC002876
:100CA00005D00021002C02D0641E0155FAE710BDCA
:100CB0002DE9FE4F804681EA0300C00F0C460090EC
:100CC00021F0004123F00045B8EB0200A94105D214
:100CD0004046214690461C460B46024623F0004003
:100CE000104347D0270DC7F30A00C3F30A510290FF
:100CF000401A019040286BDAC3F3130040F4801BC4
:100D00000098924620B10023D2EB030A63EB0B0B51
:100D100001985946C0F14002504600F005FA0646D7
:100D20000D4650465946019A00F01DFA10EB080096
:100D30006141002487EA115284EAE7731A4340D0E4
:100D4000009A62B3019A012A4FEA075215DC001B90
:100D500061EB02014FF0004202EA0752CDE9004286
:100D6000001C41F5801132462B4600F054FA03B0C6
:100D7000BDE8F08F40462146F9E7001B61EB020118
:100D8000001C41F5801300185B412018A2F50017E4
:100D900047EB030140EAD570B6196D4111E06D08CB
:100DA0004FEA360645EAC0754FEA0752001B61EB71
:100DB0000201001C41F5801149084FEA300000197A
:100DC000514132462B4603B0BDE8F04F00F014BA53
:100DD0000098012240000023D0EB020263EBE07395
:100DE000009821464FEAE074B8EB000061EB040183
:100DF000E9E783F000435BE781F0004158E72DE924
:100E0000FE4F81EA030404F0004421F00041009405
:100E10004FF0000B23F0004350EA01045ED052EA89
:100E200003045BD0C3F30A54C1F30A552C44A4F263
:100E3000F3340194A0FB0254C1F3130141F4801177
:100E4000C3F3130343F4801301FB024400FB034E7E
:100E5000840A970A44EA815447EA8357A4FB076847
:100E600002958D0A05FB07854FEA932C04FB0C5471
:100E70002705029D4FEA065847EA1637B5EB0805E5
:100E80006EEB070C870E920E47EA811742EA831237
:100E9000A7FB0201B6EB0B0164EB00042B0D43EA48
:100EA0000C335E1844EB1C50DA465146E7FB020156
:100EB000C5F313044FEA0B3343EA14534FEA0432E9
:100EC000019C43EA0603A4F10C040294009CCDE9C2
:100ED00000B400F0A0F903B0BDE8F08F0020014697
:100EE000F9E72DE9F04D81EA030404F0004B21F00D
:100EF000004514464FF0000A23F0004150EA050275
:100F000020D054EA01021DD0C5F30A570246C5F3AA
:100F10001303C1F31300C1F30A5640F4801543F4E0
:100F20008013A7EB0608101BD64608F2FD3873EBBA
:100F3000050002D308F1010801E092185B41B8F105
:100F4000000F03DA00200146BDE8F08D00204FF4C9
:100F50008011064684460EE0171B73EB050705D388
:100F6000121B63EB050306434CEA010C49084FEAE8
:100F7000300092185B4150EA0107EDD152EA0300BC
:100F800012D082EA040083EA0501084305D0101B51
:100F9000AB4106D20122002306E000224FF00043BD
:100FA00002E06FF0010253101AEB06004CEB0851FF
:100FB00010EB0A0041EB0B01BDE8F04D00F01CB94D
:100FC0000EB5C10F80EAE0700844CA07002140F264
:100FD00033438DE80E000A460B4600F01CF903B0BF
:100FE00000BD0EB540F2334102910021CDE9001160
:100FF0000A460B4600F00FF903B000BD70B5C1F30F
:101000000A5201F000450024C1F3130140F2FF33FE
:1010100041F480119A4201DA002070BD40F233435E
:101020009A42A2F2334203DC524200F08CF800E014
:1010300090402C43F1D0404270BDC1F30A5210B52C
:10104000C1F3130140F2FF3341F480119A4201DAF7
:10105000002010BD40F233439A42A2F2334203DC37
:10106000524200F070F810BD904010BD00F00042F8
:1010700030F000400AD0C10D01F56071C0F31600D8
:1010800042EA0151C208400711437047002001465F
:101090007047000030B5041E71F1000404DB4FF00E
:1010A0000044404264EB0101141E73F1000405DBAF
:1010B0001C464FF00043524263EB0403994208BFC1
:1010C000904230BD01F0004330B421F0004150EABD
:1010D000010206D00A0DA2F56072C1F31301002AC5
:1010E00002DC30BC00207047440F44EAC104C10058
:1010F000E01830BC00EBC25000F047B830B50B46EA
:10110000014600202022012409E021FA02F59D4237
:1011100005D303FA02F5491B04FA02F52844151E0B
:10112000A2F10102F1DC30BD202A04DB203A00FAF2
:1011300002F1002070479140C2F1200320FA03F32E
:10114000194390407047202A04DB203A21FA02F02C
:101150000021704721FA02F3D040C2F120029140F1
:10116000084319467047202A06DBCB17203A41FA7C
:1011700002F043EAE07306E041FA02F3D040C2F124
:10118000200291400843194670470029A8BF7047C4
:10119000401C490008BF20F00100704710B4B0FAAD
:1011A00080FC00FA0CF050EA010404BF10BC704748
:1011B00049B1CCF1200421FA04F411FA0CF118BF62
:1011C000012121430843A3EB0C01CB1D4FEA006131
:1011D0004FEA102042BF002010BC704700EBC35004
:1011E00010440029A4BF10BC7047401C490008BF30
:1011F00020F0010010BC704710B5141E73F10004FC
:1012000008DA401C41F1000192185B411A4301D1F8
:1012100020F0010010BD2DE9F04D92469B4611B122
:10122000B1FA81F202E0B0FA80F220329046FFF784
:101230007BFF04460F4640EA0A0041EA0B01534691
:101240005A46084313D0114653EA010019D0C8F199
:1012500040025046FFF777FF05460E465046594676
:101260004246FFF761FF084305D0012004E0204615
:101270003946BDE8F08D0020054346EAE0762C4370
:1012800037430A986305E40AA0EB08000022FD0A30
:1012900044EA47540A3002D500200146E9E7010537
:1012A00010196941DDE9084500196941BDE8F04DB3
:1012B000A2E770B521F0004303430CD0C1F30A55F7
:1012C0000024D5EB040564EB0403D617AD1AB34133
:1012D00002DB0020014670BD201841EB025170BDB9
:1012E0002DE9F04D00231A461B1A8A4103DB00202A
:1012F0000146BDE8F08DC1F30A52C1F3130141F478
:1013000080154FF0000BD10702D100186D41521E1D
:101310000027044640F2FF11384601EB620A3E46C0
:101320008046024600204FF48011FFF70CFFC219DF
:101330007141BB1846EB0100B4EB030C75EB000CDC
:1013400004D3E41A65EB000517460E46241908F18C
:1013500001006D4180463428E3DDF91946EB0600B3
:10136000091BA84103D24FF0FF32134601E00022CF
:1013700013461BEB070046EB0A51BDE8F04DFFF7A3
:101380003BBFC1F30A52C1F3130140F2FF3341F4F2
:1013900080119A4202DA00200146704740F233433E
:1013A0009A42A2F2334202DC5242FFF7CCBEFFF770
:1013B000BBBE0000064C074D06E0E06840F00103AC
:1013C00094E8070098471034AC42F6D3FEF7E0FEED
:1013D000303001085030010870B58C1810F8015BEE
:1013E00015F0070301D110F8013B2A1106D110F8BE
:1013F000012B03E010F8016B01F8016B5B1EF9D1C2
:101400002B0705D40023521E0DD401F8013BFAE747
:1014100010F8013BCB1A921C03E013F8015B01F8B2
:10142000015B521EF9D5A142D8D3002070BD70B522
:1014300001242725A02603F015FB2246F221762061
:1014400003F076FC2A46F421762003F071FC324644
:10145000F521762003F06CFCBDE87040AFF300800E
:1014600000B589B06B4618228821762003F060FB16
:101470000122A121762006AB03F05AFB0722E121CD
:1014800076200DF1190303F053FB2048BDF800103E
:101490008180BDF80210C180BDF804100181BDF843
:1014A00006104181BDF808108181BDF80A10C18184
:1014B000BDF80C100182BDF80E104182BDF810106D
:1014C0008182BDF81210C182BDF814100183BDF8ED
:1014D000161041839DF818100170BDF81910818312
:1014E0009DF81B1041709DF81D109DF81C300A4698
:1014F00063F31F12C2839DF81E20120142EA1111EC
:1015000001849DF81F10817009B000BDB002002059
:10151000FEE70000014800F017BC00004C3200203C
:10152000014800F011BC00001433002001681823AA
:10153000CAB2103AB2FBF3F2054B6FF30901032A6A
:101540009B5CC36500D9091D816508467047000092
:1015500003B8000810B5014600208B698A6A4FF075
:10156000C07453B1B3F5005F15D072B1012A0CD02D
:10157000022A0AD0032A09D104E01AB1012A06D0AE
:10158000022A03D1C96AC90100D5012010BDC96A68
:10159000A142FAD010BD002AF7D0012AF2D0022AC7
:1015A000F3D0032AF3D010BD30B50468256825F4C4
:1015B00080252560046863608368402B036803D03E
:1015C00099600068C26030BD9A600068C16030BD3B
:1015D00070B50F4D6C6805E0A189A06800F030FE81
:1015E00060706468002CF7D1002041F2883100BFA0
:1015F000401C8842FBDB6C6807E0A189A06800F012
:101600001FFE6178084320706468002CF5D170BD1E
:10161000E401002070470000F8B5064600244FF6AC
:10162000FF774FF48C7500BF56F824000097C11760
:1016300000EBD16040F34F10A84200DD284683B292
:101640000122002120B204F021FA641CA4B2F02C83
:10165000EAD3F8BD032303760023436003614361AB
:10166000816082810121817004494A681AB18A68C7
:101670005060886070474860FBE70000E40100208C
:1016800010B50120FFF7A4FF1748002340F6B83239
:10169000406826E0847801788C4201D9037607E01F
:1016A00002D24FF0010402E069B14FF00304047666
:1016B000047E54B1012C0AD0022C0AD04469944211
:1016C0000BD342610BE00224F1E7036107E04361C1
:1016D00005E004690A34046101E00A344461817060
:1016E00040680028D6D110BDE401002070B5244C1C
:1016F0004FF4FA76002563683FE0184605F076FC63
:10170000187E012817D11869B04208D3184603F093
:101710007FF8187E01280ED11869B0420BD22078CC
:1017200010B1187F20B108E0184605F000FC23E056
:10173000012018770FE02078F0B1187F012802D03F
:1017400002280FD018E0187E28B95869F02802D274
:101750000220187710E05869F0280DD9184605F0D6
:10176000E6FB08E0187E012806D11869B04203D2D2
:10177000184604F063F91D775B68002BBDD170BD7E
:10178000E40100200FB4002310B5CC699FED250AB9
:10179000237081F820304C6A84ED000A81ED0A0A3A
:1017A00081ED0B0A81F830304B634A619DF81420BB
:1017B0000A71082A1ED2DFE802F01D04080E0E0886
:1017C0000819069A81F8302014E0069ACA61127846
:1017D00081F820200EE0069A4A62D2ED000AC1ED9F
:1017E0000B0AD2ED000AC1ED0A0A01E0069A8A61ED
:1017F000079A4A630B60826882B1C2685279521CB0
:101800004A71C2681160C1604879C88081ED020ADE
:1018100081ED030A0B8210BC5DF814FB4B718160F3
:10182000F1E70000000000000FB400214161816079
:10183000C16001609DF804200271022A01D1029A60
:101840004261074AD36C3BB1116D0B7C5B1C037486
:101850000860106504B070470174D064F9E70000B7
:10186000F00100202DE9F041234C012505F128006D
:10187000002607B206F10A002288394600B204F0B9
:10188000DBFBB61CDD2EF5DBAD1CC92DEEDB142019
:1018900000F0CCFB04F002FE012505F12800012632
:1018A00007B206F10A002288394600B204F0C4FBF0
:1018B000B61CDD2EF5DBAD1CC92DEEDB142000F0CF
:1018C000B5FB04F0EBFD002505F12800012607B269
:1018D00006F10A002288394600B204F0ADFBB61CBE
:1018E000DD2EF5DBAD1CC92DEEDB142000F09EFBD8
:1018F000BDE8F04104F0D2BD8802002038B50446AE
:10190000204804F027FC204D4FF4807229461F48E0
:10191000FFF7A0FE1D486A1529462030FFF79AFE02
:101920001A484FF400421A494030FFF793FE2A1537
:10193000184D164829466030FFF78CFE1348EA140C
:1019400029468030FFF786FE04F09AFD04F07EF809
:1019500034B1114838233A22702100905B2005E011
:101960000E4800901C231D227E21692004F064FE95
:101970000BA2DF213D2005F0F5F8BDE8384004F06A
:101980008DBD0000042A002000040240683B0020B6
:101990000000024000080240B6BF00085EB900081F
:1019A00045617379554928457242575F7329000094
:1019B0002DE9F041224C207E617E0843A17E084340
:1019C000E17E0843217F084337D1607F002834D16E
:1019D0001C481D4D1D4E0378A3762978E1761C4FD7
:1019E0003278227739786177227661760021297002
:1019F0000170397031702BB140F2AD42154916A01B
:101A000007F0C2FCE37E2BB140F2AF42114918A0AF
:101A100007F0BAFC237F2BB140F2B1420D491AA066
:101A200007F0B2FC637F002B07D0BDE8F04140F225
:101A3000B34208491AA007F0A7BCBDE8F081000036
:101A4000F0010020A2020020A3020020A00200203A
:101A5000A10200203EB9000825735B25645D3A2091
:101A60006F706E456E7465723A256420200D0A0011
:101A700025735B25645D3A206F706E457869743A12
:101A8000256420200D0A000025735B25645D3A2043
:101A90006F706E55703A256420200D0A000000001A
:101AA00025735B25645D3A206F706E446F776E3AE4
:101AB000256420200D0A000072B6FEE72DE9F05FD4
:101AC0004C4F04462DED028B38784B4EDFED4B8AA0
:101AD000B2EE048A002518B3606A90ED000A30EE79
:101AE000080A10EE101AB14201DD9FED450A80EDA3
:101AF000000A606A90ED000A10EE100AB04202D1AE
:101B0000B0EE680A01E020EE080A64223D48BCEE0F
:101B1000C00A10EE101A09F08FFC3B4805703D70AA
:101B2000DFF8E880DFF8E8B098F8000030B3606ACA
:101B3000384A90ED000A30EE480A10EE101A914231
:101B400002DB80ED000A01E080ED008A606A90ED22
:101B5000000A10EE100AB04202D1B0EE680A01E0AD
:101B600020EE080A64222748BCEEC00A10EE101AC4
:101B700009F062FC8BF8005088F80050DFF898906C
:101B8000DFF898A099F8000050B1606A90ED000A63
:101B900084ED0B0AFFF766FE8AF8005089F80050C2
:101BA0001F480078C0B1606A94ED0B0A80ED000A0E
:101BB00010EE100AB04201D060EE088A642211488B
:101BC000BCEEE80A10EE101A09F036FCFFF74AFEE8
:101BD00013488AF80050057088F800503D700A4894
:101BE00089F800508BF800500570BDEC028BBDE801
:101BF000F09F00000C0200200000C84200807744E3
:101C00000000C842DC0D0020080200200D02002068
:101C100009020020000020410A020020F1010020FA
:101C20000B02002070B52DED088B0D4606460024F2
:101C30009FED298ADFED298A9FED299B9FED2AAA36
:101C4000DFED2AAA56F8241008B200EE100A0A1492
:101C5000B8EEC00A20EE080A20EE281A00EE102A7C
:101C6000B8EEC00A20EE080A60EE280A21EE010A4A
:101C700000EEA00A10EE100AFFF7F8F941EC100B85
:101C800008F046FA53EC192B51EC100BFFF7B7F89C
:101C9000FFF718FA00EE100A15A020EE0ABA2BEE94
:101CA0002A0ABCEEC00A10EE101A07F06DFB11A054
:101CB00007F06AFBBDEECB0A10EE100A45F82400CF
:101CC000641CA4B2FF2CBDD9BDEC088B0AA0BDE8F2
:101CD000704007F059BB000000008043000000384E
:101CE000000000000000703F000080470000803DC1
:101CF000256C64002C0000000D0A000010B50400E3
:101D000002D0607910B106E0012010BD00202071E2
:101D1000204600F005F801206071002010BD000091
:101D200008B500680649884208D10648016841F4B0
:101D300080510160006800F48050009008BD0000F0
:101D400000300240303802402DE9F84304464FF09D
:101D50000009CDF8009063484FF41651A56D006856
:101D6000B0FBF1F72E6894F85C10082000FA01F13E
:101D700031420FD021680A6852070BD50A6822F059
:101D800004020A6094F85C108840A860606D40F01E
:101D90000100606594F85C104FF0010808FA01F04A
:101DA000304208D021684969090604D5A860606DF1
:101DB00040F00200606594F85C10042088403042D6
:101DC00008D021680968890704D5A860606D40F0D3
:101DD0000400606594F85C1010208840304218D0F0
:101DE00021680968090714D5A860206801684903BB
:101DF00004D50068000308D5A16C07E00168C90597
:101E000003D4016821F008010160216C09B120466A
:101E1000884794F85C1020208840304231D02168F7
:101E20000968C9062DD5A86094F8350005282068F2
:101E3000016806D0490347D5006800031DD4616CD2
:101E40001CE021F0160101602068416921F0800149
:101E50004161206C08B9A06C20B12068016821F0B4
:101E60000801016094F85C103F208840A86084F865
:101E7000358084F83490216D1FE0E16B09B1204674
:101E80008847606D00282BD0606DC00714D00520F6
:101E900084F835002068016821F001010160009894
:101EA000401C0090B84203D820680068C007F6D1F3
:101EB00084F8358084F83490E16C002910D001B0AA
:101EC0002046BDE8F04308470168C905D5D401683C
:101ED00021F01001016084F8358084F83490CCE75B
:101EE000BDE8F883340000202DE9F041044600F0FD
:101EF000B9F906465CB1022084F83500002584F863
:101F000034502068016821F0010101600DE00120DA
:101F1000BDE8F08100F0A6F9801B052805D9202036
:101F20006065032084F83500F2E720680068C00788
:101F3000F0D12268116820480140D4E90103184318
:101F4000D4E903363343184363691843A36918433C
:101F5000E3691843236A18430843616A042903D1DB
:101F6000D4E90B1319430843106020684069666A7E
:101F700020F0070130460E43012704280CD1A06A47
:101F80000643E06A40B12046FFF7E4FA20B1402062
:101F9000606584F83570BAE7206846612046FFF72F
:101FA000C5FA94F85C203F2191408160656584F812
:101FB00035700020ACE700003F8010F02DE9F041C3
:101FC0000446866D90F83400002501280DD00120CC
:101FD00084F8340094F835700020012F07D084F87D
:101FE000340002252846BDE8F0810220FBE70227E5
:101FF00084F8357060652046FFF7D6FA94F85C10D7
:102000003F208840B0602068016841F016010160FF
:10201000206C20B12068016841F00801016020684F
:10202000016841F001010160DCE7000070B5044681
:1020300000F018F90546601C02D0044800780444FA
:1020400000F010F9401BA042FAD370BD2800002018
:102050002DE9F84FDFF8BCA10022012503264FF03F
:102060000F090AF1040BAAF1040E00BF0B6805FA70
:1020700002F42340A34270D10F7907F00307012F28
:1020800001D0022F16D187684FEA420806FA08FCF1
:1020900027EA0C07D1F80CC00CFA08FC4CEA070C34
:1020A000C0F808C04768A7430C79C4F300149440F3
:1020B0003C4344600C79E443A4070AD0C4684FEA67
:1020C000420C06FA0CF7BC438F6807FA0CF727435B
:1020D000C7600C7904F00304022C12D1D40800EB81
:1020E000840CDCF820405707FF0E09FA07F824EAB1
:1020F0000804D1F8108008FA07F848EA0408CCF878
:10210000208004684FEA420C06FA0CF7BC430F79B2
:1021100007F0030707FA0CF7274307604C6814F42D
:10212000403F70D03C4C276847F4804727602468C4
:1021300022F0030704F480440094384C07EB040CAD
:10214000DCF8084897074FEA177809FA08F7BC4304
:10215000334FB84202D1002724E054E0314FB84257
:1021600001D101271EE0304FB84201D1022719E00A
:102170002E4FB84201D1032714E02D4FB84201D1B0
:1021800004270FE02B4FB84201D105270AE02A4F60
:10219000B84201D1062705E0284FB84201D10727F0
:1021A00000E0082707FA08F72743CCF80878DAF8A0
:1021B00000405746D1F804C09C435FEACC2C00D5C0
:1021C0001C433C60DBF800405F46D1F804C09C43F0
:1021D0005FEA8C2C00D51C433C60DEF8004077465B
:1021E000D1F804C09C435FEA8C3C00D51C433C60A2
:1021F000084F083F3C68D1F804C09C435FEACC3CE0
:1022000000D51C433C60521C102AFFF42FAFBDE8E0
:10221000F88F0000083C0140443802400030014083
:10222000000002400004024000080240000C02408E
:10223000001002400014024000180240001C02403E
:102240000069084000D001207047426921EA02037A
:102250000A4043EA0241816170470AB181617047D7
:102260000904FBE70148806870470000280000204F
:102270002DE9FF4104460068816800917749784E56
:102280004FF04027884201D1324600E03A4692683A
:10229000019240688846029001D1304600E03846FD
:1022A0004068039060684FF00105B0F5007F1CD0D6
:1022B000D8B1900705D50398000602D5204602F054
:1022C000DDFA0098C0070FD0029840067FD521683C
:1022D0002046CA68E16A8B1CE3620A80618E491E4F
:1022E0006186618E002967D071E00098800719D55A
:1022F0000298000616D5616A20468A1C626222682E
:102300000988D160618D491E6185618D51B901686F
:102310004A6822F0A0024A60418E19B980F8415003
:1023200000F0A0F80198C00705D00398400602D538
:10233000204602F073FA0198400622D503988006E1
:102340001FD52168414501D1304600E0384640683C
:1023500020F0600101D1304600E03846416020683D
:10236000416821F0A00141602068C1688068019047
:1023700084F84150606C40F002006064204600F038
:1023800072F80098000767D50298800664D5206827
:10239000416821F0A00141602168414501D13046EA
:1023A00000E03846406820F0600000D03E46706093
:1023B00020688068009043E001684A6822F060026B
:1023C0004A60418D19B980F8415000F04BF80098EF
:1023D00040061ED5029880061BD52068416821F072
:1023E000600141602168414501D1304600E0384636
:1023F000406820F0A00101D1304600E0384641603D
:1024000084F84150606C40F002006064204600F0A7
:102410002AF8019800071FD5039880061CD521686B
:10242000414501D1304600E03846406820F0A00028
:1024300000D03E4670602068416821F06001416034
:1024400084F84150606C40F00400606404B02046A1
:10245000BDE8F04100F007B8BDE8FF81003800405A
:102460000034004070477047416B08472DE9F04742
:10247000040005D094F841004FF0000818B109E0BD
:102480000120BDE8F08784F8408051486063204611
:1024900000F0A6F8022684F841602068C16940F681
:1024A000BF77B943C1612068066260694FF4007963
:1024B00002282FD0E06870B12025A068202800D81D
:1024C0006D00012000F0D6FF216949451FD1E16868
:1024D00019B1A90002E01025EFE7E900B0FBF1F027
:1024E00000EB800061694000B0FBF1F0401D0A2163
:1024F000B0FBF1F000F00101401A40080902821E11
:10250000FE2A09D3606C40F010006064B8E7B0FBAD
:10251000F5F0E5E702200021226908430243206824
:102520000262D4E901010843A269E168114308434A
:102530002168CA69BA43104340F40060C861206A48
:1025400001283AD12348606323482168234A4FF089
:102550004023814201D1114600E01946C96921EAB0
:10256000070101D1154600E01D46E961216881425D
:1025700001D1114600E019460E622568854201D15D
:10258000114600E01946C9698EB2616849451BD001
:10259000D1B100212789B4F80CC047EA0C07B4F880
:1025A00018C04CEA010C47EA0C07B9B2314341F4B8
:1025B0000061854200D01A46D161C4F844800120F0
:1025C00084F8410000205CE74FF48071E2E70000EE
:1025D00033490008712200080038004000340040F0
:1025E000F0B58BB0064614216846FEF748FB00257F
:1025F00005950695079508953049306888425BD166
:1026000001200590C0200224CDE9060405A800F0B1
:102610005FFF08B1FFF750FA2948016841F4004113
:1026200001600068264900F40040103909900868EC
:1026300040F001000860086800F001000990086897
:1026400040F0040008600868062700F004000990C4
:102650004FF400408DE83100CDE903576946194831
:10266000FFF7F6FC4FF4A0508DE83100CDE9035799
:1026700069461548FFF7ECFC154C1448C4E9000501
:102680000015A560C4E90350800060618000A0616E
:102690008011C4E9070520466562FFF725FC08B1F3
:1026A000FFF70AFAF463002211463320A66300F014
:1026B00027F9332000F016F90BB0F0BD003C0040C4
:1026C0004038024000000240000802401060024012
:1026D0004C320020F8B5044681B17AB194F840003C
:1026E000012809D0012684F8406094F841000025B3
:1026F000012805D084F840500220F8BD0120F8BD23
:10270000042084F841006564E1622068C06900F03B
:102710000700032813D0052811D022866286E16BBA
:102720001E480864E16B1E48C863E16B1D48C8641D
:102730002168C869C0F30120032807D009E04FF6DB
:10274000FF7000EA420020866086E8E7C868886873
:102750000090238E0C31E26AE06BFFF72FFC40B152
:1027600054F8440F40F0080044F8040966702570DE
:10277000C4E72068C169490503D4C16941F4806197
:10278000C16120684168C90703D1416841F0010176
:10279000416084F840500020F8BD0000294900083D
:1027A00005490008DD48000810B51C49E4B088421E
:1027B00031D11B4A002002F5805400BF02EB00110A
:1027C0000B6849681B0203EB112144F820100B022F
:1027D00003D541F07F4144F82010401CFF28EDDD77
:1027E0004FF4C8716846FEF74AFA00204FEA0D011F
:1027F00054F8202041F82020401C6428F8DB0949C7
:102800004FF4807201F58060FDF7DAFC0649A1F50E
:102810008060FFF707FA64B010BD000004320020AA
:10282000040E0020041E002004260020704770477C
:1028300002488168027811448160704728000020B6
:102840000B4810B5016841F400710160016841F462
:1028500080610160016841F480710160032000F033
:102860006FF80F2000F006F800F024F8002010BDEB
:10287000003C024070B50D4D04464FF47A71287843
:10288000B1FBF0F00A490968B1FBF0F001F074FB0C
:1028900048B9102C07D200222146501E00F030F813
:1028A00000206C6070BD012070BD00002800002079
:1028B000340000200A4808B5016841F480410160F5
:1028C000006800F4804000900548001F016841F056
:1028D00080510160006800F08050009008BD000049
:1028E00044380240002809DB00F01F02012191401A
:1028F0004009800000F1E020C0F80011704700009E
:10290000F0B40E4B1B680C46C3F30223C3F107055A
:10291000042D00D90425191D072901D2002300E048
:10292000DB1E012606FA05F1491E214099409E4012
:10293000761E16403143F0BC06F04EBD0CED00E0B3
:10294000064900F0070208684FF6FF03184040EA06
:102950000220034A10430860704700000CED00E0BD
:102960000000FA0570470068416200207047F0B52A
:102970000368586A39B19C6A4FF4827600EB1444BC
:1029800000204D1E0AE040EA024098620FE006EB8C
:102990008007DF59401C04EB1744C0B2A842F6D3AD
:1029A00044EA02404FF4807202EB8101585000204B
:1029B000F0BDD0F8080505F0C3B801EBC10200EB8B
:1029C0008202D0F80805D26C05F02EB801EBC102E6
:1029D00000EB8202D0F80805D2F88C2205F079B815
:1029E000D0F8080505F0AEB80A0601F00F0101EBBA
:1029F000C10100EB810101D53C3101E001F51F71FE
:102A0000006806F007BB70B504460B0601F00F0026
:102A100000EBC00104EB81014FF001024FF0000513
:102A200003D581F83D203C3103E081F87D5201F56A
:102A30001F71087094F8BC04012808D084F8BC24E5
:102A4000206805F0A1FF84F8BC54002070BD02206E
:102A500070BD70B5044601F00F006268904201D964
:102A6000012070BD0B0601F00F0101EBC10104EB69
:102A700081014FF001024FF0000503D581F83D20A0
:102A80003C3103E081F87D5201F51F718D700870B3
:102A900094F8BC04012808D084F8BC24206806F00F
:102AA0006FF984F8BC54002070BD022070BD01F0A5
:102AB0000F0101EBC10100EB8100D0F89C027047CF
:102AC0002DE9F04104460F0601F00F0000EBC001B4
:102AD00004EB81014FF001064FF0000503D581F8AA
:102AE0003D603C3103E081F87D5201F51F710870B3
:102AF000CA600B714A7802B10881022B00D14D7176
:102B000094F8BC04012809D084F8BC64206805F05E
:102B100093FE284684F8BC54BDE8F0810220FBE710
:102B200070B50C4601F00F0505EBC50100EB810106
:102B3000C1F89432C1F88C220023C1F89C3281F88C
:102B40007D3281F87C52036901F51F71012B00D1A0
:102B50004A612207027C006803D006F069F9002070
:102B600070BD06F053F8FAE770B504460D4601F063
:102B70000F006168884201D9012070BD29064FF01D
:102B800000064FF0010207D500EBC00104EB810104
:102B900081F83D203C3107E005EBC50104EB8101E4
:102BA00081F87D6201F51F718A70087094F8BC0489
:102BB000012807D084F8BC24206806F00DF9280706
:102BC00002D007E0022070BD217C04F2C4422068DC
:102BD00006F0AAF884F8BC64002070BD70B50C46FD
:102BE00001F00F0505EBC50100EB81014B65CA64DF
:102BF0000023CB65012381F83D3001F83C5F036978
:102C0000012B00D14A612207027C006803D006F044
:102C10000FF9002070BD05F0F9FFFAE72DE9FC5F20
:102C200005680446284606F096FA00287DD12068FB
:102C300006F0BDFA002878D0D5F80808C0F30D20BA
:102C4000C4F8FC04206806F0B2FA800704D52068B6
:102C5000416901F002014161206806F0A8FAC1064D
:102C600004F2C440009034D52068816921F010013D
:102C700081612F6A07F00F0000EBC00004EB8006B3
:102C8000C7F3434006F51F76022802D0062811D06C
:102C90001AE047F6F070074216D0C7F30A1217463B
:102CA0002846316906F087FA306938443061306A65
:102CB000384408E008222846009906F07CFA306A79
:102CC000C7F30A11084430622068816941F010019D
:102CD0008161206806F06BFA00034FF0080B4FF09B
:102CE000000A4FF001097CD50026206806F03EFA64
:102CF000074674E0F80770D0F1B2206806F04FFA8A
:102D00008046C00707D005EB4611C1F8089B314645
:102D1000204603F05FFF5FEA087024D505EB4611FB
:102D2000C1F808BB2068016C00E025E200EB46100A
:102D30000191D0F8082BFC4B994205D9110403D519
:102D40004FF40041C0F8081B204600F02FFBF64965
:102D50000198884207D92069012804D120680121FF
:102D6000009A05F0E1FF5FEAC86004D505EB461163
:102D70001020C1F8080B5FEA88701DD5686900064D
:102D800005D5D5F8040840F48061C5F8041806EBB1
:102D9000C60004EB800090F87F1200F51F70012937
:102DA00005D180F803A0F1B2204600F0EBF905EB65
:102DB00046110220C1F8080B5FEA886004D505EBD4
:102DC00046102021C0F8081B5FEA884005D505EBB6
:102DD00046104FF40051C0F8081B7F08761C002FE6
:102DE00088D1206806F0E3F940036FD5206806F02B
:102DF000B6F90746002667E0F80763D0F1B220680D
:102E000006F0BBF98046C00723D006F00F0209FA8E
:102E100002F0D5F834288243C5F8342805EB461073
:102E2000C0F80899206901280FD106EBC60004EB11
:102E30008000D0E912211144C16436B9606D20B917
:102E400020680121009A05F06FFFF1B22046FFF7DC
:102E5000B4FD5FEA087003D505EB4611C1F808B967
:102E60005FEAC86004D505EB46111020C1F80809D7
:102E70005FEA486004D505EB46104021C0F8081908
:102E80005FEA887017D53146284606F037F906EB19
:102E9000C60004EB800090F83F103C30012905D1BA
:102EA00080F803A0F1B2204600F068F905EB461166
:102EB0000220C1F808095FEA086003D531462046C0
:102EC00003F0EEFE7F08761C002F95D1206806F0F7
:102ED0006EF9002811DAD5F8040820F00101C5F8D0
:102EE000041894F8F40401282BD0204600F042FA8C
:102EF0002068416901F000414161206806F057F9FE
:102F000000050BD5D5F80808C00702D0204600F010
:102F100099FA2068416901F400614161206806F076
:102F200046F9C00466D5D5F8040820F00100C5F8BC
:102F300004081021206806F0E1F800214FF67F32E6
:102F40001FE084F8F4A400212046FFF70BFDCFE733
:102F500005EB4110C0F80829D0F8003923F400131C
:102F6000C0F80039C0F8082BD0F8003B23F4001358
:102F7000C0F8003BD0F8003B43F00063C0F8003BD2
:102F8000491C60688842E3D8D5F81C0840F001115C
:102F9000C5F81C18206B002828460DD0D0F88408EE
:102FA00040F00B01C5F88418D5F8440840F00B0137
:102FB0002846C5F844180DE0D0F8140842F22B0159
:102FC0000843C5F81408D5F8100840F00B0128464E
:102FD000C5F81018D0F8000820F4FE61C5F80018F4
:102FE000217C2068009A05F09FFE2068416901F469
:102FF00080514161206806F0DAF8800415D5206818
:1030000005F05AFC206806F099F8E06000F098FBA3
:103010000146227B206806F02DF9204600F094F945
:103020002068416901F400514161206806F0BFF851
:10303000000707D5204600F0A1F92068416901F09A
:1030400008014161206806F0B2F8000616D5A869AB
:1030500020F08000A86101260DE000BF06EBC6004D
:1030600004EB800090F87F02012803D1F1B22046E2
:10307000FFF7BAFC761C6068B042EFD8206806F013
:1030800096F8C00221D501264F4616E005EB461002
:10309000D0F8001906EBC60004EB800090F8402041
:1030A000012A09D1002907DA80F83F70F0B240F018
:1030B00080012046FFF798FC761C6068B042E5D896
:1030C0002068416901F480114161206806F06FF8C1
:1030D000800234D501204B4629E000BF05EB4011AA
:1030E000D1F8001B00EBC00204EB820696F88022A8
:1030F000012A1BD1002919DA94F8FC2401F480314B
:1031000002F00102914211D186F87F32A96941F0A3
:103110008002AA616969090608D4D5F8040840F458
:103120000070C5F8040805E00A30544F401C61687F
:103130008142D3D82068416901F4001141612068BF
:1031400006F035F8400007D52046FFF732FC20682E
:10315000416901F080414161206806F028F840078C
:103160000AD520684568680702D52046FFF738FC75
:103170002068416829434160BDE8FC9FD0F80805FC
:1031800004F034BDD0F8080504F032BD2DE9F0415B
:103190008AB0040005D094F8BD042668002520B14B
:1031A00008E001200AB0BDE8F08184F8BC54204654
:1031B00000F05EF8032084F8BD04F06BC00500D475
:1031C0002561206805F01CFD04F1100128228846C5
:1031D0006846FDF73BFD94E80F0005F07BFB0226F7
:1031E000C8BB0021206806F005F8002001270EE08A
:1031F00000EBC00104EB810181F83D7001F83C0F48
:1032000008810D71CD600D61401CC0B28D61616897
:103210008142EDD8002011E000EBC00104EB8101F8
:1032200081F87D5281F87C0281F88052C1F8885281
:10323000C1F88C52401CC0B2C1F8945261688142FE
:10324000EAD8282241466846FDF700FD94E80F00C1
:1032500005F01CFC10B184F8BD64A2E784F8385076
:1032600084F8BD74206805F003FC00209AE7000094
:103270002DE9F04186B0044614216846FDF7FFFCB5
:103280002C492068884251D12B4C4FF0000820680F
:1032900040F004002060206800F0040005902068E1
:1032A00040F001002060206800F0010005902068D7
:1032B00040F0020020602068022500F00200059026
:1032C0000D208DE8210103260A2769461B48CDE918
:1032D0000367FEF7BDFE28208DE8210169461848E6
:1032E000CDE90367FEF7B4FE43F623408DE82101E4
:1032F00069461448CDE90367FEF7AAFE206840F04E
:1033000000502060206800F000500590206840F0D8
:10331000804020602068002200F08040059001215C
:103320004D20FFF7EDFA4D20FFF7DCFA06B0BDE8BF
:10333000F0810000000004403038024000080240E4
:10334000000002400004024070B50446C068012538
:1033500070B1022801D0FEF7AFFB2946D4F808056A
:1033600004F09CFCD4F80805BDE8704004F057BC9C
:103370000025F2E7D0F8080504F07ABCD0F808057B
:1033800004F080BC10B5044690F8BC0401280BD0B2
:10339000012084F8BC0484F83810206805F058FF38
:1033A000002084F8BC0410BD022010BD2DE9F041BE
:1033B00000F2C441D0F80845054604F2AA200F46A1
:1033C000064605F04DF894F8AA120020C90603D16C
:1033D0003146204604F056FD94F8AA1201F01F0170
:1033E000012903D13146204604F090FD002806D182
:1033F0003946D5F80805BDE8F04104F05BBCBDE8EE
:10340000F08110B50446006894F8BC14012906D078
:10341000012184F8BC14A16A012902D008E002202D
:1034200010BDA169012903D0816B41F48031816312
:10343000206805F03EFE206805F00CFB002084F8B3
:10344000BC0410BD10B50446D0F8080504F074FCA7
:103450002068D0F8001E41F00101C0F8001E206A6B
:10346000002804D00248016841F00601016010BD47
:1034700010ED00E001460020012907D1104909683C
:1034800011F4000103D0012900D10E4870470C4807
:10349000001F01680068490200F03F0001D50A4999
:1034A00000E00A49064AB1FBF0F07C321168C1F332
:1034B000881141431068C0F30270B1FBF0F070470F
:1034C000083802400080BB0000127A000024F4009B
:1034D0002DE9F843054600684FF00109C1074FF098
:1034E000000601D1400727D5DFF80C81C8F86860D5
:1034F000FEF7B8FE0746414C05E000BFFEF7B2FEFE
:10350000C01B022857D820680001F7D468688101E1
:10351000287A41EA0070394984310860C8F8689017
:10352000FEF7A0FE074604E0FEF79CFEC01B022843
:1035300041D820680001F7D52878800752D52F4858
:103540004030016841F08051016000682C4C00F06F
:1035500080500090206840F480702060FEF782FE6A
:10356000074604E0FEF77EFEC01B022823D8206831
:10357000C005F7D5214C7034206810F4407020D07D
:10358000A98901F4407181421BD020681D4920F4B3
:103590004070C1F800900E6020602068C00710D015
:1035A000FEF760FE064641F2883707E0FEF75AFE56
:1035B000801BB84202D90320BDE8F8832068800749
:1035C000F4D5E9680D48C1F301220830032A0BD075
:1035D000016821F4F81101602068A989C1F30B0189
:1035E000084320600020E7E70268074B22F4F81246
:1035F00019400A430260EFE70000474200380240EA
:1036000000700040400E4742FFFCFF0F2DE9F047DD
:103610000E46050065D0DFF81481D8F80000F7B237
:1036200000F00700B04207D288F80070D8F8000018
:1036300000F00700B04254D128683D4C810712D5F4
:10364000400703D5206840F4E05020602878000748
:1036500003D5206840F4604020602068A96820F00D
:10366000F000084320602878C0072DD030496868F2
:103670000839012812D0022813D0032811D0096874
:10368000890700292DDA216821F003010143216017
:10369000FEF7E8FD814641F2883A0EE009688903A9
:1036A000EFE709688901ECE7FEF7DCFDA0EB090113
:1036B000514502D90320BDE8F0872068696800F011
:1036C0000C00B0EB810FEFD1D8F80010404601F0AC
:1036D0000701B14207D90770006800F00700B04247
:1036E00001D00120E7E72878400705D52068E96880
:1036F00020F4E050084320602878000706D52068B1
:10370000296920F4604040EAC100206000F03EF8E2
:103710002168084AC1F30311515CC840064908609A
:1037200006480068FFF7A6F80020C4E7003C024006
:10373000083802400BB80008340000202C0000209C
:103740000148006870470000340000200448054923
:1037500000680968044AC1F38221515CC84070477F
:1037600034000020083802401BB80008044805490E
:1037700000680968044AC1F34231515CC84070478F
:1037800034000020083802401BB80008154810B566
:10379000006810F00C02144813D04110042A0FD016
:1037A000082A0ED10F4C241F2268236802F03F0222
:1037B0005B0207D52068C0F38810A0FB010106E07A
:1037C000084610BD2168C1F38811A1FB0001002348
:1037D000FCF7E5FF2168C1F30141491C4900B0FB3A
:1037E000F1F010BD083802400024F4002DE9F84F34
:1037F00004006ED02078DFF84C93C007A9F10405CF
:103800004AD009F104000168C1F38101012908D0FF
:103810000068C0F3810002280AD1D9F800004002F4
:1038200006D52868800337D560680028E1D033E0EA
:103830006068B0F5803F10D0B0F5A02F286810D098
:1038400020F480302860286820F480202860606898
:10385000A8B1FEF707FD06460DE0286840F4803069
:10386000F4E740F480202860F7E700BFFEF7FAFC99
:10387000801B642873D828688003F7D50CE0FEF716
:10388000F1FC064605E000BFFEF7ECFC801B642857
:10389000F0D828688003F7D42078DFF8AC8280075E
:1038A0004FF0000A3ED5A748001D016811F00C0F2B
:1038B00008D00068C0F3810002280BD1D9F80000BD
:1038C000400207D42868800716D5E068012800D197
:1038D00012E033E1E068B8B10120C8F80000FEF75B
:1038E000C1FC064605E000BFFEF7BCFC801B0228B9
:1038F000C0D828688007F7D52868216920F0F8002B
:1039000040EAC10028600DE0C8F800A0FEF7AAFC5C
:10391000064604E0FEF7A6FC801B02281FD8286894
:103920008007F7D42078000722D5864F8748616941
:10393000703771B101210160FEF794FC064604E086
:10394000FEF790FC801B022809D838688007F7D55D
:103950000EE0C0F800A0FEF785FC064605E082E018
:10396000FEF780FC801B02287DD838688007F7D4DA
:103970002078400768D5DFF8CCB100270BF13C0B6D
:10398000DBF80000C0000BD4DBF8001041F08051E0
:10399000CBF80010DBF80000012700F08050009009
:1039A0006B4E3068C00510D4306840F480703060D1
:1039B000FEF758FC009005E0FEF754FC0099401A11
:1039C000022850D83068C005F6D55E4EA0686C3627
:1039D00001280FD00528306810D020F00100306099
:1039E000306820F004003060A068B8B1FEF73AFCFF
:1039F00000900FE0306840F00100F4E740F0040070
:103A00003060F7E7FEF72EFC0099411A41F288304A
:103A1000814266D830688007F4D50EE0FEF722FCBC
:103A2000009007E0FEF71EFC0099411A41F2883031
:103A3000814256D830688007F4D42FB1DBF80010EB
:103A400021F08051CBF80010A069C8B33D49091D91
:103A50000968C1F3810102294AD00228504607D0E3
:103A6000C8F8600000E03CE0FEF7FCFB04463BE0E9
:103A70004746C8F86000FEF7F5FB064605E000BFC4
:103A8000FEF7F0FB801B02282BD828688001F7D4B2
:103A9000D4E907010843A16A2E4A490802EB014113
:103AA000626A41EA8211084394F82C1040EA0161ED
:103AB000C9F8001001203866FEF7D4FB044606E082
:103AC0003EE000BFFEF7CEFB001B022809D82868A5
:103AD0008001F7D534E000BFFEF7C4FB001B0228CD
:103AE00002D90320BDE8F88F28688001F4D427E0CC
:103AF0000128F7D0D9F80000E26900F48001914272
:103B00001CD1226A00F03F01914217D147F6C071E3
:103B1000626A0140B1EB821F10D1A26A4FF0FF33FD
:103B200000F4403103EB5202B1EB024F06D194F89E
:103B30002C1000F07060B0EB016F01D00120D1E7D4
:103B40000020CFE70438024000004742800E474281
:103B5000007000400000FFFF70B5040003D06079E2
:103B6000002510B105E0012070BD2571204600F050
:103B70000DF8022060712068016841F004010160C5
:103B800001206071A560002070BD000008B50068CC
:103B90000649884208D10648016841F040010160A9
:103BA000006800F04000009008BD000000080650CA
:103BB00034380240704770B5040009D0606A0025AF
:103BC00040B125616561A56294F8510040B10CE0F7
:103BD000012070BD6068B0F5827FF4D0E561F2E746
:103BE00084F85050204600F045F8022084F8510037
:103BF0002068016821F040010160A088218900F45B
:103C0000827001F404410843A18901F40061084372
:103C1000217C01F002010843217D01F001010843EC
:103C2000218B01F400710843217F01F03801084322
:103C300094F8201001F080010843218D01F4005117
:103C4000084321680860A069042101EA104094F843
:103C5000241001F010010843216848602068C16900
:103C600021F40061C1616565012084F851000020E4
:103C700070BD00002DE9F04186B00646142168466B
:103C8000FCF7FDFF25493068884244D124480025CF
:103C9000016841F4805101600068214900F48050BE
:103CA00014390590086840F001000860086800F0C9
:103CB00001000590086840F00200086008680224CE
:103CC00000F002000590802003274FF005088DE8E2
:103CD000B10169461348FEF7BBF908208DE8B10130
:103CE00069461148FEF7B4F9114C10482060780677
:103CF00060604020C4E902050001C4E90405A56133
:103D0000E561256220466562FEF7EEF808B1FDF731
:103D1000D3FEB464A66306B0BDE8F0810030014074
:103D2000443802400000024000040240586402404F
:103D3000143300202DE9F84F044690F85000002776
:103D40001D461646894601280DD04FF0010B84F818
:103D500050B0FEF787FA804694F85100BA46012821
:103D600004D0022793E00220BDE8F88FB9F1000FDC
:103D700073D0002E71D0032084F85100C4F854A0F1
:103D8000C4F83090A686E686C4F838A0A4F83CA013
:103D9000A4F83EA0C4F844A0C4F840A0A068B0F5C0
:103DA000004F09D12068016821F0400101602068BE
:103DB000016841F48041016020680168490603D42C
:103DC000016841F040010160E068B0F5006F606893
:103DD00003D030B3012E24D041E008B1012E1CD114
:103DE000206B21680088C86006E020688168890728
:103DF00009D5216B0988C160206B801C2063E08E8F
:103E0000401EE08609E0FEF72DFAA0EB0800A8426C
:103E100002D3681C01D031E07DB3E08E0028E4D1EC
:103E200020E0206B21680078087306E02068816834
:103E3000890709D5216B09780173206B401C206329
:103E4000E08E401EE0860AE0FEF70CFAA0EB0800C8
:103E5000A84203D3681C02D010E017E06DB1E08ED9
:103E60000028E3D142462946204603F013F908B161
:103E700020206065A06818B106E0FFE7032706E090
:103E80002068C16880680090606D00B1012784F8E7
:103E900051B084F850A0384666E700002DE9F041A3
:103EA000044690F850000026012809D0012784F824
:103EB000507094F851000025012804D002264EE0ED
:103EC0000220BDE8F08189B182B1032084F851005D
:103ED00065652163A286E286A56365642564A5877E
:103EE000E587A068B0F5004F02D00BE0012636E070
:103EF0002068016821F0400101602068016841F4F8
:103F000080410160A16C18480864A16C1748C8631F
:103F1000A16C1748C864A06C0565E38E2268216B0C
:103F20000C32A06CFEF74AF838B1606D40F010001A
:103F30006065012684F8517011E020680168490627
:103F400003D4016841F0400101602068416841F0FC
:103F5000200141602068416841F00201416084F81D
:103F600050503046ADE7000027700008317000085F
:103F7000057000087047704710B5401EB0F1807F93
:103F800001D3012010BD4FF0E02460610F216017C4
:103F900005F022FA0020A06107202061002010BD5A
:103FA0007047704770B590F83C20012A32D0012448
:103FB00080F83C40022280F83D2003685A689D68E2
:103FC00022F070060A6832435A60134B02689A4224
:103FD00014D0B2F1804F11D0104B9A420ED0104B3A
:103FE0009A420BD00F4B9A4208D00F4B9A4205D001
:103FF0000E4B9A4202D00E4B9A4204D1496825F0EA
:1040000080031943916080F83D40002180F83C1006
:10401000084670BD022070BD000001400004004051
:1040200000080040000C0040000401400040014036
:104030000018004010B5040003D094F83D0010B102
:1040400007E0012010BD002084F83C00204600F06D
:104050001FF8022084F83D00211D206803F01CF9A0
:10406000012084F8460084F83E0084F83F0084F87C
:10407000400084F8410084F8420084F8430084F84A
:10408000440084F8450084F83D00002010BD000085
:1040900008B5114A01681148914211D1016841F0F7
:1040A000020101600068002200F002000090114649
:1040B0001D20FEF725FCBDE808401D20FEF712BCC0
:1040C000074A914207D1016841F080010160006810
:1040D00000F08000009008BD00040040403802401D
:1040E000001C004090F83D10012901D001207047CC
:1040F000022180F83D100168CA6842F00102CA60DE
:1041000000681149884214D0B0F1804F11D00F4996
:1041100088420ED00E4988420BD00E49884208D002
:104120000D49884205D00D49884202D00C49884289
:1041300004D1816801F00701062903D0016841F02C
:1041400001010160002070470000014000040040B0
:1041500000080040000C0040000401400040014005
:104160000018004070B5044690F83C000025012876
:1041700017D0012684F83C60022084F83D002068B6
:10418000826822F0770222F47F4282600868502819
:1041900038D00DDC20284FD005DC90B3102811D189
:1041A0004AE0022070BD302846D040280AD13BE0CA
:1041B00060282FD070280DD0B0F5805F03D0B0F507
:1041C000005F12D0012584F83D60002084F83C0097
:1041D000284670BDCB68D1E90121206803F0CDF8F5
:1041E0002068816841F0770109E0CB68D1E90121BD
:1041F000206803F0C2F82068816841F48041816042
:10420000E1E719E0CA684968206803F08BF950219A
:10421000206806E0CA684968206803F094F96021C4
:10422000206803F0B4F8CEE7CA684968206803F054
:1042300079F940212068F4E7226801461046F0E74A
:10424000704770B50446006801694FF00005C94326
:10425000890715D4C168C943890711D4E91E0161D2
:1042600001202077206880698007204602D0FFF770
:10427000E7FF04E000F0C2F8204600F054F925778B
:1042800020680169C943490717D4C168C943490770
:1042900013D46FF004010161022020772068806947
:1042A00010F4407F204602D0FFF7CAFF04E000F080
:1042B000A5F8204600F037F9257720680169C94341
:1042C000090716D4C168C943090712D46FF0080161
:1042D0000161042020772068C0698007204602D051
:1042E000FFF7AEFF04E000F089F8204600F01BF96C
:1042F000257720680169C943C90617D4C168C94335
:10430000C90613D46FF010010161082020772068DE
:10431000C06910F4407F204602D0FFF791FF04E00F
:1043200000F06CF8204600F0FEF82577206801695F
:10433000C943C90708D1C168C943C90704D1891E47
:104340000161204600F092F920680169C94309061D
:1043500009D4C168C943090605D46FF08001016121
:104360002046FFF71DFE20680169C943490609D4AC
:10437000C168C943490605D46FF040010161204678
:1043800000F086F920680169C94389060BD4C16829
:10439000C943890607D46FF0200101612046BDE8BA
:1043A0007040FFF7FEBD70BD10B586B00446142105
:1043B0006846FCF764FC0E492068884215D10D4818
:1043C0000021026842F001020260006800F0010072
:1043D0000590402000900220CDE901010920CDE99F
:1043E000031069460448FDF733FE06B010BD000017
:1043F000001C00403038024000000240704770B599
:10440000044690F83C0000260D4601280FD00120FC
:1044100084F83C006AB1042A1DD0082A2FD00C2A47
:104420003FD00126002084F83C00304670BD0220B9
:1044300070BD206802F0B4FF2068816941F0080176
:1044400081612068816921F00401816120688169AE
:104450002A69114311E0206802F0D2FF20688169C7
:1044600041F4006181612068816921F4806181618A
:10447000206881692A6941EA02218161D2E72068C6
:1044800002F0F4FF2068C16941F00801C1612068B1
:10449000C16921F00401C1612068C1692A69114321
:1044A00011E0206803F016F82068C16941F400614A
:1044B000C1612068C16921F48061C1612068C1695E
:1044C0002A6941EA0221C161ACE710B5040003D0BA
:1044D00094F83D0010B107E0012010BD002084F8E1
:1044E0003C00204600F01EF8022084F83D00211D0B
:1044F000206802F0D1FE012084F8460084F83E00D6
:1045000084F83F0084F8400084F8410084F84200B9
:1045100084F8430084F8440084F8450084F83D00A2
:10452000002010BD7047704710B50446022249B103
:1045300004290ED0082913D094F84100012816D080
:10454000012010BD94F83E000128F9D184F83E20E6
:104550000FE094F83F000128F2D184F83F2008E0F2
:1045600094F840000128EBD184F8402001E084F861
:1045700041200122206802F0F3FE16492068164A05
:10458000884201D0904203D1436C43F4004343641A
:104590002068884213D0B0F1804F10D00F49884274
:1045A0000DD00F4988420AD00E49884207D0904268
:1045B00005D00D49884202D00C49884204D1816857
:1045C00001F00701062903D0016841F001010160F3
:1045D000002010BD00000140000401400004004024
:1045E00000080040000C004000400140001800405E
:1045F00030B504460D460068002202F0B1FE194BAA
:1046000041F2111120688A10984202D0164B98424C
:1046100009D1036A0B4206D1036A134203D1436CEA
:1046200023F4004343642068036A0B4206D1016A05
:10463000114203D1016821F00101016001203DB167
:10464000042D08D0082D09D084F84100002030BD89
:1046500084F83E00FAE784F83F00F7E784F840006A
:10466000F4E70000000001400004014010B50749D4
:1046700000680968884207D1FDF702F8FDF736F8AF
:10468000BDE81040FDF794B910BD00007433002060
:10469000704770B5040004D094F83D00002510B1B7
:1046A00006E0012070BD84F83C50204600F022F85E
:1046B000242084F83D002068C16821F40051C160C5
:1046C000204602F053FF2068016921F49041016106
:1046D0002068416921F02A0141612068C16841F4E4
:1046E0000051C1602564202084F83D0084F83E001C
:1046F000002070BD10B586B0044614216846FCF752
:10470000BEFA13492068884220D11248002102686D
:1047100042F010020260006800F0100005900D48A1
:104720001438026842F002020260006800F00200E1
:104730000590C02000900220CDE9010103200390E4
:104740000720049069460448FDF782FC06B010BDBE
:104750000010014044380240000402402DE9F843B3
:10476000044690F83D001F4616460D4620284CD1C1
:10477000C5B1BEB194F83C00012846D0012084F8B0
:104780003C004FF00008C4F84080212084F83D0030
:10479000FDF768FDA6848146E684A068B0F5805FD9
:1047A00003D004E00120BDE8F883206928B12E463B
:1047B0005FF0000584F83C800EE00026FAE78021D7
:1047C000204602F059FFA0B9AEB116F8010B2168DE
:1047D0004860E08C401EE084E08C4B464FF00002C5
:1047E00000970028EBD14FF04001204602F044FF33
:1047F00030B10320D7E735F8020BC0F30800E6E735
:10480000202084F83D000020CDE70220CBE7FEE722
:104810000021C176417601218176704770B5154936
:104820000268154B4FF040248A4201D11A4600E03D
:104830002246D568C26A961CC6621580428E521EF8
:104840004286428E002A14D102688A4201D119465A
:1048500000E02146496821F0600100D023465960FC
:10486000418D002905D14FF0010180F84110FDF77D
:10487000F9FD70BD003800400034004070B5416A59
:10488000144B8A1C426205680988134A4FF0402481
:104890009D4201D1154600E02546E960418D491E43
:1048A0004185418D002914D10168994201D11146F9
:1048B00000E02146496821F0A00100D02246516065
:1048C000418E002905D14FF0010180F84110FDF71C
:1048D000C9FD70BD003800400034004010B5806B49
:1048E00001684A6822F003024A600021418541863E
:1048F000012180F84110416C41F008014164FDF74D
:10490000B2FD10BD10B50146806BC96949B9016897
:104910004A6822F001024A6000214186012180F8A4
:104920004110FDF741FF10BD10B5806BFDF77EFF14
:1049300010BD7CB5016804468868009094F8410079
:104940000125042834D10098C00718D04868C04316
:10495000400614D4C9682046E26A1180E16A891CC5
:10496000E162618E491E6186618E41B901684A68C3
:1049700022F060024A6080F84150FDF715FF009870
:10498000400615D520684168C943890610D441689E
:1049900021F0600141602068C1688068019084F85E
:1049A0004150606C40F0020060642046FDF75BFD02
:1049B00094F84100032834D10098800719D5216864
:1049C0004868C043000614D4626A20461288CA6050
:1049D000616A891C6162618D491E6185618D41B981
:1049E00001684A6822F0A0024A6080F84150FDF751
:1049F0001EFF0098000714D520684168C943890646
:104A00000FD4416821F0A0014160206880680090C7
:104A100084F84150606C40F0040060642046FDF76B
:104A200022FD7CBD10B50D4B0024C3F880420C481C
:104A3000016821F00C010160016841F0040101608E
:104A4000C3F88442022003F5207306F05FFC0120C6
:104A50001860022006F05AFC1C6010BD00004042A5
:104A6000000002400E4810B5016886B041F0010117
:104A700001600068012400F0010005900320CDE9E9
:104A800000040220CDE9024069460648FDF7E0FA3D
:104A90000548C0F88042C0F8844206B010BD00004E
:104AA00030380240000002400000404230B50D4B5B
:104AB0000024C3F880420C48016821F00C01016019
:104AC000016841F0040101600125C3F8845202200D
:104AD00003F5207306F01AFC1D60022006F016FC98
:104AE0001C6030BD000040420000024030B50D4661
:104AF000044600F0B1F86006000E00F081F800F006
:104B0000EDF8284600F07CF800F0E8F800F0A4F892
:104B1000012000EB4400C0B200F072F800F0DEF8B3
:104B2000002000F039F8044600F0B6F8204630BD09
:104B3000F0B51D4614460F46064600F08DF8700687
:104B4000000E00F05DF800F0C9F818B100F0A4F80C
:104B50000120F0BD384600F053F800F0BFF800F037
:104B60007BF8012000EB4600C0B200F049F800F0ED
:104B7000B5F809E0012C0DD05FF0010000F00CF851
:104B8000641E05F8010BE4B2002CF3D100F084F8A8
:104B90000020F0BD0020F1E72DE9F04180461648E5
:104BA0000024016821F00C01016001680160134DCF
:104BB000234626465FF00107C5F88062022006F012
:104BC000A5FBC5F880726006040ED5F8040208B192
:104BD000641CE4B2012006F099FB5B1CDBB2082BDD
:104BE000EAD3B8F1000F04D0FFF71CFF2046BDE860
:104BF000F081FFF75BFFF9E7000002400000404250
:104C0000F0B505461248016821F00C010160016809
:104C100041F0040101600F4B0026C3F88062344666
:104C20000127E809C3F884026806050E022006F091
:104C30006DFBC3F88072022006F068FBC3F8806247
:104C4000022006F063FB641CE4B2082CE9D3F0BD3B
:104C500000000240000040420D4810B5016821F0FC
:104C60000C010160016841F004010160094B012061
:104C7000C3F88402C3F88002042003F5207306F011
:104C800045FB00245C60042006F040FB1C6010BD66
:104C900000000240000040420E4800B5016821F0CB
:104CA0000C010160016841F0040101600A4B002021
:104CB000C3F88002C3F88402042003F5207306F0D1
:104CC00025FB01201860586004205DF804EB06F015
:104CD0001DBB0000000002400000404230B51248F9
:104CE0000023016821F00C010160016801600F4C94
:104CF0000125C4F88452284606F008FBC4F8805207
:104D0000012006F003FB07E05B1CDBB2FA2B03D9A2
:104D1000FFF7C2FF012030BDD4F804020028F3D110
:104D2000C4F8800230BD0000000002400000404294
:104D300070B515460E460446FFF78EFF6006000E5E
:104D4000FFF75EFFFFF7CAFF50B93046FFF758FF85
:104D5000FFF7C4FF2846FFF753FFFFF7BFFF18B167
:104D6000FFF79AFF012070BDFFF796FF002070BD8E
:104D7000F0B500230A24302537261F4611E000BF76
:104D8000B4EB107F02D905EB107C01E006EB107C40
:104D900001F813C001EB430C00015B1C8CF801709F
:104DA000DBB29342ECD3F0BD10B5FFF75BFE80227F
:104DB0006B216820FFF7BCFF6420FDF737F9002264
:104DC0006B216820FFF7B4FF032000F037F80020C4
:104DD00000F02EF8322000F050F800223821682030
:104DE000FFF7A6FF00226A216820FFF7A1FF00223B
:104DF00023216820FFF79CFF802237216820FFF7DE
:104E000097FF75216820FFF771FE682801D0012007
:104E100010BD01226B216820FFF78AFF00226C2160
:104E20006820FFF785FF642000F027F8002010BD00
:104E3000C006020E1C216820FFF77ABFC006020ED2
:104E40001B216820FFF774BFBC2801D3012210E0AA
:104E5000622801D302220CE02A2801D3032208E0B1
:104E6000142801D3042204E00A2801D3052200E01B
:104E700006221A216820FFF75BBF10B504464FF4E5
:104E80007A70844201D9044602E0042C00D2042442
:104E9000B0FBF4F0401EC2B219216820FFF748FFB2
:104EA0006008BDE81040FFF7CFBF0000074910B50C
:104EB000054808600846FCF721FF002803D0BDE83C
:104EC0001040FCF7F9BD10BD00300240200000206A
:104ED000114808B5016841F480010160016801F4DE
:104EE00080010091016841F4001101600068002216
:104EF00000F40010009011460B20FDF701FD0B207F
:104F0000FDF7F0FC002211463B20FDF7F9FCBDE85F
:104F100008403B20FDF7E6BC303802402DE9F04F59
:104F200087B014216846FBF7AAFE434800250168B4
:104F300041F004010160016801F00401059101687C
:104F400041F080010160016801F080010591016874
:104F500041F001010160016801F001010591016862
:104F600041F002010160016801F002010591016850
:104F700041F0080101600068DFF8C0B000F00800EF
:104F80004FF400540590002221465846FDF765F97C
:104F90004FF48876012231462948FDF75EF94FF437
:104FA0004047002239462748FDF757F9DFF898A017
:104FB0004FF48078002241465046FDF74EF94FF4F9
:104FC0000079012249465846FDF747F9009401242B
:104FD000694658460194CDE90245FDF739F8CDE917
:104FE00000640326CDE9024669461548FDF730F80E
:104FF000CDE9007469461348CDE90245FDF728F86C
:10500000CDE9008469465046CDE90245FDF720F818
:10501000CDE90094CDE9024669465846FDF718F8F7
:105020003002CDE90005694602940648FDF710F804
:1050300007B0BDE8F08F00003038024000080240A1
:105040000000024000040240000C02400E4810B56F
:105050000C4901604FF44071416000210322C0E916
:1050600002124FF4FA52C0E904128161C161016277
:10507000FDF7FCF9002803D0BDE81040FCF71CBD8B
:1050800010BD0000003C004004320020074910B56C
:10509000054808600846FEF75FFD002803D0BDE81C
:1050A0001040FCF709BD10BD00080650AC320020CE
:1050B0000F4810B50D4901604FF482714160002125
:1050C0008160C1604FF400720161C0E90512C161E5
:1050D0000162416281620A21C162FEF76CFD002813
:1050E00003D0BDE81040FCF7E7BC10BD0030014024
:1050F000BC32002010B588B01C216846FBF7BFFD0C
:1051000015481449002401605321C0E9011440F2FC
:10511000E731C0E903148461FEF78CFF08B1FCF7A6
:10512000CBFC0D48FFF7D1F908B1FCF7C5FC6020B6
:10513000CDE9000402940022694607480494FFF771
:105140005EF908B1FCF7B8FC0348FFF72DF908B089
:1051500010BD0000001C0040BC33002010B586B01C
:105160000024174800940194029403940494134972
:10517000059401605321C0E9011440F2E731C0E910
:1051800003148461FEF756FF08B1FCF795FC4FF459
:105190008050009069460A48FEF7E4FF08B1FCF72A
:1051A0008BFC049404A906480594FEF7FBFE002836
:1051B00001D0FCF781FC06B010BD000000040040E7
:1051C000743300200C4810B50A4901600B49416056
:1051D000002181600C22C160C0E904128161C161BB
:1051E000FFF757FA002803D0BDE81040FCF764BC75
:1051F00010BD0000001001400434002040420F00A8
:10520000FEE700001CB56C480A216C4C0089401C6C
:10521000B0FBF1F000EE100A00216948B8EE400A38
:1052200084ED060AFCF700FB654800214830FCF7D6
:10523000FBFA6348634A02211830FCF7F5FA60482C
:1052400000213030FCF7F0FA5D485F4A02216030FF
:10525000FCF7EAFA5A485A4918300123007C0090BA
:105260005AA278315648FCF78DFA554854493030E7
:105270000123007C009057A2B0315148FCF782FA1C
:105280004F484F4948300123007C009054A2E83138
:105290004B48FCF777FA4A480123603052A2007C61
:1052A000009053494648FCF76DFA514900233839BC
:1052B00050A2A1F5A470FCF765FA4D495048A839F1
:1052C000009002234FA2A1F1D800FCF75BFA5049ED
:1052D00004F11800CDE900014549042370394DA2BD
:1052E000A1F58870FCF74EFA504900234CA2A1F5B5
:1052F0006470FCF747FA3E49A01C38310090052342
:105300004BA2A1F5E870FCF73DFA3949E01C703179
:105310000090052348A2A1F50270FCF733FA344946
:10532000201DA8310090052345A2A1F51070FCF7BF
:1053300029FA2F49601DE0310090052343A2A1F511
:105340001E70FCF71FFA3949A01DE03900900523B3
:1053500040A2A1F52C70FCF715FA3449E01DA839DC
:10536000009005233DA2A1F53A70FCF70BFA2F49F6
:1053700004F108007039009005233BA2A1F54870A4
:10538000FCF700FA294904F1090038390090052397
:1053900037A2A1F55670FCF7F5F9A069FBF766FE98
:1053A000CDE90001C622344934A003F0EDFFBDE889
:1053B0001C4000F0B6B8000010000020640200207D
:1053C000083C0020116F0008456D00085553424607
:1053D0006F726D00416E696D6174696F6E000000DF
:1053E00053657474696E67003C41626F75743E006A
:1053F000D03D00205B53657474696E675D000000EA
:1054000084020020526576657273656400000000B6
:10541000BD1A00084272696768746E657373000094
:105420005B416E696D6174696F6E5D00C83F0020FD
:105430004D696E6400000000436972636C65000092
:10544000536E6F77666C616B650000004D65746527
:105450006F000000506C616E6574000054726961E9
:105460006E676C65000000005374617277617200B2
:1054700047436972636C650055B9000825735B2565
:10548000645D3A2073657474696E675F6272696700
:1054900068746E6573733A20256620200D0A00003B
:1054A0002DE9F0470024194EE4274FF48C784FF093
:1054B0000A0900BFFBF7A4F990FBF7F107FB110005
:1054C00004EB8405801D46F8250000BFFBF798F922
:1054D00090FBF8F208FB120006EB8505686000BF40
:1054E000FBF78EF990FBF9F209FB1200801C00EE2D
:1054F000100AB8EEC00A85ED020A00BF06F004F9F2
:10550000641CA881082CD5DBBDE8F087D0470120BA
:1055100010B50024204601F011FD641C062CF9DBB7
:1055200010BD10B500F010F8FFF7BAFF00F034F925
:1055300000F07EF800F0D6F800F0B8F900F06EF94F
:10554000BDE81040FFF7E4BF2DE9F05F00252DED29
:10555000028B4FF0EC0A9FED328A324FDFF8C880A1
:10556000DFF8C8904FF48C7B1E26F6EE008A00BF51
:1055700006F0CAF805EB450209EBC204A08200BFA1
:10558000FBF73EF990FBFAF20AFB1200001D00EE59
:10559000100AB8EEC00A84ED000A00BFFBF730F92C
:1055A00090FBFBF20BFB120000EE100AB8EEC00AF3
:1055B00084ED010AFBF724F990FBF6F106FB1100DC
:1055C0000F3800EE100AB8EEC00A20EE080A84ED8B
:1055D000020AFBF715F990FBF6F106FB11000F38F4
:1055E00000EE100AB8EEC00A20EE080A84ED030AA5
:1055F000A068B84203DA404501D2C4ED028A10EE39
:10560000100AB84205DA10EE100A404501D2C4ED86
:10561000038A6D1C0E2DABDBBDEC028BBDE8F09F49
:10562000CDCCCC3DCDCC4C3ECDCC4CBE804601202B
:105630002DE9F047284F2A4E00252DED028B4FF023
:10564000F0089FED268A4FF005094FF00F0A00BFC2
:10565000FBF7D6F890FBF8F208FB120100EE101AE7
:10566000C5EBC50007EB8004B8EEC00A47F8201070
:1056700084ED030A84ED048AFBF7C2F890FBF9F28B
:1056800009FB1200401C00EE100AB8EEC00A84EDBF
:10569000020A00BFFBF7B4F8C11700EB917121F0CB
:1056A0000301401AA06100BFFBF7AAF890FBFAF2D1
:1056B0000AFB1200606100BF06F026F8A08000BF60
:1056C000F078142801D2401CF0706D1C142DBFDB43
:1056D000BDEC028BBDE8F087B0490120000000005E
:1056E000980200202DE9F047284F2A4E00252DED85
:1056F000028B4FF014089FED268A4FF005094FF0FA
:105700003C0A00BFFBF77CF8C11700EB917121F058
:105710000301401AC5EBC504401C47F8240000BF34
:1057200005F0F2FF07EB8404A08000BFFBF768F8E8
:1057300090FBF8F208FB12000A3090FBF9F000EE43
:10574000100AB8EEC00A84ED020A00BFFBF758F851
:1057500090FBFAF20AFB1200001D00EE100AB8EEF0
:10576000C00A84ED030A00BF84ED048A84ED058A33
:1057700084ED068A3079052801D2401C30716D1CF9
:10578000052DBFDBBDEC028BBDE8F087E04B0120AF
:1057900000000000980200202DE9F0471C4F1E4E2B
:1057A00000252DED028B4FF0E408DFED1A8AB7EEED
:1057B000008A4FF0050900BFFBF722F890FBF8F2D2
:1057C00008FB1200801D00EE100A07EB0514B8EE6E
:1057D000C00A84ED000A30EE280A84ED018A84EDC7
:1057E000020A00BFFBF70CF890FBF9F209FB12006C
:1057F000E08105F089FFA081B078142801D2401C17
:10580000B0706D1C142DD7DBBDEC028BBDE8F087AA
:105810007048012000000042980200202DE9F0416C
:1058200000252DED048BF0274FF48C781C4EDFED16
:105830001D8A9FED1D9AB7EE008A00BFFAF7E0FFC0
:1058400090FBF7F107FB110100EE101A05EBC50004
:1058500006EB8004B8EEC00A46F8201084ED020A78
:10586000FAF7CEFF90FBF8F208FB120000EE100AE8
:105870006060B8EEC00A84ED030A84ED078AC4EDC7
:10588000048A84ED059A84ED068A05F03DFF6D1CBF
:1058900020840F2DD2DBBDEC048BBDE8F08100002D
:1058A000AC4D01200000704300008C432DE9F05FF7
:1058B00000252DED048B4FF0140A9FED5B9AB7EE97
:1058C000008ADFF86881DFF86891F6EE008ADFF879
:1058D00064B13C27FAF794FF0A2190FBF1F201FB37
:1058E000120005EB8506401D5C464BF8360000BFF4
:1058F00005F00AFF04EBC604A08000BFFAF780FFA2
:10590000564690FBF6F10AFB11000F210A3090FB7E
:10591000F1F000EE100AB8EEC00A84ED020A00BFF2
:10592000FAF76EFF90FBF7F107FB110000EE100A8B
:10593000B8EEC00A84ED030AFAF762FFF02190FB8B
:10594000F1F201FB120000EE100AB8EEC00A84ED7D
:10595000040AFAF755FF4FF48C7190FBF1F201FB4A
:10596000120000EE100AB8EEC00A84ED050AFAF73C
:1059700047FF90FBF6F106FB110000EE100AF8EE6F
:10598000C00AB0EE480A10EE890A10EE100A84ED43
:10599000060A404505DA10EE100A484501D2C4ED6A
:1059A000068AFAF72DFF90FBF6F106FB110000EED8
:1059B000100AF8EEC00AB0EE480A10EE890A10EE9E
:1059C000100A84ED070A404505DA10EE100A484532
:1059D00001D2C4ED078AFAF713FF90FBF7F107FB3A
:1059E00011005A3000EE100AB8EEC00A84ED080A21
:1059F000FAF706FF90FBF7F107FB1100D23000EE3B
:105A0000100A0D48B8EEC00A84ED090A4179082948
:105A100001D2491C41716D1C082DFFF65BAFBDEC36
:105A2000048BBDE8F09F0000CDCCCC3DCDCC4C3EEE
:105A3000CDCC4CBE6C4C0120980200200121C176D7
:105A40000021417681767047FEE7000010B5064CD4
:105A5000208905F050FC02466189A089BDE810400C
:105A600041430248FBF704B98002002000400020B7
:105A7000054A00BF92F85130012BFBD10A4601467E
:105A80000148FEF70BBA0000BC3200202DE9F047B8
:105A9000861881460C46CF18DDF820A00CE04D4654
:105AA0000FFA84F805E05246414628B200F0C4FAE5
:105AB0006D1CAE42F7DC641CA742F0DCBDE8F08749
:105AC0002DE9F04F1F462DED048B85B090460D4615
:105AD00006469FEDF80BDDF848A003F08DFCB0EE14
