:020000040801F1
:10000000D8EA01209D010108F32A0108BF24010854
:10001000F12A01086B070108554B01080000000098
:10002000000000000000000000000000112E010888
:100030001D080108000000006F2C01081D2E01089A
:10004000B7010108B7010108B7010108B7010108AC
:10005000B7010108B7010108B7010108B70101089C
:10006000B7010108B7010108B7010108B70101088C
:10007000B7010108B7010108B7010108B70101087C
:10008000B7010108B7010108B7010108B70101086C
:10009000B7010108B7010108B7010108B70101085C
:1000A000B7010108B7010108B7010108B70101084C
:1000B000B7010108B7010108B7010108B70101083C
:1000C000B7010108B7010108B7010108B70101082C
:1000D000B7010108B7010108B7010108B70101081C
:1000E000B7010108B7010108B7010108B70101080C
:1000F000B7010108B7010108B7010108B7010108FC
:10010000B7010108B7010108B7010108B7010108EB
:10011000B7010108B7010108B7010108B7010108DB
:10012000B7010108B7010108B70101086D0701080F
:10013000B7010108B7010108B7010108B7010108BB
:10014000B7010108B7010108B7010108B7010108AB
:10015000B7010108B7010108B7010108B70101089B
:10016000B7010108B7010108B7010108B70101088B
:10017000B7010108F52A0108B701010800000000D5
:10018000B7010108B7010108DFF80CD000F0B0FAA0
:1001900000480047914E0108D8EA012006488047F0
:1001A00006480047FEE7FEE7FEE7FEE7FEE7FEE75C
:1001B000FEE7FEE7FEE7FEE7B52E0108890101082C
:1001C0002DE9F05F0546002092469B46884606468C
:1001D000814640241BE0284641464746224600F01F
:1001E00076FA53465A46C01A914110D31146184622
:1001F000224600F05DFA2D1A67EB01084F462246B1
:100200000120002100F054FA17EB00094E41201E96
:10021000A4F10104DFDC484631462A464346BDE8E6
:10022000F09F0000014610B509683C22B1FBF2F3D3
:1002300002FB1313B1FBF2F11D480360B1FBF2F3B3
:1002400002FB1313B1FBF2F118224360B1FBF2F38E
:1002500002FB1313B1FBF2F183600A1D0723B2FB0B
:10026000F3F403FB142282618A0040F2B55102F6D6
:100270006C32B2FBF1F344334361B2FBF1F301FBA7
:1002800013218908C1613B2903D3027D920700D065
:10029000491C0022074C13460261E25C8A4203D8E3
:1002A000891A5B1C0361F8E7491CC16010BD00009E
:1002B000A8D201206851010870B5054601B907218F
:1002C000541A241DB4F5B67F09DD286800F036F90C
:1002D000A04204DC2868401C2860012070BD002C6E
:1002E00005DA2868401E286000F028F90444072039
:1002F00094FBF0F0401C70BD2DE9F04F89B01D4615
:100300008A468046002401AF4FF0070B0192079008
:1003100057F8241011F8010B47F8241048B125288C
:100320000DD0BAF1010F06D908F8010BAAF1010AA4
:100330005CE0641E5AE0002009B0BDE8F08F11F8BF
:10034000010B47F824100028F3D002264FF03009A3
:100350005A284BD020DC4D2873D014DC442871D0AF
:1003600008DC2528DDD041282AD042282ED0432879
:100370003CD130E0462847D0472857D0482862D0A3
:10038000492833D161E0523808282FD2DFE800F045
:10039000787AA6838A97A6A86138192826D2DFE83A
:1003A00000F00D1318202E253513255C25256064DB
:1003B0002566256D257375258B9BA0006AA000E03E
:1003C00070A0A9690091B4E07DA000E08848296987
:1003D000F8E788A007E06969642091FBF0F013302A
:1003E00082E0E86880E0641C47F82400002C8FDA83
:1003F000002088F800000799A8EB01009CE7E86856
:100400004FF02009009070E07EA0ECE7686900F2F0
:100410006C700090D5E906126846FFF74DFF009911
:10042000642091FBF0F200FB12105DE06869042685
:1004300000F26C700090D5E906126846FFF73CFFA9
:1004400053E010E048E0A8684EE0A8680C2117309F
:1004500090FBF1F201FB120001E0E8690326401C69
:1004600042E02869FBE768683EE069A0BBE7A8684E
:100470000C2801DA67A0B6E767A0B4E767A0B2E787
:1004800069A0B0E728682FE069A0ACE7A869012659
:1004900008BB072028E0D5E90610401AC01D90FBD4
:1004A000FBF021E0686900F26C700090D5E906125B
:1004B0006846FFF701FF17E00126A86914E0A96963
:1004C0005846891D91FBF0F20BFB1211EA69511A93
:1004D000C91D91FBFBF007E056A084E758A082E716
:1004E0000426686900F26C70009000218DF81810E5
:1004F00006A80A2113E0009A92FBF1F301FB1322F4
:10050000303200F8012D009A92FBF1F2009232B9DC
:1005100001E000F8019D321EA6F10106F9DC321E51
:10052000A6F10106E7DC5EE710F8011B0029FBD10C
:1005300000994A1E00920029F6DC54E781070CD18D
:10054000642190FBF1F201FB120151B94FF4C87123
:1005500090FBF1F201FB120018B1002000F26D10C7
:1005600070470120FAE7000053756E004D6F6E0072
:1005700054756500576564005468750046726900DB
:100580005361740053756E646179004D6F6E6461E0
:10059000790054756573646179005765646E65739D
:1005A0006461790054687572736461790046726998
:1005B00064617900536174757264617900000000B0
:1005C0004A616E00466562004D61720041707200C2
:1005D0004D6179004A756E004A756C00417567007F
:1005E000536570004F6374004E6F7600446563007E
:1005F000745101082561202562202565202554209D
:100600002559000025592D256D2D25640000000079
:100610000A000000414D0000504D000025493A25D8
:100620004D3A25532025700025483A254D000000FD
:1006300009000000256D2F25642F2579000000009A
:1006400025483A254D3A25530000000040EA0103B1
:100650009B0703D009E008C9121F08C0042AFAD278
:1006600003E011F8013B00F8013B521EF9D270473C
:10067000D2B201E000F8012B491EFBD270470022E4
:10068000F6E710B513460A4604461946FFF7F0FF91
:10069000204610BD10B54843044604F04DFC002828
:1006A00005D00021002C02D0641E0155FAE710BDD0
:1006B000202A04DB203A00FA02F100207047914022
:1006C000C2F1200320FA03F3194390407047202A17
:1006D00004DB203A21FA02F00021704721FA02F3EC
:1006E000D040C2F1200291400843194670470000F3
:1006F000064C074D06E0E06840F0010394E807006F
:1007000098471034AC42F6D3FFF742FDCC510108B4
:10071000EC51010870B58C1810F8015B15F0070357
:1007200001D110F8013B2A1106D110F8012B03E08A
:1007300010F8016B01F8016B5B1EF9D12B0705D492
:100740000023521E0DD401F8013BFAE710F8013BDB
:10075000CB1A921C03E013F8015B01F8015B521EF7
:10076000F9D5A142D8D3002070BDFEE7014800F0C2
:1007700059B80000F8CA012001681823CAB2103A1B
:10078000B2FBF3F2054B6FF30901032A9B5CC365CF
:1007900000D9091D816508467047000043500108D3
:1007A00010B5014600208B698A6A4FF0C07453B1BE
:1007B000B3F5005F15D072B1012A0CD0022A0AD01D
:1007C000032A09D104E01AB1012A06D0022A03D172
:1007D000C96AC90100D5012010BDC96AA142FAD079
:1007E00010BD002AF7D0012AF2D0022AF3D0032A42
:1007F000F3D010BD30B50468256825F48025256048
:10080000046863608368402B036803D099600068C4
:10081000C26030BD9A600068C16030BD704772B67A
:10082000FEE700002DE9F84304464FF00009CDF83B
:10083000009063484FF41651A56D0068B0FBF1F7C6
:100840002E6894F85C10082000FA01F131420FD0B4
:1008500021680A6852070BD50A6822F004020A6070
:1008600094F85C108840A860606D40F001006065FD
:1008700094F85C104FF0010808FA01F0304208D0FB
:1008800021684969090604D5A860606D40F002003E
:10089000606594F85C1004208840304208D02168DC
:1008A0000968890704D5A860606D40F004006065A0
:1008B00094F85C1010208840304218D021680968F4
:1008C000090714D5A86020680168490304D50068A9
:1008D000000308D5A16C07E00168C90503D40168CD
:1008E00021F008010160216C09B12046884794F885
:1008F0005C1020208840304231D021680968C90648
:100900002DD5A86094F8350005282068016806D028
:10091000490347D5006800031DD4616C1CE021F039
:10092000160101602068416921F080014161206C5D
:1009300008B9A06C20B12068016821F008010160AD
:1009400094F85C103F208840A86084F8358084F8D3
:100950003490216D1FE0E16B09B120468847606D3E
:1009600000282BD0606DC00714D0052084F8350016
:100970002068016821F0010101600098401C00908E
:10098000B84203D820680068C007F6D184F83580E3
:1009900084F83490E16C002910D001B02046BDE805
:1009A000F04308470168C905D5D4016821F010015A
:1009B000016084F8358084F83490CCE7BDE8F88392
:1009C000140000202DE9F041044600F0B5F9064678
:1009D0005CB1022084F83500002584F8345020688A
:1009E000016821F0010101600DE00120BDE8F08106
:1009F00000F0A2F9801B052805D92020606503209E
:100A000084F83500F2E720680068C007F0D122685A
:100A1000116820480140D4E901031843D4E90336A2
:100A20003343184363691843A3691843E3691843C0
:100A3000236A18430843616A042903D1D4E90B13DC
:100A400019430843106020684069666A20F0070176
:100A500030460E43012704280CD1A06A0643E06A01
:100A600040B12046FFF79CFE20B14020606584F82D
:100A70003570BAE7206846612046FFF77DFE94F89E
:100A80005C203F2191408160656584F835700020CD
:100A9000ACE700003F8010F02DE9F0410446866D80
:100AA00090F83400002501280DD0012084F834008E
:100AB00094F835700020012F07D084F83400022507
:100AC0002846BDE8F0810220FBE7022784F8357054
:100AD00060652046FFF78EFE94F85C103F2088404A
:100AE000B0602068016841F016010160206C20B1FF
:100AF0002068016841F0080101602068016841F048
:100B000001010160DCE7000070B5044600F014F953
:100B10000546601C02D004480078044400F00CF93B
:100B2000401BA042FAD370BD080000202DE9F84F09
:100B3000DFF8BCA10022012503264FF00F090AF1BE
:100B4000040BAAF1040E00BF0B6805FA02F423405F
:100B5000A34270D10F7907F00307012F01D0022FB4
:100B600016D187684FEA420806FA08FC27EA0C0704
:100B7000D1F80CC00CFA08FC4CEA070CC0F808C00D
:100B80004768A7430C79C4F3001494403C43446085
:100B90000C79E443A4070AD0C4684FEA420C06FA71
:100BA0000CF7BC438F6807FA0CF72743C7600C7932
:100BB00004F00304022C12D1D40800EB840CDCF8FE
:100BC00020405707FF0E09FA07F824EA0804D1F875
:100BD000108008FA07F848EA0408CCF82080046876
:100BE0004FEA420C06FA0CF7BC430F7907F00307F3
:100BF00007FA0CF7274307604C6814F4403F70D0A5
:100C00003C4C276847F480472760246822F003079C
:100C100004F480440094384C07EB040CDCF80848DA
:100C200097074FEA177809FA08F7BC43334FB842E1
:100C300002D1002724E054E0314FB84201D101270E
:100C40001EE0304FB84201D1022719E02E4FB842C2
:100C500001D1032714E02D4FB84201D104270FE042
:100C60002B4FB84201D105270AE02A4FB84201D1E3
:100C7000062705E0284FB84201D1072700E00827E2
:100C800007FA08F72743CCF80878DAF80040574607
:100C9000D1F804C09C435FEACC2C00D51C433C60D7
:100CA000DBF800405F46D1F804C09C435FEA8C2C1F
:100CB00000D51C433C60DEF800407746D1F804C004
:100CC0009C435FEA8C3C00D51C433C60084F083FC6
:100CD0003C68D1F804C09C435FEACC3C00D51C437F
:100CE0003C60521C102AFFF42FAFBDE8F88F0000C3
:100CF000083C0140443802400030014000000240FE
:100D00000004024000080240000C024000100240B3
:100D10000014024000180240001C0240426921EA0F
:100D200002030A4043EA0241816170470AB18161CE
:100D300070470904FBE70000014880687047000025
:100D400008000020024881680278114481607047E1
:100D5000080000200B4810B5016841F400710160E3
:100D6000016841F480610160016841F480710160B3
:100D7000032000F06FF80F2000F006F800F024F8D0
:100D8000002010BD003C024070B50D4D04464FF4EC
:100D90007A712878B1FBF0F00A490968B1FBF0F0EC
:100DA00001F0BBFA48B9102C07D200222146501E90
:100DB00000F030F800206C6070BD012070BD0000B4
:100DC00008000020140000200A4808B5016841F41A
:100DD00080410160006800F4804000900548001FD9
:100DE000016841F080510160006800F0805000907F
:100DF00008BD000044380240002809DB00F01F0253
:100E0000012191404009800000F1E020C0F800116C
:100E100070470000F0B40E4B1B680C46C3F302236E
:100E2000C3F10705042D00D90425191D072901D296
:100E3000002300E0DB1E012606FA05F1491E2140D1
:100E400099409E40761E16403143F0BC03F094BE9C
:100E50000CED00E0064900F0070208684FF6FF03BA
:100E6000184040EA0220034A10430860704700001F
:100E70000CED00E00000FA057047006841620020B8
:100E80007047F0B50368586A39B19C6A4FF48276AE
:100E900000EB144400204D1E0AE040EA0240986234
:100EA0000FE006EB8007DF59401C04EB1744C0B28B
:100EB000A842F6D344EA02404FF4807202EB81016B
:100EC00058500020F0BDD0F8080502F0EBBA01EB55
:100ED000C10200EB8202D0F80805D26C02F056BACB
:100EE00001EBC10200EB8202D0F80805D2F88C2297
:100EF00002F0A1BAD0F8080502F0D6BA0A0601F04D
:100F00000F0101EBC10100EB810101D53C3101E092
:100F100001F51F71006803F065BC70B504460B064F
:100F200001F00F0000EBC00104EB81014FF0010262
:100F30004FF0000503D581F83D203C3103E081F8F6
:100F40007D5201F51F71087094F8BC04012808D087
:100F500084F8BC24206803F0FFF884F8BC54002017
:100F600070BD022070BD70B5044601F00F006268CC
:100F7000904201D9012070BD0B0601F00F0101EB79
:100F8000C10104EB81014FF001024FF0000503D5D0
:100F900081F83D203C3103E081F87D5201F51F715D
:100FA0008D70087094F8BC04012808D084F8BC2423
:100FB000206803F0CDFA84F8BC54002070BD0220F4
:100FC00070BD01F00F0101EBC10100EB8100D0F811
:100FD0009C0270472DE9F04104460F0601F00F0016
:100FE00000EBC00104EB81014FF001064FF000055A
:100FF00003D581F83D603C3103E081F87D5201F575
:101000001F710870CA600B714A7802B10881022B07
:1010100000D14D7194F8BC04012809D084F8BC6457
:10102000206802F0F1FF284684F8BC54BDE8F08146
:101030000220FBE770B50C4601F00F0505EBC5017A
:1010400000EB8101C1F89432C1F88C220023C1F871
:101050009C3281F87D3281F87C52036901F51F7161
:10106000012B00D14A612207027C006803D003F003
:10107000C7FA002070BD03F0B1F9FAE770B5044675
:101080000D4601F00F006168884201D9012070BD52
:1010900029064FF000064FF0010207D500EBC00112
:1010A00004EB810181F83D203C3107E005EBC501EF
:1010B00004EB810181F87D6201F51F718A7008706F
:1010C00094F8BC04012807D084F8BC24206803F0FD
:1010D0006BFA280702D007E0022070BD217C04F2E1
:1010E000C442206803F008FA84F8BC64002070BD94
:1010F00070B50C4601F00F0505EBC50100EB810151
:101100004B65CA640023CB65012381F83D3001F8AB
:101110003C5F0369012B00D14A612207027C006811
:1011200003D003F06DFA002070BD03F057F9FAE721
:101130002DE9FC5F05680446284603F0F4FB00280F
:101140007DD1206803F01BFC002878D0D5F8080872
:10115000C0F30D20C4F8FC04206803F010FC8007E5
:1011600004D52068416901F002014161206803F063
:1011700006FCC10604F2C440009034D520688169A1
:1011800021F0100181612F6A07F00F0000EBC00011
:1011900004EB8006C7F3434006F51F76022802D011
:1011A000062811D01AE047F6F070074216D0C7F3B0
:1011B0000A1217462846316903F0E5FB30693844C6
:1011C0003061306A384408E008222846009903F06C
:1011D000DAFB306AC7F30A1108443062206881697B
:1011E00041F010018161206803F0C9FB00034FF05A
:1011F000080B4FF0000A4FF001097CD5002620684B
:1012000003F09CFB074674E0F80770D0F1B2206849
:1012100003F0ADFB8046C00707D005EB4611C1F8CF
:10122000089B3146204601F06BFC5FEA087024D52C
:1012300005EB4611C1F808BB2068016C00E025E20F
:1012400000EB46100191D0F8082BFC4B994205D9D0
:10125000110403D54FF40041C0F8081B204600F0EC
:101260002FFBF6490198884207D92069012804D14B
:1012700020680121009A03F03FF95FEAC86004D5B5
:1012800005EB46111020C1F8080B5FEA88701DD5E8
:101290006869000605D5D5F8040840F48061C5F8F2
:1012A000041806EBC60004EB800090F87F1200F5EE
:1012B0001F70012905D180F803A0F1B2204600F08B
:1012C000EBF905EB46110220C1F8080B5FEA8860D4
:1012D00004D505EB46102021C0F8081B5FEA8840C2
:1012E00005D505EB46104FF40051C0F8081B7F08E8
:1012F000761C002F88D1206803F041FB40036FD596
:10130000206803F014FB0746002667E0F80763D067
:10131000F1B2206803F019FB8046C00723D006F025
:101320000F0209FA02F0D5F834288243C5F83428B0
:1013300005EB4610C0F80899206901280FD106EB8B
:10134000C60004EB8000D0E912211144C16436B913
:10135000606D20B920680121009A03F0CDF8F1B248
:101360002046FFF7B4FD5FEA087003D505EB461190
:10137000C1F808B95FEAC86004D505EB4611102032
:10138000C1F808095FEA486004D505EB4610402122
:10139000C0F808195FEA887017D53146284603F06F
:1013A00095FA06EBC60004EB800090F83F103C3045
:1013B000012905D180F803A0F1B2204600F068F9B8
:1013C00005EB46110220C1F808095FEA086003D561
:1013D0003146204601F0FAFB7F08761C002F95D19C
:1013E000206803F0CCFA002811DAD5F8040820F0C0
:1013F0000101C5F8041894F8F40401282BD0204604
:1014000000F042FA2068416901F000414161206822
:1014100003F0B5FA00050BD5D5F80808C00702D0CF
:10142000204600F099FA2068416901F400614161A9
:10143000206803F0A4FAC00466D5D5F8040820F0AB
:101440000100C5F804081021206803F03FFA0021CC
:101450004FF67F321FE084F8F4A400212046FFF706
:101460000BFDCFE705EB4110C0F80829D0F8003993
:1014700023F40013C0F80039C0F8082BD0F8003B63
:1014800023F40013C0F8003BD0F8003B43F00063A6
:10149000C0F8003B491C60688842E3D8D5F81C08B6
:1014A00040F00111C5F81C18206B002828460DD00B
:1014B000D0F8840840F00B01C5F88418D5F844082A
:1014C00040F00B012846C5F844180DE0D0F8140888
:1014D00042F22B010843C5F81408D5F8100840F073
:1014E0000B012846C5F81018D0F8000820F4FE615A
:1014F000C5F80018217C2068009A02F0FDFF2068E2
:10150000416901F480514161206803F038FA800498
:1015100015D5206802F0B8FD206803F0F7F9E06007
:1015200000F0CCFA0146227B206803F08BFA2046BB
:1015300000F094F92068416901F40051416120688C
:1015400003F01DFA000707D5204600F0A1F9206836
:10155000416901F008014161206803F010FA0006BA
:1015600016D5A86920F08000A86101260DE000BF13
:1015700006EBC60004EB800090F87F02012803D13F
:10158000F1B22046FFF7BAFC761C6068B042EFD893
:10159000206803F0F4F9C00221D501264F4616E079
:1015A00005EB4610D0F8001906EBC60004EB8000EE
:1015B00090F84020012A09D1002907DA80F83F700D
:1015C000F0B240F080012046FFF798FC761C60687E
:1015D000B042E5D82068416901F48011416120687A
:1015E00003F0CDF9800234D501204B4629E000BF3D
:1015F00005EB4011D1F8001B00EBC00204EB8206A2
:1016000096F88022012A1BD1002919DA94F8FC24CB
:1016100001F4803102F00102914211D186F87F324B
:10162000A96941F08002AA616969090608D4D5F860
:10163000040840F40070C5F8040805E00A30544F6F
:10164000401C61688142D3D82068416901F40011CF
:101650004161206803F093F9400007D52046FFF769
:1016600032FC2068416901F080414161206803F04B
:1016700086F940070AD520684568680702D52046E4
:10168000FFF738FC2068416829434160BDE8FC9FB2
:10169000D0F8080501F05CBFD0F8080501F05ABF8A
:1016A0002DE9F0418AB0040005D094F8BD04266805
:1016B000002520B108E001200AB0BDE8F08184F8DF
:1016C000BC54204600F05EF8032084F8BD04F06BA3
:1016D000C00500D42561206802F07AFE04F11001F3
:1016E000282288466846FEF7B1FF94E80F0002F012
:1016F000D9FC0226C8BB0021206803F063F9002052
:1017000001270EE000EBC00104EB810181F83D7080
:1017100001F83C0F08810D71CD600D61401CC0B215
:101720008D6161688142EDD8002011E000EBC001BD
:1017300004EB810181F87D5281F87C0281F88052AE
:10174000C1F88852C1F88C52401CC0B2C1F8945202
:1017500061688142EAD8282241466846FEF776FF52
:1017600094E80F0002F07AFD10B184F8BD64A2E79E
:1017700084F8385084F8BD74206802F061FD0020C0
:101780009AE700002DE9F04186B00446142168462E
:10179000FEF775FF2C492068884251D12B4C4FF041
:1017A0000008206840F004002060206800F0040079
:1017B0000590206840F001002060206800F00100E2
:1017C0000590206840F0020020602068022500F0AB
:1017D000020005900D208DE8210103260A276946A5
:1017E0001B48CDE90367FFF7A1F928208DE8210107
:1017F00069461848CDE90367FFF798F943F6234097
:101800008DE8210169461448CDE90367FFF78EF999
:10181000206840F000502060206800F000500590E3
:10182000206840F0804020602068002200F0804066
:10183000059011464D20FFF7EDFA4D20FFF7DCFA39
:1018400006B0BDE8F08100000000044030380240DE
:1018500000080240000002400004024070B5044647
:10186000C068012570B1022801D0FEF7D8FF2946D3
:10187000D4F8080501F0C4FED4F80805BDE87040AE
:1018800001F07FBE0025F2E7D0F8080501F0A2BE06
:10189000D0F8080501F0A8BE10B5044690F8BC04C5
:1018A00001280BD0012084F8BC0484F8381020688B
:1018B00003F0B6F8002084F8BC0410BD022010BD6F
:1018C0002DE9F04100F2C441D0F80845054604F284
:1018D000AA200F46064602F0ABF994F8AA1200209F
:1018E000C90603D13146204601F034FF94F8AA120C
:1018F00001F01F01012903D13146204601F06EFF9E
:10190000002806D13946D5F80805BDE8F04101F0B8
:1019100083BEBDE8F08110B50446006894F8BC149D
:10192000012906D0012184F8BC14A16A012902D042
:1019300008E0022010BDA169012903D0816B41F4A8
:1019400080318163206802F09CFF206802F06AFC0D
:10195000002084F8BC0410BD10B50446D0F808057A
:1019600001F09CFE2068D0F8001E41F00101C0F893
:10197000001E206A002804D00248016841F00601D8
:10198000016010BD10ED00E02DE9F0470E460500A6
:1019900065D0DFF81481D8F80000F7B200F0070036
:1019A000B04207D288F80070D8F8000000F00700B5
:1019B000B04254D128683D4C810712D5400703D569
:1019C000206840F4E05020602878000703D52068A4
:1019D00040F4604020602068A96820F0F0000843CF
:1019E00020602878C0072DD0304968680839012860
:1019F00012D0022813D0032811D0096889070029C2
:101A00002DDA216821F0030101432160FFF794F9E9
:101A1000814641F2883A0EE009688903EFE70968D8
:101A20008901ECE7FFF788F9A0EB0901514502D9DC
:101A30000320BDE8F0872068696800F00C00B0EB77
:101A4000810FEFD1D8F80010404601F00701B142F4
:101A500007D90770006800F00700B04201D00120EC
:101A6000E7E72878400705D52068E96820F4E050CA
:101A7000084320602878000706D52068296920F4EB
:101A8000604040EAC100206000F03EF82168084A4A
:101A9000C1F30311515CC84006490860064800685C
:101AA000FFF772F90020C4E7003C0240083802400A
:101AB0004B500108140000200C0000200148006871
:101AC00070470000140000200448054900680968B8
:101AD000044AC1F38221515CC840704714000020C1
:101AE000083802405B50010804480549006809684D
:101AF000044AC1F34231515CC840704714000020D1
:101B0000083802405B500108154810B5006810F015
:101B10000C02144813D04110042A0FD0082A0ED109
:101B20000F4C241F2268236802F03F025B0207D596
:101B30002068C0F38810A0FB010106E0084610BD34
:101B40002168C1F38811A1FB00010023FEF738FBD7
:101B50002168C1F30141491C4900B0FBF1F010BDFF
:101B6000083802400024F4002DE9F84F04006ED03C
:101B70002078DFF84C93C007A9F104054AD009F199
:101B800004000168C1F38101012908D00068C0F395
:101B9000810002280AD1D9F80000400206D5286841
:101BA000800337D560680028E1D033E06068B0F585
:101BB000803F10D0B0F5A02F286810D020F48030DE
:101BC0002860286820F4802028606068A8B1FFF7AA
:101BD000B3F806460DE0286840F48030F4E740F49E
:101BE00080202860F7E700BFFFF7A6F8801B642875
:101BF00073D828688003F7D50CE0FFF79DF80646F8
:101C000005E000BFFFF798F8801B6428F0D828682B
:101C10008003F7D42078DFF8AC8280074FF0000A09
:101C20003ED5A748001D016811F00C0F08D00068D0
:101C3000C0F3810002280BD1D9F80000400207D47C
:101C40002868800716D5E068012800D112E033E14A
:101C5000E068B8B10120C8F80000FFF76DF806464B
:101C600005E000BFFFF768F8801B0228C0D828688D
:101C70008007F7D52868216920F0F80040EAC10004
:101C800028600DE0C8F800A0FFF756F8064604E00B
:101C9000FFF752F8801B02281FD828688007F7D466
:101CA0002078000722D5864F87486169703771B167
:101CB00001210160FFF740F8064604E0FFF73CF819
:101CC000801B022809D838688007F7D50EE0C0F8D5
:101CD00000A0FFF731F8064605E082E0FFF72CF898
:101CE000801B02287DD838688007F7D42078400709
:101CF00068D5DFF8CCB100270BF13C0BDBF8000016
:101D0000C0000BD4DBF8001041F08051CBF800107C
:101D1000DBF80000012700F0805000906B4E306827
:101D2000C00510D4306840F480703060FFF704F8CC
:101D3000009005E0FFF700F80099401A022850D8FB
:101D40003068C005F6D55E4EA0686C3601280FD00D
:101D50000528306810D020F001003060306820F095
:101D600004003060A068B8B1FEF7E6FF00900FE015
:101D7000306840F00100F4E740F004003060F7E71D
:101D8000FEF7DAFF0099411A41F28830814266D8A5
:101D900030688007F4D50EE0FEF7CEFF009007E034
:101DA000FEF7CAFF0099411A41F28830814256D8A5
:101DB00030688007F4D42FB1DBF8001021F0805197
:101DC000CBF80010A069C8B33D49091D0968C1F3EB
:101DD000810102294AD00228504607D0C8F8600085
:101DE00000E03CE0FEF7A8FF04463BE04746C8F8A9
:101DF0006000FEF7A1FF064605E000BFFEF79CFF6E
:101E0000801B02282BD828688001F7D4D4E9070169
:101E10000843A16A2E4A490802EB0141626A41EA7D
:101E20008211084394F82C1040EA0161C9F80010AF
:101E300001203866FEF780FF044606E03EE000BF62
:101E4000FEF77AFF001B022809D828688001F7D521
:101E500034E000BFFEF770FF001B022802D9032008
:101E6000BDE8F88F28688001F4D427E00128F7D076
:101E7000D9F80000E26900F4800191421CD1226A85
:101E800000F03F01914217D147F6C071626A0140EC
:101E9000B1EB821F10D1A26A4FF0FF3300F4403142
:101EA00003EB5202B1EB024F06D194F82C1000F074
:101EB0007060B0EB016F01D00120D1E70020CFE7C7
:101EC0000438024000004742800E47420070004044
:101ED0000000FFFF704770B5040009D0606A00255C
:101EE00040B125616561A56294F8510040B10CE0F4
:101EF000012070BD6068B0F5827FF4D0E561F2E743
:101F000084F85050204600F045F8022084F8510033
:101F10002068016821F040010160A088218900F457
:101F2000827001F404410843A18901F4006108436F
:101F3000217C01F002010843217D01F001010843E9
:101F4000218B01F400710843217F01F0380108431F
:101F500094F8201001F080010843218D01F4005114
:101F6000084321680860A069042101EA104094F840
:101F7000241001F010010843216848602068C169FD
:101F800021F40061C1616565012084F851000020E1
:101F900070BD00002DE9F04186B006461421684668
:101FA000FEF76DFB25493068884244D1244800255E
:101FB000016841F4805101600068214900F48050BB
:101FC00014390590086840F001000860086800F0C6
:101FD00001000590086840F00200086008680224CB
:101FE00000F002000590802003274FF005088DE8DF
:101FF000B10169461348FEF799FD08208DE8B1014B
:1020000069461148FEF792FD114C10482060780691
:1020100060604020C4E902050001C4E90405A5612F
:10202000E561256220466562FEF7CCFC08B1FEF74B
:10203000F6FBB464A66306B0BDE8F0810030014051
:10204000443802400000024000040240586402404C
:10205000F8CA01202DE9F84F044690F850000027F7
:102060001D461646894601280DD04FF0010B84F815
:1020700050B0FEF761FE804694F85100BA46012840
:1020800004D0022793E00220BDE8F88FB9F1000FD9
:1020900073D0002E71D0032084F85100C4F854A0EE
:1020A000C4F83090A686E686C4F838A0A4F83CA010
:1020B000A4F83EA0C4F844A0C4F840A0A068B0F5BD
:1020C000004F09D12068016821F0400101602068BB
:1020D000016841F48041016020680168490603D429
:1020E000016841F040010160E068B0F5006F606890
:1020F00003D030B3012E24D041E008B1012E1CD111
:10210000206B21680088C86006E020688168890724
:1021100009D5216B0988C160206B801C2063E08E8B
:10212000401EE08609E0FEF707FEA0EB0800A8428B
:1021300002D3681C01D031E07DB3E08E0028E4D1E9
:1021400020E0206B21680078087306E02068816831
:10215000890709D5216B09780173206B401C206326
:10216000E08E401EE0860AE0FEF7E6FDA0EB0800E8
:10217000A84203D3681C02D010E017E06DB1E08ED6
:102180000028E3D142462946204600F0B9FD08B1B7
:1021900020206065A06818B106E0FFE7032706E08D
:1021A0002068C16880680090606D00B1012784F8E4
:1021B00051B084F850A0384666E700002DE9F041A0
:1021C000044690F850000026012809D0012784F821
:1021D000507094F851000025012804D002264EE0EA
:1021E0000220BDE8F08189B182B1032084F851005A
:1021F00065652163A286E286A56365642564A5877B
:10220000E587A068B0F5004F02D00BE0012636E06C
:102210002068016821F0400101602068016841F4F4
:1022200080410160A16C18480864A16C1748C8631C
:10223000A16C1748C864A06C0565E38E2268216B09
:102240000C32A06CFEF728FC38B1606D40F0100035
:102250006065012684F8517011E020680168490624
:1022600003D4016841F0400101602068416841F0F9
:10227000200141602068416841F00201416084F81A
:1022800050503046ADE70000932C01089D2C01080A
:10229000712C010810B5124C6068002812DD6068CE
:1022A000002281B20F4800F075F900206060FEF74F
:1022B00043FD0346BDE810404FF489720A490BA064
:1022C00002F04ABCFEF738FD03464FF48B72064914
:1022D0000BA002F041FC0F491020886110BD0000E6
:1022E000000000209F0401202C50010825735B256D
:1022F000645D3A206E6578743A256420200D0A00EA
:1023000025735B25645D3A20646F6E653A25642011
:10231000200D0A0000000240704710B5401EB0F1C9
:10232000807F01D3012010BD4FF0E02460610F21B8
:10233000601702F021FC0020A0610720206100202E
:1023400010BD70B5040004D094F83D00002510B114
:1023500006E0012070BD84F83C50204600F022F8D1
:10236000242084F83D002068C16821F40051C16038
:10237000204600F0ADFD2068016921F49041016123
:102380002068416921F02A0141612068C16841F457
:102390000051C1602564202084F83D0084F83E008F
:1023A000002070BD10B586B0044614216846FEF7C3
:1023B00066F913492068884220D11248002102683A
:1023C00042F010020260006800F0100005900D4815
:1023D0001438026842F002020260006800F0020055
:1023E0000590C02000900220CDE901010320039058
:1023F0000720049069460448FEF798FB06B010BD1C
:102400000010014044380240000402402DE9F84326
:10241000044690F83D001F4616460D4620284CD134
:10242000C5B1BEB194F83C00012846D0012084F823
:102430003C004FF00008C4F84080212084F83D00A3
:10244000FEF77AFCA6848146E684A068B0F5805F3A
:1024500003D004E00120BDE8F883206928B12E46AE
:102460005FF0000584F83C800EE00026FAE780214A
:10247000204600F0B3FDA0B9AEB116F8010B2168FB
:102480004860E08C401EE084E08C4B464FF0000238
:1024900000970028EBD14FF04001204600F09EFD50
:1024A00030B10320D7E735F8020BC0F30800E6E7A8
:1024B000202084F83D000020CDE70220CBE7FEE796
:1024C000F0B500230A24302537261F4611E000BF4F
:1024D000B4EB107F02D905EB107C01E006EB107C19
:1024E00001F813C001EB430C00015B1C8CF8017078
:1024F000DBB29342ECD3F0BD2DE9F04104461D461A
:1025000016460F462A2000F0E9F9204600F0C8F9E7
:10251000304600F0C5F92B2000F0E0F9384600F015
:10252000BFF9284600F0BCF9BDE8F0412C2000F0CE
:10253000D5B9000070B5144CDDF8105094F8516016
:10254000012EFBD1141A5E1A74435B1E521E6400E6
:102550009BB292B2FFF7D0FF0C494FF48010886114
:102560000B48B4F5803F06DBA4F57F44FF3C446094
:102570004FF6FF7401E000214160A1B22846BDE89A
:102580007040002200F006B8A0CA012000000240FE
:10259000000000200B46084930B40C6824F4806425
:1025A0000C601AB90A6842F480620A60014630BCC5
:1025B0001A460248FFF702BE58640240A0CA012032
:1025C00010B5012000F08AF99620FEF79DFA11203F
:1025D00000F084F97820FEF797FA362000F07EF9B3
:1025E000002000F06FF93A2000F078F9552000F053
:1025F00069F90A20FEF788FA212000F06FF9B2206D
:1026000000F06CF90C2000F05DF90C2000F05AF994
:10261000002000F057F9332000F054F9332000F087
:1026200051F9B32000F05AF9002000F04BF90F20C7
:1026300000F048F90F2000F045F9B72000F04EF9FE
:10264000352000F03FF9BB2000F048F9352000F0BC
:1026500039F9C02000F042F92C2000F033F9C220F3
:1026600000F03CF9012000F02DF9C32000F036F90C
:10267000132000F027F9C42000F030F9202000F0EA
:1026800021F9C62000F02AF91E2000F01BF9CA200B
:1026900000F024F90F2000F015F9C82000F01EF911
:1026A000082000F00FF9552000F018F9902000F0F4
:1026B00009F9D02000F012F9A42000F003F9A120BC
:1026C00000F000F9E02000F009F9D02000F0FAF85D
:1026D000002000F0F7F8062000F0F4F8092000F0E0
:1026E000F1F80B2000F0EEF82A2000F0EBF83C2087
:1026F00000F0E8F8552000F0E5F84B2000F0E2F893
:10270000082000F0DFF8162000F0DCF8142000F0BC
:10271000D9F8192000F0D6F8202000F0D3F8E120F5
:1027200000F0DCF8D02000F0CDF8002000F0CAF86E
:10273000062000F0C7F8092000F0C4F80B2000F0D4
:10274000C1F8292000F0BEF8362000F0BBF8542074
:1027500000F0B8F84B2000F0B5F80D2000F0B2F80A
:10276000162000F0AFF8142000F0ACF8212000F0A3
:10277000A9F8202000F0A6F8BDE81040292000F0BC
:10278000ADB800007CB5444C94F851000128FBD151
:102790002068016821F0400101602068016821F48F
:1027A000044101602068016841F400410160206833
:1027B000016821F0380101602068016841F01801CA
:1027C00001602068016841F0400101601820334D2C
:1027D000E0614FF48010A8610001A86145208DF8E8
:1027E00004006423012201A92B48FFF733FCA8153C
:1027F000A8612068016821F040010160206801683B
:1028000021F4804101602068016841F040010160CD
:1028100000220092216810466B468E68F60702D0AF
:102820000E7B1E54401C0228F7DBBFF34F8F20683D
:10283000016821F04001016020688168C907FCD06F
:10284000017B8DF8021081680906FCD41021A96172
:10285000016821F0400101602068016821F0380121
:102860000160206801680160016841F480410160F5
:102870002068016821F4044101602068016841F08A
:1028800040010160E2619DF8020000B101209DF865
:10289000011040EA41007CBDA0CA012000000240B6
:1028A00070B5074D04464FF48010A861200A00F06F
:1028B00025F8E0B200F022F81020A86170BD0000F9
:1028C0000000024010B5044C4FF48011A16100F0EB
:1028D00015F81020A06110BD0000024010B5064C94
:1028E0004FF48011A1610901A16100F007F8A01562
:1028F000A0611020A06110BD0000024001B564235A
:10290000012269460148FFF7A5FB08BDA0CA0120C6
:10291000094808B5016841F480010160006800229F
:1029200000F48000009011463B20FEF773FABDE8EA
:1029300008403B20FEF760BA303802402DE9F04FE6
:1029400087B014216846FDF79AFE444800250168C7
:1029500041F004010160016801F004010591016882
:1029600041F080010160016801F08001059101687A
:1029700041F001010160016801F001010591016868
:1029800041F002010160016801F002010591016856
:1029900041F0080101600068DFF8C4B000F00800F1
:1029A0004FF400540590002221465846FEF7BEF928
:1029B0004FF48876012231462A48FEF7B7F94FF4E2
:1029C0004048002241462848FEF7B0F9DFF89CA0B5
:1029D0004FF48079002249465046FEF7A7F90122BC
:1029E000570239465846FEF7A1F90094012469467A
:1029F00058460194CDE90245FEF798F8CDE9006408
:102A00000326CDE9024669461648FEF78FF8CDE960
:102A1000008469461448CDE90245FEF787F8CDE900
:102A2000009469465046CDE90245FEF77FF8CDE9AE
:102A30000074CDE9024669465846FEF777F801A9C9
:102A40000220009781E86100092004906946064849
:102A5000FEF76CF807B0BDE8F08F00003038024098
:102A6000000802400000024000040240000C024046
:102A70000F4810B50D4901604FF48271416000218B
:102A80008160C1604FF400720161C0E90512C1614B
:102A90000162416281620A21C162FFF71CFA0028CB
:102AA00003D0BDE81040FDF7BABE10BD00300140B4
:102AB000A0CA01200C4810B50A4901600B494160C9
:102AC000002181600C22C160C0E904128161C161F2
:102AD000FFF737FC002803D0BDE81040FDF79FBE8C
:102AE00010BD00000010014058CB012040420F00F3
:102AF000FEE7FEE70148FEF71BBB00009CCD01206E
:102B00002DE9F04103680D4604461E6C03EB4511A8
:102B1000D1F8080BD4F810E04FF400474FF0200C28
:102B200004F2C442BEF1010F09D0DFF898E0764507
:102B300039D1020432D500BFC1F8087B3FE0224BF7
:102B40005FEA007E04D59E4239D90004F4D436E011
:102B50005FEA806E02D5C1F808CB30E010F0280F94
:102B60002DD19E4201D90004E6D405EBC50004EB4B
:102B70008000D1F8101BD0F89832C1F31201591A15
:102B8000C0F89C1200F51F70ADB983691BB10269D2
:102B9000114401610FE0012120680AE080060AD596
:102BA000C1F808CB07E035B9D4F8940218B9002170
:102BB000184601F0A1FCE9B22046FEF791F9002089
:102BC000BDE8F0810A31544F0A30544F2DE9F84FD7
:102BD0000E4601EBC60100EB810481460568616D7C
:102BE000E06D3C34884202D90120BDE8F88F081A14
:102BF000E168814200D20846C01C870805EB4618F0
:102C00001BE000BFA0EB010AE068504500D28246FD
:102C10000AF10300870899F8100000901FFA8AF360
:102C2000F2B22846216901F081FF216901EB0A0017
:102C30002061216A01EB0A002062D8F8180980B2ED
:102C4000B84205D3216AA069814201D20028D9D1B6
:102C5000216AA069884208D806F00F010120884047
:102C6000D5F834188143C5F834180020BDE7704703
:102C700010B5806B01684A6822F003024A60416D1A
:102C800041F010014165012180F85110FFF722F950
:102C900010BD10B5806BFFF73FFB10BD38B5054682
:102CA000846BFEF749F8024628680068C00523D403
:102CB0002068416821F0200141602068416821F0CE
:102CC000020141606421204600F01AF818B1606DDD
:102CD00040F020006065A068002118B92068C26833
:102CE00080680090E186012084F85100606D18B181
:102CF0002046FFF7EFF838BD2046FFF7CBFA38BD86
:102D000038B504461248134B0068B0FBF3F04FF49B
:102D10007A73584300906068B0F5827F0DD10B46FE
:102D2000009200228021204600F016F870B1606DFC
:102D300040F020006065032038BD009830B1401E8F
:102D4000009020688068C0430006F6D5002038BD9A
:102D50001400002000366E012DE9F8431E4691460E
:102D600088460446089DFDF7E7FF401B351AFDF72E
:102D7000E3FF074625480068C0F3CB30684338E0DE
:102D8000701C37D0FDF7D8FFC01BA84203D215B185
:102D9000009860B32CE02068416821F0E0014160B8
:102DA0006068B0F5827F0BD1A068B0F5004F02D00B
:102DB000B0F5806F04D12068016821F04001016006
:102DC000A06AB0F5005F09D12068016821F40051C4
:102DD00001602068016841F400510160012084F81D
:102DE0005100002084F850000320BDE8F88300253E
:102DF000401E00902068816838EA010004D000215C
:102E00004945BDD10020F0E70121F9E71400002079
:102E100070470178407841EA00207047FDF792BF83
:102E200030B593B030216846FDF729FC14210CA879
:102E3000FDF725FC1D480025016841F08051016027
:102E4000006800F0805011901948016841F48041F9
:102E500001600068022400F480401190012000907D
:102E6000000401908001CDE9064004200890A820CC
:102E7000CDE9090407200B906846FEF775FE08B1FE
:102E800072B6FEE70CA90F2081E831004FF4A05084
:102E90000F904FF48050109005210CA8FEF774FDA0
:102EA000002801D072B6FEE713B030BD40380240B2
:102EB000007000400448016841F47001016002495B
:102EC000024880390860704788ED00E00000010882
:102ED00070B5044600680169E26821F4405111436D
:102EE00001612169A068E2690843616911430843EF
:102EF0002168CA6849F20C639A430243CA60206899
:102F00004169A26921F4407111434161314920684E
:102F1000884202D03049884202D1FEF7E5FD01E047
:102F2000FEF7D2FDE2690023192164253226B2F5AD
:102F3000004F626828D0A0FB0101930F9200FDF7BB
:102F40003FF90146B0FBF5F06FF01802504301EB7A
:102F5000800006EB0010B0FBF5F000F0F002B1FBD2
:102F6000F5F002EB0012B1FBF5F06FF018035843D7
:102F700001EB800006EB0010B0FBF5F000F00F0055
:102F800021681044886070BDA0FB010192185B416C
:102F9000FDF716F90146B0FBF5F00201B1FBF5F0C3
:102FA0006FF01803584301EB800006EBC000B0FB44
:102FB000F5F000F0F80002EB4002B1FBF5F05843E9
:102FC00001EB800006EBC000B0FBF5F000F007005D
:102FD000D6E7000000100140001401402DE9F04147
:102FE000984617460E460446069D27E0681C25D0E5
:102FF0002DB1FDF7A1FEA0EB0800A8421ED9206864
:103000000C3050E8001F21F4D07140E80012002A73
:10301000F5D12068143050E8001F21F0010140E88C
:103020000012002AF5D1202084F83D0084F83E00EB
:10303000002084F83C000320BDE8F081206800688F
:1030400036EA000004D00020B842CFD00020F3E7D9
:103050000120F9E710B5D0F8B8220AB152689047BC
:10306000002010BD134610B50A46002100F080FA7A
:10307000002010BD134610B50A46002100F017FBD2
:10308000002010BD10B50446802100F0F5FA20465E
:10309000BDE81040002100F0EFBA10B50323C0F8DE
:1030A0005821C0F89432C0F85C2113460A4600212A
:1030B00000F05EFA002010BD10B505210023C0F815
:1030C00094121A46194600F053FA002010BD10B5AC
:1030D00002238261C0F89432C26113460A4600217D
:1030E00000F0E5FA002010BD10B504210023C0F85F
:1030F00094121A46194600F0DAFA002010BD0000BA
:1031000010B50A46024903A000F0E4F8004810BDDB
:103110009CCB01206E65785F6C696E6B20636F6E6F
:1031200066696700122008800048704794010020FB
:1031300010B50A46024903A000F0CCF8004810BDC3
:103140009CCB01206E65785F6C696E6B20696E7434
:10315000657266616365000004200880004870475E
:103160009001002010B50A46024903A000F0B2F811
:10317000004810BD9CCB01204E65784C696E6B00F9
:1031800010B50A46024903A000F0A4F8004810BD9B
:103190009CCB01204E65784C696E6B2D53544D339A
:1031A0003246340010B51A2008800A480168001D14
:1031B0000468001D0068081809D008220649FFF7B6
:1031C0007FF90549042210312046FFF779F90248BA
:1031D000801E10BD107AFF1FAA010020F8B504461A
:1031E0000020ADF8000048880D46010A082968D281
:1031F000DFE801F0670409176767454ED4F8B41299
:10320000207C0A6819E0207C02260028D4F8B80245
:1032100005D0C16A684688470146467042E0816A27
:10322000F8E7C1B2062921D2DFE801F0030A101441
:10323000181CD4F8B402426805E06946904725E0BE
:10324000D4F8B4028268DAB3207CF6E7D4F8B4028A
:10325000C268F8E7D4F8B4020269F4E7D4F8B4021B
:103260004269F0E7D4F8B4028269ECE7D4F8B81206
:103270008B6B2BB3C1B26A462046984706E0207C90
:10328000F0B9D4F8B802416B68468847014609E0B6
:10329000207CA8B9D4F8B802016B6846884701467B
:1032A00007204870EA888AB1BDF8000040B1824228
:1032B00000D90246ADF800202046FFF708FFF8BD10
:1032C000FFE729462046FFF7DDFEF8E72046FFF737
:1032D0000BFFF4E770B5002300281ED0002504463C
:1032E00002E06D1CEDB2641C2678002EF9D1022498
:1032F00004EB450414801278CA545B1C0322CA54A0
:1033000000245B1C06E0CA545B1CDAB28C54521CCD
:10331000D3B2401C0278002AF5D170BD01004FF0F5
:10332000000004D0012901D0022901D003207047F8
:103330000120704730B4A0B1D0F8B84200230CB1DE
:10334000C0F8B832D0F8CC420CB1C0F8CC3209B1D8
:10335000C0F8B412012180F89C12027030BC00F059
:10336000B3B830BC0320704710B5D0F8C402FDF7E5
:10337000FAFDBDE81040FFF7D1BF10B5D0F8C40288
:10338000FDF7CBFDBDE81040FFF7C8BF70B516468E
:10339000044649B1D4F8B80242691AB194F89C02C3
:1033A000032842D0032070BDD4F89412002504F104
:1033B0001400022932D1D0E902318B4206D95A1ABF
:1033C000826031462046FFF755FE0FE0994214D146
:1033D0004068884211D3D4F8981288420DD2002256
:1033E00011462046FFF746FEC4F8985200231A46BD
:1033F0001946204600F0BCF810E0D4F8B802C168C5
:1034000029B194F89C02032801D1204688478021E5
:10341000204600F031F92046FFF74EFE94F8A00256
:10342000012806D184F8A05203E0204690470028E6
:10343000B9D1002070BD10B51346044649B1D4F887
:10344000B80282691AB194F89C02032824D00320A0
:1034500010BDD4F8941204F5AA70032920D1D0E944
:10346000021291420AD98A1A8260C068824200D34D
:10347000024619462046FFF7F5FD11E0D4F8B802E0
:10348000016929B194F89C02032801D1204688479C
:103490002046FFF729FE03E0204690470028D7D1B9
:1034A000002010BD0020704710B5012180F89C124B
:1034B000D0F8B82212B1526801799047002010BDAF
:1034C000D0F8C402FDF77DBD10B50178012929D1DE
:1034D00015490122C1F80805C0F8C4121348086054
:1034E000062048600020C8600861C1E90620086223
:1034F0004862C862086348630846FEF7D1F808B11D
:10350000FDF78DF94FF400710748FDF7B6FC8022F6
:1035100000210548FDF7B5FC4FF4BA7201210248BD
:10352000FDF7AFFC002010BD9CCD01200000044041
:103530000A0601F07F01D0F8C40201EBC10100EBE3
:10354000810002D590F83E00704790F87E027047E7
:10355000002070470020704710B51C461346D0F875
:10356000C4022246FDF736FDBDE81040FFF7D6BE87
:1035700010B5D0F8C402FDF75DFDBDE81040FFF7BF
:10358000CDBE70B50125044680F89C520020C4F8D9
:1035900094026060C4F8A402D4F8BC0228B1D4F844
:1035A000B80200214268204690470022402311467D
:1035B0002046FFF7D1FF4026A4F86451334600228D
:1035C00080212046C4F86061FFF7C6FFA584002073
:1035D000266270BD90F89C12042903D190F89D12C8
:1035E00080F89C120020704710B590F89C120329B7
:1035F00004D1D0F8B812C96901B18847002010BDC4
:1036000001740020704710B5D0F8C402FEF744F9E9
:10361000BDE81040FFF782BE70B5044600F2AA2054
:10362000054600F005FB0120C4F89402B4F8B0028E
:10363000C4F8980294F8AA0210F01F010AD00129D8
:103640000ED0022912D000F080012046BDE8704063
:1036500000F012B829462046BDE8704000F07ABB61
:1036600029462046BDE8704000F0A5BC294620460A
:10367000BDE8704000F0F9BB10B5D0F8C402FDF70A
:10368000FDFCBDE81040FFF749BE10B5D0F8C402FC
:10369000FEF741F9BDE81040FFF740BE90F89C12DC
:1036A00080F89D12042180F89C120020704710B50C
:1036B000D0F8C402FDF71CFDBDE81040FFF72EBE98
:1036C00070B50D460646D0F8BC424FF4C27215499B
:1036D00015A001F041FA012084F84400687801281F
:1036E00007D0022813D029463046FFF7CBFC002034
:1036F00070BD2868C4F846006868C4F84A00EA88C3
:1037000021463046FFF7C9FC00202064EFE7D4E9EA
:103710001C01C4E90001082221463046FFF7D7FC0E
:10372000E5E70000B650010825735B25645D3A208B
:10373000555342445F4E45585F4C494E4B5F436F73
:103740006E6669675F5265717565737420200D0A36
:103750000000000070B50C4605464FF4DE721149BA
:1037600011A001F0F9F9607820280ED1A088042872
:1037700002D0052809D106E0E28817494020402AF6
:103780000BD9024609E0608808B1002070BD1249DB
:10379000E28840319220922AF3D82846FFF797FC1E
:1037A000012070BDF050010825735B25645D3A204F
:1037B000555342445F4E45585F4C494E4B5F4375ED
:1037C00073746F6D44657669636552657175657371
:1037D0007420200D0A000000A0000020FFF7BABFEF
:1037E00010B504464FF4FE72044905A001F0B4F987
:1037F000D4F8BC0200210164084610BD265101081E
:1038000025735B25645D3A20555342445F4E45580D
:103810005F4C494E4B5F44617461496E20200D0A34
:103820000000000070B5D0F8BC4206460325E06DEC
:10383000401CE0653046FFF743FEA06D4FF4614148
:1038400000F5F070B0FBF1F201FB1200A06530B999
:103850004FF480710448FDF761FA01F0A3FB304694
:1038600000F0FCF8284670BD000C024010B504467C
:103870008121FFF782FD02212046FFF77EFD002017
:1038800010BD000070B50646D0F8BC4288B04FF4B9
:10389000A672184918A001F05FF904F1460568788E
:1038A000012821D1D4E90001C4E91C010020A06550
:1038B00004F17000FCF7B6FC034619A2202168460B
:1038C000FCF71AFD38B16B464FF4AC72094919A0E8
:1038D00001F042F905E04FF4AD7206491DA001F078
:1038E0003BF9304600F0BAF8FF20687008B00020BD
:1038F00070BD00009C50010825735B25645D3A2073
:10390000555342445F4E45585F4C494E4B5F4550BE
:10391000305F5278526561647920200D0A00000002
:1039200025592D256D2D25642025483A254D3A250C
:103930005300000025735B25645D3A20466F726D6D
:1039400061747465642074696D653A2025730A207A
:10395000200D0A0025735B25645D3A204661696C81
:10396000656420746F20666F726D61742074696D78
:10397000650A20200D0A00003221018000487047AE
:103980005800002010B5EE2905D000211180FFF766
:1039900079FB002010BD12201080014810BD0000EE
:1039A0008C0000202DE9F0410D46064603278021BA
:1039B0000120FCF76FFE04464FF48272114912A0F9
:1039C00001F0CAF84FF00008BCB105F56140C4E948
:1039D00014502B4640F20B120A4913A001F0BCF818
:1039E0004FF48672074916A0636D01F0B5F8C4F86C
:1039F00058800027C6F8BC4201E0C6F8BC823846B1
:103A0000BDE8F0816350010825735B25645D3A20B1
:103A1000555342445F4E45585F4C494E4B5F496E8B
:103A2000697420200D0A000025735B25645D3A202F
:103A30006772616D627566663A257020200D0A0016
:103A400025735B25645D3A206772616D62756666F9
:103A500068616C663A257020200D0A00D0F8BC120F
:103A600040230A6D896D02EB41020221FFF780BD00
:103A700010B540F23B12034903A001F06DF800209D
:103A800010BD00008A50010825735B25645D3A2053
:103A9000555342445F4E45585F4C494E4B5F534F20
:103AA0004620200D0A00000070B50C4605464FF474
:103AB00000411048FDF732F940F2DF120E490FA025
:103AC00001F04AF8207810F0600009D0202801D0D9
:103AD00040280DD121462846BDE8704000F056B878
:103AE00060780A2804D101220C492846FFF7EFFA32
:103AF000002070BD000402401251010825735B25AF
:103B0000645D3A20555342445F4E45585F4C494EE0
:103B10004B5F536574757020200D0A00540000201F
:103B200070B50546032640F21D120F490FA001F0A3
:103B300013F8D5F8BC42ACB14FF48066334602228C
:103B400081212846FFF708FD022233461146284608
:103B5000FFF702FD0020A06584F844002846FFF727
:103B60007DFF0026304670BD7650010825735B2529
:103B7000645D3A20555342445F4E45585F4C494E70
:103B80004B5F537461727420200D0A002DE9F041DF
:103B9000064608780D4600F01F07C0F3411440F2B6
:103BA000AB12174917A000F0D7FF012C04D1012F49
:103BB00002D1A888012805D029463046BDE8F04149
:103BC000FFF77EBD6A78D6F8BC12304600243AB1C1
:103BD000032A09D02946FFF755FA2046BDE8F081AF
:103BE000012081F86800F8E70C704C708C70CC7084
:103BF0000C71FF224A710622FFF769FAEDE7000017
:103C0000D350010825735B25645D3A205553424427
:103C10005F4E45585F4C494E4B5F56656E646F7200
:103C20005F5265717565737420200D0A00000000F5
:103C300070B5054611F8010B2870087868704C1CA7
:103C40002046FFF7E6F86880A41C2046FFF7E1F85D
:103C5000A880A01CFFF7DDF8E88070BD38B50446E9
:103C60000020ADF8000041B1C4F8B812896A684676
:103C70008847C4F8CC02002038BD032038BD024676
:103C80000320D2F8B832002B02D01B681046184728
:103C9000704700002DE9F0410F462C4E8978002531
:103CA00004463170012906D939462046FFF7EAF962
:103CB0000320BDE8F08194F89C0202280CD0032870
:103CC0001DD039462046FFF7DDF931782046FFF751
:103CD000C1F903252846ECE799B320466160FFF758
:103CE000CEFF050004D039462046FFF7CBF9F1E7B7
:103CF0002046FFF7F9F9032084F89C02EAE74FF029
:103D00000208C1B1606888421BD0C1B22046FFF7EB
:103D1000A1F9317820466160FFF7B1FF050010D0AE
:103D200039462046FFF7AEF921792046FFF792F990
:103D300084F89C82CEE784F89C8220466160FFF77D
:103D400089F92046FFF7D0F9C4E70000C20100203E
:103D5000FFF79BBC2DE9F0410A78002512F06002C4
:103D600008D0202A01D0402A72D1D0F8B822926817
:103D7000904732E04B78002201264FF002080A2BD0
:103D800066D2DFE803F0405D6557650805652C28BD
:103D9000FFF724FA5EE004468888D0B9C888C0B925
:103DA0004888802815D200F07F0794F89C020328E9
:103DB0000FD084F89E7239462046FFF724FC204637
:103DC000FFF792F917B184F89C8243E084F89C6273
:103DD00040E020463CE0FFF75DFF05463AE0CB8837
:103DE000012B35D190F89C32012B04D0022B02D04C
:103DF000032B2DD104E08260012200F1080116E0BE
:103E00000122011D13E090F89C32012B03D0022BFC
:103E100001D0032B1CD1CB88022B19D1C260D0F862
:103E2000A41209B1C0F80C80022200F10C01FFF7C6
:103E30004EF90FE0498801290CD1C0F8A46211E0C5
:103E400090F89C32012B08D0022B06D0032B04D013
:103E5000FFF718F92846BDE8F08149880129F9D112
:103E6000C0F8A422FFF740F9F4E72DE9F0410D4630
:103E7000044628780027097910F060000BD020282C
:103E800001D0402873D1D4F8B80229468268204670
:103E9000904707468CE06878D8B3012822D00328E1
:103EA00065D194F89C02022802D003287CD10BE053
:103EB000002979D0802977D02046FFF7DDFB8021CB
:103EC0002046FFF7D9FB73E0688838B931B1802903
:103ED00004D0E88810B92046FFF7CEFB2046FFF754
:103EE00003F965E094F89C020228E1D003285BD135
:103EF0006888D8BB480602D02046FFF735FA20462E
:103F0000FFF7F2F8D4F8B8022946826820469047B5
:103F10004EE0FFE794F89C020026022802D0032816
:103F200042D111E009B180293ED1080601F07F009D
:103F300000EB800004EB800101D5143101E001F5B4
:103F4000AA7102220E602BE0080601F00F0000EBC0
:103F5000800004EB80000BD5808C40B101F07F0025
:103F600000EB800004EB800514350CE020E01BE042
:103F7000B0F86401C0B101F07F0000EB800004EBF9
:103F8000800505F5AA7541B1802906D02046FFF7C6
:103F9000CFFA10B10120286000E02E6002222946ED
:103FA0002046FFF794F803E029462046FFF76AF819
:103FB0003846BDE8F08170B50646087800240D4605
:103FC00010F0600003D0202801D0402817D196F8C7
:103FD0009C02012803D0022801D003280FD12879A0
:103FE00001280CD8D6F8B8028268304690470446BB
:103FF000E888204306D13046FFF776F802E03046E5
:10400000FFF740F8204670BD70B50A78012302F032
:104010000F054E78AB401B4CD0F81C58012E17D022
:1040200045EA0343C0F81C3800EB4210D0F8002BDF
:1040300012040BD4D0F8002B8B890979C3F30A033F
:104040001A4344EA81410A43C0F8002B002070BDA6
:104050009BB21D43C0F81C5800EB4210D0F8003949
:104060001B04F3D4D0F800398D890979C5F30A050A
:1040700089042B4341EA82510B432343C0F80039A2
:10408000E4E7000000800010D0F800196FF30A0187
:10409000C0F80019D0F8041841F48071C0F8041871
:1040A0000020704770B5044606990A9E049D0D983D
:1040B000012916D0E06840F04000E060204600F0A2
:1040C0002BF8A16B1EB321F48031A163012D07D120
:1040D000A16841F00601A160A16841F02001A16042
:1040E00070BDA16B21F48031A163E168094A1140E0
:1040F000E160E16821F44011E160012803D1E0684A
:1041000040F48010E060204600F006F8DEE741F45D
:104110008031DAE7BFFFBDFF08B500220D490092EC
:10412000009B5B1C00938B420CD80369002BF7DAD1
:104130000092026942F001020261009A521C009250
:104140008A4201D9032008BD0269D207F5D10020B7
:1041500008BD0000400D030030B54C780A780123FB
:1041600000EB4212012C2CD0D2F8004B002C0BDAC1
:10417000D2F8004B44F00064C2F8004BD2F8004B78
:1041800044F08044C2F8004BD0F83C580C7804F05E
:104190000F0403FA04F425EA0444C0F83C48D0F8BC
:1041A0001C48097801F00F018B4024EA0341C0F854
:1041B0001C18D2F8000B19490840C2F8000B002067
:1041C00030BDD2F80049002C0BDAD2F8004944F097
:1041D0000064C2F80049D2F8004944F08044C2F8B3
:1041E0000049D0F83C480D7805F00F0503FA05F5B5
:1041F000ADB2AC43C0F83C48D0F81C48097801F097
:104200000F018B4099B28C43C0F81C48D2F80009CA
:1042100003490840C2F80009D1E700000078F3EF35
:10422000007833ECD0F8001E21F00301C0F8001E26
:10423000D0F8041821F00201C0F8041800207047DB
:10424000D0F8001E21F00301C0F8001ED0F80418B9
:1042500041F00201C0F80418002070472DE9F04F2A
:1042600000250E460446DDF82CC0DDF824B0109F72
:104270002846294604EB8002C2F80411401C0F288E
:10428000F8D32046C7B1806B20F40012A263A06B64
:1042900040F40022A26308468846C4F8000ED4F811
:1042A00000182046C4F80018BCF1010F16D0D0F851
:1042B000001841F0030116E0D0F8040840F00202B3
:1042C000C4F80428A06B40F40012A263A06B20F491
:1042D0000022A263A06B20F48022DBE7D0F8001854
:1042E0000BB141F00101C0F80018102100F0EEFA06
:1042F00000B10125204600F0CBFA00B1012540466F
:10430000C4F81088C4F81488C4F81C8800214FF041
:1043100000694FF0904A4FF67F3314E004EB4112EE
:10432000D2F800C9BCF1000F06DA11B1C2F800A939
:1043300004E0C4F8009901E0C2F80009C2F81009CD
:10434000C2F80839491C8E42E8D8002115E000BFA8
:1043500004EB4112D2F800CBBCF1000F06DA11B128
:10436000C2F800AB04E0C4F8009B01E0C2F8000B07
:10437000C2F8100BC2F8083B491C8E42E8D8D4F8AA
:10438000101821F48072C4F81028A0616FF08040EA
:104390006061BBF1000F03D1A06940F01000A06183
:1043A000A06909490843A0610C9818B1A06940F0C0
:1043B0000800A061012F03D1A06904490843A0614E
:1043C0002846BDE8F08F000000383C800400004023
:1043D000816821F0010181600020704770B50D787F
:1043E0004E78444CEBB200EB4313012E21D0D3F8AE
:1043F000100B6FF31200C3F8100BD3F8100B204012
:10440000C3F8100B886908B1C8688861C868C861BA
:10441000D3F8100B40F40020C3F8100BD3F8100BA6
:10442000CC69C4F312042043C3F8100B012A55D001
:1044300058E08E69002ED3F8106932D06FF312065F
:10444000C3F81069D3F810692640C3F810698E6963
:10445000CC68A64200D98C61D3F8104944F40024FA
:10446000C3F81049D3F810498E69C6F312063443D5
:10447000C3F81049012A22D000EB4512D2F80039C6
:1044800043F00443C2F800398A6932B3D0F83428C3
:10449000097801F00F03012199400A43C0F834283C
:1044A00026E02640C3F81069D3F8104944F40024EC
:1044B000C3F81049D3F810496FF31204D8E74969DB
:1044C00019B100EB4512C2F8141900EB4510D0F8F1
:1044D000001941F00441C0F8001909E0086908B169
:1044E000C3F8140BD3F8000B40F00440C3F8000BE2
:1044F000002070BDFFFF07E010B5036C134CA34212
:1045000003D9D0F8003B002B1EDB0023C0F8103B82
:10451000D0F8103B43F40023C0F8103BD0F8103B18
:1045200043F01803C0F8103BD0F8103B43F0C043F1
:10453000C0F8103B012907D1C0F8142BD0F8001B9C
:1045400041F08021C0F8001B002010BD0A30544FFC
:104550004A780B78012A00EB43100BD0D0F8002BDF
:1045600022F40012C0F8002B0979032914D0022983
:1045700012D017E0D0F8002922F40012C0F8002968
:104580000979032901D002290CD1D0F8001941F092
:104590008051C0F8001905E0D0F8001B41F08051AF
:1045A000C0F8001B002070470A784B78D1B200EBAE
:1045B0004110012B12D0D0F8001B002906DB2AB1D4
:1045C000D0F8001B21F08041C0F8001BD0F8001B80
:1045D00041F40011C0F8001B00207047D0F800190A
:1045E000002906DB2AB1D0F8001921F08041C0F87B
:1045F0000019D0F8001941F40011C0F80019EBE7D8
:10460000F8B50C784F78764DE3B26FF0604600EB6A
:104610004313012F27D0D3F8104B6FF31204C3F8C4
:10462000104BD3F8104B2C40C3F8104B8D69002D64
:1046300075D0CC6825446D1EB5FBF4F5ADB26C4366
:10464000CC61D3F8104B06EAC5452C43C3F8104B98
:10465000D3F8104BCD69C5F312052C43C3F8104BAA
:10466000012A71D0A4E08F691FB3D3F810796FF3DA
:104670001207C3F81079D3F810792F40C3F81079D6
:104680008F69CD682F447F1EB7FBF5F506EAC54557
:10469000D3F810693543C3F81059D3F810598E690F
:1046A000C6F312063543C3F810590D79012D10D009
:1046B0001BE0D3F810692E40C3F81069D3F81059E5
:1046C00045F40025C3F81059D3F810596FF31205BB
:1046D00009E0D3F8105925F0C045C3F81059D3F8B4
:1046E000105945F00055C3F81059012A18D000EBB5
:1046F0004413D3F8004944F00444C3F800490C794A
:10470000012C2FD08A6962B3D0F83428097801F0DF
:104710000F03012199400A43C0F834285EE036E0D7
:104720004A691AB100EB4413C3F814290979012925
:104730000FD1D0F80818C90500EB4411D1F80029B1
:1047400003D442F0005202E02EE042F08052C1F861
:10475000002900EB4410D0F8001941F00441C0F8E2
:1047600000193BE0D0F80848E405D3F8004902D42A
:1047700044F0005401E044F08054C3F80049009232
:104780000A8B93B20A78096900F0D0F926E0D3F8D1
:10479000104BCD68C5F312052C43C3F8104BD3F86A
:1047A000104B44F4002459E70A690AB1C3F8142BEA
:1047B000097901290CD1D0F80808C005D3F8000BFD
:1047C00002D440F0005001E040F08050C3F8000BEC
:1047D000D3F8000B40F00440C3F8000B0020F8BDF4
:1047E000FFFF07E038B50022009213464D780A78A3
:1047F00042F2107400EB4212012D19D0D2F8005B86
:10480000002D3CDAD2F8005B45F00065C2F8005B91
:104810000A7800EB4212D2F8005B45F08045C2F8FE
:10482000005B009A521C0092A24221D9012326E08B
:10483000D2F80059002D22DAD2F8005945F000656F
:10484000C2F800590A7800EB4212D2F8005945F03C
:104850008045C2F80059009A521C0092A242E5D845
:104860000A7800EB4212D2F80029002AF3DB06E0B6
:104870000A7800EB4212D2F8002B002AD1DB18464E
:1048800038BD816841F0010181600020704700005F
:1048900008B500220C490092009B5B1C00938B42E0
:1048A0000AD80369002BF7DA009210220261009AFD
:1048B000521C00928A4201D9032008BD0269D20627
:1048C000F5D4002008BD0000400D030018B50023FA
:1048D0000D4A0093009C641C009494420CD8046917
:1048E000002CF7DA0093202343EA8111016100993B
:1048F000491C0091914201D9032018BD0169890624
:10490000F5D4002018BD0000400D0300D0F80808C1
:1049100010F0060004D0022803D0062801D00F2092
:10492000704702207047406900F001007047D0F8DE
:104930001818D0F81C08084080B27047D0F8181832
:10494000D0F81C080840000C704710B5D0F810389B
:10495000D0F8342801F00F0400EB4110E24002F0DF
:104960000102D0F8080943EAC212104010BD00EB62
:104970004111D1F8081BD0F814080840704741696C
:1049800080690840704730B503460846940802F035
:104990000301002203F5805303E01D6840F8045B27
:1049A000521CA242F9D300290BD01C680022D5006A
:1049B00024FA05F3491E521C090400F8013B090CB6
:1049C000F5D130BD70B50446C068002520F0C04068
:1049D000E060012901D079B120E0E06840F00050AA
:1049E000E0600120FCF790F860696D1C10F0010F89
:1049F00010D1322DF5D30DE0E06840F08040E0604A
:104A00000120FCF781F860696D1C10F0010F01D0E6
:104A1000322DF5D3322D01D0002070BD012070BDA4
:104A2000D0F8002822F4FE62C0F80028D0F8002850
:104A30004FF4FE6303EA01110A43C0F80028002086
:104A400070470000022A3ED1264A274B0A449A4268
:104A500001D20F2138E0254A254B0A449A4201D25F
:104A60000E2131E0234A244B0A449A4201D20D21FF
:104A70002AE0224A224B0A449A4201D20C2123E026
:104A8000204A214B0A449A4201D20B211CE01F4AC2
:104A90001F4B0A449A4201D20A2115E01D4A1E4BBF
:104AA0000A449A420FD31D4A1D4B0A449A4201D22E
:104AB000082109E01B4A11441B4A914201D20721F7
:104AC00002E0062100E00921C26822F47052C260AF
:104AD000C2684FF4705303EA81210A43C260002088
:104AE00070470000405327FF00350C00401E1BFF9D
:104AF00040420F0000DC0BFF804F1200808CF9FE5B
:104B000020D6130060B6E5FE60E3160000D3CEFEAB
:104B100040771B00C05BB3FEC091210000CA91FE2C
:104B200020753800E05459FEE09C410010B5029C0D
:104B300074B9DB1C9C0800EB0230002300F58050A8
:104B400004E000BF51F8042B02605B1CA342F9D3C0
:104B5000002010BDFEE700000FB4054B10B503A9FF
:104B6000044A029800F028F810BC5DF814FB00001D
:104B7000794E0108C40100200907090E002804DB52
:104B800000F1E02080F80014704700F00F0000F101
:104B9000E02080F8141D704702E008C8121F08C109
:104BA000002AFAD170477047002001E001C1121FAE
:104BB000002AFBD1704700002DE9FF4F8DB09B46C6
:104BC0000F460446002606E025280BD05A460F99CA
:104BD0009047641C761C20780028F5D111B030462F
:104BE000BDE8F08F0025A8460122984900E0054362
:104BF00014F8013F203B02FA03F00842F7D1207875
:104C00002E2817D114F8010F45F004052A280ED0DC
:104C10006FF02F022078A0F1300109290AD808EBA3
:104C2000880102EB410100EB0108641CF2E757F830
:104C3000048B641C20786C280DD004DC4C2812D026
:104C40006A2811D104E074280DD07A280CD10AE02A
:104C500045F4001507E0617845F48015814202D1E2
:104C6000641C05F58015641C2278692A45D008DC8F
:104C7000002AB3D0582A69D0632A10D0642A08D1F8
:104C80003BE0702A67D0732A13D0752A5CD0782A4B
:104C90005CD010465A460F999047761CD3E017F81F
:104CA000040B8DF8000000208DF80100E94601207A
:104CB00003E057F8049B4FF0FF3069074FF0000501
:104CC00001D40AE06D1C45450DDA8542FADB19F87E
:104CD00005100029F6D106E06D1C8542FCDB19F8B1
:104CE00005100029F8D12E4404E019F8010B5A46AA
:104CF0000F9990476D1EF8D2A5E00A200021CDE95A
:104D00000801C5F3025002280DD001CFC117031EC0
:104D100071F100030DDA4FF0000CD0EB0C006CEBDE
:104D200001012D2308E0FF1D27F00707F7E8020126
:104D3000EDE72B0504D52B238DF8283001233BE02C
:104D4000EB0739D02023F7E70A2000E010200021EC
:104D5000CDE9080107E01020002145F00405CDE968
:104D600008014FF00808C5F3025002280FD001CF08
:104D700000214FF0000A2B071FD5702A0DD0DDE966
:104D800008C38CF0100C5CEA030C0CD015E0FF1D7E
:104D900027F00707F7E80201EBE740228DF828200B
:104DA0004FF0010A0BE050EA010306D030238DF8E2
:104DB00028308DF8292002239A46582A04D024A2AC
:104DC0000DF120090B9209E026A2F9E7DDE908239D
:104DD000FBF7F6F90B9B9B5C09F8013D50EA0102D9
:104DE000F4D1ADEB090020300890680701D44FF0F2
:104DF00001080899884502DDA8EB010000E00020C9
:104E00008046002506E00AA85A46405D0F99904763
:104E10006D1C761C5545F6DB04E030205A460F9990
:104E20009047761CB8F10001A8F10108F5DC05E017
:104E300019F8010B5A460F999047761C0899481E9D
:104E400008900029F4DC641CC5E600000928010074
:104E500030313233343536373839616263646566F0
:104E600000000000303132333435363738394142B2
:104E7000434445460000000013B54FF0FF330122C4
:104E800069460248FDF7C2FA00981CBD58CB0120C4
:104E9000FBF760FFFDF7C4FFFDF750FDFDF70AFECD
:104EA000FDF736FDFDF7E4FD7C22174917A0FFF75B
:104EB00053FE01221A491B48FEF73CFA1A491948C9
:104EC000FEF7CCFE19491748FEF76CFD1548FEF7B2
:104ED0003FFFFDF775FB164C164F4FF48045A615A6
:104EE0004FF4004829462046FBF718FF01223146BF
:104EF0003846FBF71BFF012241462046FBF716FF11
:104F00003220FBF701FEEDE71850010825735B2501
:104F1000645D3A2068656C6C6F20200D0A0000000B
:104F200074010020D001002018000020A0040020FF
:104F300000040240000C0240F0B50B30154D20F08B
:104F400007010024144A0FE003688B420BD38B4205
:104F500005D95E1A43184768C3E9006700E0436853
:104F6000136002C004E0021D10680028ECD1204646
:104F7000002802D1286808B10020F0BD064A074881
:104F80001060074A121A22F00702C0E9002401202B
:104F90002860D7E7CC010020C8010020DCD2012026
:104FA000D8DA012008B5FBF7C7FE034650220D49A9
:104FB0000DA0FFF7D1FD00BFFDF7E4FBC828FBD330
:104FC0000E48F023002100901A460846FDF7B2FA79
:104FD000FBF7B2FE03465722024909A0FFF7BCFDCA
:104FE000002008BD1D50010825735B25645D3A2033
:104FF000776169743A256420200D0A00A00400201E
:1050000025735B25645D3A2073746172743A25647C
:1050100020200D0A000000006D61696E0072656657
:10502000726173685F73637265656E0048414C5FBF
:105030005350495F547843706C7443616C6C626187
:10504000636B00000610160006101600000000003A
:105050000000000102030406070809000000000127
:10506000020304555342445F4E45585F4C494E4B32
:105070005F496E697400555342445F4E45585F4C1A
:10508000494E4B5F537461727400555342445F4EF6
:1050900045585F4C494E4B5F534F46005553424471
:1050A0005F4E45585F4C494E4B5F4550305F5278DC
:1050B000526561647900555342445F4E45585F4CD8
:1050C000494E4B5F436F6E6669675F5265717565E8
:1050D000737400555342445F4E45585F4C494E4BE4
:1050E0005F56656E646F725F5265717565737400AB
:1050F000555342445F4E45585F4C494E4B5F437594
:1051000073746F6D44657669636552657175657317
:105110007400555342445F4E45585F4C494E4B5FB7
:10512000536574757000555342445F4E45585F4C4B
:10513000494E4B5F44617461496E00555342445F70
:105140004E45585F4C494E4B5F54785265616479C7
:1051500000555342445F4E45585F4C494E4B5F5497
:1051600072616E736D6974001F1D1F1E1F1E1F1F4D
:105170001E1F1E1F4A616E7561727900466562725C
:1051800075617279004D6172636800417072696C7B
:10519000004D6179004A756E65004A756C79004171
:1051A00075677573740053657074656D6265720020
:1051B0004F63746F626572004E6F76656D626572E3
:1051C00000446563656D626572000000EC51010882
:1051D00000000020D001000014070108045301085A
:1051E000D001002008E90100A84B010881320182AA
:1051F000101324F4400D213B01086D380108A93A31
:1052000001081A850C1EE137010825085A7114415E
:105210006D7939010804392859081409023213023A
:105220000125804B09041502FFFFFF1507058102C8
:105230001A04072A02071B0904722009FE0101E073
:1052400009210BFF1B081A0F1412034D12531246AB
:10525000125412311A300232203A409D12047A025E
:10526000A9071057494E5553420A1501183A921D85
:105270001A05E032883207122A1244126512761299
:10528000691A63081249126E1A7408127212663A89
:10529000611212471A55161244327332501A7B1695
:1052A00012311235126212341A339612381A2D0640
:1052B00012341A640E1A2D1A1A31341A360A1A6266
:1052C000101A65441A2D0E1A30301A371A12383A4D
:1052D000391E3A343C727D1E2531010859041A6585
:1052E000041A81041AA5041A01041A31043F0403A4
:1052F00009041201EF1E40501D6F60BD240203011E
:0453000003261A0363
:040000050801018964
:00000001FF
