:020000040800F2
:10000000F04901209D010008057C00080B4F000805
:10001000995900088911000861BD0008000000001E
:10002000000000000000000000000000D19A00085D
:10003000A11200080000000005960008159B0008AA
:10004000B7010008B7010008B7010008B7010008B0
:10005000B7010008B7010008B7010008B7010008A0
:10006000B7010008B7010008B7010008A111000896
:10007000B7010008B7010008B7010008B701000880
:10008000B7010008B7010008B7010008B701000870
:10009000B7010008B7010008B7010008B701000860
:1000A000B7010008B7010008B7010008B701000850
:1000B000B7010008B99B0008B7010008B7010008A4
:1000C000B7010008B7010008B7010008B701000830
:1000D000B7010008B7010008B7010008B701000820
:1000E000B7010008B7010008B7010008B701000810
:1000F000B7010008B7010008B7010008B701000800
:10010000B7010008B7010008B701000825990008E9
:10011000B7010008B7010008B7010008B7010008DF
:10012000B7010008B7010008B7010008AD110008C9
:10013000B7010008B7010008B7010008B7010008BF
:10014000B7010008B7010008B7010008B7010008AF
:10015000B7010008B7010008B7010008B70100089F
:10016000B7010008B7010008B7010008B70100088F
:10017000B70100088D920008B701000800000000D8
:10018000B7010008B7010008DFF80CD000F02AFE24
:100190000048004729E20008F0490120064880474E
:1001A00006480047FEE7FEE7FEE7FEE7FEE7FEE75C
:1001B000FEE7FEE7FEE7FEE7A99B000889010008CD
:1001C0002DE9F05F0546002092469B46884606468C
:1001D000814640241BE0284641464746224600F01F
:1001E000CAFC53465A46C01A914110D311461846CC
:1001F000224600F0B1FC2D1A67EB01084F4622465B
:100200000120002100F0A8FC17EB00094E41201E40
:10021000A4F10104DFDC484631462A464346BDE8E6
:10022000F09F00000649074A0868504343F239022C
:10023000104408604008704701490860704700009A
:100240002C0300206D4EC641014610B509683C22C2
:10025000B1FBF2F302FB1313B1FBF2F11D48036093
:10026000B1FBF2F302FB1313B1FBF2F1182243606E
:10027000B1FBF2F302FB1313B1FBF2F183600A1D31
:100280000723B2FBF3F403FB142282618A0040F2DD
:10029000B55102F66C32B2FBF1F344334361B2FB69
:1002A000F1F301FB13218908C1613B2903D3027DCE
:1002B000920700D0491C0022074C13460261E25C01
:1002C0008A4203D8891A5B1C0361F8E7491CC160A4
:1002D00010BD0000C03D0120E85B010870B5054677
:1002E00001B90721541A241DB4F5B67F09DD286829
:1002F00000F036F9A04204DC2868401C2860012088
:1003000070BD002C05DA2868401E286000F028F92E
:100310000444072094FBF0F0401C70BD2DE9F04F21
:1003200089B01D468A468046002401AF4FF0070B76
:100330000192079057F8241011F8010B47F8241088
:1003400048B125280DD0BAF1010F06D908F8010BE4
:10035000AAF1010A5CE0641E5AE0002009B0BDE881
:10036000F08F11F8010B47F824100028F3D0022673
:100370004FF030095A284BD020DC4D2873D014DCC4
:10038000442871D008DC2528DDD041282AD0422815
:100390002ED043283CD130E0462847D0472857D0BC
:1003A000482862D0492833D161E0523808282FD23A
:1003B000DFE800F0787AA6838A97A6A86138192822
:1003C00026D2DFE800F00D1318202E253513255C0A
:1003D000252560642566256D257375258B9BA000FA
:1003E0006AA000E070A0A9690091B4E07DA000E0DF
:1003F00088482969F8E788A007E06969642091FBCB
:10040000F0F0133082E0E86880E0641C47F82400D4
:10041000002C8FDA002088F800000799A8EB010073
:100420009CE7E8684FF02009009070E07EA0ECE7C0
:10043000686900F26C700090D5E906126846FFF713
:100440004DFF0099642091FBF0F200FB12105DE07B
:100450006869042600F26C700090D5E906126846BF
:10046000FFF73CFF53E010E048E0A8684EE0A868C2
:100470000C21173090FBF1F201FB120001E0E8695A
:100480000326401C42E02869FBE768683EE069A05B
:10049000BBE7A8680C2801DA67A0B6E767A0B4E755
:1004A00067A0B2E769A0B0E728682FE069A0ACE7D1
:1004B000A869012608BB072028E0D5E90610401AE4
:1004C000C01D90FBFBF021E0686900F26C700090A9
:1004D000D5E906126846FFF701FF17E00126A86973
:1004E00014E0A9695846891D91FBF0F20BFB12112B
:1004F000EA69511AC91D91FBFBF007E056A084E799
:1005000058A082E70426686900F26C700090002110
:100510008DF8181006A80A2113E0009A92FBF1F357
:1005200001FB1322303200F8012D009A92FBF1F208
:10053000009232B901E000F8019D321EA6F10106D9
:10054000F9DC321EA6F10106E7DC5EE710F8011BBC
:100550000029FBD100994A1E00920029F6DC54E7DD
:1005600081070CD1642190FBF1F201FB120151B91A
:100570004FF4C87190FBF1F201FB120018B100209A
:1005800000F26D1070470120FAE7000053756E000D
:100590004D6F6E00547565005765640054687500B2
:1005A000467269005361740053756E646179004D41
:1005B0006F6E646179005475657364617900576585
:1005C000646E6573646179005468757273646179EF
:1005D000004672696461790053617475726461796F
:1005E000000000004A616E00466562004D617200C5
:1005F000417072004D6179004A756E004A756C0059
:1006000041756700536570004F6374004E6F76004C
:1006100044656300F45B010825612025622025659F
:10062000202554202559000025592D256D2D2564A0
:10063000000000000A000000414D0000504D000085
:1006400025493A254D3A25532025700025483A255D
:100650004D00000009000000256D2F25642F25792D
:100660000000000025483A254D3A255300000000BF
:1006700040EA01039B0703D009E008C9121F08C024
:10068000042AFAD203E011F8013B00F8013B521EA4
:10069000F9D27047D2B201E000F8012B491EFBD21B
:1006A00070470022F6E710B513460A46044619467D
:1006B000FFF7F0FF204610BD421C10F8011B002977
:1006C000FBD1801A704710B5484304460DF076FE02
:1006D000002805D00021002C02D0641E0155FAE745
:1006E00010BD2DE9FE4F804681EA0300C00F0C4685
:1006F000009021F0004123F00045B8EB0200A94131
:1007000005D24046214690461C460B46024623F041
:100710000040104347D0270DC7F30A00C3F30A5126
:100720000290401A019040286BDAC3F3130040F4A2
:10073000801B0098924620B10023D2EB030A63EBA2
:100740000B0B01985946C0F14002504600F004FAE4
:1007500006460D4650465946019A00F01CFA10EB29
:1007600008006141002487EA115284EAE7731A43C2
:1007700040D0009A62B3019A012A4FEA075215DC71
:10078000001B61EB02014FF0004202EA0752CDE983
:100790000042001C41F5801132462B4600F053FA0E
:1007A00003B0BDE8F08F40462146F9E7001B61EB3E
:1007B0000201001C41F5801300185B412018A2F5CE
:1007C000001747EB030140EAD570B6196D4111E0FF
:1007D0006D084FEA360645EAC0754FEA0752001B1E
:1007E00061EB0201001C41F5801149084FEA30001D
:1007F0000019514132462B4603B0BDE8F04F00F0DE
:1008000013BA0098012240000023D0EB020263EBF0
:10081000E073009821464FEAE074B8EB000061EB0A
:100820000401E9E783F000435BE781F0004158E70A
:100830002DE9FE4F81EA030404F0004421F0004159
:1008400000944FF0000B23F0004350EA01045ED007
:1008500052EA03045BD0C3F30A54C1F30A552C4493
:10086000A4F2F3340194A0FB0254C1F3130141F448
:100870008011C3F3130343F4801301FB024400FB14
:10088000034E840A970A44EA815447EA8357A4FB3B
:10089000076802958D0A05FB07854FEA932C04FB38
:1008A0000C542705029D4FEA065847EA1637B5EB68
:1008B00008056EEB070C870E920E47EA811742EA95
:1008C0008312A7FB0201B6EB0B0164EB00042B0DB6
:1008D00043EA0C335E1844EB1C50DA465146E7FB02
:1008E0000201C5F313044FEA0B3343EA14534FEAF2
:1008F0000432019C43EA0603A4F10C040294009C18
:10090000CDE900B400F09FF903B0BDE8F08F0020FE
:100910000146F9E72DE9F04D81EA030404F0004BAC
:1009200021F0004514464FF0000A23F0004150EA40
:10093000050220D054EA01021DD0C5F30A57024631
:10094000C5F31303C1F31300C1F30A5640F4801535
:1009500043F48013A7EB0608101BD64608F2FD38B7
:1009600073EB050002D308F1010801E092185B4126
:10097000B8F1000F03DA00200146BDE8F08D002039
:100980004FF48011064684460EE0171B73EB0507F3
:1009900005D3121B63EB050306434CEA010C49081F
:1009A0004FEA300092185B4150EA0107EDD152EA5C
:1009B000030012D082EA040083EA0501084305D04F
:1009C000101BAB4106D20122002306E000224FF0AB
:1009D000004302E06FF0010253101AEB06004CEBEB
:1009E000085110EB0A0041EB0B01BDE8F04D00F09F
:1009F0001BB90EB5C10F80EAE0700844CA07002198
:100A000040F233438DE80E000A460B4600F01BF916
:100A100003B000BD0EB540F2334102910021CDE993
:100A200000110A460B4600F00EF903B000BD70B588
:100A3000C1F30A5201F000450024C1F3130140F252
:100A4000FF3341F480119A4201DA002070BD40F278
:100A500033439A42A2F2334203DC524200F08BF855
:100A600000E090402C43F1D0404270BDC1F30A52E7
:100A700010B5C1F3130140F2FF3341F480119A42E3
:100A800001DA002010BD40F233439A42A2F2334211
:100A900003DC524200F06FF810BD904010BD00F032
:100AA000004230F000400AD0C10D01F56071C0F382
:100AB000160042EA0151C208400711437047002066
:100AC0000146704730B5041E71F1000404DB4FF09D
:100AD0000044404264EB0101141E73F1000405DB85
:100AE0001C464FF00043524263EB0403994208BF97
:100AF000904230BD01F0004330B421F0004150EA93
:100B0000010206D00A0DA2F56072C1F31301002A9A
:100B100002DC30BC00207047440F44EAC104C1002D
:100B2000E01830BC00EBC25000F047B830B50B46BF
:100B3000014600202022012409E021FA02F59D420D
:100B400005D303FA02F5491B04FA02F52844151EE1
:100B5000A2F10102F1DC30BD202A04DB203A00FAC8
:100B600002F1002070479140C2F1200320FA03F304
:100B7000194390407047202A04DB203A21FA02F002
:100B80000021704721FA02F3D040C2F120029140C7
:100B9000084319467047202A06DBCB17203A41FA52
:100BA00002F043EAE07306E041FA02F3D040C2F1FA
:100BB000200291400843194670470029A8BF70479A
:100BC000401C490008BF20F00100704710B4B0FA83
:100BD00080FC00FA0CF050EA010404BF10BC70471E
:100BE00049B1CCF1200421FA04F411FA0CF118BF38
:100BF000012121430843A3EB0C01CB1D4FEA006107
:100C00004FEA102042BF002010BC704700EBC350D9
:100C100010440029A4BF10BC7047401C490008BF05
:100C200020F0010010BC704710B5141E73F10004D1
:100C300008DA401C41F1000192185B411A4301D1CE
:100C400020F0010010BD2DE9F04D92469B4611B1F8
:100C5000B1FA81F202E0B0FA80F220329046FFF75A
:100C60007BFF04460F4640EA0A0041EA0B01534667
:100C70005A46084313D0114653EA010019D0C8F16F
:100C800040025046FFF777FF05460E46504659464C
:100C90004246FFF761FF084305D0012004E02046EB
:100CA0003946BDE8F08D0020054346EAE0762C4346
:100CB00037430A986305E40AA0EB08000022FD0A06
:100CC00044EA47540A3002D500200146E9E701050D
:100CD00010196941DDE9084500196941BDE8F04D89
:100CE000A2E770B521F0004303430CD0C1F30A55CD
:100CF0000024D5EB040564EB0403D617AD1AB34109
:100D000002DB0020014670BD201841EB025170BD8E
:100D10002DE9F04D00231A461B1A8A4103DB0020FF
:100D20000146BDE8F08DC1F30A52C1F3130141F44D
:100D300080154FF0000BD10702D100186D41521EF3
:100D40000027044640F2FF11384601EB620A3E4696
:100D50008046024600204FF48011FFF70CFFC219B5
:100D60007141BB1846EB0100B4EB030C75EB000CB2
:100D700004D3E41A65EB000517460E46241908F162
:100D800001006D4180463428E3DDF91946EB060089
:100D9000091BA84103D24FF0FF32134601E00022A5
:100DA00013461BEB070046EB0A51BDE8F04DFFF779
:100DB0003BBFC1F30A52C1F3130140F2FF3341F4C8
:100DC00080119A4202DA00200146704740F2334314
:100DD0009A42A2F2334202DC5242FFF7CCBEFFF746
:100DE000BBBE0000064C074D06E0E06840F0010382
:100DF00094E8070098471034AC42F6D3FFF7C8F9DF
:100E0000D45D0108F45D010870B58C1810F8015B21
:100E100015F0070301D110F8013B2A1106D110F893
:100E2000012B03E010F8016B01F8016B5B1EF9D197
:100E30002B0705D40023521E0DD401F8013BFAE71D
:100E400010F8013BCB1A921C03E013F8015B01F888
:100E5000015B521EF9D5A142D8D3002070BD00F02D
:100E60000F01000900EB800001EB4000C0B27047A9
:100E70002DE9F0479A462DED068B914688460546AA
:100E800000F0B8F8264CE06BA0F51670E063216C1A
:100E9000A1F5966121640DF035F80746206C0CF041
:100EA000E1FF0646A06B0CF0A3FF04463846FFF7AF
:100EB000A0FD9FED1C9B53EC192BFFF72BFD41EC84
:100EC000180B3046FFF7A6FD53EC192BFFF722FD58
:100ED00041EC190B2046FFF79DFD9FED141B53ECD1
:100EE000112BFFF7A5FC41EC1A0B51EC180BFFF787
:100EF00001FEC8F8000051EC190BFFF7FBFD28605C
:100F000051EC1A0BFFF7F6FDC9F80000284600F077
:100F10002BF88AED000ABDEC068BBDE8F0870000D7
:100F2000B402002000000000000059400000000052
:100F30000000503F70B501242725A02604F0E6F8F4
:100F40002246F221762004F047FA2A46F421762040
:100F500004F042FA3246F521762004F03DFABDE86D
:100F6000704000F06FB8000010B5D0ED000AF5EE4B
:100F7000C00AF1EE10FA26DD9FED141A81EE200A68
:100F800010EE100AFFF78BFD41EC100B9FED101BCC
:100F90000AF086FF9FED101B51EC100B53EC112B48
:100FA000FFF740FC9FED0E1B53EC112BFFF740FCAD
:100FB0009FED0D1B53EC112BFFF7ACFCFFF79AFDD7
:100FC00000EE100A10BD9FED0A0A10BDCDEC7D4465
:100FD00028610C878A5AC83F000000000000F03FDB
:100FE0000000006066A2724000000080BE9F7A3F51
:100FF000000000001CB56B460822F721762004F0A3
:10100000EBF89DF800009DF80110000340EA011084
:101010009DF8021040EA1111094801649DF803107F
:101020009DF80420090341EA02119DF8052041EAD8
:101030001211C163BDF8061049BA81631CBD0000DE
:10104000B402002000B589B06B46182288217620B2
:1010500004F0C2F80122A121762006AB04F0BCF80E
:101060000722E12176200DF1190304F0B5F820489C
:10107000BDF800108180BDF80210C180BDF80410D9
:101080000181BDF806104181BDF808108181BDF8CD
:101090000A10C181BDF80C100182BDF80E1041820A
:1010A000BDF810108182BDF81210C182BDF8141075
:1010B0000183BDF8161041839DF818100170BDF82A
:1010C000191081839DF81B1041709DF81D109DF82B
:1010D0001C300A4663F31F12C2839DF81E201201C2
:1010E00042EA111101849DF81F10817009B000BD02
:1010F000B40200202DE9F04F8BB0044601F0DCFC77
:101100001E4E716B401AA04235DD06F130031A1FE6
:10111000111F081FFFF7ACFE06F12400FFF724FFA4
:1011200010EE100AFFF7BBFC064614480F46006B92
:10113000FFF7B5FC044611480D46C06AFFF7AFFC47
:1011400082460E488B46806AFFF7A9FC80460B4812
:101150008946406AFFF7A3FC0A468DE8050F06ABF7
:10116000C12283E8F000064906480AF0FBFD01F0C1
:10117000A3FC024948630BB0BDE8F08FB402002025
:10118000445B0108805D0108FEE70A21B0FBF1F233
:1011900001FB1202B0FBF1F042EA0010C0B270474E
:1011A000014801F0FBB9000080160020014801F061
:1011B000F5B900004817002001681823CAB2103A98
:1011C000B2FBF3F2054B6FF30901032A9B5CC36585
:1011D00000D9091D81650846704700003BE50008FD
:1011E00010B5014600208B698A6A4FF0C07453B174
:1011F000B3F5005F15D072B1012A0CD0022A0AD0D3
:10120000032A09D104E01AB1012A06D0022A03D127
:10121000C96AC90100D5012010BDC96AA142FAD02E
:1012200010BD002AF7D0012AF2D0022AF3D0032AF7
:10123000F3D010BD30B50468256825F480252560FD
:10124000046863608368402B036803D0996000687A
:10125000C26030BD9A600068C16030BD70B50F4D8E
:101260006C6805E0A189A06801F014FC60706468F6
:10127000002CF7D1002041F2883100BF401C884289
:10128000FBDB6C6807E0A189A06801F003FC6178D2
:10129000084320706468002CF5D170BDE401002083
:1012A000704700000323037600234360036143611A
:1012B000816082810121817004494A681AB18A687B
:1012C0005060886070474860FBE70000E401002040
:1012D00010B50120FFF7C2FF1748002340F6B832CF
:1012E000406826E0847801788C4201D9037607E0D3
:1012F00002D24FF0010402E069B14FF0030404761A
:10130000047E54B1012C0AD0022C0AD044699442C4
:101310000BD342610BE00224F1E7036107E0436174
:1013200005E004690A34046101E00A344461817013
:1013300040680028D6D110BDE401002070B5244CCF
:101340004FF4FA76002563683FE0184608F0E4FAA7
:10135000187E012817D11869B04208D3184603F047
:10136000D5FD187E01280ED11869B0420BD2207825
:1013700010B1187F20B108E0184608F073F923E097
:10138000012018770FE02078F0B1187F012802D0F3
:1013900002280FD018E0187E28B95869F02802D228
:1013A0000220187710E05869F0280DD9184608F087
:1013B00059F908E0187E012806D11869B04203D215
:1013C000184606F019FC1D775B68002BBDD170BD77
:1013D000E40100200FB4002310B5CC699FED250A6D
:1013E000237081F820304C6A84ED000A81ED0A0AEE
:1013F00081ED0B0A81F830304B634A619DF814206F
:101400000A71082A1ED2DFE802F01D04080E0E0839
:101410000819069A81F8302014E0069ACA611278F9
:1014200081F820200EE0069A4A62D2ED000AC1ED52
:101430000B0AD2ED000AC1ED0A0A01E0069A8A61A0
:10144000079A4A630B60826882B1C2685279521C63
:101450004A71C2681160C1604879C88081ED020A92
:1014600081ED030A0B8210BC5DF814FB4B718160A7
:10147000F1E70000000000000FB40021416181602D
:10148000C16001609DF804200271022A01D1029A14
:101490004261074AD36C3BB1116D0B7C5B1C03743A
:1014A0000860106504B070470174D064F9E700006B
:1014B000F00100202DE9F041234C012505F1280021
:1014C000002607B206F10A002288394600B207F06A
:1014D00053F8B61CDD2EF5DBAD1CC92DEEDB142058
:1014E00001F0CEF907F0E2FA012505F12800012606
:1014F00007B206F10A002288394600B207F03CF82C
:10150000B61CDD2EF5DBAD1CC92DEEDB142001F081
:10151000B7F907F0CBFA002505F12800012607B23C
:1015200006F10A002288394600B207F025F8B61CF9
:10153000DD2EF5DBAD1CC92DEEDB142001F0A0F98A
:10154000BDE8F04107F0B2BA880200201CB504469D
:101550000279008A283001B2072A7CD2DFE802F043
:101560000E04435C5C112A005DA20C2007F040FED3
:10157000208A6269283001B21B20A9E00C20626930
:10158000A6E058A20C2007F033FE208A62692830BA
:1015900001B21B2007F02CFEE0690921032300782B
:1015A000CDE90001208A1222401E01B2BF2000F0C6
:1015B000E5FA1CBD4BA20C2007F01AFE208A6269D6
:1015C000283001B21B2007F013FEE069012102233D
:1015D0000078CDE90001208A1222401E01B2BF200E
:1015E00000F098F81CBD3FA20C2007F001FE208AF5
:1015F0006269283001B21B2007F0FAFDE06900782B
:101600000028208A00F1280001B202D036A2C320AF
:101610005EE036A2B7205BE032A20C2007F0E8FDC6
:10162000208A6269283001B21B2007F0E1FD606A60
:101630002F4990ED000A10EE100A88420CDAB5EE40
:10164000C00AF1EE10FA07DB208A0223283001B22B
:101650000422B22032E040E010EE100A2549884210
:101660000BDA10EE100A2449884206D2208A02239F
:10167000283001B20422A62020E010EE100A1F49F3
:1016800088420BDA10EE100A1D49884206D2208AE1
:101690000223283001B204229A200FE010EE100A33
:1016A000184988420FDA10EE100A174988420AD208
:1016B000208A0223283001B204228E2002B0BDE825
:1016C000104007F056BD208A10A2283001B29F209A
:1016D00002B0BDE8104007F08BBD02A245E7000054
:1016E0002B0000002D0000006F6E00006F6666008A
:1016F000000020410000C842000020C100007A44E0
:101700000000C8C200401C4600007AC42A2A2E2AC3
:101710002A0000002DE9FC47DFF85480DDE90AA724
:101720000646B8F80000CDE900070D4601F1280093
:1017300001B21C4606F10A009146134600B206F0BB
:10174000A9FFBAF1000F10D0B8F80000CDE90007EA
:10175000614209EB410083B282B22819283001B2FC
:1017600030190A3000B206F031FFBDE8FC870000F6
:10177000860200202DE9F0430E4646219146B1FB3A
:10178000F9F82DED028B0746007983B000287DD152
:101790007C4C94ED170ABDEEC00A10EE100A98B901
:1017A000B868B2EE088A0179406979B1FEF784FF22
:1017B000401C00EE100AF8EE400AB2EE000A00BF2C
:1017C00000EE880A84ED170ABD683FE0FEF774FF5B
:1017D00000EE100AF8EE400AB1EE040AF0E768796C
:1017E000B04232D128790028686921D0FEF764FF21
:1017F00000EB40005FF0140101EB80002086E888D8
:101800004FF6FF7100EB800001EA80006086E0790E
:1018100086421DD0301A00D54042F9684979884285
:1018200016DAB5F91000002808DAB2EE0E0A09E05F
:10183000FEF742FF00EB40000521DDE7C82807DB8B
:101840009FED510A84ED180A02E02D68002DC6D1E3
:10185000E08D10B1E1798E4223D0218ED4ED170AAC
:1018600000EE101AB8EE400A70EE600A00EE108A20
:10187000B8EE400A80EE801A84ED151A618ED4ED20
:10188000180A00EE101AB8EE400A00E075E070EE9B
:10189000600A00EE108AB8EE400A80EE801A84EDED
:1018A000161A46280CD3208E00EE100AB8EE400A15
:1018B00084ED170A608E00EE100AB8EE400A0DE0C3
:1018C00094ED170AD4ED150A30EE200A84ED170ABC
:1018D00094ED180AD4ED160A30EE200A022084EDA9
:1018E000180A07F03FF9DFF8A48001252827B8F887
:1018F0000000CDE9000594ED180ABDEEC00A10EE17
:10190000100A07FA80F094ED170A01B21423BDEE15
:10191000C00A10EE100A82B20A2006F057FE01201B
:1019200007F020F9B8F80000CDE9000594ED180A99
:10193000BDEEC00A10EE100A07FA80F001B21423BF
:101940000422E22006F042FEE67194ED170A218E91
:10195000BDEEC00A10EE100A88420AD194ED180AB2
:10196000618EBDEEC00A10EE100A884201D100203F
:1019700002E0E18D01EB0900E08503B0BDEC028BD4
:10198000BDE8F083F001002000002543860200201E
:101990002DE9FC418046FEF78FFE00EB400005215B
:1019A00001EB800085B2C5F1DC0000EBD07044088B
:1019B000FFF780FD144F012680213888CDE900060D
:1019C00004F10C0000B214232A4606F063FE3888A6
:1019D000CDE9000604F10800842100B214232A4650
:1019E000A41E06F0F3FD022007F0BCF80C3486219B
:1019F00020B2424607F0FCFB012007F0B3F8BDE837
:101A0000FC4107F053B8000086020020F8B50546F7
:101A1000012007F0A7F8544C2A20A0846869FEF73B
:101A20004BFE401C0C287DD96869FEF745FE00EB93
:101A30004000132101EB800080B26084922801D223
:101A40009220608480B2C0F1DC0101EBD1714F10B3
:101A5000E783A28CA0F15203C2F1C80101EBD1715E
:101A600049102184414EE384921C3388009393B241
:101A7000801C82B22731093709B238B206F0D9FC8E
:101A80003B4800880090208CA38C283001B2E08B6A
:101A9000628C0A3000B206F0D7F8208CE1786A69CF
:101AA0000844283001B2E08B0D3000B207F0A0FBF3
:101AB0006869FEF701FEE18B00EB400001EB80005E
:101AC000218CE2780D301144283100B209B229A2EC
:101AD00007F08EFB30880090208CE17810230844BA
:101AE0003C3001B2E08BE28C0D3000B206F0A1FC7C
:101AF000686A9FED211A90ED000AE08CC0EE010AA1
:101B000000EE100AB8EE401AB1EE000A10EE810A9B
:101B1000BCEEC00A10EE100A82B230880090208C11
:101B2000E17800E01DE008443E3001B2E08B0C2378
:101B30000F3000B206F088F8686AE178628C90EDA8
:101B4000000A208C022308443C3001B2E08B104490
:101B5000423800B2032207F00CFBBDE8F84006F063
:101B6000A5BF97206DE70000F0010020860200204D
:101B7000880200203A0000000000C8422DE9FC471E
:101B8000DFF85C80DDE90AA706460D46781EC0B284
:101B9000B8F80010CDE9001005F1280001B21C468C
:101BA00006F10A009146134600B206F073FDBAF141
:101BB000000F13D0604207EB4001C9B2B8F8002013
:101BC000CDE9002109EB400083B282B22819283008
:101BD00001B230190A3000B206F0F8FCBDE8FC870B
:101BE000860200202DE9F047824606F051FF0120D1
:101BF00006F0B8FF6C4DDFF8B4812878EC6C18F86B
:101C0000000000E02468217C8142FBD16878A8B103
:101C1000A468A87D0EE0617981420AD12079042868
:101C200002D12046FFF7F2FE2046616BBDE8F04787
:101C300008472468002CEED1BDE8F08705F0E4FFEA
:101C400000F07AFB2079DFF86491002609F10A0997
:101C5000022803D0012827D0A7684EE061692046FA
:101C600088476E772E77AE766E762E762878C8B156
:101C7000E97E91B1EE7608F8006009F80060401E38
:101C8000C0B2287019F80000A87500F03BFA0123D3
:101C90005246A97D2046FFF76DFD45480078002893
:101CA0007DD1C9E7EE767AE06E772E77AE766E76E6
:101CB0002E7628780028F5D0E97E00296FD0EE76C0
:101CC00008F8006009F80060401EC0B2287019F8DA
:101CD0000000A87500F016FA01235246A97D20469F
:101CE000FFF748FD5BE05346AA7D3946204600F0E9
:101CF00063F83846FFF72AFC3F68002FF3D1002332
:101D00005246A97D2046FFF735FDE0684079E87529
:101D1000297E41B1A97D814202D2491CA97502E008
:101D2000A97801B1AE75697E39B1A97D11B1491E9D
:101D3000A97502E0A97801B1A875A87E70B1A87D47
:101D4000A16809E04A79824205D1174A2046163235
:101D500000F000F902E009680029F3D16E772E77D0
:101D6000AE766E762E76287800289BD0E97EB1B1CB
:101D7000EE7608F8006009F80060401EC0B22870D6
:101D800019F80000A8759FED0B0AA06803E0068211
:101D900080ED020A00680028F9D100F0B3F9BDE82F
:101DA000F04706F083BE0000F0010020881F0020ED
:101DB0006402002000000000F0B54624B4FBF3F7F5
:101DC000364C8568A679E6B9284617E090F805C034
:101DD000944506D1B0F906E0BEF1000F01DAC088E3
:101DE00008E0944509D1B0F906C0BCF1090F04DD43
:101DF000C08809386085012602E000680028E5D126
:101E0000A671B4F92A0003E0EE88361AEE802D6838
:101E1000002DF9D16585A571C888267900EB800071
:101E200006EB800000B2A085268D1EB194F805C097
:101E3000624513D0B1F910C000EE10CAF8EEC00A26
:101E400000EE100AB8EEC00A70EE600A00EE107ADA
:101E5000B8EE400A80EE801A81ED031A462E04D3B4
:101E600000EE100AB8EEC00A05E091ED020AD1EDCD
:101E7000030A30EE200A81ED020ABDEEC00A10EE20
:101E8000107A3FB20F8262710968002902D187423D
:101E900001D12585F0BDF0182085F0BDF0010020AE
:101EA00038B50446204806F05DFC204D4FF48072A2
:101EB00029461F48FFF7F6F91D486A1529462030C4
:101EC000FFF7F0F91A484FF400421A494030FFF783
:101ED000E9F92A15184D164829466030FFF7E2F94E
:101EE0001348EA1429468030FFF7DCF906F0D0FDEC
:101EF00005F08AFE34B1114838233A22702100904F
:101F00005B2005E00E4800901C231D227E216920E5
:101F100006F09AFE0BA2DF213D2007F069F9BDE82B
:101F2000384006F0C3BD0000380E00200004024017
:101F30009C1F00200000024000080240EEEC000858
:101F400096E6000845617379554928457242575F06
:101F500073290000F0B40E790125264C0023082EC9
:101F600029D2DFE806F02804383D3D2A384125789B
:101F7000092D20D0204F16789FED200A7E556D1C2C
:101F8000EDB22570A7F10A0491F830106155137075
:101F9000806807E0B0F90610002902DB038280EDBB
:101FA000020A00680028F5D1F0BC00F0ABB80121AE
:101FB00000E000210170F0BC7047806809E0027900
:101FC000052A05D142794C79A24201D0C269137029
:101FD00000680028F3D1C86901780029E9D1E6E753
:101FE0006570F0BCFFF766BA65708869F0BCFFF7F2
:101FF000CFBC0000F0010020921F00200000000074
:102000002DE9F041214C207E617E0843A17E0843EA
:10201000E17E0843217F0843617F084334D11C4897
:102020001C4D1D4E0378A3762978E1761B4F32783C
:1020300022773978617722766176002129700170E4
:10204000397031702BB140F2AD42154915A009F03D
:1020500089FEE37E2BB140F2AF42114917A009F08F
:1020600081FE237F2BB140F2B1420D4919A009F046
:1020700079FE637F002B07D0BDE8F04140F2B34208
:1020800007491AA009F06EBEBDE8F081F0010020FA
:10209000A6020020A7020020A4020020A502002022
:1020A00076E6000825735B25645D3A206F706E4507
:1020B0006E7465723A256420200D0A0025735B2535
:1020C000645D3A206F706E457869743A256420200B
:1020D0000D0A000025735B25645D3A206F706E5514
:1020E000703A256420200D0A0000000025735B254E
:1020F000645D3A206F706E446F776E3A25642020DD
:102100000D0A00002DE9F0412F4C012505F12800B2
:10211000002607B206F10A002288394600B206F00E
:102120002BFAB61CDD2EF5DBAD1CC92DEEDB0F2026
:1021300000F0A6FB06F0BAFC012505F128000126F7
:1021400007B206F10A002288394600B206F014FAF6
:10215000B61CDD2EF5DBAD1CC92DEEDB0F2000F02B
:102160008FFB06F0A3FC002505F12800012607B22D
:1021700006F10A002288394600B206F0FDF9B61CC5
:10218000DD2EF5DBAD1CC92DEEDB0F2000F078FB5A
:1021900006F08CFC012505F12700012607B206F1A7
:1021A00009002288394600B206F0E6F9B61CDD2E99
:1021B000F5DBAD1CC92DEEDB0F2000F061FBBDE8A7
:1021C000F04106F073BC00008802002072B6FEE702
:1021D0002DE9F05F4C4F04462DED028B38784B4EC5
:1021E000DFED4B8AB2EE048A002518B3606A90EDE9
:1021F000000A30EE080A10EE101AB14201DD9FED20
:10220000450A80ED000A606A90ED000A10EE100A9F
:10221000B04202D1B0EE680A01E020EE080A642262
:102220003D48BCEEC00A10EE101A0BF0A5FF3B486B
:1022300005703D70DFF8E880DFF8E8B098F800003E
:1022400030B3606A384A90ED000A30EE480A10EE6A
:10225000101A914202DB80ED000A01E080ED008A55
:10226000606A90ED000A10EE100AB04202D1B0EEA2
:10227000680A01E020EE080A64222748BCEEC00A82
:1022800010EE101A0BF078FF8BF8005088F8005011
:10229000DFF89890DFF898A099F8000050B1606AD4
:1022A00090ED000A84ED0B0AFFF704F98AF800505C
:1022B00089F800501F480078C0B1606A94ED0B0A9D
:1022C00080ED000A10EE100AB04201D060EE088ADC
:1022D00064221148BCEEE80A10EE101A0BF04CFF15
:1022E000FFF7E8F813488AF80050057088F80050A6
:1022F0003D700A4889F800508BF800500570BDEC1D
:10230000028BBDE8F09F00000C0200200000C842D4
:10231000008077440000C842100E00200802002010
:102320000D02002009020020000020410A020020C6
:10233000F10100200B02002010B5144CA07808B168
:1023400004F014F9E07808B103F08AFC207908B1B0
:1023500004F056FD607908B104F046FAA07908B19E
:1023600004F0D2FBE07908B104F03CFF207A08B118
:1023700004F07CFE607A08B103F032FFA07A0028F6
:1023800003D0BDE8104003F0E9BC10BD640200209A
:1023900010B540F2E31110FB01F13C4800EB810065
:1023A000D0F8581702292ED05FF0080100EB810207
:1023B00002F58062491E92EDCC0A82EDCD0AF5D578
:1023C00000F580619FED322AD1EDCC0A91ED040A2F
:1023D0009FED301A70EEC01A01EE821A70EEC10A3B
:1023E000C1EDCC0AF4EEC00AF1EE10FA02D20221DD
:1023F000C0F85817D0F860174A1CC0F86027642945
:1024000042DD032010BD002202EB8201082400EB14
:10241000C10100BF01EB8403641E93ED3C0A83ED10
:102420003D0A03F5806393ED040A83ED050AF1D5B7
:1024300000EB820391ED3C0AD3ED140A9FED161ACE
:10244000521C30EE200A142A81ED3C0A01F580610D
:10245000D3ED280A91ED040A30EE200A81ED040A3A
:10246000D0F85C1793ED280A00EE901AF8EEE00A17
:1024700000EE810A83ED280AC6DBD0F85C174A1CFF
:10248000C0F85C275029BCDC022010BDB835012003
:10249000CDCC4C3ECDCCCC3DCDCCCC3CF8B5294DB3
:1024A00000EB8006062155F8260005EB860490FB1C
:1024B000F1F201FB1201103100EE101AD4ED040A02
:1024C000B8EEC01A9FED200AB4EEE01AF1EE10FA51
:1024D00034DD94ED021A71EE600AF5EEC00AF1EEF9
:1024E00010FA2BD3BCEEE00A0F27009710EE101A5B
:1024F000A38900B28AB2A18809B205F053FD009702
:1025000094ED020AD4ED040A48F2304330EE200A7A
:10251000BCEEC00A10EE100A82B2A08801B235F8F3
:10252000260000B205F0AAFB94ED040ADFED070ACD
:10253000022030EE200A84ED040AF8BD84ED040A7E
:102540000320F8BD402C012000000000CDCCCC3E83
:1025500010B5040002D0607910B106E0012010BD72
:1025600000202071204600F005F801206071002055
:1025700010BD000008B500680649884208D1064829
:10258000016841F480510160006800F480500090BF
:1025900008BD000000300240303802402DE9F84309
:1025A00004464FF00009CDF8009063484FF41651EF
:1025B000A56D0068B0FBF1F72E6894F85C10082058
:1025C00000FA01F131420FD021680A6852070BD599
:1025D0000A6822F004020A6094F85C108840A8603F
:1025E000606D40F00100606594F85C104FF00108E8
:1025F00008FA01F0304208D021684969090604D57B
:10260000A860606D40F00200606594F85C100420E2
:102610008840304208D021680968890704D5A8603D
:10262000606D40F00400606594F85C1010208840F4
:10263000304218D021680968090714D5A8602068BD
:102640000168490304D50068000308D5A16C07E0C0
:102650000168C90503D4016821F008010160216CFB
:1026600009B12046884794F85C1020208840304209
:1026700031D021680968C9062DD5A86094F83500C5
:1026800005282068016806D0490347D50068000383
:102690001DD4616C1CE021F01601016020684169C5
:1026A00021F080014161206C08B9A06C20B1206844
:1026B000016821F00801016094F85C103F20884017
:1026C000A86084F8358084F83490216D1FE0E16BB8
:1026D00009B120468847606D00282BD0606DC00787
:1026E00014D0052084F835002068016821F001012C
:1026F00001600098401C0090B84203D82068006830
:10270000C007F6D184F8358084F83490E16C002954
:1027100010D001B02046BDE8F04308470168C90564
:10272000D5D4016821F01001016084F8358084F867
:102730003490CCE7BDE8F883340000202DE9F04167
:10274000044600F0B9F906465CB1022084F8350071
:10275000002584F834502068016821F001010160EF
:102760000DE00120BDE8F08100F0A6F9801B0528EE
:1027700005D920206065032084F83500F2E7206841
:102780000068C007F0D12268116820480140D4E9F0
:1027900001031843D4E903363343184363691843EC
:1027A000A3691843E3691843236A18430843616A1D
:1027B000042903D1D4E90B1319430843106020689E
:1027C0004069666A20F0070130460E43012704285D
:1027D0000CD1A06A0643E06A40B12046FEF700FD36
:1027E00020B14020606584F83570BAE72068466102
:1027F0002046FEF7E1FC94F85C203F219140816087
:10280000656584F835700020ACE700003F8010F06B
:102810002DE9F0410446866D90F83400002501282A
:102820000DD0012084F8340094F835700020012F79
:1028300007D084F8340002252846BDE8F081022044
:10284000FBE7022784F8357060652046FEF7F2FC4E
:1028500094F85C103F208840B0602068016841F027
:1028600016010160206C20B12068016841F0080168
:1028700001602068016841F001010160DCE70000AF
:1028800070B5044600F018F90546601C02D00448F3
:102890000078044400F010F9401BA042FAD370BD48
:1028A000280000202DE9F84FDFF8BCA10022012507
:1028B00003264FF00F090AF1040BAAF1040E00BF22
:1028C0000B6805FA02F42340A34270D10F7907F098
:1028D0000307012F01D0022F16D187684FEA420863
:1028E00006FA08FC27EA0C07D1F80CC00CFA08FC21
:1028F0004CEA070CC0F808C04768A7430C79C4F33A
:10290000001494403C4344600C79E443A4070AD08B
:10291000C4684FEA420C06FA0CF7BC438F6807FA0A
:102920000CF72743C7600C7904F00304022C12D182
:10293000D40800EB840CDCF820405707FF0E09FA9E
:1029400007F824EA0804D1F8108008FA07F848EAE2
:102950000408CCF8208004684FEA420C06FA0CF711
:10296000BC430F7907F0030707FA0CF7274307600A
:102970004C6814F4403F70D03C4C276847F48047C3
:102980002760246822F0030704F480440094384C44
:1029900007EB040CDCF8084897074FEA177809FAA8
:1029A00008F7BC43334FB84202D1002724E054E07B
:1029B000314FB84201D101271EE0304FB84201D15A
:1029C000022719E02E4FB84201D1032714E02D4F02
:1029D000B84201D104270FE02B4FB84201D105279F
:1029E0000AE02A4FB84201D1062705E0284FB84235
:1029F00001D1072700E0082707FA08F72743CCF89A
:102A00000878DAF800405746D1F804C09C435FEAE2
:102A1000CC2C00D51C433C60DBF800405F46D1F86D
:102A200004C09C435FEA8C2C00D51C433C60DEF85C
:102A300000407746D1F804C09C435FEA8C3C00D547
:102A40001C433C60084F083F3C68D1F804C09C43DD
:102A50005FEACC3C00D51C433C60521C102AFFF4BA
:102A60002FAFBDE8F88F0000083C01404438024019
:102A70000030014000000240000402400008024013
:102A8000000C0240001002400014024000180240F6
:102A9000001C02400069084000D0012070474269D4
:102AA00021EA02030A4043EA0241816170470AB108
:102AB000816170470904FBE70148806870470000A6
:102AC000280000202DE9FF4104460068816800913C
:102AD0007749784E4FF04027884201D1324600E0D6
:102AE0003A469268019240688846029001D1304689
:102AF00000E038464068039060684FF00105B0F58B
:102B0000007F1CD0D8B1900705D50398000602D5E8
:102B1000204602F031FA0098C0070FD00298400614
:102B20007FD521682046CA68E16A8B1CE3620A806F
:102B3000618E491E6186618E002967D071E0009820
:102B4000800719D50298000616D5616A20468A1CAE
:102B5000626222680988D160618D491E6185618D3C
:102B600051B901684A6822F0A0024A60418E19B941
:102B700080F8415000F0A0F80198C00705D00398F4
:102B8000400602D5204602F0C7F90198400622D53A
:102B9000039880061FD52168414501D1304600E0E9
:102BA0003846406820F0600101D1304600E03846E8
:102BB00041602068416821F0A00141602068C1683F
:102BC0008068019084F84150606C40F002006064BD
:102BD000204600F072F80098000767D5029880063A
:102BE00064D52068416821F0A00141602168414519
:102BF00001D1304600E03846406820F0600000D047
:102C00003E46706020688068009043E001684A6832
:102C100022F060024A60418D19B980F8415000F0FD
:102C20004BF8009840061ED5029880061BD52068F8
:102C3000416821F0600141602168414501D1304681
:102C400000E03846406820F0A00101D1304600E0A5
:102C50003846416084F84150606C40F00200606486
:102C6000204600F02AF8019800071FD50398800637
:102C70001CD52168414501D1304600E03846406806
:102C800020F0A00000D03E4670602068416821F02E
:102C90006001416084F84150606C40F00400606461
:102CA00004B02046BDE8F04100F007B8BDE8FF8160
:102CB000003800400034004070477047416B0847BF
:102CC0002DE9F047040005D094F841004FF00008CA
:102CD00018B109E00120BDE8F08784F84080514830
:102CE0006063204600F0A6F8022684F84160206860
:102CF000C16940F6BF77B943C16120680662606967
:102D00004FF4007902282FD0E06870B12025A06828
:102D1000202800D86D00012000F02AFF21694945D4
:102D20001FD1E16819B1A90002E01025EFE7E90021
:102D3000B0FBF1F000EB800061694000B0FBF1F006
:102D4000401D0A21B0FBF1F000F00101401A4008DB
:102D50000902821EFE2A09D3606C40F010006064F4
:102D6000B8E7B0FBF5F0E5E702200021226908434F
:102D7000024320680262D4E901010843A269E168C4
:102D8000114308432168CA69BA43104340F4006004
:102D9000C861206A01283AD123486063234821682A
:102DA000234A4FF04023814201D1114600E01946E9
:102DB000C96921EA070101D1154600E01D46E96114
:102DC0002168814201D1114600E019460E62256852
:102DD000854201D1114600E01946C9698EB2616889
:102DE00049451BD0D1B100212789B4F80CC047EA6E
:102DF0000C07B4F818C04CEA010C47EA0C07B9B24A
:102E0000314341F40061854200D01A46D161C4F8D3
:102E10004480012084F8410000205CE74FF4807179
:102E2000E2E70000D94F0008C52A0008003800403A
:102E300000340040F0B58BB0064614216846FDF71B
:102E400030FC0025059506950795089530493068B2
:102E500088425AD101200590C0200224CDE9060401
:102E600005A800F0B3FE08B1FFF7B0F929480168E2
:102E700041F4004101600068264900F40040103927
:102E80000990086840F001000860086800F001003F
:102E90000990086840F0040008600868062700F000
:102EA000040009904FF400408DE83100CDE903574C
:102EB00069461948FFF7F6FC4FF4A0508DE8310041
:102EC000CDE9035769461548FFF7ECFC154C14484B
:102ED000C4E900050015A560C4E9035080006061E5
:102EE0008000C4E90605256220466562FFF726FCDE
:102EF00008B1FFF76BF9F463002211463320A66393
:102F000000F07CF8332000F06BF80BB0F0BD00004F
:102F1000003C0040403802400000024000080240EF
:102F20001060024080160020704770470248816898
:102F30000278114481607047280000200B4810B5CA
:102F4000016841F400710160016841F48061016031
:102F5000016841F480710160032000F06FF80F20D8
:102F600000F006F800F024F8002010BD003C0240FC
:102F700070B50D4D04464FF47A712878B1FBF0F02E
:102F80000A490968B1FBF0F001F074FB48B9102C54
:102F900007D200222146501E00F030F800206C605D
:102FA00070BD012070BD000028000020340000200A
:102FB0000A4808B5016841F480410160006800F4E6
:102FC000804000900548001F016841F08051016079
:102FD000006800F08050009008BD000044380240B6
:102FE000002809DB00F01F02012191404009800008
:102FF00000F1E020C0F8001170470000F0B40E4B63
:103000001B680C46C3F30223C3F10705042D00D946
:103010000425191D072901D2002300E0DB1E01262B
:1030200006FA05F1491E214099409E40761E164041
:103030003143F0BC08F0BEBE0CED00E0064900F0E4
:10304000070208684FF6FF03184040EA0220034ACF
:1030500010430860704700000CED00E00000FA0526
:1030600070470068416200207047F0B50368586AF5
:1030700039B19C6A4FF4827600EB144400204D1E57
:103080000AE040EA024098620FE006EB8007DF5951
:10309000401C04EB1744C0B2A842F6D344EA0240F5
:1030A0004FF4807202EB810158500020F0BDD0F83F
:1030B000080507F031BA01EBC10200EB8202D0F83B
:1030C0000805D26C07F09CB901EBC10200EB82024B
:1030D000D0F80805D2F88C2207F0E7B9D0F8080537
:1030E00007F01CBA0A0601F00F0101EBC10100EB69
:1030F000810101D53C3101E001F51F71006808F044
:1031000077BC70B504460B0601F00F0000EBC00160
:1031100004EB81014FF001024FF0000503D581F867
:103120003D203C3103E081F87D5201F51F710870AC
:1031300094F8BC04012808D084F8BC24206808F066
:1031400011F984F8BC54002070BD022070BD70B528
:10315000044601F00F006268904201D9012070BD61
:103160000B0601F00F0101EBC10104EB81014FF0EF
:1031700001024FF0000503D581F83D203C3103E00A
:1031800081F87D5201F51F718D70087094F8BC04B0
:10319000012808D084F8BC24206808F0DFFA84F8FD
:1031A000BC54002070BD022070BD01F00F0101EB86
:1031B000C10100EB8100D0F89C0270472DE9F0417D
:1031C00004460F0601F00F0000EBC00104EB810183
:1031D0004FF001064FF0000503D581F83D603C310A
:1031E00003E081F87D5201F51F710870CA600B7110
:1031F0004A7802B10881022B00D14D7194F8BC04C9
:10320000012809D084F8BC64206808F003F8284637
:1032100084F8BC54BDE8F0810220FBE770B50C4691
:1032200001F00F0505EBC50100EB8101C1F89432F7
:10323000C1F88C220023C1F89C3281F87D3281F8DC
:103240007C52036901F51F71012B00D14A612207ED
:10325000027C006803D008F0D9FA002070BD08F0A5
:10326000C3F9FAE770B504460D4601F00F00616836
:10327000884201D9012070BD29064FF000064FF0A9
:10328000010207D500EBC00104EB810181F83D206C
:103290003C3107E005EBC50104EB810181F87D625B
:1032A00001F51F718A70087094F8BC04012807D0DA
:1032B00084F8BC24206808F07DFA280702D007E0D3
:1032C000022070BD217C04F2C442206808F01AFA82
:1032D00084F8BC64002070BD70B50C4601F00F0589
:1032E00005EBC50100EB81014B65CA640023CB658A
:1032F000012381F83D3001F83C5F0369012B00D1C7
:103300004A612207027C006803D008F07FFA00209F
:1033100070BD08F069F9FAE72DE9FC5F056804461D
:10332000284608F006FC00287DD1206808F02DFC16
:10333000002878D0D5F80808C0F30D20C4F8FC04A4
:10334000206808F022FC800704D52068416901F05C
:1033500002014161206808F018FCC10604F2C44073
:10336000009034D52068816921F0100181612F6AB5
:1033700007F00F0000EBC00004EB8006C7F34340EA
:1033800006F51F76022802D0062811D01AE047F66B
:10339000F070074216D0C7F30A1217462846316963
:1033A00008F0F7FB306938443061306A384408E08F
:1033B00008222846009908F0ECFB306AC7F30A118E
:1033C000084430622068816941F010018161206801
:1033D00008F0DBFB00034FF0080B4FF0000A4FF042
:1033E00001097CD50026206808F0AEFB074674E092
:1033F000F80770D0F1B2206808F0BFFB8046C00724
:1034000007D005EB4611C1F8089B3146204605F070
:1034100043FF5FEA087024D505EB4611C1F808BBED
:103420002068016C00E025E200EB46100191D0F825
:10343000082BFC4B994205D9110403D54FF40041E8
:10344000C0F8081B204600F02FFBF649019888427F
:1034500007D92069012804D120680121009A08F0C9
:1034600051F95FEAC86004D505EB46111020C1F898
:10347000080B5FEA88701DD56869000605D5D5F888
:10348000040840F48061C5F8041806EBC60004EB9C
:10349000800090F87F1200F51F70012905D180F897
:1034A00003A0F1B2204600F0EBF905EB4611022033
:1034B000C1F8080B5FEA886004D505EB46102021AF
:1034C000C0F8081B5FEA884005D505EB46104FF4AD
:1034D0000051C0F8081B7F08761C002F88D1206897
:1034E00008F053FB40036FD5206808F026FB074621
:1034F000002667E0F80763D0F1B2206808F02BFBE4
:103500008046C00723D006F00F0209FA02F0D5F872
:1035100034288243C5F8342805EB4610C0F80899D2
:10352000206901280FD106EBC60004EB8000D0E92A
:1035300012211144C16436B9606D20B9206801219F
:10354000009A08F0DFF8F1B22046FFF7B4FD5FEA19
:10355000087003D505EB4611C1F808B95FEAC860E9
:1035600004D505EB46111020C1F808095FEA486050
:1035700004D505EB46104021C0F808195FEA8870B1
:1035800017D53146284608F0A7FA06EBC60004EB2B
:10359000800090F83F103C30012905D180F803A04D
:1035A000F1B2204600F068F905EB46110220C1F89F
:1035B00008095FEA086003D53146204605F0D2FECF
:1035C0007F08761C002F95D1206808F0DEFA0028CD
:1035D00011DAD5F8040820F00101C5F8041894F8B0
:1035E000F40401282BD0204600F042FA20684169FB
:1035F00001F000414161206808F0C7FA00050BD5D1
:10360000D5F80808C00702D0204600F099FA2068D3
:10361000416901F400614161206808F0B6FAC00414
:1036200066D5D5F8040820F00100C5F8040810217B
:10363000206808F051FA00214FF67F321FE084F82D
:10364000F4A400212046FFF70BFDCFE705EB411066
:10365000C0F80829D0F8003923F40013C0F8003965
:10366000C0F8082BD0F8003B23F40013C0F8003B4F
:10367000D0F8003B43F00063C0F8003B491C606891
:103680008842E3D8D5F81C0840F00111C5F81C1891
:10369000206B002828460DD0D0F8840840F00B019C
:1036A000C5F88418D5F8440840F00B012846C5F841
:1036B00044180DE0D0F8140842F22B010843C5F875
:1036C0001408D5F8100840F00B012846C5F810186A
:1036D000D0F8000820F4FE61C5F80018217C2068AD
:1036E000009A08F00FF82068416901F480514161A7
:1036F000206808F04AFA800415D5206807F0CAFD52
:10370000206808F009FAE06000F098FB0146227B8F
:10371000206808F09DFA204600F094F9206841697D
:1037200001F400514161206808F02FFA000707D525
:10373000204600F0A1F92068416901F008014161CB
:10374000206808F022FA000616D5A86920F080004B
:10375000A86101260DE000BF06EBC60004EB800067
:1037600090F87F02012803D1F1B22046FFF7BAFC9E
:10377000761C6068B042EFD8206808F006FAC002F4
:1037800021D501264F4616E005EB4610D0F800196A
:1037900006EBC60004EB800090F84020012A09D116
:1037A000002907DA80F83F70F0B240F0800120462F
:1037B000FFF798FC761C6068B042E5D82068416944
:1037C00001F480114161206808F0DFF9800234D5EE
:1037D00001204B4629E000BF05EB4011D1F8001B4A
:1037E00000EBC00204EB820696F88022012A1BD16E
:1037F000002919DA94F8FC2401F4803102F0010266
:10380000914211D186F87F32A96941F08002AA6104
:103810006969090608D4D5F8040840F40070C5F8B1
:10382000040805E00A30544F401C61688142D3D837
:103830002068416901F400114161206808F0A5F990
:10384000400007D52046FFF732FC2068416901F0AF
:1038500080414161206808F098F940070AD5206846
:103860004568680702D52046FFF738FC20684168A4
:1038700029434160BDE8FC9FD0F8080506F0A2BED0
:10388000D0F8080506F0A0BE2DE9F0418AB004008A
:1038900005D094F8BD042668002520B108E0012079
:1038A0000AB0BDE8F08184F8BC54204600F05EF810
:1038B000032084F8BD04F06BC00500D425612068A6
:1038C00007F08CFE04F11001282288466846FCF7B8
:1038D000CFFE94E80F0007F0EBFC0226C8BB0021E6
:1038E000206808F075F9002001270EE000EBC00108
:1038F00004EB810181F83D7001F83C0F08810D71E6
:10390000CD600D61401CC0B28D6161688142EDD80F
:10391000002011E000EBC00104EB810181F87D5231
:1039200081F87C0281F88052C1F88852C1F88C522B
:10393000401CC0B2C1F8945261688142EAD8282282
:1039400041466846FCF794FE94E80F0007F08CFDB2
:1039500010B184F8BD64A2E784F8385084F8BD74CF
:10396000206807F073FD00209AE700002DE9F04180
:1039700086B0044614216846FCF793FE2C49206863
:10398000884251D12B4C4FF00008206840F00400D1
:103990002060206800F004000590206840F00100DD
:1039A0002060206800F001000590206840F00200CF
:1039B00020602068022500F0020005900D208DE8AF
:1039C000210103260A2769461B48CDE90367FEF754
:1039D00069FF28208DE8210169461848CDE9036771
:1039E000FEF760FF43F623408DE821016946144845
:1039F000CDE90367FEF756FF206840F000502060D5
:103A0000206800F000500590206840F08040206061
:103A10002068002200F08040059001214D20FFF732
:103A2000EDFA4D20FFF7DCFA06B0BDE8F0810000AA
:103A3000000004403038024000080240000002400C
:103A40000004024070B50446C068012570B1022828
:103A500001D0FEF7BBFB2946D4F8080506F00AFEA4
:103A6000D4F80805BDE8704006F0C5BD0025F2E7B2
:103A7000D0F8080506F0E8BDD0F8080506F0EEBD60
:103A800010B5044690F8BC0401280BD0012084F83E
:103A9000BC0484F83810206808F0C8F8002084F8C6
:103AA000BC0410BD022010BD2DE9F04100F2C4415C
:103AB000D0F80845054604F2AA200F46064607F04E
:103AC000BDF994F8AA120020C90603D13146204658
:103AD00006F0C4FE94F8AA1201F01F01012903D1D7
:103AE0003146204606F0FEFE002806D13946D5F8BC
:103AF0000805BDE8F04106F0C9BDBDE8F08110B58C
:103B00000446006894F8BC14012906D0012184F809
:103B1000BC14A16A012902D008E0022010BDA169ED
:103B2000012903D0816B41F480318163206807F063
:103B3000AEFF206807F07CFC002084F8BC0410BDB8
:103B400010B50446D0F8080506F0E2FD2068D0F86C
:103B5000001E41F00101C0F8001E206A002804D0B8
:103B60000248016841F00601016010BD10ED00E05F
:103B700001460020012907D11049096811F400010C
:103B800003D0012900D10E4870470C48001F01687E
:103B90000068490200F03F0001D50A4900E00A49E7
:103BA000064AB1FBF0F07C321168C1F38811414341
:103BB0001068C0F30270B1FBF0F0704708380240A3
:103BC0000080BB0000127A000024F4002DE9F843C5
:103BD000054600684FF00109C1074FF0000601D10A
:103BE000400727D5DFF80C81C8F86860FEF764FF4E
:103BF0000746414C05E000BFFEF75EFFC01B0228F0
:103C000057D820680001F7D468688101287A41EA12
:103C10000070394984310860C8F86890FEF74CFF9D
:103C2000074604E0FEF748FFC01B022841D8206881
:103C30000001F7D52878800752D52F484030016819
:103C400041F08051016000682C4C00F080500090E1
:103C5000206840F480702060FEF72EFF074604E0E5
:103C6000FEF72AFFC01B022823D82068C005F7D51D
:103C7000214C7034206810F4407020D0A98901F4E0
:103C8000407181421BD020681D4920F44070C1F86A
:103C900000900E6020602068C00710D0FEF70CFF77
:103CA000064641F2883707E0FEF706FF801BB84260
:103CB00002D90320BDE8F88320688007F4D5E968BD
:103CC0000D48C1F301220830032A0BD0016821F40A
:103CD000F81101602068A989C1F30B010843206035
:103CE0000020E7E70268074B22F4F81219400A4364
:103CF0000260EFE7000047420038024000700040D9
:103D0000400E4742FFFCFF0F2DE9F0470E4605002D
:103D100065D0DFF81481D8F80000F7B200F0070092
:103D2000B04207D288F80070D8F8000000F0070011
:103D3000B04254D128683D4C810712D5400703D5C5
:103D4000206840F4E05020602878000703D5206800
:103D500040F4604020602068A96820F0F00008432B
:103D600020602878C0072DD03049686808390128BC
:103D700012D0022813D0032811D00968890700291E
:103D80002DDA216821F0030101432160FEF794FE42
:103D9000814641F2883A0EE009688903EFE7096835
:103DA0008901ECE7FEF788FEA0EB0901514502D935
:103DB0000320BDE8F0872068696800F00C00B0EBD4
:103DC000810FEFD1D8F80010404601F00701B14251
:103DD00007D90770006800F00700B04201D0012049
:103DE000E7E72878400705D52068E96820F4E05027
:103DF000084320602878000706D52068296920F448
:103E0000604040EAC100206000F03EF82168084AA6
:103E1000C1F30311515CC8400649086006480068B8
:103E2000FFF7A6F80020C4E7003C02400838024033
:103E300043E50008340000202C0000200148006801
:103E400070470000340000200448054900680968F4
:103E5000044AC1F38221515CC840704734000020FD
:103E60000838024053E5000804480549006809681D
:103E7000044AC1F34231515CC8407047340000200D
:103E80000838024053E50008154810B5006810F0E6
:103E90000C02144813D04110042A0FD0082A0ED166
:103EA0000F4C241F2268236802F03F025B0207D5F3
:103EB0002068C0F38810A0FB010106E0084610BD91
:103EC0002168C1F38811A1FB00010023FCF778F9F8
:103ED0002168C1F30141491C4900B0FBF1F010BD5C
:103EE000083802400024F4002DE9F84F04006ED099
:103EF0002078DFF84C93C007A9F104054AD009F1F6
:103F000004000168C1F38101012908D00068C0F3F1
:103F1000810002280AD1D9F80000400206D528689D
:103F2000800337D560680028E1D033E06068B0F5E1
:103F3000803F10D0B0F5A02F286810D020F480303A
:103F40002860286820F4802028606068A8B1FEF707
:103F5000B3FD06460DE0286840F48030F4E740F4F5
:103F600080202860F7E700BFFEF7A6FD801B6428CD
:103F700073D828688003F7D50CE0FEF79DFD064650
:103F800005E000BFFEF798FD801B6428F0D8286884
:103F90008003F7D42078DFF8AC8280074FF0000A66
:103FA0003ED5A748001D016811F00C0F08D000682D
:103FB000C0F3810002280BD1D9F80000400207D4D9
:103FC0002868800716D5E068012800D112E033E1A7
:103FD000E068B8B10120C8F80000FEF76DFD0646A4
:103FE00005E000BFFEF768FD801B0228C0D82868E6
:103FF0008007F7D52868216920F0F80040EAC10061
:1040000028600DE0C8F800A0FEF756FD064604E063
:10401000FEF752FD801B02281FD828688007F7D4BE
:104020002078000722D5864F87486169703771B1C3
:1040300001210160FEF740FD064604E0FEF73CFD6D
:10404000801B022809D838688007F7D50EE0C0F831
:1040500000A0FEF731FD064605E082E0FEF72CFDEC
:10406000801B02287DD838688007F7D42078400765
:1040700068D5DFF8CCB100270BF13C0BDBF8000072
:10408000C0000BD4DBF8001041F08051CBF80010D9
:10409000DBF80000012700F0805000906B4E306884
:1040A000C00510D4306840F480703060FEF704FD25
:1040B000009005E0FEF700FD0099401A022850D854
:1040C0003068C005F6D55E4EA0686C3601280FD06A
:1040D0000528306810D020F001003060306820F0F2
:1040E00004003060A068B8B1FEF7E6FC00900FE075
:1040F000306840F00100F4E740F004003060F7E77A
:10410000FEF7DAFC0099411A41F28830814266D804
:1041100030688007F4D50EE0FEF7CEFC009007E093
:10412000FEF7CAFC0099411A41F28830814256D804
:1041300030688007F4D42FB1DBF8001021F08051F3
:10414000CBF80010A069C8B33D49091D0968C1F347
:10415000810102294AD00228504607D0C8F86000E1
:1041600000E03CE0FEF7A8FC04463BE04746C8F808
:104170006000FEF7A1FC064605E000BFFEF79CFCD0
:10418000801B02282BD828688001F7D4D4E90701C6
:104190000843A16A2E4A490802EB0141626A41EADA
:1041A0008211084394F82C1040EA0161C9F800100C
:1041B00001203866FEF780FC044606E03EE000BFC2
:1041C000FEF77AFC001B022809D828688001F7D581
:1041D00034E000BFFEF770FC001B022802D9032068
:1041E000BDE8F88F28688001F4D427E00128F7D0D3
:1041F000D9F80000E26900F4800191421CD1226AE2
:1042000000F03F01914217D147F6C071626A014048
:10421000B1EB821F10D1A26A4FF0FF3300F440319E
:1042200003EB5202B1EB024F06D194F82C1000F0D0
:104230007060B0EB016F01D00120D1E70020CFE723
:104240000438024000004742800E474200700040A0
:104250000000FFFF70B5040003D06079002510B1A5
:1042600005E0012070BD2571204600F00DF8022008
:1042700060712068016841F00401016001206071F3
:10428000A560002070BD000008B50068064988429E
:1042900008D10648016841F040010160006800F063
:1042A0004000009008BD000000080650343802406D
:1042B000704770B5040009D0606A002540B12561DF
:1042C0006561A56294F8510040B10CE0012070BD19
:1042D0006068B0F5827FF4D0E561F2E784F8505071
:1042E000204600F045F8022084F85100206801685B
:1042F00021F040010160A088218900F4827001F45E
:1043000004410843A18901F400610843217C01F0C4
:1043100002010843217D01F001010843218B01F4D2
:1043200000710843217F01F03801084394F8201000
:1043300001F080010843218D01F4005108432168F8
:104340000860A069042101EA104094F8241001F0EB
:1043500010010843216848602068C16921F40061A8
:10436000C1616565012084F85100002070BD000026
:104370002DE9F04186B0064614216846FCF791F914
:1043800025493068884244D124480025016841F419
:10439000805101600068214900F480501439059073
:1043A000086840F001000860086800F0010005900E
:1043B000086840F0020008600868022400F002006B
:1043C0000590802003274FF005088DE8B10169466C
:1043D0001348FEF767FA08208DE8B10169461148D5
:1043E000FEF760FA114C10482060780660604020AB
:1043F000C4E902050001C4E90405A561E56125627F
:1044000020466562FEF79AF908B1FDF7DFFEB46455
:10441000A66306B0BDE8F081003001404438024098
:104420000000024000040240586402404817002087
:104430002DE9F84F044690F8500000271D46164617
:10444000894601280DD04FF0010B84F850B0FEF7DB
:1044500033FB804694F85100BA46012804D0022765
:1044600093E00220BDE8F88FB9F1000F73D0002E61
:1044700071D0032084F85100C4F854A0C4F83090DF
:10448000A686E686C4F838A0A4F83CA0A4F83EA00E
:10449000C4F844A0C4F840A0A068B0F5004F09D10A
:1044A0002068016821F0400101602068016841F442
:1044B0008041016020680168490603D4016841F029
:1044C00040010160E068B0F5006F606803D030B370
:1044D000012E24D041E008B1012E1CD1206B2168AF
:1044E0000088C86006E020688168890709D5216BCB
:1044F0000988C160206B801C2063E08E401EE0862E
:1045000009E0FEF7D9FAA0EB0800A84202D3681C24
:1045100001D031E07DB3E08E0028E4D120E0206BB3
:1045200021680078087306E020688168890709D54A
:10453000216B09780173206B401C2063E08E401EC4
:10454000E0860AE0FEF7B8FAA0EB0800A84203D321
:10455000681C02D010E017E06DB1E08E0028E3D1B6
:1045600042462946204605F02BFA08B12020606516
:10457000A06818B106E0FFE7032706E02068C168DD
:1045800080680090606D00B1012784F851B084F814
:1045900050A0384666E700002DE9F041044690F847
:1045A00050000026012809D0012784F8507094F8A3
:1045B00051000025012804D002264EE00220BDE86B
:1045C000F08189B182B1032084F8510065652163CF
:1045D000A286E286A56365642564A587E587A06851
:1045E000B0F5004F02D00BE0012636E020680168EC
:1045F00021F0400101602068016841F480410160C0
:10460000A16C18480864A16C1748C863A16C1748CE
:10461000C864A06C0565E38E2268216B0C32A06C27
:10462000FEF7F6F838B1606D40F0100060650126C5
:1046300084F8517011E020680168490603D40168CC
:1046400041F0400101602068416841F02001416073
:104650002068416841F00201416084F850503046C2
:10466000ADE70000539900085D99000831990008F2
:104670007047704710B5401EB0F1807F01D3012014
:1046800010BD4FF0E02460610F21601707F092FB2E
:104690000020A06107202061002010BD70477047F6
:1046A00070B590F83C20012A32D0012480F83C40BB
:1046B000022280F83D2003685A689D6822F0700647
:1046C0000A6832435A60134B02689A4214D0B2F11E
:1046D000804F11D0104B9A420ED0104B9A420BD003
:1046E0000F4B9A4208D00F4B9A4205D00E4B9A427C
:1046F00002D00E4B9A4204D1496825F08003194339
:10470000916080F83D40002180F83C10084670BD63
:10471000022070BD0000014000040040000800407D
:10472000000C00400004014000400140001800401F
:1047300010B5040003D094F83D0010B107E001204B
:1047400010BD002084F83C00204600F01FF8022035
:1047500084F83D00211D206805F034FA012084F81A
:10476000460084F83E0084F83F0084F8400084F856
:10477000410084F8420084F8430084F8440084F83F
:10478000450084F83D00002010BD000008B5114A26
:1047900001681148914211D1016841F002010160A4
:1047A0000068002200F00200009011461D20FEF774
:1047B00025FCBDE808401D20FEF712BC074A9142C7
:1047C00007D1016841F080010160006800F08000BD
:1047D000009008BD0004004040380240001C00402A
:1047E00090F83D10012901D001207047022180F886
:1047F0003D100168CA6842F00102CA6000681149B0
:10480000884214D0B0F1804F11D00F4988420ED0A9
:104810000E4988420BD00E49884208D00D49884283
:1048200005D00D49884202D00C49884204D18168E4
:1048300001F00701062903D0016841F00101016080
:1048400000207047000001400004004000080040C4
:10485000000C0040000401400040014000180040EE
:1048600070B5044690F83C000025012817D00126B9
:1048700084F83C60022084F83D002068826822F0C1
:10488000770222F47F4282600868502838D00DDC1D
:1048900020284FD005DC90B3102811D14AE0022027
:1048A00070BD302846D040280AD13BE060282FD088
:1048B00070280DD0B0F5805F03D0B0F5005F12D046
:1048C000012584F83D60002084F83C00284670BD36
:1048D000CB68D1E90121206805F0E5F920688168FD
:1048E00041F0770109E0CB68D1E90121206805F0AA
:1048F000DAF92068816841F480418160E1E719E0DC
:10490000CA684968206805F0A3FA5021206806E0CB
:10491000CA684968206805F0ACFA6021206805F093
:10492000CCF9CEE7CA684968206805F091FA4021C1
:104930002068F4E7226801461046F0E7704770B53A
:104940000446006801694FF00005C943890715D482
:10495000C168C943890711D4E91E0161012020778C
:10496000206880698007204602D0FFF7E7FF04E057
:1049700000F0C2F8204600F054F92577206801695C
:10498000C943490717D4C168C943490713D46FF015
:1049900004010161022020772068806910F4407FC3
:1049A000204602D0FFF7CAFF04E000F0A5F8204639
:1049B00000F037F9257720680169C943090716D443
:1049C000C168C943090712D46FF0080101610420CE
:1049D00020772068C0698007204602D0FFF7AEFF2D
:1049E00004E000F089F8204600F01BF925772068E4
:1049F0000169C943C90617D4C168C943C90613D49C
:104A00006FF010010161082020772068C06910F460
:104A1000407F204602D0FFF791FF04E000F06CF8E1
:104A2000204600F0FEF8257720680169C943C907D0
:104A300008D1C168C943C90704D1891E0161204654
:104A400000F092F920680169C943090609D4C168D8
:104A5000C943090605D46FF0800101612046FFF7C4
:104A60001DFE20680169C943490609D4C168C943CC
:104A7000490605D46FF040010161204600F086F937
:104A800020680169C94389060BD4C168C9438906F6
:104A900007D46FF0200101612046BDE87040FFF7A8
:104AA000FEBD70BD10B586B0044614216846FBF704
:104AB000F8FD0E492068884215D10D480021026892
:104AC00042F001020260006800F001000590402001
:104AD00000900220CDE901010920CDE903106946CB
:104AE0000448FDF7DFFE06B010BD0000001C0040CA
:104AF0003038024000000240704770B5044690F81C
:104B00003C0000260D4601280FD0012084F83C000F
:104B10006AB1042A1DD0082A2FD00C2A3FD00126C2
:104B2000002084F83C00304670BD022070BD206833
:104B300005F0CCF82068816941F0080181612068A6
:104B4000816921F004018161206881692A6911432A
:104B500011E0206805F0EAF82068816941F40061FD
:104B600081612068816921F48061816120688169A7
:104B70002A6941EA02218161D2E7206805F00CF937
:104B80002068C16941F00801C1612068C16921F054
:104B90000401C1612068C1692A69114311E02068DC
:104BA00005F02EF92068C16941F40061C1612068F7
:104BB000C16921F48061C1612068C1692A6941EA43
:104BC0000221C161ACE710B5040003D094F83D00A8
:104BD00010B107E0012010BD002084F83C00204601
:104BE00000F01EF8022084F83D00211D206804F02A
:104BF000E9FF012084F8460084F83E0084F83F0075
:104C000084F8400084F8410084F8420084F84300AE
:104C100084F8440084F8450084F83D00002010BD6D
:104C20007047704710B50446022249B104290ED0DE
:104C3000082913D094F84100012816D0012010BD96
:104C400094F83E000128F9D184F83E200FE094F852
:104C50003F000128F2D184F83F2008E094F840009A
:104C60000128EBD184F8402001E084F841200122A2
:104C7000206805F00BF816492068164A884201D0D2
:104C8000904203D1436C43F400434364206888425C
:104C900013D0B0F1804F10D00F4988420DD00F498A
:104CA00088420AD00E49884207D0904205D00D496B
:104CB000884202D00C49884204D1816801F0070182
:104CC000062903D0016841F001010160002010BDF8
:104CD00000000140000401400004004000080040C2
:104CE000000C0040004001400018004030B5044670
:104CF0000D460068002204F0C9FF194B41F2111162
:104D000020688A10984202D0164B984209D1036A53
:104D10000B4206D1036A134203D1436C23F40043D0
:104D200043642068036A0B4206D1016A114203D131
:104D3000016821F00101016001203DB1042D08D07E
:104D4000082D09D084F84100002030BD84F83E00D1
:104D5000FAE784F83F00F7E784F84000F4E7000042
:104D6000000001400004014010B5074900680968CF
:104D7000884207D1FCF7ACFAFCF7E0FABDE8104036
:104D8000FDF73EB910BD0000A8170020704770B5B0
:104D9000040004D094F83D00002510B106E0012085
:104DA00070BD84F83C50204600F022F8242084F89E
:104DB0003D002068C16821F40051C160204605F023
:104DC000C1F82068016921F49041016120684169BE
:104DD00021F02A0141612068C16841F40051C1609D
:104DE0002564202084F83D0084F83E00002070BD3A
:104DF00010B586B0044614216846FBF752FC1349EF
:104E00002068884220D112480021026842F0100236
:104E10000260006800F0100005900D481438026828
:104E200042F002020260006800F002000590C0201B
:104E300000900220CDE90101032003900720049097
:104E400069460448FDF72EFD06B010BD0010014074
:104E500044380240000402402DE9F843044690F82B
:104E60003D001F4616460D4620284CD1C5B1BEB1A7
:104E700094F83C00012846D0012084F83C004FF013
:104E80000008C4F84080212084F83D00FDF714FE9E
:104E9000A6848146E684A068B0F5805F03D004E074
:104EA0000120BDE8F883206928B12E465FF0000597
:104EB00084F83C800EE00026FAE78021204605F0C9
:104EC000C7F8A0B9AEB116F8010B21684860E08CB4
:104ED000401EE084E08C4B464FF000020097002813
:104EE000EBD14FF04001204605F0B2F830B103207D
:104EF000D7E735F8020BC0F30800E6E7202084F876
:104F00003D000020CDE70220CBE7FEE70021C1767F
:104F1000417601218176704770B515490268154BBD
:104F20004FF040248A4201D11A4600E02246D5685B
:104F3000C26A961CC6621580428E521E4286428EFE
:104F4000002A14D102688A4201D1194600E02146A4
:104F5000496821F0600100D023465960418D002945
:104F600005D14FF0010180F84110FDF7A5FE70BD9D
:104F7000003800400034004070B5416A144B8A1C70
:104F8000426205680988134A4FF040249D4201D1CE
:104F9000154600E02546E960418D491E4185418D59
:104FA000002914D10168994201D1114600E021463F
:104FB000496821F0A00100D022465160418E0029AD
:104FC00005D14FF0010180F84110FDF775FE70BD6D
:104FD00000380040003400407CB501680446886811
:104FE000009094F841000125042834D10098C007AE
:104FF00018D04868C043400614D4C9682046E26A05
:105000001180E16A891CE162618E491E6186618EB0
:1050100041B901684A6822F060024A6080F8415054
:10502000FDF782FF0098400615D520684168C94306
:10503000890610D4416821F0600141602068C16890
:105040008068019084F84150606C40F00200606418
:105050002046FDF732FE94F84100032834D1009831
:10506000800719D521684868C043000614D4626AD5
:1050700020461288CA60616A891C6162618D491E7E
:105080006185618D41B901684A6822F0A0024A60D9
:1050900080F84150FDF749FF0098000714D52068BB
:1050A0004168C94389060FD4416821F0A0014160DD
:1050B00020688068009084F84150606C40F00400E3
:1050C00060642046FDF7F9FD7CBD000010B50D4B76
:1050D0000024C3F880420C48016821F00C010160F3
:1050E000016841F004010160C3F88442022003F525
:1050F000207308F02EFF01201860022008F029FF1D
:105100001C6010BD00004042000002400E4810B577
:10511000016886B041F0010101600068012400F0DF
:10512000010005900320CDE900040220CDE90240F2
:1051300069460648FDF7B6FB0548C0F88042C0F84E
:10514000844206B010BD000030380240000002402A
:105150000000404230B50D4B0024C3F880420C489B
:10516000016821F00C010160016841F00401016057
:105170000125C3F88452022003F5207308F0E9FEEC
:105180001D60022008F0E5FE1C6030BD00004042BA
:105190000000024030B50D46044600F0B1F860064C
:1051A000000E00F081F800F0EDF8284600F07CF8E1
:1051B00000F0E8F800F0A4F8012000EB4400C0B2D1
:1051C00000F072F800F0DEF8002000F039F8044634
:1051D00000F0B6F8204630BDF0B51D4614460F4627
:1051E000064600F08DF87006000E00F05DF800F045
:1051F000C9F818B100F0A4F80120F0BD384600F05D
:1052000053F800F0BFF800F07BF8012000EB4600F7
:10521000C0B200F049F800F0B5F809E0012C0DD05B
:105220005FF0010000F00CF8641E05F8010BE4B219
:10523000002CF3D100F084F80020F0BD0020F1E74D
:105240002DE9F041804616480024016821F00C0148
:10525000016001680160134D234626465FF0010797
:10526000C5F88062022008F074FEC5F880726006FE
:10527000040ED5F8040208B1641CE4B2012008F061
:1052800068FE5B1CDBB2082BEAD3B8F1000F04D038
:10529000FFF71CFF2046BDE8F081FFF75BFFF9E751
:1052A0000000024000004042F0B505461248016887
:1052B00021F00C010160016841F0040101600F4B15
:1052C0000026C3F8806234460127E809C3F8840247
:1052D0006806050E022008F03CFEC3F8807202202A
:1052E00008F037FEC3F88062022008F032FE641C2A
:1052F000E4B2082CE9D3F0BD0000024000004042B7
:105300000D4810B5016821F00C010160016841F001
:1053100004010160094B0120C3F88402C3F8800234
:10532000042003F5207308F014FE00245C600420C0
:1053300008F00FFE1C6010BD00000240000040425B
:105340000E4800B5016821F00C010160016841F0D0
:10535000040101600A4B0020C3F88002C3F88402F4
:10536000042003F5207308F0F4FD01201860586054
:1053700004205DF804EB08F0ECBD000000000240E2
:105380000000404230B512480023016821F00C01B2
:105390000160016801600F4C0125C4F88452284661
:1053A00008F0D7FDC4F88052012008F0D2FD07E0D4
:1053B0005B1CDBB2FA2B03D9FFF7C2FF012030BD23
:1053C000D4F804020028F3D1C4F8800230BD0000F4
:1053D000000002400000404270B515460E460446EB
:1053E000FFF78EFF6006000EFFF75EFFFFF7CAFFB4
:1053F00050B93046FFF758FFFFF7C4FF2846FFF7C4
:1054000053FFFFF7BFFF18B1FFF79AFF012070BDF0
:10541000FFF796FF002070BDF0B51E4615460F46FB
:105420000446FFF76DFF6006000EFFF73DFFFFF734
:10543000A9FF60B93846FFF737FFFFF7A3FF002445
:105440000BE0305DFFF730FFFFF79CFF18B1FFF76F
:1054500077FF0120F0BD641CE4B2AC42F1D3FFF74A
:105460006FFF0020F0BD0000F0B500230A243025B6
:1054700037261F4611E000BFB4EB107F02D905EBC1
:10548000107C01E006EB107C01F813C001EB430C2B
:1054900000015B1C8CF80170DBB29342ECD3F0BDD1
:1054A00070B50546FDF708FB174CE168401AA842A5
:1054B00025DD04F10802911E881E00F029F8B4F9D8
:1054C000063041F2883101208B4201DD607003E03B
:1054D0000E4A934205DA2070FDF7EEFA00F5C87027
:1054E0000CE0B4F904308B4201DDA07002E093427D
:1054F00006DAE070FDF7E0FA00F51670E06070BDC6
:10550000FDF7DAFAFAE70000A402002078ECFFFFCA
:105510007CB514460D4606466B460622432168209C
:10552000FFF75AFE00280BD1BDF8001049BA3180B0
:10553000BDF8021049BA2980BDF8041049BA21808B
:105540007CBD10B5FFF7E2FD80226B216820FFF7DC
:1055500043FF6420FDF794F900226B216820FFF7D8
:105560003BFF032000F037F8002000F02EF8322037
:1055700000F050F8002238216820FFF72DFF0022AC
:105580006A216820FFF728FF002223216820FFF707
:1055900023FF802237216820FFF71EFF7521682036
:1055A000FFF7F8FD682801D0012010BD01226B2112
:1055B0006820FFF711FF00226C216820FFF70CFF25
:1055C000642000F027F8002010BDC006020E1C2148
:1055D0006820FFF701BFC006020E1B216820FFF7FD
:1055E000FBBEBC2801D3012210E0622801D30222B5
:1055F0000CE02A2801D3032208E0142801D3042256
:1056000004E00A2801D3052200E006221A216820BE
:10561000FFF7E2BE10B504464FF47A70844201D918
:10562000044602E0042C00D20424B0FBF4F0401E37
:10563000C2B219216820FFF7CFFE6008BDE8104014
:10564000FFF7CFBF074910B5054808600846FCF7CB
:105650007FFF002803D0BDE81040FCF7B7BD10BDA8
:105660000030024020000020114808B5016841F4D4
:1056700080010160016801F480010091016841F43A
:10568000001101600068002200F400100090114633
:105690000B20FDF7B3FC0B20FDF7A2FC0022114606
:1056A0003B20FDF7ABFCBDE808403B20FDF798BC74
:1056B000303802402DE9F04F87B014216846FAF7E0
:1056C000F0FF43480025016841F0040101600168D2
:1056D00001F004010591016841F080010160016859
:1056E00001F080010591016841F00101016001684C
:1056F00001F001010591016841F0020101600168BA
:1057000001F002010591016841F0080101600068A3
:10571000DFF8C0B000F008004FF4005405900022FC
:1057200021465846FDF7C3F94FF4887601223146E9
:105730002948FDF7BCF94FF4404700223946274875
:10574000FDF7B5F9DFF898A04FF4807800224146C4
:105750005046FDF7ACF94FF400790122494658460E
:10576000FDF7A5F900940124694658460194CDE956
:105770000245FDF797F8CDE900640326CDE902461E
:1057800069461548FDF78EF8CDE90074694613485F
:10579000CDE90245FDF786F8CDE90084694650461B
:1057A000CDE90245FDF77EF8CDE90094CDE902464A
:1057B00069465846FDF776F83002CDE9000569469E
:1057C00002940648FDF76EF807B0BDE8F08F0000C0
:1057D000303802400008024000000240000402404D
:1057E000000C02400D4810B50B4901604FF44071A8
:1057F000416000210322C0E90212094AC0E90412F3
:105800008161C1610162FDF75BFA002803D0BDE848
:105810001040FCF7DBBC10BD003C004038160020F7
:1058200000770100074910B5054808600846FEF7F3
:1058300011FD002803D0BDE81040FCF7C7BC10BD27
:1058400000080650E01600200F4810B50D49016011
:105850004FF48271416000218160C1604FF4007299
:105860000161C0E90512C1610162416281620A21E0
:10587000C162FEF71EFD002803D0BDE81040FCF712
:10588000A5BC10BD00300140F016002010B588B056
:105890001C216846FAF705FF1548144900240160E9
:1058A0005321C0E9011440F2E731C0E903148461D7
:1058B000FEF73EFF08B1FCF789FC0D48FFF783F9BE
:1058C00008B1FCF783FC6020CDE9000402940022BB
:1058D000694607480494FFF710F908B1FCF776FC15
:1058E0000348FFF7DFF808B010BD0000001C0040BF
:1058F000F017002010B586B00024174800940194DA
:105900000294039404941349059401605321C0E95F
:10591000011440F2E731C0E903148461FEF708FF87
:1059200008B1FCF753FC4FF48050009069460A48D8
:10593000FEF796FF08B1FCF749FC049404A9064859
:105940000594FEF7ADFE002801D0FCF73FFC06B041
:1059500010BD000000040040A81700200C4810B53E
:105960000A4901600B494160002181600C22C1603D
:10597000C0E904128161C161FFF709FA002803D070
:10598000BDE81040FCF722BC10BD00000010014033
:105990003818002080841E00FEE700001CB5724805
:1059A0000A21724C0089401CB0FBF1F000EE100A95
:1059B00001200021B8EE400A84ED060AA0726C486E
:1059C000FBF75AFD6A4800214830FBF755FD68484F
:1059D000684A02211830FBF74FFD6548002130303E
:1059E000FBF74AFD6248644A02216030FBF744FD40
:1059F0005F485F4918300123007C00905FA2783136
:105A00005B48FBF7E7FC5A48594930300123007CDA
:105A100000905CA2B0315648FBF7DCFC5448544976
:105A200048300123007C009059A2E8315048FBF730
:105A3000D1FC4F480123603057A2007C00905849A8
:105A40004B48FBF7C7FC56490023383955A2A1F54E
:105A5000A470FBF7BFFC52495548A83900900223B7
:105A600054A2A1F1D800FBF7B5FC554904F1180088
:105A7000CDE900014A490423703952A2A1F588708A
:105A8000FBF7A8FC5549002351A2A1F57270FBF762
:105A9000A1FC4349A01C38310090052350A2A1F578
:105AA000E870FBF797FC3E49E01C7031009005233D
:105AB0004DA2A1F50270FBF78DFC3949201DA831DC
:105AC000009005234AA2A1F51070FBF783FC34492E
:105AD000601DE0310090052348A2A1F51E70FBF780
