:020000040801F1
:10000000908401209D010108B56A0108AB440108F4
:10001000ED4C01085F0E010801AA01080000000074
:1000200000000000000000000000000069870108D7
:10003000550F010800000000A1840108AD870108E8
:10004000B7010108B7010108B7010108B7010108AC
:10005000B7010108B7010108B7010108B70101089C
:10006000B7010108B7010108B7010108B70101088C
:10007000B7010108B7010108B7010108B70101087C
:10008000B7010108B7010108B7010108B70101086C
:10009000B7010108B7010108B7010108B70101085C
:1000A000B7010108B7010108B7010108B70101084C
:1000B000B70101085D880108B7010108B70101080F
:1000C000B7010108B7010108B7010108B70101082C
:1000D000B7010108B7010108B7010108B70101081C
:1000E000B7010108B7010108B7010108B70101080C
:1000F000B7010108B7010108B7010108B7010108FC
:10010000B7010108B7010108B7010108B7010108EB
:10011000B7010108B7010108B7010108B7010108DB
:10012000B7010108B7010108B7010108610E010814
:10013000B7010108B7010108B7010108B7010108BB
:10014000B7010108B7010108B7010108B7010108AB
:10015000B7010108B7010108B7010108B70101089B
:10016000B7010108B7010108B7010108B70101088B
:10017000B70101083D810108B70101080000000036
:10018000B7010108B7010108DFF80CD000F02AFE22
:100190000048004729CD0108908401200648804787
:1001A00006480047FEE7FEE7FEE7FEE7FEE7FEE75C
:1001B000FEE7FEE7FEE7FEE7418801088901010846
:1001C0002DE9F05F0546002092469B46884606468C
:1001D000814640241BE0284641464746224600F01F
:1001E000CAFC53465A46C01A914110D311461846CC
:1001F000224600F0B1FC2D1A67EB01084F4622465B
:100200000120002100F0A8FC17EB00094E41201E40
:10021000A4F10104DFDC484631462A464346BDE8E6
:10022000F09F00000649074A0868504343F239022C
:10023000104408604008704701490860704700009A
:10024000B80200206D4EC641014610B509683C2237
:10025000B1FBF2F302FB1313B1FBF2F11D48036093
:10026000B1FBF2F302FB1313B1FBF2F1182243606E
:10027000B1FBF2F302FB1313B1FBF2F183600A1D31
:100280000723B2FBF3F403FB142282618A0040F2DD
:10029000B55102F66C32B2FBF1F344334361B2FB69
:1002A000F1F301FB13218908C1613B2903D3027DCE
:1002B000920700D0491C0022074C13460261E25C01
:1002C0008A4203D8891A5B1C0361F8E7491CC160A4
:1002D00010BD000060340120B846020870B5054624
:1002E00001B90721541A241DB4F5B67F09DD286829
:1002F00000F036F9A04204DC2868401C2860012088
:1003000070BD002C05DA2868401E286000F028F92E
:100310000444072094FBF0F0401C70BD2DE9F04F21
:1003200089B01D468A468046002401AF4FF0070B76
:100330000192079057F8241011F8010B47F8241088
:1003400048B125280DD0BAF1010F06D908F8010BE4
:10035000AAF1010A5CE0641E5AE0002009B0BDE881
:10036000F08F11F8010B47F824100028F3D0022673
:100370004FF030095A284BD020DC4D2873D014DCC4
:10038000442871D008DC2528DDD041282AD0422815
:100390002ED043283CD130E0462847D0472857D0BC
:1003A000482862D0492833D161E0523808282FD23A
:1003B000DFE800F0787AA6838A97A6A86138192822
:1003C00026D2DFE800F00D1318202E253513255C0A
:1003D000252560642566256D257375258B9BA000FA
:1003E0006AA000E070A0A9690091B4E07DA000E0DF
:1003F00088482969F8E788A007E06969642091FBCB
:10040000F0F0133082E0E86880E0641C47F82400D4
:10041000002C8FDA002088F800000799A8EB010073
:100420009CE7E8684FF02009009070E07EA0ECE7C0
:10043000686900F26C700090D5E906126846FFF713
:100440004DFF0099642091FBF0F200FB12105DE07B
:100450006869042600F26C700090D5E906126846BF
:10046000FFF73CFF53E010E048E0A8684EE0A868C2
:100470000C21173090FBF1F201FB120001E0E8695A
:100480000326401C42E02869FBE768683EE069A05B
:10049000BBE7A8680C2801DA67A0B6E767A0B4E755
:1004A00067A0B2E769A0B0E728682FE069A0ACE7D1
:1004B000A869012608BB072028E0D5E90610401AE4
:1004C000C01D90FBFBF021E0686900F26C700090A9
:1004D000D5E906126846FFF701FF17E00126A86973
:1004E00014E0A9695846891D91FBF0F20BFB12112B
:1004F000EA69511AC91D91FBFBF007E056A084E799
:1005000058A082E70426686900F26C700090002110
:100510008DF8181006A80A2113E0009A92FBF1F357
:1005200001FB1322303200F8012D009A92FBF1F208
:10053000009232B901E000F8019D321EA6F10106D9
:10054000F9DC321EA6F10106E7DC5EE710F8011BBC
:100550000029FBD100994A1E00920029F6DC54E7DD
:1005600081070CD1642190FBF1F201FB120151B91A
:100570004FF4C87190FBF1F201FB120018B100209A
:1005800000F26D1070470120FAE7000053756E000D
:100590004D6F6E00547565005765640054687500B2
:1005A000467269005361740053756E646179004D41
:1005B0006F6E646179005475657364617900576585
:1005C000646E6573646179005468757273646179EF
:1005D000004672696461790053617475726461796F
:1005E000000000004A616E00466562004D617200C5
:1005F000417072004D6179004A756E004A756C0059
:1006000041756700536570004F6374004E6F76004C
:1006100044656300C44602082561202562202565E3
:10062000202554202559000025592D256D2D2564A0
:10063000000000000A000000414D0000504D000085
:1006400025493A254D3A25532025700025483A255D
:100650004D00000009000000256D2F25642F25792D
:100660000000000025483A254D3A255300000000BF
:1006700040EA01039B0703D009E008C9121F08C024
:10068000042AFAD203E011F8013B00F8013B521EA4
:10069000F9D27047D2B201E000F8012B491EFBD21B
:1006A00070470022F6E710B513460A46044619467D
:1006B000FFF7F0FF204610BD421C10F8011B002977
:1006C000FBD1801A704710B5484304460CF0EAFB92
:1006D000002805D00021002C02D0641E0155FAE745
:1006E00010BD2DE9FE4F804681EA0300C00F0C4685
:1006F000009021F0004123F00045B8EB0200A94131
:1007000005D24046214690461C460B46024623F041
:100710000040104347D0270DC7F30A00C3F30A5126
:100720000290401A019040286BDAC3F3130040F4A2
:10073000801B0098924620B10023D2EB030A63EBA2
:100740000B0B01985946C0F14002504600F004FAE4
:1007500006460D4650465946019A00F01CFA10EB29
:1007600008006141002487EA115284EAE7731A43C2
:1007700040D0009A62B3019A012A4FEA075215DC71
:10078000001B61EB02014FF0004202EA0752CDE983
:100790000042001C41F5801132462B4600F053FA0E
:1007A00003B0BDE8F08F40462146F9E7001B61EB3E
:1007B0000201001C41F5801300185B412018A2F5CE
:1007C000001747EB030140EAD570B6196D4111E0FF
:1007D0006D084FEA360645EAC0754FEA0752001B1E
:1007E00061EB0201001C41F5801149084FEA30001D
:1007F0000019514132462B4603B0BDE8F04F00F0DE
:1008000013BA0098012240000023D0EB020263EBF0
:10081000E073009821464FEAE074B8EB000061EB0A
:100820000401E9E783F000435BE781F0004158E70A
:100830002DE9FE4F81EA030404F0004421F0004159
:1008400000944FF0000B23F0004350EA01045ED007
:1008500052EA03045BD0C3F30A54C1F30A552C4493
:10086000A4F2F3340194A0FB0254C1F3130141F448
:100870008011C3F3130343F4801301FB024400FB14
:10088000034E840A970A44EA815447EA8357A4FB3B
:10089000076802958D0A05FB07854FEA932C04FB38
:1008A0000C542705029D4FEA065847EA1637B5EB68
:1008B00008056EEB070C870E920E47EA811742EA95
:1008C0008312A7FB0201B6EB0B0164EB00042B0DB6
:1008D00043EA0C335E1844EB1C50DA465146E7FB02
:1008E0000201C5F313044FEA0B3343EA14534FEAF2
:1008F0000432019C43EA0603A4F10C040294009C18
:10090000CDE900B400F09FF903B0BDE8F08F0020FE
:100910000146F9E72DE9F04D81EA030404F0004BAC
:1009200021F0004514464FF0000A23F0004150EA40
:10093000050220D054EA01021DD0C5F30A57024631
:10094000C5F31303C1F31300C1F30A5640F4801535
:1009500043F48013A7EB0608101BD64608F2FD38B7
:1009600073EB050002D308F1010801E092185B4126
:10097000B8F1000F03DA00200146BDE8F08D002039
:100980004FF48011064684460EE0171B73EB0507F3
:1009900005D3121B63EB050306434CEA010C49081F
:1009A0004FEA300092185B4150EA0107EDD152EA5C
:1009B000030012D082EA040083EA0501084305D04F
:1009C000101BAB4106D20122002306E000224FF0AB
:1009D000004302E06FF0010253101AEB06004CEBEB
:1009E000085110EB0A0041EB0B01BDE8F04D00F09F
:1009F0001BB90EB5C10F80EAE0700844CA07002198
:100A000040F233438DE80E000A460B4600F01BF916
:100A100003B000BD0EB540F2334102910021CDE993
:100A200000110A460B4600F00EF903B000BD70B588
:100A3000C1F30A5201F000450024C1F3130140F252
:100A4000FF3341F480119A4201DA002070BD40F278
:100A500033439A42A2F2334203DC524200F08BF855
:100A600000E090402C43F1D0404270BDC1F30A52E7
:100A700010B5C1F3130140F2FF3341F480119A42E3
:100A800001DA002010BD40F233439A42A2F2334211
:100A900003DC524200F06FF810BD904010BD00F032
:100AA000004230F000400AD0C10D01F56071C0F382
:100AB000160042EA0151C208400711437047002066
:100AC0000146704730B5041E71F1000404DB4FF09D
:100AD0000044404264EB0101141E73F1000405DB85
:100AE0001C464FF00043524263EB0403994208BF97
:100AF000904230BD01F0004330B421F0004150EA93
:100B0000010206D00A0DA2F56072C1F31301002A9A
:100B100002DC30BC00207047440F44EAC104C1002D
:100B2000E01830BC00EBC25000F047B830B50B46BF
:100B3000014600202022012409E021FA02F59D420D
:100B400005D303FA02F5491B04FA02F52844151EE1
:100B5000A2F10102F1DC30BD202A04DB203A00FAC8
:100B600002F1002070479140C2F1200320FA03F304
:100B7000194390407047202A04DB203A21FA02F002
:100B80000021704721FA02F3D040C2F120029140C7
:100B9000084319467047202A06DBCB17203A41FA52
:100BA00002F043EAE07306E041FA02F3D040C2F1FA
:100BB000200291400843194670470029A8BF70479A
:100BC000401C490008BF20F00100704710B4B0FA83
:100BD00080FC00FA0CF050EA010404BF10BC70471E
:100BE00049B1CCF1200421FA04F411FA0CF118BF38
:100BF000012121430843A3EB0C01CB1D4FEA006107
:100C00004FEA102042BF002010BC704700EBC350D9
:100C100010440029A4BF10BC7047401C490008BF05
:100C200020F0010010BC704710B5141E73F10004D1
:100C300008DA401C41F1000192185B411A4301D1CE
:100C400020F0010010BD2DE9F04D92469B4611B1F8
:100C5000B1FA81F202E0B0FA80F220329046FFF75A
:100C60007BFF04460F4640EA0A0041EA0B01534667
:100C70005A46084313D0114653EA010019D0C8F16F
:100C800040025046FFF777FF05460E46504659464C
:100C90004246FFF761FF084305D0012004E02046EB
:100CA0003946BDE8F08D0020054346EAE0762C4346
:100CB00037430A986305E40AA0EB08000022FD0A06
:100CC00044EA47540A3002D500200146E9E701050D
:100CD00010196941DDE9084500196941BDE8F04D89
:100CE000A2E770B521F0004303430CD0C1F30A55CD
:100CF0000024D5EB040564EB0403D617AD1AB34109
:100D000002DB0020014670BD201841EB025170BD8E
:100D10002DE9F04D00231A461B1A8A4103DB0020FF
:100D20000146BDE8F08DC1F30A52C1F3130141F44D
:100D300080154FF0000BD10702D100186D41521EF3
:100D40000027044640F2FF11384601EB620A3E4696
:100D50008046024600204FF48011FFF70CFFC219B5
:100D60007141BB1846EB0100B4EB030C75EB000CB2
:100D700004D3E41A65EB000517460E46241908F162
:100D800001006D4180463428E3DDF91946EB060089
:100D9000091BA84103D24FF0FF32134601E00022A5
:100DA00013461BEB070046EB0A51BDE8F04DFFF779
:100DB0003BBFC1F30A52C1F3130140F2FF3341F4C8
:100DC00080119A4202DA00200146704740F2334314
:100DD0009A42A2F2334202DC5242FFF7CCBEFFF746
:100DE000BBBE0000064C074D06E0E06840F0010382
:100DF00094E8070098471034AC42F6D3FFF7C8F9DF
:100E0000504802087048020870B58C1810F8015B51
:100E100015F0070301D110F8013B2A1106D110F893
:100E2000012B03E010F8016B01F8016B5B1EF9D197
:100E30002B0705D40023521E0DD401F8013BFAE71D
:100E400010F8013BCB1A921C03E013F8015B01F888
:100E5000015B521EF9D5A142D8D3002070BDFEE738
:100E6000014801F06BB900002C160020016818231E
:100E7000CAB2103AB2FBF3F2054B6FF30901032A31
:100E80009B5CC36500D9091D816508467047000059
:100E900023D0010810B5014600208B698A6A4FF003
:100EA000C07453B1B3F5005F15D072B1012A0CD0F4
:100EB000022A0AD0032A09D104E01AB1012A06D075
:100EC000022A03D1C96AC90100D5012010BDC96A2F
:100ED000A142FAD010BD002AF7D0012AF2D0022A8E
:100EE000F3D0032AF3D010BD30B50468256825F48B
:100EF00080252560046863608368402B036803D005
:100F000099600068C26030BD9A600068C16030BD01
:100F100070B50F4D6C6805E0A189A06801F08AFBEF
:100F200060706468002CF7D1002041F2883100BF66
:100F3000401C8842FBDB6C6807E0A189A06801F0D7
:100F400079FB6178084320706468002CF5D170BD8E
:100F5000E401002070470000032303760023436070
:100F600003614361816082810121817004494A6883
:100F70001AB18A685060886070474860FBE70000DB
:100F8000E401002010B50120FFF7C2FF174800233D
:100F900040F6B832406826E0847801788C4201D966
:100FA000037607E002D24FF0010402E069B14FF08E
:100FB00003040476047E54B1012C0AD0022C0AD01A
:100FC000446994420BD342610BE00224F1E70361D0
:100FD00007E0436105E004690A34046101E00A3472
:100FE0004461817040680028D6D110BDE401002022
:100FF00070B5244C4FF4FA76002563683FE018463C
:1010000007F0DCFA187E012817D11869B04208D31E
:10101000184603F04BFA187E01280ED11869B04229
:101020000BD2207810B1187F20B108E0184607F0E5
:1010300067FA23E0012018770FE02078F0B1187FDD
:10104000012802D002280FD018E0187E28B958696C
:10105000F02802D20220187710E05869F0280DD944
:10106000184607F04DFA08E0187E012806D11869E5
:10107000B04203D2184605F017FD1D775B68002BC0
:10108000BDD170BDE40100200FB4002310B5CC69C0
:101090009FED250A237081F820304C6A84ED000A08
:1010A00081ED0A0A81ED0B0A81F830304B634A6109
:1010B0009DF814200A71082A1ED2DFE802F01D04F0
:1010C000080E0E080819069A81F8302014E0069AD6
:1010D000CA61127881F820200EE0069A4A62D2EDA9
:1010E000000AC1ED0B0AD2ED000AC1ED0A0A01E0C7
:1010F000069A8A61079A4A630B60826882B1C26865
:101100005279521C4A71C2681160C1604879C88026
:1011100081ED020A81ED030A0B8210BC5DF814FB1D
:101120004B718160F1E70000000000000FB4002166
:1011300041618160C16001609DF804200271022A52
:1011400001D1029A4261074AD36C3BB1116D0B7C0D
:101150005B1C03740860106504B070470174D064B0
:10116000F9E70000F00100202DE9F041234C0125B2
:1011700005F12800002607B206F10A002288394648
:1011800000B206F051F9B61CDD2EF5DBAD1CC92D01
:10119000EEDB142001F044F906F0E0FB012505F137
:1011A0002800012607B206F10A002288394600B25B
:1011B00006F03AF9B61CDD2EF5DBAD1CC92DEEDBD1
:1011C000142001F02DF906F0C9FB002505F12800D7
:1011D000012607B206F10A002288394600B206F05D
:1011E00023F9B61CDD2EF5DBAD1CC92DEEDB14207A
:1011F00001F016F9BDE8F04106F0B0BB880200200E
:101200001CB504460279008A283001B2072A7CD234
:10121000DFE802F00E04435C5C112A005DA20C20A2
:1012200006F03EFF208A6269283001B21B20A9E047
:101230000C206269A6E058A20C2006F031FF208A3B
:101240006269283001B21B2006F02AFFE0690921FB
:1012500003230078CDE90001208A1222401E01B24A
:10126000BF2000F0E5FA1CBD4BA20C2006F018FFD1
:10127000208A6269283001B21B2006F011FFE06964
:10128000012102230078CDE90001208A1222401EAC
:1012900001B2BF2000F098F81CBD3FA20C2006F060
:1012A000FFFE208A6269283001B21B2006F0F8FE9A
:1012B000E06900780028208A00F1280001B202D0FD
:1012C00036A2C3205EE036A2B7205BE032A20C203B
:1012D00006F0E6FE208A6269283001B21B2006F083
:1012E000DFFE606A2F4990ED000A10EE100A884276
:1012F0000CDAB5EEC00AF1EE10FA07DB208A022301
:10130000283001B20422B22032E040E010EE100A90
:10131000254988420BDA10EE100A2449884206D289
:10132000208A0223283001B20422A62020E010EEF9
:10133000100A1F4988420BDA10EE100A1D49884234
:1013400006D2208A0223283001B204229A200FE01C
:1013500010EE100A184988420FDA10EE100A1749E9
:1013600088420AD2208A0223283001B204228E2029
:1013700002B0BDE8104006F054BE208A10A228300A
:1013800001B29F2002B0BDE8104006F089BE02A263
:1013900045E700002B0000002D0000006F6E0000EC
:1013A0006F666600000020410000C842000020C1B6
:1013B00000007A440000C8C200401C4600007AC405
:1013C0002A2A2E2A2A0000002DE9FC47DFF8548043
:1013D000DDE90AA70646B8F80000CDE900070D468A
:1013E00001F1280001B21C4606F10A00914613469D
:1013F00000B206F0A7F8BAF1000F10D0B8F800005C
:10140000CDE90007614209EB410083B282B228199D
:10141000283001B230190A3000B206F02FF8BDE8CA
:10142000FC870000860200202DE9F0430E4646218D
:101430009146B1FBF9F82DED028B0746007983B098
:1014400000287DD17C4C94ED170ABDEEC00A10EE49
:10145000100A98B9B868B2EE088A0179406979B182
:10146000FFF72AF9401C00EE100AF8EE400AB2EE2F
:10147000000A00BF00EE880A84ED170ABD683FE04D
:10148000FFF71AF900EE100AF8EE400AB1EE040A6E
:10149000F0E76879B04232D128790028686921D014
:1014A000FFF70AF900EB40005FF0140101EB800048
:1014B0002086E8884FF6FF7100EB800001EA80008B
:1014C0006086E07986421DD0301A00D54042F96826
:1014D0004979884216DAB5F91000002808DAB2EE28
:1014E0000E0A09E0FFF7E8F800EB40000521DDE710
:1014F000C82807DB9FED510A84ED180A02E02D6829
:10150000002DC6D1E08D10B1E1798E4223D0218E1D
:10151000D4ED170A00EE101AB8EE400A70EE600A19
:1015200000EE108AB8EE400A80EE801A84ED151A9B
:10153000618ED4ED180A00EE101AB8EE400A00E0F1
:1015400075E070EE600A00EE108AB8EE400A80EE98
:10155000801A84ED161A46280CD3208E00EE100A4D
:10156000B8EE400A84ED170A608E00EE100AB8EE5D
:10157000400A0DE094ED170AD4ED150A30EE200A6A
:1015800084ED170A94ED180AD4ED160A30EE200AFD
:10159000022084ED180A06F03DFADFF8A480012548
:1015A0002827B8F80000CDE9000594ED180ABDEE33
:1015B000C00A10EE100A07FA80F094ED170A01B283
:1015C0001423BDEEC00A10EE100A82B20A2005F004
:1015D00055FF012006F01EFAB8F80000CDE900051D
:1015E00094ED180ABDEEC00A10EE100A07FA80F05A
:1015F00001B214230422E22005F040FFE67194EDCD
:10160000170A218EBDEEC00A10EE100A88420AD1D8
:1016100094ED180A618EBDEEC00A10EE100A8842E1
:1016200001D1002002E0E18D01EB0900E08503B06B
:10163000BDEC028BBDE8F083F001002000002543E3
:10164000860200202DE9FC418046FFF735F800EBCB
:101650004000052101EB800085B2C5F1DC0000EB04
:10166000D0704408FFF780FD144F01268021388890
:10167000CDE9000604F10C0000B214232A4605F05F
:1016800061FF3888CDE9000604F10800842100B22A
:1016900014232A46A41E05F0F1FE022006F0BAF932
:1016A0000C34862120B2424606F0FAFC012006F0F6
:1016B000B1F9BDE8FC4106F051B9000086020020F6
:1016C000F8B50546012006F0A5F9544C2A20A0845F
:1016D0006869FEF7F1FF401C0C287DD96869FEF7A8
:1016E000EBFF00EB4000132101EB800080B260842F
:1016F000922801D29220608480B2C0F1DC0101EB1B
:10170000D1714F10E783A28CA0F15203C2F1C8013E
:1017100001EBD17149102184414EE384921C33883E
:10172000009393B2801C82B22731093709B238B2D4
:1017300005F0D7FD3B4800880090208CA38C283012
:1017400001B2E08B628C0A3000B205F0D5F9208C32
:10175000E1786A690844283001B2E08B0D3000B2AC
:1017600006F09EFC6869FEF7A7FFE18B00EB4000E6
:1017700001EB8000218CE2780D301144283100B259
:1017800009B229A206F08CFC30880090208CE17808
:10179000102308443C3001B2E08BE28C0D3000B2E3
:1017A00005F09FFD686A9FED211A90ED000AE08C1C
:1017B000C0EE010A00EE100AB8EE401AB1EE000ABF
:1017C00010EE810ABCEEC00A10EE100A82B2308818
:1017D0000090208CE17800E01DE008443E3001B22A
:1017E000E08B0C230F3000B205F086F9686AE178CF
:1017F000628C90ED000A208C022308443C3001B238
:10180000E08B1044423800B2032206F00AFCBDE827
:10181000F84006F0A3B897206DE70000F001002023
:1018200086020020880200203A0000000000C84222
:101830002DE9FC47DFF85880DDE90AA70646B8F82D
:101840000000CDE900070D4601F1280001B21C4659
:1018500006F10A009146134600B205F073FEBAF194
:10186000000F13D0604207EB4001C9B2B8F8002066
:10187000CDE9002109EB400083B282B2281928305B
:1018800001B230190A3000B205F0F8FDBDE8FC875E
:10189000860200202DE9F047824606F051F801202B
:1018A00006F0B8F86C4DDFF8B4812878EC6C18F8C5
:1018B000000000E02468217C8142FBD16878A8B157
:1018C000A468A87D0EE0617981420AD120790428BC
:1018D00002D12046FFF7F4FE2046616BBDE8F047D9
:1018E00008472468002CEED1BDE8F08705F0E4F845
:1018F00000F07CFB2079DFF86491002609F10A09E9
:10190000022803D0012827D0A7684EE0616920464D
:1019100088476E772E77AE766E762E762878C8B1A9
:10192000E97E91B1EE7608F8006009F80060401E8B
:10193000C0B2287019F80000A87500F03DFA012324
:101940005246A97D2046FFF76FFD454800780028E4
:101950007DD1C9E7EE767AE06E772E77AE766E7639
:101960002E7628780028F5D0E97E00296FD0EE7613
:1019700008F8006009F80060401EC0B2287019F82D
:101980000000A87500F018FA01235246A97D2046F0
:10199000FFF74AFD5BE05346AA7D3946204600F03A
:1019A00063F83846FFF72CFC3F68002FF3D1002383
:1019B0005246A97D2046FFF737FDE0684079E8757B
:1019C000297E41B1A97D814202D2491CA97502E05C
:1019D000A97801B1AE75697E39B1A97D11B1491EF1
:1019E000A97502E0A97801B1A875A87E70B1A87D9B
:1019F000A16809E04A79824205D1174A2046163289
:101A000000F000F902E009680029F3D16E772E7723
:101A1000AE766E762E76287800289BD0E97EB1B11E
:101A2000EE7608F8006009F80060401EC0B2287029
:101A300019F80000A8759FED0B0AA06803E0068264
:101A400080ED020A00680028F9D100F0B5F9BDE880
:101A5000F04705F083BF0000F00100206C1E00205D
:101A60006402002000000000F0B54624B4FBF3F748
:101A7000364C8568A679E6B9284617E090F805C087
:101A8000944506D1B0F906E0BEF1000F01DAC08836
:101A900008E0944509D1B0F906C0BCF1090F04DD96
:101AA000C08809386085012602E000680028E5D179
:101AB000A671B4F92A0003E0EE88361AEE802D688C
:101AC000002DF9D16585A571C888267900EB8000C5
:101AD00006EB800000B2A085268D1EB194F805C0EB
:101AE000624513D0B1F910C000EE10CAF8EEC00A7A
:101AF00000EE100AB8EEC00A70EE600A00EE107A2E
:101B0000B8EE400A80EE801A81ED031A462E04D307
:101B100000EE100AB8EEC00A05E091ED020AD1ED20
:101B2000030A30EE200A81ED020ABDEEC00A10EE73
:101B3000107A3FB20F8262710968002902D1874290
:101B400001D12585F0BDF0182085F0BDF001002001
:101B500038B50446204805F05DFD204D4FF48072F5
:101B600029461F48FFF7F8F91D486A152946203015
:101B7000FFF7F2F91A484FF400421A494030FFF7D4
:101B8000EBF92A15184D164829466030FFF7E4F99D
:101B90001348EA1429468030FFF7DEF905F0D0FE3D
:101BA00004F08AFF34B1114838233A2270210090A2
:101BB0005B2005E00E4800901C231D227E21692039
:101BC00005F09AFF0BA2DF213D2006F069FABDE87F
:101BD000384005F0C3BE0000C40D002000040240E0
:101BE000801E00200000024000080240D6D70108F5
:101BF0007ED1010845617379554928457242575F86
:101C000073290000F0B40E790125264C0023082E1C
:101C100029D2DFE806F02804383D3D2A38412578EE
:101C2000092D20D0204F16789FED200A7E556D1C7F
:101C3000EDB22570A7F10A0491F8301061551370C8
:101C4000806807E0B0F90610002902DB038280ED0E
:101C5000020A00680028F5D1F0BC00F0ADB80121FF
:101C600000E000210170F0BC7047806809E0027953
:101C7000052A05D142794C79A24201D0C26913707C
:101C800000680028F3D1C86901780029E9D1E6E7A6
:101C90006570F0BCFFF768BA65708869F0BCFFF743
:101CA000D1BC0000F0010020761E002000000000E2
:101CB0002DE9F041224C207E617E0843A17E08433D
:101CC000E17E0843217F084337D1607F002834D16B
:101CD0001C481D4D1D4E0378A3762978E1761C4FD4
:101CE00032782277397861772276617600212970FF
:101CF0000170397031702BB140F2AB42154916A01A
:101D000008F080FEE37E2BB140F2AD42114918A0ED
:101D100008F078FE237F2BB140F2AF420D491AA0A4
:101D200008F070FE637F002B07D0BDE8F04140F261
:101D3000B14208491AA008F065BEBDE8F081000074
:101D4000F0010020A2020020A3020020A002002037
:101D5000A10200205ED1010825735B25645D3A2055
:101D60006F706E456E7465723A256420200D0A000E
:101D700025735B25645D3A206F706E457869743A0F
:101D8000256420200D0A000025735B25645D3A2040
:101D90006F706E55703A256420200D0A0000000017
:101DA00025735B25645D3A206F706E446F776E3AE1
:101DB000256420200D0A00002DE9F0412F4C01255B
:101DC00005F12800002607B206F10A0022883946EC
:101DD00000B205F029FBB61CDD2EF5DBAD1CC92DCC
:101DE000EEDB0F2000F01CFB05F0B8FD012505F12E
:101DF0002800012607B206F10A002288394600B2FF
:101E000005F012FBB61CDD2EF5DBAD1CC92DEEDB9B
:101E10000F2000F005FB05F0A1FD002505F12800CD
:101E2000012607B206F10A002288394600B205F001
:101E3000FBFAB61CDD2EF5DBAD1CC92DEEDB0F2049
:101E400000F0EEFA05F08AFD012505F127000126D4
:101E500007B206F109002288394600B205F0E4FA1B
:101E6000B61CDD2EF5DBAD1CC92DEEDB0F2000F01E
:101E7000D7FABDE8F04105F071BD000088020020EE
:101E800072B6FEE72DE9F05F4C4F04462DED028B54
:101E900038784B4EDFED4B8AB2EE048A002518B33A
:101EA000606A90ED000A30EE080A10EE101AB14296
:101EB00001DD9FED450A80ED000A606A90ED000AA1
:101EC00010EE100AB04202D1B0EE680A01E020EE36
:101ED000080A64223D48BCEEC00A10EE101A0AF04F
:101EE000CBFE3B4805703D70DFF8E880DFF8E8B0D6
:101EF00098F8000030B3606A384A90ED000A30EE7E
:101F0000480A10EE101A914202DB80ED000A01E04F
:101F100080ED008A606A90ED000A10EE100AB0426F
:101F200002D1B0EE680A01E020EE080A64222748D8
:101F3000BCEEC00A10EE101A0AF09EFE8BF800509C
:101F400088F80050DFF89890DFF898A099F8000022
:101F500050B1606A90ED000A84ED0B0AFFF704F9B6
:101F60008AF8005089F800501F480078C0B1606AB4
:101F700094ED0B0A80ED000A10EE100AB04201D079
:101F800060EE088A64221148BCEEE80A10EE101ACE
:101F90000AF072FEFFF7E8F813488AF8005005705F
:101FA00088F800503D700A4889F800508BF80050BE
:101FB0000570BDEC028BBDE8F09F00000C02002014
:101FC0000000C842008077440000C8429C0D0020F9
:101FD000080200200D02002009020020000020411C
:101FE0000A020020F10100200B02002010B5124C63
:101FF000A07808B103F012FAE07808B102F0CCFF43
:10200000207908B103F054FE607908B103F044FB75
:10201000A07908B103F0D0FCE07908B104F03AF8F7
:10202000207A08B103F07AFF607A002803D0BDE877
:10203000104003F02FB810BD64020020F8B5294D00
:1020400000EB8006062155F8260005EB860490FB80
:10205000F1F201FB1201103100EE101AD4ED040A66
:10206000B8EEC01A9FED200AB4EEE01AF1EE10FAB5
:1020700034DD94ED021A71EE600AF5EEC00AF1EE5D
:1020800010FA2BD3BCEEE00A0F27009710EE101ABF
:10209000A38900B28AB2A18809B204F0DBFE0097DE
:1020A00094ED020AD4ED040A48F2304330EE200ADF
:1020B000BCEEC00A10EE100A82B2A08801B235F858
:1020C000260000B204F032FD94ED040ADFED070AA9
:1020D000022030EE200A84ED040AF8BD84ED040AE3
:1020E0000320F8BDE82A012000000000CDCCCC3E42
:1020F00010B5040002D0607910B106E0012010BDD7
:1021000000202071204600F005F8012060710020B9
:1021100010BD000008B500680649884208D106488D
:10212000016841F480510160006800F48050009023
:1021300008BD000000300240303802402DE9F8436D
:1021400004464FF00009CDF8009063484FF4165153
:10215000A56D0068B0FBF1F72E6894F85C100820BC
:1021600000FA01F131420FD021680A6852070BD5FD
:102170000A6822F004020A6094F85C108840A860A3
:10218000606D40F00100606594F85C104FF001084C
:1021900008FA01F0304208D021684969090604D5DF
:1021A000A860606D40F00200606594F85C10042047
:1021B0008840304208D021680968890704D5A860A2
:1021C000606D40F00400606594F85C101020884059
:1021D000304218D021680968090714D5A860206822
:1021E0000168490304D50068000308D5A16C07E025
:1021F0000168C90503D4016821F008010160216C60
:1022000009B12046884794F85C102020884030426D
:1022100031D021680968C9062DD5A86094F8350029
:1022200005282068016806D0490347D500680003E7
:102230001DD4616C1CE021F0160101602068416929
:1022400021F080014161206C08B9A06C20B12068A8
:10225000016821F00801016094F85C103F2088407B
:10226000A86084F8358084F83490216D1FE0E16B1C
:1022700009B120468847606D00282BD0606DC007EB
:1022800014D0052084F835002068016821F0010190
:1022900001600098401C0090B84203D82068006894
:1022A000C007F6D184F8358084F83490E16C0029B9
:1022B00010D001B02046BDE8F04308470168C905C9
:1022C000D5D4016821F01001016084F8358084F8CC
:1022D0003490CCE7BDE8F883340000202DE9F041CC
:1022E000044600F0B9F906465CB1022084F83500D6
:1022F000002584F834502068016821F00101016054
:102300000DE00120BDE8F08100F0A6F9801B052852
:1023100005D920206065032084F83500F2E72068A5
:102320000068C007F0D12268116820480140D4E954
:1023300001031843D4E90336334318436369184350
:10234000A3691843E3691843236A18430843616A81
:10235000042903D1D4E90B13194308431060206802
:102360004069666A20F0070130460E4301270428C1
:102370000CD1A06A0643E06A40B12046FEF78AFD10
:1023800020B14020606584F83570BAE72068466166
:102390002046FEF76BFD94F85C203F219140816060
:1023A000656584F835700020ACE700003F8010F0D0
:1023B0002DE9F0410446866D90F83400002501288F
:1023C0000DD0012084F8340094F835700020012FDE
:1023D00007D084F8340002252846BDE8F0810220A9
:1023E000FBE7022784F8357060652046FEF77CFD28
:1023F00094F85C103F208840B0602068016841F08C
:1024000016010160206C20B12068016841F00801CC
:1024100001602068016841F001010160DCE7000013
:1024200070B5044600F018F90546601C02D0044857
:102430000078044400F010F9401BA042FAD370BDAC
:10244000280000202DE9F84FDFF8BCA1002201256B
:1024500003264FF00F090AF1040BAAF1040E00BF86
:102460000B6805FA02F42340A34270D10F7907F0FC
:102470000307012F01D0022F16D187684FEA4208C7
:1024800006FA08FC27EA0C07D1F80CC00CFA08FC85
:102490004CEA070CC0F808C04768A7430C79C4F39E
:1024A000001494403C4344600C79E443A4070AD0F0
:1024B000C4684FEA420C06FA0CF7BC438F6807FA6F
:1024C0000CF72743C7600C7904F00304022C12D1E7
:1024D000D40800EB840CDCF820405707FF0E09FA03
:1024E00007F824EA0804D1F8108008FA07F848EA47
:1024F0000408CCF8208004684FEA420C06FA0CF776
:10250000BC430F7907F0030707FA0CF7274307606E
:102510004C6814F4403F70D03C4C276847F4804727
:102520002760246822F0030704F480440094384CA8
:1025300007EB040CDCF8084897074FEA177809FA0C
:1025400008F7BC43334FB84202D1002724E054E0DF
:10255000314FB84201D101271EE0304FB84201D1BE
:10256000022719E02E4FB84201D1032714E02D4F66
:10257000B84201D104270FE02B4FB84201D1052703
:102580000AE02A4FB84201D1062705E0284FB84299
:1025900001D1072700E0082707FA08F72743CCF8FE
:1025A0000878DAF800405746D1F804C09C435FEA47
:1025B000CC2C00D51C433C60DBF800405F46D1F8D2
:1025C00004C09C435FEA8C2C00D51C433C60DEF8C1
:1025D00000407746D1F804C09C435FEA8C3C00D5AC
:1025E0001C433C60084F083F3C68D1F804C09C4342
:1025F0005FEACC3C00D51C433C60521C102AFFF41F
:102600002FAFBDE8F88F0000083C0140443802407D
:102610000030014000000240000402400008024077
:10262000000C02400010024000140240001802405A
:10263000001C02400069084000D001207047426938
:1026400021EA02030A4043EA0241816170470AB16C
:10265000816170470904FBE701488068704700000A
:102660002800002002488168027811448160704788
:10267000280000200B4810B5016841F4007101608A
:10268000016841F480610160016841F4807101607A
:10269000032000F06FF80F2000F006F800F024F897
:1026A000002010BD003C024070B50D4D04464FF4B3
:1026B0007A712878B1FBF0F00A490968B1FBF0F0B3
:1026C00001F0A8FA48B9102C07D200222146501E6A
:1026D00000F030F800206C6070BD012070BD00007B
:1026E00028000020340000200A4808B5016841F4A1
:1026F00080410160006800F4804000900548001FA0
:10270000016841F080510160006800F08050009045
:1027100008BD000044380240002809DB00F01F0219
:10272000012191404009800000F1E020C0F8001133
:1027300070470000F0B40E4B1B680C46C3F3022335
:10274000C3F10705042D00D90425191D072901D25D
:10275000002300E0DB1E012606FA05F1491E214098
:1027600099409E40761E16403143F0BC08F072B985
:102770000CED00E0064900F0070208684FF6FF0381
:10278000184040EA0220034A1043086070470000E6
:102790000CED00E00000FA0570470068416200207F
:1027A0007047F0B50368586A39B19C6A4FF4827675
:1027B00000EB144400204D1E0AE040EA02409862FB
:1027C0000FE006EB8007DF59401C04EB1744C0B252
:1027D000A842F6D344EA02404FF4807202EB810132
:1027E00058500020F0BDD0F8080506F0E7BC01EB1A
:1027F000C10200EB8202D0F80805D26C06F052BC90
:1028000001EBC10200EB8202D0F80805D2F88C225D
:1028100006F09DBCD0F8080506F0D2BC0A0601F00F
:102820000F0101EBC10100EB810101D53C3101E059
:1028300001F51F71006807F02BBF70B504460B0649
:1028400001F00F0000EBC00104EB81014FF0010229
:102850004FF0000503D581F83D203C3103E081F8BD
:102860007D5201F51F71087094F8BC04012808D04E
:1028700084F8BC24206807F0C5FB84F8BC54002011
:1028800070BD022070BD70B5044601F00F00626893
:10289000904201D9012070BD0B0601F00F0101EB40
:1028A000C10104EB81014FF001024FF0000503D597
:1028B00081F83D203C3103E081F87D5201F51F7124
:1028C0008D70087094F8BC04012808D084F8BC24EA
:1028D000206807F093FD84F8BC54002070BD0220EE
:1028E00070BD01F00F0101EBC10100EB8100D0F8D8
:1028F0009C0270472DE9F04104460F0601F00F00DD
:1029000000EBC00104EB81014FF001064FF0000520
:1029100003D581F83D603C3103E081F87D5201F53B
:102920001F710870CA600B714A7802B10881022BCE
:1029300000D14D7194F8BC04012809D084F8BC641E
:10294000206807F0B7FA284684F8BC54BDE8F08147
:102950000220FBE770B50C4601F00F0505EBC50141
:1029600000EB8101C1F89432C1F88C220023C1F838
:102970009C3281F87D3281F87C52036901F51F7128
:10298000012B00D14A612207027C006803D007F0C6
:102990008DFD002070BD07F077FCFAE770B50446A6
:1029A0000D4601F00F006168884201D9012070BD19
:1029B00029064FF000064FF0010207D500EBC001D9
:1029C00004EB810181F83D203C3107E005EBC501B6
:1029D00004EB810181F87D6201F51F718A70087036
:1029E00094F8BC04012807D084F8BC24206807F0C0
:1029F00031FD280702D007E0022070BD217C04F2DF
:102A0000C442206807F0CEFC84F8BC64002070BD8E
:102A100070B50C4601F00F0505EBC50100EB810117
:102A20004B65CA640023CB65012381F83D3001F872
:102A30003C5F0369012B00D14A612207027C0068D8
:102A400003D007F033FD002070BD07F01DFCFAE74E
:102A50002DE9FC5F05680446284607F0BAFE002809
:102A60007DD1206807F0E1FE002878D0D5F808086D
:102A7000C0F30D20C4F8FC04206807F0D6FE8007E0
:102A800004D52068416901F002014161206807F026
:102A9000CCFEC10604F2C440009034D520688169A0
:102AA00021F0100181612F6A07F00F0000EBC000D8
:102AB00004EB8006C7F3434006F51F76022802D0D8
:102AC000062811D01AE047F6F070074216D0C7F377
:102AD0000A1217462846316907F0ABFE30693844C0
:102AE0003061306A384408E008222846009907F02F
:102AF000A0FE306AC7F30A11084430622068816979
:102B000041F010018161206807F08FFE00034FF053
:102B1000080B4FF0000A4FF001097CD50026206811
:102B200007F062FE074674E0F80770D0F1B2206843
:102B300007F073FE8046C00707D005EB4611C1F8C9
:102B4000089B3146204605F0FFFA5FEA087024D55D
:102B500005EB4611C1F808BB2068016C00E025E2D6
:102B600000EB46100191D0F8082BFC4B994205D997
:102B7000110403D54FF40041C0F8081B204600F0B3
:102B80002FFBF6490198884207D92069012804D112
:102B900020680121009A07F005FC5FEAC86004D5AF
:102BA00005EB46111020C1F8080B5FEA88701DD5AF
:102BB0006869000605D5D5F8040840F48061C5F8B9
:102BC000041806EBC60004EB800090F87F1200F5B5
:102BD0001F70012905D180F803A0F1B2204600F052
:102BE000EBF905EB46110220C1F8080B5FEA88609B
:102BF00004D505EB46102021C0F8081B5FEA884089
:102C000005D505EB46104FF40051C0F8081B7F08AE
:102C1000761C002F88D1206807F007FE40036FD58F
:102C2000206807F0DAFD0746002667E0F80763D062
:102C3000F1B2206807F0DFFD8046C00723D006F020
:102C40000F0209FA02F0D5F834288243C5F8342877
:102C500005EB4610C0F80899206901280FD106EB52
:102C6000C60004EB8000D0E912211144C16436B9DA
:102C7000606D20B920680121009A07F093FBF1B242
:102C80002046FFF7B4FD5FEA087003D505EB461157
:102C9000C1F808B95FEAC86004D505EB46111020F9
:102CA000C1F808095FEA486004D505EB46104021E9
:102CB000C0F808195FEA887017D53146284607F032
:102CC0005BFD06EBC60004EB800090F83F103C3043
:102CD000012905D180F803A0F1B2204600F068F97F
:102CE00005EB46110220C1F808095FEA086003D528
:102CF0003146204605F08EFA7F08761C002F95D1CC
:102D0000206807F092FD002811DAD5F8040820F0B9
:102D10000101C5F8041894F8F40401282BD02046CA
:102D200000F042FA2068416901F0004141612068E9
:102D300007F07BFD00050BD5D5F80808C00702D0C9
:102D4000204600F099FA2068416901F40061416170
:102D5000206807F06AFDC00466D5D5F8040820F0A5
:102D60000100C5F804081021206807F005FD0021C6
:102D70004FF67F321FE084F8F4A400212046FFF7CD
:102D80000BFDCFE705EB4110C0F80829D0F800395A
:102D900023F40013C0F80039C0F8082BD0F8003B2A
:102DA00023F40013C0F8003BD0F8003B43F000636D
:102DB000C0F8003B491C60688842E3D8D5F81C087D
:102DC00040F00111C5F81C18206B002828460DD0D2
:102DD000D0F8840840F00B01C5F88418D5F84408F1
:102DE00040F00B012846C5F844180DE0D0F814084F
:102DF00042F22B010843C5F81408D5F8100840F03A
:102E00000B012846C5F81018D0F8000820F4FE6120
:102E1000C5F80018217C2068009A07F0C3FA2068E2
:102E2000416901F480514161206807F0FEFC800493
:102E300015D5206807F07EF8206807F0BDFCE0603B
:102E400000F0CCFA0146227B206807F051FD2046B5
:102E500000F094F92068416901F400514161206853
:102E600007F0E3FC000707D5204600F0A1F9206831
:102E7000416901F008014161206807F0D6FC0006B5
:102E800016D5A86920F08000A86101260DE000BFDA
:102E900006EBC60004EB800090F87F02012803D106
:102EA000F1B22046FFF7BAFC761C6068B042EFD85A
:102EB000206807F0BAFCC00221D501264F4616E073
:102EC00005EB4610D0F8001906EBC60004EB8000B5
:102ED00090F84020012A09D1002907DA80F83F70D4
:102EE000F0B240F080012046FFF798FC761C606845
:102EF000B042E5D82068416901F480114161206841
:102F000007F093FC800234D501204B4629E000BF36
:102F100005EB4011D1F8001B00EBC00204EB820668
:102F200096F88022012A1BD1002919DA94F8FC2492
:102F300001F4803102F00102914211D186F87F3212
:102F4000A96941F08002AA616969090608D4D5F827
:102F5000040840F40070C5F8040805E00A30544F36
:102F6000401C61688142D3D82068416901F4001196
:102F70004161206807F059FC400007D52046FFF763
:102F800032FC2068416901F080414161206807F00E
:102F90004CFC40070AD520684568680702D52046E2
:102FA000FFF738FC2068416829434160BDE8FC9F79
:102FB000D0F8080506F058B9D0F8080506F056B95B
:102FC0002DE9F0418AB0040005D094F8BD042668CC
:102FD000002520B108E001200AB0BDE8F08184F8A6
:102FE000BC54204600F05EF8032084F8BD04F06B6A
:102FF000C00500D42561206807F040F904F11001F4
:10300000282288466846FDF733FB94E80F0006F057
:103010009FFF0226C8BB0021206807F029FC002082
:1030200001270EE000EBC00104EB810181F83D7047
:1030300001F83C0F08810D71CD600D61401CC0B2DC
:103040008D6161688142EDD8002011E000EBC00184
:1030500004EB810181F87D5281F87C0281F8805275
:10306000C1F88852C1F88C52401CC0B2C1F89452C9
:1030700061688142EAD8282241466846FDF7F8FA9D
:1030800094E80F0007F040F810B184F8BD64A2E79F
:1030900084F8385084F8BD74206807F027F80020C1
:1030A0009AE700002DE9F04186B0044614216846F5
:1030B000FDF7F7FA2C492068884251D12B4C4FF08C
:1030C0000008206840F004002060206800F0040040
:1030D0000590206840F001002060206800F00100A9
:1030E0000590206840F0020020602068022500F072
:1030F000020005900D208DE8210103260A2769466C
:103100001B48CDE90367FFF79DF928208DE82101D1
:1031100069461848CDE90367FFF794F943F6234061
:103120008DE8210169461448CDE90367FFF78AF964
:10313000206840F000502060206800F000500590AA
:10314000206840F0804020602068002200F080402D
:10315000059001214D20FFF7EDFA4D20FFF7DCFA35
:1031600006B0BDE8F08100000000044030380240A5
:1031700000080240000002400004024070B504460E
:10318000C068012570B1022801D0FEF779FE2946FA
:10319000D4F8080506F0C0F8D4F80805BDE870407A
:1031A00006F07BB80025F2E7D0F8080506F09EB8D7
:1031B000D0F8080506F0A4B810B5044690F8BC0491
:1031C00001280BD0012084F8BC0484F83810206852
:1031D00007F07CFB002084F8BC0410BD022010BD69
:1031E0002DE9F04100F2C441D0F80845054604F24B
:1031F000AA200F46064606F071FC94F8AA12002099
:10320000C90603D13146204606F07AF994F8AA128D
:1032100001F01F01012903D13146204606F0B4F91F
:10322000002806D13946D5F80805BDE8F04106F07A
:103230007FB8BDE8F08110B50446006894F8BC146E
:10324000012906D0012184F8BC14A16A012902D009
:1032500008E0022010BDA169012903D0816B41F46F
:1032600080318163206807F062FA206806F030FF41
:10327000002084F8BC0410BD10B50446D0F8080541
:1032800006F098F82068D0F8001E41F00101C0F85F
:10329000001E206A002804D00248016841F006019F
:1032A000016010BD10ED00E02DE9F0470E4605006D
:1032B00065D0DFF81481D8F80000F7B200F00700FD
:1032C000B04207D288F80070D8F8000000F007007C
:1032D000B04254D128683D4C810712D5400703D530
:1032E000206840F4E05020602878000703D520686B
:1032F00040F4604020602068A96820F0F000084396
:1033000020602878C0072DD0304968680839012826
:1033100012D0022813D0032811D009688907002988
:103320002DDA216821F0030101432160FFF794F9B0
:10333000814641F2883A0EE009688903EFE709689F
:103340008901ECE7FFF788F9A0EB0901514502D9A3
:103350000320BDE8F0872068696800F00C00B0EB3E
:10336000810FEFD1D8F80010404601F00701B142BB
:1033700007D90770006800F00700B04201D00120B3
:10338000E7E72878400705D52068E96820F4E05091
:10339000084320602878000706D52068296920F4B2
:1033A000604040EAC100206000F03EF82168084A11
:1033B000C1F30311515CC840064908600648006823
:1033C000FFF772F90020C4E7003C024008380240D1
:1033D0002BD00108340000202C0000200148006898
:1033E000704700003400002004480549006809685F
:1033F000044AC1F38221515CC84070473400002068
:10340000083802403BD001080448054900680968B3
:10341000044AC1F34231515CC84070473400002077
:10342000083802403BD00108154810B5006810F07C
:103430000C02144813D04110042A0FD0082A0ED1D0
:103440000F4C241F2268236802F03F025B0207D55D
:103450002068C0F38810A0FB010106E0084610BDFB
:103460002168C1F38811A1FB00010023FCF7A8FE2D
:103470002168C1F30141491C4900B0FBF1F010BDC6
:10348000083802400024F4002DE9F84F04006ED003
:103490002078DFF84C93C007A9F104054AD009F160
:1034A00004000168C1F38101012908D00068C0F35C
:1034B000810002280AD1D9F80000400206D5286808
:1034C000800337D560680028E1D033E06068B0F54C
:1034D000803F10D0B0F5A02F286810D020F48030A5
:1034E0002860286820F4802028606068A8B1FFF771
:1034F000B3F806460DE0286840F48030F4E740F465
:1035000080202860F7E700BFFFF7A6F8801B64283B
:1035100073D828688003F7D50CE0FFF79DF80646BE
:1035200005E000BFFFF798F8801B6428F0D82868F2
:103530008003F7D42078DFF8AC8280074FF0000AD0
:103540003ED5A748001D016811F00C0F08D0006897
:10355000C0F3810002280BD1D9F80000400207D443
:103560002868800716D5E068012800D112E033E111
:10357000E068B8B10120C8F80000FFF76DF8064612
:1035800005E000BFFFF768F8801B0228C0D8286854
:103590008007F7D52868216920F0F80040EAC100CB
:1035A00028600DE0C8F800A0FFF756F8064604E0D2
:1035B000FFF752F8801B02281FD828688007F7D42D
:1035C0002078000722D5864F87486169703771B12E
:1035D00001210160FFF740F8064604E0FFF73CF8E0
:1035E000801B022809D838688007F7D50EE0C0F89C
:1035F00000A0FFF731F8064605E082E0FFF72CF85F
:10360000801B02287DD838688007F7D420784007CF
:1036100068D5DFF8CCB100270BF13C0BDBF80000DC
:10362000C0000BD4DBF8001041F08051CBF8001043
:10363000DBF80000012700F0805000906B4E3068EE
:10364000C00510D4306840F480703060FFF704F893
:10365000009005E0FFF700F80099401A022850D8C2
:103660003068C005F6D55E4EA0686C3601280FD0D4
:103670000528306810D020F001003060306820F05C
:1036800004003060A068B8B1FEF7E6FF00900FE0DC
:10369000306840F00100F4E740F004003060F7E7E4
:1036A000FEF7DAFF0099411A41F28830814266D86C
:1036B00030688007F4D50EE0FEF7CEFF009007E0FB
:1036C000FEF7CAFF0099411A41F28830814256D86C
:1036D00030688007F4D42FB1DBF8001021F080515E
:1036E000CBF80010A069C8B33D49091D0968C1F3B2
:1036F000810102294AD00228504607D0C8F860004C
:1037000000E03CE0FEF7A8FF04463BE04746C8F86F
:103710006000FEF7A1FF064605E000BFFEF79CFF34
:10372000801B02282BD828688001F7D4D4E9070130
:103730000843A16A2E4A490802EB0141626A41EA44
:103740008211084394F82C1040EA0161C9F8001076
:1037500001203866FEF780FF044606E03EE000BF29
:10376000FEF77AFF001B022809D828688001F7D5E8
:1037700034E000BFFEF770FF001B022802D90320CF
:10378000BDE8F88F28688001F4D427E00128F7D03D
:10379000D9F80000E26900F4800191421CD1226A4C
:1037A00000F03F01914217D147F6C071626A0140B3
:1037B000B1EB821F10D1A26A4FF0FF3300F4403109
:1037C00003EB5202B1EB024F06D194F82C1000F03B
:1037D0007060B0EB016F01D00120D1E70020CFE78E
:1037E0000438024000004742800E4742007000400B
:1037F0000000FFFF70B5040003D06079002510B110
:1038000005E0012070BD2571204600F00DF8022072
:1038100060712068016841F004010160012060715D
:10382000A560002070BD000008B500680649884208
:1038300008D10648016841F040010160006800F0CD
:103840004000009008BD00000008065034380240D7
:10385000704770B5040009D0606A002540B1256149
:103860006561A56294F8510040B10CE0012070BD83
:103870006068B0F5827FF4D0E561F2E784F85050DB
:10388000204600F045F8022084F8510020680168C5
:1038900021F040010160A088218900F4827001F4C8
:1038A00004410843A18901F400610843217C01F02F
:1038B00002010843217D01F001010843218B01F43D
:1038C00000710843217F01F03801084394F820106B
:1038D00001F080010843218D01F400510843216863
:1038E0000860A069042101EA104094F8241001F056
:1038F00010010843216848602068C16921F4006113
:10390000C1616565012084F85100002070BD000090
:103910002DE9F04186B0064614216846FCF7C1FE49
:1039200025493068884244D124480025016841F483
:10393000805101600068214900F4805014390590DD
:10394000086840F001000860086800F00100059078
:10395000086840F0020008600868022400F00200D5
:103960000590802003274FF005088DE8B1016946D6
:103970001348FEF767FD08208DE8B101694611483C
:10398000FEF760FD114C1048206078066060402012
:10399000C4E902050001C4E90405A561E5612562E9
:1039A00020466562FEF79AFC08B1FEF769FAB46436
:1039B000A66306B0BDE8F081003001404438024003
:1039C0000000024000040240586402402C1600200F
:1039D0002DE9F84F044690F8500000271D46164682
:1039E000894601280DD04FF0010B84F850B0FEF746
:1039F00033FE804694F85100BA46012804D00227CD
:103A000093E00220BDE8F88FB9F1000F73D0002ECB
:103A100071D0032084F85100C4F854A0C4F8309049
:103A2000A686E686C4F838A0A4F83CA0A4F83EA078
:103A3000C4F844A0C4F840A0A068B0F5004F09D174
:103A40002068016821F0400101602068016841F4AC
:103A50008041016020680168490603D4016841F093
:103A600040010160E068B0F5006F606803D030B3DA
:103A7000012E24D041E008B1012E1CD1206B216819
:103A80000088C86006E020688168890709D5216B35
:103A90000988C160206B801C2063E08E401EE08698
:103AA00009E0FEF7D9FDA0EB0800A84202D3681C8C
:103AB00001D031E07DB3E08E0028E4D120E0206B1E
:103AC00021680078087306E020688168890709D5B5
:103AD000216B09780173206B401C2063E08E401E2F
:103AE000E0860AE0FEF7B8FDA0EB0800A84203D389
:103AF000681C02D010E017E06DB1E08E0028E3D121
:103B000042462946204604F0A7FD08B12020606502
:103B1000A06818B106E0FFE7032706E02068C16847
:103B200080680090606D00B1012784F851B084F87E
:103B300050A0384666E700002DE9F041044690F8B1
:103B400050000026012809D0012784F8507094F80D
:103B500051000025012804D002264EE00220BDE8D5
:103B6000F08189B182B1032084F851006565216339
:103B7000A286E286A56365642564A587E587A068BB
:103B8000B0F5004F02D00BE0012636E02068016856
:103B900021F0400101602068016841F4804101602A
:103BA000A16C18480864A16C1748C863A16C174839
:103BB000C864A06C0565E38E2268216B0C32A06C92
:103BC000FEF7F6FB38B1606D40F01000606501262D
:103BD00084F8517011E020680168490603D4016837
:103BE00041F0400101602068416841F020014160DE
:103BF0002068416841F00201416084F8505030462D
:103C0000ADE70000E9850108F3850108C7850108D3
:103C10007047704710B5401EB0F1807F01D301207E
:103C200010BD4FF0E02460610F21601706F012FF15
:103C30000020A06107202061002010BD7047704760
:103C400070B590F83C20012A32D0012480F83C4025
:103C5000022280F83D2003685A689D6822F07006B1
:103C60000A6832435A60134B02689A4214D0B2F188
:103C7000804F11D0104B9A420ED0104B9A420BD06D
:103C80000F4B9A4208D00F4B9A4205D00E4B9A42E6
:103C900002D00E4B9A4204D1496825F080031943A3
:103CA000916080F83D40002180F83C10084670BDCE
:103CB000022070BD000001400004004000080040E8
:103CC000000C00400004014000400140001800408A
:103CD00010B5040003D094F83D0010B107E00120B6
:103CE00010BD002084F83C00204600F01FF80220A0
:103CF00084F83D00211D206804F0B6FD012084F801
:103D0000460084F83E0084F83F0084F8400084F8C0
:103D1000410084F8420084F8430084F8440084F8A9
:103D2000450084F83D00002010BD000008B5114A90
:103D300001681148914211D1016841F0020101600E
:103D40000068002200F00200009011461D20FEF7DE
:103D5000F1FCBDE808401D20FEF7DEBC074A914299
:103D600007D1016841F080010160006800F0800027
:103D7000009008BD0004004040380240001C004094
:103D800090F83D10012901D001207047022180F8F0
:103D90003D100168CA6842F00102CA60006811491A
:103DA000884214D0B0F1804F11D00F4988420ED014
:103DB0000E4988420BD00E49884208D00D498842EE
:103DC00005D00D49884202D00C49884204D181684F
:103DD00001F00701062903D0016841F001010160EB
:103DE000002070470000014000040040000800402F
:103DF000000C004000040140004001400018004059
:103E000070B5044690F83C000025012817D0012623
:103E100084F83C60022084F83D002068826822F02B
:103E2000770222F47F4282600868502838D00DDC87
:103E300020284FD005DC90B3102811D14AE0022091
:103E400070BD302846D040280AD13BE060282FD0F2
:103E500070280DD0B0F5805F03D0B0F5005F12D0B0
:103E6000012584F83D60002084F83C00284670BDA0
:103E7000CB68D1E90121206804F067FD20688168E2
:103E800041F0770109E0CB68D1E90121206804F015
:103E90005CFD2068816841F480418160E1E719E0C0
:103EA000CA684968206804F025FE5021206806E0B1
:103EB000CA684968206804F02EFE6021206804F07A
:103EC0004EFDCEE7CA684968206804F013FE402121
:103ED0002068F4E7226801461046F0E7704770B5A5
:103EE0000446006801694FF00005C943890715D4ED
:103EF000C168C943890711D4E91E016101202077F7
:103F0000206880698007204602D0FFF7E7FF04E0C1
:103F100000F0C2F8204600F054F9257720680169C6
:103F2000C943490717D4C168C943490713D46FF07F
:103F300004010161022020772068806910F4407F2D
:103F4000204602D0FFF7CAFF04E000F0A5F82046A3
:103F500000F037F9257720680169C943090716D4AD
:103F6000C168C943090712D46FF008010161042038
:103F700020772068C0698007204602D0FFF7AEFF97
:103F800004E000F089F8204600F01BF9257720684E
:103F90000169C943C90617D4C168C943C90613D406
:103FA0006FF010010161082020772068C06910F4CB
:103FB000407F204602D0FFF791FF04E000F06CF84C
:103FC000204600F0FEF8257720680169C943C9073B
:103FD00008D1C168C943C90704D1891E01612046BF
:103FE00000F092F920680169C943090609D4C16843
:103FF000C943090605D46FF0800101612046FFF72F
:104000001DFE20680169C943490609D4C168C94336
:10401000490605D46FF040010161204600F086F9A1
:1040200020680169C94389060BD4C168C943890660
:1040300007D46FF0200101612046BDE87040FFF712
:10404000FEBD70BD10B586B0044614216846FCF76D
:1040500028FB0E492068884215D10D4800210268CE
:1040600042F001020260006800F00100059040206B
:1040700000900220CDE901010920CDE90310694635
:104080000448FEF7DFF906B010BD0000001C004038
:104090003038024000000240704770B5044690F886
:1040A0003C0000260D4601280FD0012084F83C007A
:1040B0006AB1042A1DD0082A2FD00C2A3FD001262D
:1040C000002084F83C00304670BD022070BD20689E
:1040D00004F04EFC2068816941F00801816120688C
:1040E000816921F004018161206881692A69114395
:1040F00011E0206804F06CFC2068816941F40061E3
:1041000081612068816921F4806181612068816911
:104110002A6941EA02218161D2E7206804F08EFC1D
:104120002068C16941F00801C1612068C16921F0BE
:104130000401C1612068C1692A69114311E0206846
:1041400004F0B0FC2068C16941F40061C1612068DD
:10415000C16921F48061C1612068C1692A6941EAAD
:104160000221C161ACE710B5040003D094F83D0012
:1041700010B107E0012010BD002084F83C0020466B
:1041800000F01EF8022084F83D00211D206804F094
:104190006BFB012084F8460084F83E0084F83F0061
:1041A00084F8400084F8410084F8420084F8430019
:1041B00084F8440084F8450084F83D00002010BDD8
:1041C0007047704710B50446022249B104290ED049
:1041D000082913D094F84100012816D0012010BD01
:1041E00094F83E000128F9D184F83E200FE094F8BD
:1041F0003F000128F2D184F83F2008E094F8400005
:104200000128EBD184F8402001E084F8412001220C
:10421000206804F08DFB16492068164A884201D0B8
:10422000904203D1436C43F40043436420688842C6
:1042300013D0B0F1804F10D00F4988420DD00F49F4
:1042400088420AD00E49884207D0904205D00D49D5
:10425000884202D00C49884204D1816801F00701EC
:10426000062903D0016841F001010160002010BD62
:10427000000001400004014000040040000800402C
:10428000000C0040004001400018004030B50446DA
:104290000D460068002204F04BFB194B41F211114E
:1042A00020688A10984202D0164B984209D1036ABE
:1042B0000B4206D1036A134203D1436C23F400433B
:1042C00043642068036A0B4206D1016A114203D19C
:1042D000016821F00101016001203DB1042D08D0E9
:1042E000082D09D084F84100002030BD84F83E003C
:1042F000FAE784F83F00F7E784F84000F4E70000AD
:10430000000001400004014010B507490068096839
:10431000884207D1FCF736FEFCF76AFEBDE8104084
:10432000FDF7C6BC10BD00008C160020704770B5AC
:10433000040004D094F83D00002510B106E00120EF
:1043400070BD84F83C50204600F022F8242084F808
:104350003D002068C16821F40051C160204604F08E
:1043600043FC2068016921F49041016120684169A2
:1043700021F02A0141612068C16841F40051C16007
:104380002564202084F83D0084F83E00002070BDA4
:1043900010B586B0044614216846FCF782F913492B
:1043A0002068884220D112480021026842F01002A1
:1043B0000260006800F0100005900D481438026893
:1043C00042F002020260006800F002000590C02086
:1043D00000900220CDE90101032003900720049002
:1043E00069460448FEF72EF806B010BD00100140E3
:1043F00044380240000402402DE9F843044690F896
:104400003D001F4616460D4620284CD1C5B1BEB111
:1044100094F83C00012846D0012084F83C004FF07D
:104420000008C4F84080212084F83D00FEF714F90C
:10443000A6848146E684A068B0F5805F03D004E0DE
:104440000120BDE8F883206928B12E465FF0000501
:1044500084F83C800EE00026FAE78021204604F034
:1044600049FCA0B9AEB116F8010B21684860E08C98
:10447000401EE084E08C4B464FF00002009700287D
:10448000EBD14FF04001204604F034FC30B1032062
:10449000D7E735F8020BC0F30800E6E7202084F8E0
:1044A0003D000020CDE70220CBE7FEE70021C176EA
:1044B000417601218176704710B50D4B0024C3F879
:1044C00080420C48016821F00C010160016841F054
:1044D00004010160C3F88442022003F5207308F050
:1044E000B9FA01201860022008F0B4FA1C6010BD6F
:1044F00000004042000002400E4810B5016886B03E
:1045000041F0010101600068012400F00100059004
:104510000320CDE900040220CDE9024069460648A7
:10452000FDF790FF0548C0F88042C0F8844206B00D
:1045300010BD000030380240000002400000404240
:1045400030B50D4B0024C3F880420C48016821F0BF
:104550000C010160016841F0040101600125C3F80C
:104560008452022003F5207308F074FA1D600220C3
:1045700008F070FA1C6030BD0000404200000240AC
:104580002DE9F041804616480024016821F00C0115
:10459000016001680160134D234626465FF0010764
:1045A000C5F88062022008F055FAC5F880726006EE
:1045B000040ED5F8040208B1641CE4B2012008F02E
:1045C00049FA5B1CDBB2082BEAD3B8F1000F04D028
:1045D000FFF772FF2046BDE8F081FFF7B1FFF9E772
:1045E0000000024000004042F0B505461248016854
:1045F00021F00C010160016841F0040101600F4BE2
:104600000026C3F8806234460127E809C3F8840213
:104610006806050E022008F01DFAC3F88072022019
:1046200008F018FAC3F88062022008F013FA641C3C
:10463000E4B2082CE9D3F0BD000002400000404283
:104640000D4810B5016821F00C010160016841F0CE
:1046500004010160094B0120C3F88402C3F8800201
:10466000042003F5207308F0F5F900245C600420B1
:1046700008F0F0F91C6010BD00000240000040424C
:104680000E4800B5016821F00C010160016841F09D
:10469000040101600A4B0020C3F88002C3F88402C1
:1046A000042003F5207308F0D5F901201860586044
:1046B00004205DF804EB08F0CDB9000000000240D2
:1046C0000000404230B512480023016821F00C017F
:1046D0000160016801600F4C0125C4F8845228462E
:1046E00008F0B8F9C4F88052012008F0B3F907E0E7
:1046F0005B1CDBB2FA2B03D9FFF7C2FF012030BDF0
:10470000D4F804020028F3D1C4F8800230BD0000C0
:104710000000024000004042F0B500230A2430258A
:1047200037261F4611E000BFB4EB107F02D905EB1E
:10473000107C01E006EB107C01F813C001EB430C88
:1047400000015B1C8CF80170DBB29342ECD3F0BD2E
:1047500070B50546FDF780FF1D4C6169401AA842FF
:1047600035DD04F10802911E881E00F035F8B4F919
:10477000065041F28833002101209D4203DD226969
:104780000AB1607005E0134A954208DA256935B12F
:1047900020702161FDF760FF00F5C87016E0206110
:1047A000B4F904509D4203DDE3680BB1A07004E04E
:1047B000954208DAE26832B1E070E160FDF74CFF43
:1047C00000F5167002E0E060FDF746FF606170BD25
:1047D000A002002078ECFFFF7CB514460D4606468B
:1047E0006B4606224321682000F068F800280BD1B0
:1047F000BDF8001049BA3180BDF8021049BA2980CD
:10480000BDF8041049BA21807CBD10B5FFF774FED5
:1048100080216B2000F0C1F86420FDF701FE00212B
:104820006B2000F0BAF8032000F083F8002000F0BD
:104830007BF8322000F09AF80021382000F0ADF823
:1048400000216A2000F0A9F80021232000F0A5F83B
:104850008021372000F0A1F8752000F011F86828B9
:1048600001D0012010BD01216B2000F096F800213D
:104870006C2000F092F8642000F078F8002010BD61
:1048800010B50446FFF7DCFED020FFF7ADFEFFF7C2
:1048900019FF2046FFF7A8FEFFF714FFFFF7D0FE31
:1048A000D120FFF7A1FEFFF70DFF0020FFF768FE04
:1048B0000446FFF7E5FE204610BD00002DE9F0415B
:1048C0001D4614460F460646FFF7BAFE7006000E58
:1048D000FFF78AFEFFF7F6FE20B1FFF7D1FE0120B9
:1048E000BDE8F0813846FFF77FFEFFF7EBFEFFF7EC
:1048F000A7FE012000EB4600C0B2FFF775FEFFF7F0
:10490000E1FE09E0012C0DD05FF00100FFF738FE59
:10491000641E05F8010BE4B2002CF3D1FFF7B0FEE2
:104920000020DDE70020F1E7C006010E1C2000F0AA
:1049300034B8C006010E1B2000F02FB8BC2801D3EC
:10494000012110E0622801D302210CE02A2801D3C2
:10495000032108E0142801D3042104E00A2801D32C
:10496000052100E006211A2000F017B810B5044612
:104970004FF47A70844201D9044602E0042C00D23C
:104980000424B0FBF4F0401EC1B2192000F005F879
:104990006008BDE81040FFF7D1BF70B50C46054672
:1049A000FFF74EFED020FFF71FFEFFF78BFE50B93A
:1049B0002846FFF719FEFFF785FE2046FFF714FE95
:1049C000FFF780FE18B1FFF75BFE012070BDFFF717
:1049D00057FE002070BD0000074910B5054808606B
:1049E0000846FDF785FB002803D0BDE81040FDF721
:1049F00047BA10BD0030024020000020094808B529
:104A0000016841F4800101600068002200F4800028
:104A1000009011463B20FDF78DFEBDE808403B208D
:104A2000FDF77ABE303802402DE9F04F87B01421EF
:104A30006846FBF736FE4B480025016841F004014B
:104A40000160016801F004010591016841F08001F5
:104A50000160016801F080010591016841F00101E8
:104A60000160016801F001010591016841F0020156
:104A70000160016801F002010591016841F008013F
:104A800001600068DFF8E0B000F008004FF4005467
:104A90000590002221465846FDF7D9FD4FF488764F
:104AA000012231463148FDF7D2FD4FF44047002244
:104AB00039462F48FDF7CBFDDFF8B8A04FF48078DA
:104AC000002241465046FDF7C2FD4FF40079012215
:104AD00049465846FDF7BBFD0094012469465846F7
:104AE0000194CDE90245FDF7ADFCCDE90064032654
:104AF000CDE9024669461D48FDF7A4FCCDE90074E6
:104B000069461B48CDE90245FDF79CFCCDE90084D0
:104B100069465046CDE90245FDF794FCCDE9009485
:104B2000CDE9024669465846FDF78CFCE003CDE925
:104B30000005694602940D48FDF784FCB002CDE9FA
:104B40000005694602945846FDF77CFC3002CDE929
:104B50000005694602940648FDF774FC07B0BDE8FD
:104B6000F08F000030380240000802400000024090
:104B700000040240000C0240074910B505480860D7
:104B80000846FEF737FE002803D0BDE81040FDF7C9
:104B900077B910BD00080650C41500200F4810B5A5
:104BA0000D4901604FF48271416000218160C16054
:104BB0004FF400720161C0E90512C16101624162F6
:104BC00081620A21C162FEF744FE002803D0BDE8DD
:104BD0001040FDF755B910BD00300140D41500203C
:104BE00010B588B01C216846FBF75BFD15481449D9
:104BF000002401605321C0E9011440F2E731C0E90B
:104C000003148461FFF764F808B1FDF739F90D4822
:104C1000FFF7A9FA08B1FDF733F96020CDE90004E8
:104C200002940022694607480494FFF736FA08B157
:104C3000FDF726F90348FFF705FA08B010BD00009C
:104C4000001C0040D416002010B586B00024174880
:104C50000094019402940394049413490594016010
:104C60005321C0E9011442F20F71C0E903148461B9
:104C7000FFF72EF808B1FDF703F94FF480500090CC
:104C800069460A48FFF7BCF808B1FDF7F9F8049443
:104C900004A906480594FEF7D3FF002801D0FDF7CC
:104CA000EFF806B010BD0000000400408C16002094
:104CB0000C4810B50A4901600B4941600021816030
:104CC0000C22C160C0E904128161C161FFF72FFBB2
:104CD000002803D0BDE81040FDF7D2B810BD000099
:104CE000001001401C17002040420F00FEE70000AA
:104CF0001CB500216E48FCF719FA6D4800214830B8
:104D0000FCF714FA6A486B4A02211830FCF70EFAD5
:104D1000674800213030FCF709FA6548664A0221ED
:104D20006030FCF703FA6248614918300123007CC7
:104D3000009062A278315E48FCF7A6F95C485C49B5
:104D400030300123007C00905EA2B0315848FCF75F
:104D50009BF95748564948300123007C00905CA2DB
:104D6000E8315348FCF790F95148012360305AA2CA
:104D7000007C00905A494E48FCF786F958490023B8
:104D8000383958A2A1F5A470FCF77EF95449584867
:104D9000A8390090022357A2A1F1D800FCF774F9BA
:104DA00057495848CDE900014D490423703956A2AE
:104DB000A1F58870FCF768F95949002355A2A1F5BF
:104DC0006470FCF761F94F48454916383831009056
:104DD000052354A2A1F5E870FCF756F9494840496B
:104DE000153870310090052350A2A1F50270FCF730
:104DF0004BF944483A491438A831009005234DA294
:104E0000A1F51070FCF740F93E4835491338E03100
:104E1000009005234AA2A1F51E70FCF735F9394828
:104E20003F491238E0390090052347A2A1F52C70C4
:104E3000FCF72AF933483A491138A839009005237C
:104E400043A2A1F53A70FCF71FF92E4834491038F7
:104E500070390090052341A2A1F54870FCF714F9C0
:104E600028482F490F383839009005233DA2A1F575
:104E70005670FCF709F93D480A210089401CB0FB37
:104E8000F1F000EE100A1F48B8EE400A183880ED25
:104E9000060A10EE100AFBF702FECDE90001C82257
:104EA000334934A005F0AEFDBDE81C4000F0A3BAC4
:104EB000201F002085840108B9820108555342460D
:104EC0006F726D00416E696D6174696F6E000000F4
:104ED00053657474696E67003C41626F75743E007F
:104EE000E82000205B53657474696E675D00000004
:104EF00084020020526576657273656400000000CC
:104F0000851E01087C0200204272696768746E6524
:104F1000737300005B416E696D6174696F6E5D0053
:104F2000E02200204D696E64000000004369726356
:104F30006C650000536E6F77666C616B65000000F6
:104F40004D6574656F000000506C616E6574000003
:104F5000547269616E676C65000000005374617281
:104F60007761720047436972636C6500100000202E
:104F700075D1010825735B25645D3A2073657474EF
:104F8000696E675F6272696768746E6573733A20F1
:104F9000256620200D0A00002DE9F04100251F4C58
:104FA00036E0E8B2FDF74AF8032830D1FBF73AF9CA
:104FB000E42190FBF1F201FB1200194F05EB85068D
:104FC000801D47F8260000BFFBF72CF94FF48C71C9
:104FD00090FBF1F201FB120007EB8606706000BF48
:104FE000FBF720F90A2190FBF1F201FB1200801C73
:104FF00000EE100AB8EEC00A86ED020A00BF07F004
:1050000093FFB0816078082801D2401C60706D1C4D
:105010006078A842C5DCBDE8F0810000980200205D
:10502000E82A01202DE9F0470024194EE4274FF427
:105030008C784FF00A0900BFFBF7F4F890FBF7F10A
:1050400007FB110004EB8405801D46F8250000BF16
:10505000FBF7E8F890FBF8F208FB120006EB850579
:10506000686000BFFBF7DEF890FBF9F209FB120065
:10507000801C00EE100AB8EEC00A85ED020A00BFDF
:1050800007F052FF641CA881082CD5DBBDE8F0872F
:10509000E82A01202DE9F04300252DED0C8B81B08D
:1050A000F6EE00BA9FEDC0AB4FF00F089FEDC0BA0F
:1050B0009FEDC09BDFF80493C14E70E109EB8514AE
:1050C00094F8280001287BD194ED01DAD4ED070A89
:1050D0003BEE4D0A60EEAB0AB4EEE00AF1EE10FAD8
:1050E00070D294ED0C0B53EC1A2B51EC100BFBF718
:1050F000F8FA41EC180B84ED0C8B606AFBF7CFFCDF
:1051000041EC1C0B53EC182B51EC180BFBF790FBEC
:1051100053EC1C2BFBF78CFBFBF7ECFC00EE100AAE
:10512000012784ED030A3DEE400AB0EE498AF0EE15
:10513000698A84ED010A3AE09FEDA20B51EC180B4D
:1051400053EC102BFBF774FB41EC1C0B6068FBF776
:10515000A6FC53EC1C2BFBF7C4FAFBF768FC00EE33
:10516000107ACDF80080D4ED050AB8EEC00A01B27D
:1051700048F2304330EEC00ABCEEC00A10EE100A0E
:1051800094ED000A82B2BDEEC00A10EE100A00B221
:1051900001F060FEB0EE4A0AF0EE6A0A53EC102B02
:1051A00051EC180B7F1CFBF79CFA41EC180BE068E4
:1051B000FBF775FC53EC182BFBF784FC6DD2BBE7B7
:1051C0006FE0FFE772DD94ED0C0B53EC1A2B51EC02
:1051D000100BFBF727FB41EC180B84ED0C8B606A7E
:1051E000FBF75DFC41EC1C0B53EC182B51EC180B3E
:1051F000FBF71EFB53EC1C2BFBF71AFBFBF77AFCAF
:1052000000EE100A012784ED030A3DEE400AB0EEDD
:10521000498AF0EE698A84ED010AB7EE00CA2FE0F0
:105220006068FBF73CFC53EC182BFBF75AFAFBF7D2
:10523000FEFB00EE107ACDF80080D4ED050AB8EE42
:10524000C00A01B2638F30EEC00ABCEEC00A10EE95
:10525000100A94ED000A82B2BDEEC00A10EE100AE8
:1052600000B201F0F7FDB0EE4A0AF0EE6A0A53EC24
:10527000102B51EC180B7F1CFBF733FA41EC180B89
:1052800094ED030A30EE4C0A10EE100AFBF707FC0F
:1052900053EC182BFBF716FCC2D394F82800012816
:1052A00004D010F0FF0F12D078E0FFE794ED010A70
:1052B000D4ED070A3BEE400AB4EEE00AF1EE10FA34
:1052C0006CDB84ED0C9B002084F8280066E0D4EDB4
:1052D000020A94ED050A3D4970EE800A10EE900A2C
:1052E000884208DCD4ED030A394930EE800A10EE1A
:1052F000100A88420CDD284603F008F97078062869
:1053000001D2401C707001B0BDEC0C8BBDE8F08385
:1053100094ED0C0B9FED2F1B51EC100B53EC112B4C
:10532000FBF7DFF99FED2DCBC4E90C01B0EE4C0A81
:10533000F0EE6C0A05F0A0FBB0EE401AF0EE601A39
:1053400094ED0C0B51EC110B53EC102BFBF770FA96
:1053500041EC180B2068FBF7A2FB53EC182BFBF772
:10536000C0F9FBF7C7FBB0EE4C0AF0EE6C0AA06088
:1053700006F00EFA94ED0C1B51EC100B53EC112BB4
:10538000FBF756FA41EC180B6068FBF788FB53EC0F
:10539000182BFBF7A6F9FBF7ADFBE0606D1C7078EE
:1053A000A8423FF78BAEAEE7000000000000F03FE0
:1053B00000008C430000000000000000E0320120EB
:1053C00098020020000000000000144000008C4300
:1053D0000000704300000000000028400000008032
:1053E0007CD9024010B50024204603F08FF8641CDD
:1053F000062CF9DB10BD10B500F0DAF8FFF712FE4D
:1054000000F04AFD00F07EFA00F0F8FB01F042F9EE
:1054100000F0F8FDBDE81040FFF7E4BF2DE9F047CC
:1054200000272DED028B82B0DFF86C91DFF86C81E4
:10543000B6EE008A5A4D5B4C44E0F8B201F0F2F946
:1054400003283ED107F070FD07EB470105EBC106CD
:10545000B082FAF7E7FE4FF01E0A90FBFAF20AFB61
:1054600012000F3800EE100AB8EEC00ADFED4E8AC7
:1054700020EE280A86ED020AFAF7D4FE90FBFAF233
:105480000AFB12000F3800EE100AB8EEC00A20EE38
:10549000280A86ED030AB068484503DA404501D280
:1054A00086ED028A10EE100A484505DA10EE100A61
:1054B000404501D286ED038A20780E2801D2401C97
:1054C00020707F1C2078B842B7DC00263DE0002722
:1054D00037E000BF06EB460005EBC00107EB4700D5
:1054E00005EBC000D1ED001AD0ED002A91ED012AA4
:1054F000D0ED010A31EEE20A2C4932EE601A20EEBC
:10550000000A01EE010A10EE100A884218DABDEE18
:10551000C20A48F23040009010EE100ABDEEE10AD7
:1055200003B210EE100ABDEEE00A02B210EE100A4D
:10553000BDEEE20A01B210EE100A00B201F0FFFE69
:105540007F1C2078B842C5DC761CC0B2B042BEDCFD
:1055500000260F2718E000BF06EB460005EBC00051
:10556000009790ED010A838A0222BDEEC00A10EE78
:10557000101A90ED000A09B2BDEEC00A10EE100A32
:1055800000B201F067FC761C2078B042E4DC02B087
:10559000BDEC028BBDE8F087CDCC4C3ECDCC4CBEF3
:1055A0009829012098020020CDCCCC3D0000614418
:1055B0002DE9F05F00252DED028B4FF0EC0A9FEDF9
:1055C000328A324FDFF8C880DFF8C8904FF48C7B06
:1055D0001E26F6EE008A00BF07F0A6FC05EB45028A
:1055E00009EBC204A08200BFFAF71CFE90FBFAF29E
:1055F0000AFB1200001D00EE100AB8EEC00A84ED8E
:10560000000A00BFFAF70EFE90FBFBF20BFB120044
:1056100000EE100AB8EEC00A84ED010AFAF702FEA5
:1056200090FBF6F106FB11000F3800EE100AB8EE01
:10563000C00A20EE080A84ED020AFAF7F3FD90FB97
:10564000F6F106FB11000F3800EE100AB8EEC00AA2
:1056500020EE080A84ED030AA068B84203DA404548
:1056600001D2C4ED028A10EE100AB84205DA10EE3B
:10567000100A404501D2C4ED038A6D1C0E2DABDB30
:10568000BDEC028BBDE8F09FCDCCCC3DCDCC4C3EEB
:10569000CDCC4CBE982901202DE9F04F00252DEDF1
:1056A000028B81B048F2304BB0EE088ADFF84882B6
:1056B0004FF00F0ADFF84492F0E00027C5EBC50673
:1056C00044E0E8B201F0CAF903283ED1FAF7AAFD96
:1056D000F02290FBF2F102FB110000EE100A48F8F4
:1056E0002600B8EEC00A84ED030A9FED850A84ED1A
:1056F000040AFAF797FD052290FBF2F102FB110074
:10570000401C00EE100AB8EEC00A84ED020A00BF89
:10571000FAF788FDC11700EB917121F00301401ADF
:10572000A06100BFFAF77EFD90FBFAF10AFB1100C1
:10573000606100BF07F0F8FBA08000BF99F803107C
:10574000142902D2491C89F803107F1C00EE107A3C
:1057500008EB86044046B8EEC00AD4ED020AF4EE27
:10576000C00AF1EE10FAACDC00EB860149690129B0
:1057700016DD491E6161CDF800B094ED040A38F8D9
:105780002600BDEEC00A00B210EE101A94ED030A16
:105790000BB2BDEEC00A10EE101A0AB2002130E0C2
:1057A00094ED040AB0EE601AF0EE400A41EE480AA9
:1057B000F5EEC00AF1EE10FA25DDBDEEE01ACDF8E7
:1057C00000B058F8260011EE101A01EE100A4B48EE
:1057D000BDEEC00A001FB8EEC11AD0ED001A10EEDF
:1057E000102A94ED030A00EEA11A13B2BDEEC00A0E
:1057F00009B210EE102AFDEEC10A12B210EE900AA4
:1058000000B201F09CFDA06930B1012808D0022847
:105810002FD0032841D14BE0A28894ED040A19E06F
:1058200094ED040AF7EE008AA288BDEEC00A10EEDD
:10583000100A94ED030A01B230EE280ABDEEC00A48
:1058400010EE100A00B201F0EFFD94ED040AA288F8
:1058500030EE280ABDEEC00A10EE100A94ED030ADD
:1058600001B2BDEEC00A10EE100A00B201F0DCFD7C
:1058700013E0CDF800A094ED040AA3880122BDEE48
:10588000C00A10EE100A94ED030A01B2BDEEC00A80
:1058900010EE100A00B201F0DDFA6D1C99F8030059
:1058A000A8423FF70AAF01B0BDEC028BBDE8F08F14
:1058B000CDF800A094ED040AA3880122BDEEC00A31
:1058C00010EE100A94ED030A01B2BDEEC00A10EE0C
:1058D000100A00B201F02AF994ED040A0022BDEE8C
:1058E000C00A10EE100A94ED030A01B2BDEEC00A20
:1058F00010EE100A00B2B9E7C82C0120980200206F
:10590000000000002DE9F047284F2A4E00252DED1C
:10591000028B4FF0F0089FED268A4FF005094FF0FB
:105920000F0A00BFFAF77EFC90FBF8F208FB1201A9
:1059300000EE101AC5EBC50007EB8004B8EEC00AF4
:1059400047F8201084ED030A84ED048AFAF76AFC14
:1059500090FBF9F209FB1200401C00EE100AB8EEB1
:10596000C00A84ED020A00BFFAF75CFCC11700EB25
:10597000917121F00301401AA06100BFFAF752FCB7
:1059800090FBFAF20AFB1200606100BF07F0CCFA4C
:10599000A08000BFF078142801D2401CF0706D1C6C
:1059A000142DBFDBBDEC028BBDE8F087C82C0120B5
:1059B0000000000098020020F0B500262DED048BB9
:1059C00081B0844C844D93E0F0B202F06BFD03286B
:1059D00041D1FAF727FCC11700EB917121F00301C7
:1059E000401AC6EBC607401C44F8270000BF07F06A
:1059F0009BFA04EB8707B88000BFFAF713FC142169
:105A000090FBF1F201FB120005210A3090FBF1F04E
:105A100000EE100AB8EEC00A87ED020A00BFFAF7DE
:105A200001FC3C2190FBF1F201FB1200001D00EE95
:105A3000100AB8EEC00A87ED030A00BF9FED670A9F
:105A400087ED040A87ED050A87ED060A28790528FF
:105A500001D2401C2871C6EBC60004EB800797ED0D
:105A6000040ADFED5F8A60EE280A9FED5E8A80EE11
:105A7000880A10EE100AFBF712F841EC100B04F044
:105A8000FBFFB0EE409AF0EE609AF868FBF707F87B
:105A900053EC192BFAF7CCFE9FED531B53EC112B53
:105AA000FAF71FFEFBF726F8786197ED040A60EE1F
:105AB000280A80EE880A10EE100AFAF7F0FF41EC8F
:105AC000100B05F065FEB0EE408AF0EE608AF868D3
:105AD000FAF7E5FF53EC182BFAF7AAFE9FED441BEB
