:020000040801F1
:10000000808401209D01010819660108F744010858
:10001000514801085F0E010865A5010800000000B5
:10002000000000000000000000000000CD82010878
:10003000550F010800000000058001081183010828
:10004000B7010108B7010108B7010108B7010108AC
:10005000B7010108B7010108B7010108B70101089C
:10006000B7010108B7010108B7010108B70101088C
:10007000B7010108B7010108B7010108B70101087C
:10008000B7010108B7010108B7010108B70101086C
:10009000B7010108B7010108B7010108B70101085C
:1000A000B7010108B7010108B7010108B70101084C
:1000B000B7010108C1830108B7010108B7010108B0
:1000C000B7010108B7010108B7010108B70101082C
:1000D000B7010108B7010108B7010108B70101081C
:1000E000B7010108B7010108B7010108B70101080C
:1000F000B7010108B7010108B7010108B7010108FC
:10010000B7010108B7010108B7010108B7010108EB
:10011000B7010108B7010108B7010108B7010108DB
:10012000B7010108B7010108B7010108610E010814
:10013000B7010108B7010108B7010108B7010108BB
:10014000B7010108B7010108B7010108B7010108AB
:10015000B7010108B7010108B7010108B70101089B
:10016000B7010108B7010108B7010108B70101088B
:10017000B7010108A17C0108B701010800000000D7
:10018000B7010108B7010108DFF80CD000F02AFE22
:100190000048004771C80108808401200648804754
:1001A00006480047FEE7FEE7FEE7FEE7FEE7FEE75C
:1001B000FEE7FEE7FEE7FEE7A583010889010108E7
:1001C0002DE9F05F0546002092469B46884606468C
:1001D000814640241BE0284641464746224600F01F
:1001E000CAFC53465A46C01A914110D311461846CC
:1001F000224600F0B1FC2D1A67EB01084F4622465B
:100200000120002100F0A8FC17EB00094E41201E40
:10021000A4F10104DFDC484631462A464346BDE8E6
:10022000F09F00000649074A0868504343F239022C
:10023000104408604008704701490860704700009A
:10024000900200206D4EC641014610B509683C225F
:10025000B1FBF2F302FB1313B1FBF2F11D48036093
:10026000B1FBF2F302FB1313B1FBF2F1182243606E
:10027000B1FBF2F302FB1313B1FBF2F183600A1D31
:100280000723B2FBF3F403FB142282618A0040F2DD
:10029000B55102F66C32B2FBF1F344334361B2FB69
:1002A000F1F301FB13218908C1613B2903D3027DCE
:1002B000920700D0491C0022074C13460261E25C01
:1002C0008A4203D8891A5B1C0361F8E7491CC160A4
:1002D00010BD000050340120D041020870B5054621
:1002E00001B90721541A241DB4F5B67F09DD286829
:1002F00000F036F9A04204DC2868401C2860012088
:1003000070BD002C05DA2868401E286000F028F92E
:100310000444072094FBF0F0401C70BD2DE9F04F21
:1003200089B01D468A468046002401AF4FF0070B76
:100330000192079057F8241011F8010B47F8241088
:1003400048B125280DD0BAF1010F06D908F8010BE4
:10035000AAF1010A5CE0641E5AE0002009B0BDE881
:10036000F08F11F8010B47F824100028F3D0022673
:100370004FF030095A284BD020DC4D2873D014DCC4
:10038000442871D008DC2528DDD041282AD0422815
:100390002ED043283CD130E0462847D0472857D0BC
:1003A000482862D0492833D161E0523808282FD23A
:1003B000DFE800F0787AA6838A97A6A86138192822
:1003C00026D2DFE800F00D1318202E253513255C0A
:1003D000252560642566256D257375258B9BA000FA
:1003E0006AA000E070A0A9690091B4E07DA000E0DF
:1003F00088482969F8E788A007E06969642091FBCB
:10040000F0F0133082E0E86880E0641C47F82400D4
:10041000002C8FDA002088F800000799A8EB010073
:100420009CE7E8684FF02009009070E07EA0ECE7C0
:10043000686900F26C700090D5E906126846FFF713
:100440004DFF0099642091FBF0F200FB12105DE07B
:100450006869042600F26C700090D5E906126846BF
:10046000FFF73CFF53E010E048E0A8684EE0A868C2
:100470000C21173090FBF1F201FB120001E0E8695A
:100480000326401C42E02869FBE768683EE069A05B
:10049000BBE7A8680C2801DA67A0B6E767A0B4E755
:1004A00067A0B2E769A0B0E728682FE069A0ACE7D1
:1004B000A869012608BB072028E0D5E90610401AE4
:1004C000C01D90FBFBF021E0686900F26C700090A9
:1004D000D5E906126846FFF701FF17E00126A86973
:1004E00014E0A9695846891D91FBF0F20BFB12112B
:1004F000EA69511AC91D91FBFBF007E056A084E799
:1005000058A082E70426686900F26C700090002110
:100510008DF8181006A80A2113E0009A92FBF1F357
:1005200001FB1322303200F8012D009A92FBF1F208
:10053000009232B901E000F8019D321EA6F10106D9
:10054000F9DC321EA6F10106E7DC5EE710F8011BBC
:100550000029FBD100994A1E00920029F6DC54E7DD
:1005600081070CD1642190FBF1F201FB120151B91A
:100570004FF4C87190FBF1F201FB120018B100209A
:1005800000F26D1070470120FAE7000053756E000D
:100590004D6F6E00547565005765640054687500B2
:1005A000467269005361740053756E646179004D41
:1005B0006F6E646179005475657364617900576585
:1005C000646E6573646179005468757273646179EF
:1005D000004672696461790053617475726461796F
:1005E000000000004A616E00466562004D617200C5
:1005F000417072004D6179004A756E004A756C0059
:1006000041756700536570004F6374004E6F76004C
:1006100044656300DC4102082561202562202565D0
:10062000202554202559000025592D256D2D2564A0
:10063000000000000A000000414D0000504D000085
:1006400025493A254D3A25532025700025483A255D
:100650004D00000009000000256D2F25642F25792D
:100660000000000025483A254D3A255300000000BF
:1006700040EA01039B0703D009E008C9121F08C024
:10068000042AFAD203E011F8013B00F8013B521EA4
:10069000F9D27047D2B201E000F8012B491EFBD21B
:1006A00070470022F6E710B513460A46044619467D
:1006B000FFF7F0FF204610BD421C10F8011B002977
:1006C000FBD1801A704710B5484304460CF076F908
:1006D000002805D00021002C02D0641E0155FAE745
:1006E00010BD2DE9FE4F804681EA0300C00F0C4685
:1006F000009021F0004123F00045B8EB0200A94131
:1007000005D24046214690461C460B46024623F041
:100710000040104347D0270DC7F30A00C3F30A5126
:100720000290401A019040286BDAC3F3130040F4A2
:10073000801B0098924620B10023D2EB030A63EBA2
:100740000B0B01985946C0F14002504600F004FAE4
:1007500006460D4650465946019A00F01CFA10EB29
:1007600008006141002487EA115284EAE7731A43C2
:1007700040D0009A62B3019A012A4FEA075215DC71
:10078000001B61EB02014FF0004202EA0752CDE983
:100790000042001C41F5801132462B4600F053FA0E
:1007A00003B0BDE8F08F40462146F9E7001B61EB3E
:1007B0000201001C41F5801300185B412018A2F5CE
:1007C000001747EB030140EAD570B6196D4111E0FF
:1007D0006D084FEA360645EAC0754FEA0752001B1E
:1007E00061EB0201001C41F5801149084FEA30001D
:1007F0000019514132462B4603B0BDE8F04F00F0DE
:1008000013BA0098012240000023D0EB020263EBF0
:10081000E073009821464FEAE074B8EB000061EB0A
:100820000401E9E783F000435BE781F0004158E70A
:100830002DE9FE4F81EA030404F0004421F0004159
:1008400000944FF0000B23F0004350EA01045ED007
:1008500052EA03045BD0C3F30A54C1F30A552C4493
:10086000A4F2F3340194A0FB0254C1F3130141F448
:100870008011C3F3130343F4801301FB024400FB14
:10088000034E840A970A44EA815447EA8357A4FB3B
:10089000076802958D0A05FB07854FEA932C04FB38
:1008A0000C542705029D4FEA065847EA1637B5EB68
:1008B00008056EEB070C870E920E47EA811742EA95
:1008C0008312A7FB0201B6EB0B0164EB00042B0DB6
:1008D00043EA0C335E1844EB1C50DA465146E7FB02
:1008E0000201C5F313044FEA0B3343EA14534FEAF2
:1008F0000432019C43EA0603A4F10C040294009C18
:10090000CDE900B400F09FF903B0BDE8F08F0020FE
:100910000146F9E72DE9F04D81EA030404F0004BAC
:1009200021F0004514464FF0000A23F0004150EA40
:10093000050220D054EA01021DD0C5F30A57024631
:10094000C5F31303C1F31300C1F30A5640F4801535
:1009500043F48013A7EB0608101BD64608F2FD38B7
:1009600073EB050002D308F1010801E092185B4126
:10097000B8F1000F03DA00200146BDE8F08D002039
:100980004FF48011064684460EE0171B73EB0507F3
:1009900005D3121B63EB050306434CEA010C49081F
:1009A0004FEA300092185B4150EA0107EDD152EA5C
:1009B000030012D082EA040083EA0501084305D04F
:1009C000101BAB4106D20122002306E000224FF0AB
:1009D000004302E06FF0010253101AEB06004CEBEB
:1009E000085110EB0A0041EB0B01BDE8F04D00F09F
:1009F0001BB90EB5C10F80EAE0700844CA07002198
:100A000040F233438DE80E000A460B4600F01BF916
:100A100003B000BD0EB540F2334102910021CDE993
:100A200000110A460B4600F00EF903B000BD70B588
:100A3000C1F30A5201F000450024C1F3130140F252
:100A4000FF3341F480119A4201DA002070BD40F278
:100A500033439A42A2F2334203DC524200F08BF855
:100A600000E090402C43F1D0404270BDC1F30A52E7
:100A700010B5C1F3130140F2FF3341F480119A42E3
:100A800001DA002010BD40F233439A42A2F2334211
:100A900003DC524200F06FF810BD904010BD00F032
:100AA000004230F000400AD0C10D01F56071C0F382
:100AB000160042EA0151C208400711437047002066
:100AC0000146704730B5041E71F1000404DB4FF09D
:100AD0000044404264EB0101141E73F1000405DB85
:100AE0001C464FF00043524263EB0403994208BF97
:100AF000904230BD01F0004330B421F0004150EA93
:100B0000010206D00A0DA2F56072C1F31301002A9A
:100B100002DC30BC00207047440F44EAC104C1002D
:100B2000E01830BC00EBC25000F047B830B50B46BF
:100B3000014600202022012409E021FA02F59D420D
:100B400005D303FA02F5491B04FA02F52844151EE1
:100B5000A2F10102F1DC30BD202A04DB203A00FAC8
:100B600002F1002070479140C2F1200320FA03F304
:100B7000194390407047202A04DB203A21FA02F002
:100B80000021704721FA02F3D040C2F120029140C7
:100B9000084319467047202A06DBCB17203A41FA52
:100BA00002F043EAE07306E041FA02F3D040C2F1FA
:100BB000200291400843194670470029A8BF70479A
:100BC000401C490008BF20F00100704710B4B0FA83
:100BD00080FC00FA0CF050EA010404BF10BC70471E
:100BE00049B1CCF1200421FA04F411FA0CF118BF38
:100BF000012121430843A3EB0C01CB1D4FEA006107
:100C00004FEA102042BF002010BC704700EBC350D9
:100C100010440029A4BF10BC7047401C490008BF05
:100C200020F0010010BC704710B5141E73F10004D1
:100C300008DA401C41F1000192185B411A4301D1CE
:100C400020F0010010BD2DE9F04D92469B4611B1F8
:100C5000B1FA81F202E0B0FA80F220329046FFF75A
:100C60007BFF04460F4640EA0A0041EA0B01534667
:100C70005A46084313D0114653EA010019D0C8F16F
:100C800040025046FFF777FF05460E46504659464C
:100C90004246FFF761FF084305D0012004E02046EB
:100CA0003946BDE8F08D0020054346EAE0762C4346
:100CB00037430A986305E40AA0EB08000022FD0A06
:100CC00044EA47540A3002D500200146E9E701050D
:100CD00010196941DDE9084500196941BDE8F04D89
:100CE000A2E770B521F0004303430CD0C1F30A55CD
:100CF0000024D5EB040564EB0403D617AD1AB34109
:100D000002DB0020014670BD201841EB025170BD8E
:100D10002DE9F04D00231A461B1A8A4103DB0020FF
:100D20000146BDE8F08DC1F30A52C1F3130141F44D
:100D300080154FF0000BD10702D100186D41521EF3
:100D40000027044640F2FF11384601EB620A3E4696
:100D50008046024600204FF48011FFF70CFFC219B5
:100D60007141BB1846EB0100B4EB030C75EB000CB2
:100D700004D3E41A65EB000517460E46241908F162
:100D800001006D4180463428E3DDF91946EB060089
:100D9000091BA84103D24FF0FF32134601E00022A5
:100DA00013461BEB070046EB0A51BDE8F04DFFF779
:100DB0003BBFC1F30A52C1F3130140F2FF3341F4C8
:100DC00080119A4202DA00200146704740F2334314
:100DD0009A42A2F2334202DC5242FFF7CCBEFFF746
:100DE000BBBE0000064C074D06E0E06840F0010382
:100DF00094E8070098471034AC42F6D3FFF7C8F9DF
:100E0000684302088843020870B58C1810F8015B2B
:100E100015F0070301D110F8013B2A1106D110F893
:100E2000012B03E010F8016B01F8016B5B1EF9D197
:100E30002B0705D40023521E0DD401F8013BFAE71D
:100E400010F8013BCB1A921C03E013F8015B01F888
:100E5000015B521EF9D5A142D8D3002070BDFEE738
:100E6000014801F091B9000018160020016818230C
:100E7000CAB2103AB2FBF3F2054B6FF30901032A31
:100E80009B5CC36500D9091D816508467047000059
:100E90003BCB010810B5014600208B698A6A4FF0F0
:100EA000C07453B1B3F5005F15D072B1012A0CD0F4
:100EB000022A0AD0032A09D104E01AB1012A06D075
:100EC000022A03D1C96AC90100D5012010BDC96A2F
:100ED000A142FAD010BD002AF7D0012AF2D0022A8E
:100EE000F3D0032AF3D010BD30B50468256825F48B
:100EF00080252560046863608368402B036803D005
:100F000099600068C26030BD9A600068C16030BD01
:100F100070B50F4D6C6805E0A189A06801F0B0FBC9
:100F200060706468002CF7D1002041F2883100BF66
:100F3000401C8842FBDB6C6807E0A189A06801F0D7
:100F40009FFB6178084320706468002CF5D170BD68
:100F5000D001002070470000032303760023436084
:100F600003614361816082810121817004494A6883
:100F70001AB18A685060886070474860FBE70000DB
:100F8000D001002010B50120FFF7C2FF1748002351
:100F900040F6B832406826E0847801788C4201D966
:100FA000037607E002D24FF0010402E069B14FF08E
:100FB00003040476047E54B1012C0AD0022C0AD01A
:100FC000446994420BD342610BE00224F1E70361D0
:100FD00007E0436105E004690A34046101E00A3472
:100FE0004461817040680028D6D110BDD001002036
:100FF00070B5244C4FF4FA76002563683FE018463C
:1010000007F08EF8187E012817D11869B04208D36E
:10101000184603F071FA187E01280ED11869B04203
:101020000BD2207810B1187F20B108E0184607F0E5
:1010300019F823E0012018770FE02078F0B1187F2D
:10104000012802D002280FD018E0187E28B958696C
:10105000F02802D20220187710E05869F0280DD944
:10106000184606F0FFFF08E0187E012806D118692F
:10107000B04203D2184605F0C9FA1D775B68002B11
:10108000BDD170BDD00100200FB4002310B5CC69D4
:101090009FED250A237081F820304C6A84ED000A08
:1010A00081ED0A0A81ED0B0A81F830304B634A6109
:1010B0009DF814200A71082A1ED2DFE802F01D04F0
:1010C000080E0E080819069A81F8302014E0069AD6
:1010D000CA61127881F820200EE0069A4A62D2EDA9
:1010E000000AC1ED0B0AD2ED000AC1ED0A0A01E0C7
:1010F000069A8A61079A4A630B60826882B1C26865
:101100005279521C4A71C2681160C1604879C88026
:1011100081ED020A81ED030A0B8210BC5DF814FB1D
:101120004B718160F1E70000000000000FB4002166
:1011300041618160C16001609DF804200271022A52
:1011400001D1029A4261074AD36C3BB1116D0B7C0D
:101150005B1C03740860106504B070470174D064B0
:10116000F9E70000E00100202DE9F041234C0125C2
:1011700005F12800002607B206F10A002288394648
:1011800000B205F003FFB61CDD2EF5DBAD1CC92D4A
:10119000EEDB142001F06AF906F092F9012505F161
:1011A0002800012607B206F10A002288394600B25B
:1011B00005F0ECFEB61CDD2EF5DBAD1CC92DEEDB1B
:1011C000142001F053F906F07BF9002505F1280001
:1011D000012607B206F10A002288394600B205F05E
:1011E000D5FEB61CDD2EF5DBAD1CC92DEEDB1420C3
:1011F00001F03CF9BDE8F04106F062B97802002048
:101200001CB504460279008A283001B2072A7CD234
:10121000DFE802F00E04435C5C112A005DA20C20A2
:1012200006F0F0FC208A6269283001B21B20A9E098
:101230000C206269A6E058A20C2006F0E3FC208A8C
:101240006269283001B21B2006F0DCFCE06909214C
:1012500002230078CDE90001208A1222401E01B24B
:10126000BF2000F0E5FA1CBD4BA20C2006F0CAFC22
:10127000208A6269283001B21B2006F0C3FCE069B5
:10128000012102230078CDE90001208A1222401EAC
:1012900001B2BF2000F098F81CBD3FA20C2006F060
:1012A000B1FC208A6269283001B21B2006F0AAFC3A
:1012B000E06900780028208A00F1280001B202D0FD
:1012C00036A2C3205EE036A2B7205BE032A20C203B
:1012D00006F098FC208A6269283001B21B2006F0D3
:1012E00091FC606A2F4990ED000A10EE100A8842C6
:1012F0000CDAB5EEC00AF1EE10FA07DB208A022301
:10130000283001B20422B22032E040E010EE100A90
:10131000254988420BDA10EE100A2449884206D289
:10132000208A0223283001B20422A62020E010EEF9
:10133000100A1F4988420BDA10EE100A1D49884234
:1013400006D2208A0223283001B204229A200FE01C
:1013500010EE100A184988420FDA10EE100A1749E9
:1013600088420AD2208A0223283001B204228E2029
:1013700002B0BDE8104006F006BC208A10A228305A
:1013800001B29F2002B0BDE8104006F03BBC02A2B3
:1013900045E700002B0000002D0000006F6E0000EC
:1013A0006F666600000020410000C842000020C1B6
:1013B00000007A440000C8C200401C4600007AC405
:1013C0002A2A2E2A2A0000002DE9FC47DFF8548043
:1013D000DDE90AA70646B8F80000CDE900070D468A
:1013E00001F1280001B21C4606F10A00914613469D
:1013F00000B205F059FEBAF1000F10D0B8F80000A5
:10140000CDE90007614209EB410083B282B228199D
:10141000283001B230190A3000B205F0E1FDBDE814
:10142000FC870000760200202DE9F0430E4646219D
:101430009146B1FBF9F82DED028B0746007983B098
:1014400000287DD17C4C94ED170ABDEEC00A10EE49
:10145000100A98B9B868B2EE088A0179406979B182
:10146000FFF72AF9401C00EE100AF8EE400AB2EE2F
:10147000000A00BF00EE880A84ED170ABD683FE04D
:10148000FFF71AF900EE100AF8EE400AB1EE040A6E
:10149000F0E76879B04232D128790028686921D014
:1014A000FFF70AF900EB40005FF0140101EB800048
:1014B0002086E8884FF6FF7100EB800001EA80008B
:1014C0006086E07986421DD0301A00D54042F96826
:1014D0004979884216DAB5F91000002808DAB2EE28
:1014E0000E0A09E0FFF7E8F800EB40000521DDE710
:1014F000C82807DB9FED510A84ED180A02E02D6829
:10150000002DC6D1E08D10B1E1798E4223D0218E1D
:10151000D4ED170A00EE101AB8EE400A70EE600A19
:1015200000EE108AB8EE400A80EE801A84ED151A9B
:10153000618ED4ED180A00EE101AB8EE400A00E0F1
:1015400075E070EE600A00EE108AB8EE400A80EE98
:10155000801A84ED161A46280CD3208E00EE100A4D
:10156000B8EE400A84ED170A608E00EE100AB8EE5D
:10157000400A0DE094ED170AD4ED150A30EE200A6A
:1015800084ED170A94ED180AD4ED160A30EE200AFD
:10159000022084ED180A05F0EFFFDFF8A480012592
:1015A0002827B8F80000CDE9000594ED180ABDEE33
:1015B000C00A10EE100A07FA80F094ED170A01B283
:1015C0001423BDEEC00A10EE100A82B20A2005F004
:1015D00007FD012005F0D0FFB8F80000CDE90005B7
:1015E00094ED180ABDEEC00A10EE100A07FA80F05A
:1015F00001B214230422E22005F0F2FCE67194ED1E
:10160000170A218EBDEEC00A10EE100A88420AD1D8
:1016100094ED180A618EBDEEC00A10EE100A8842E1
:1016200001D1002002E0E18D01EB0900E08503B06B
:10163000BDEC028BBDE8F083E001002000002543F3
:10164000760200202DE9FC418046FFF735F800EBDB
:101650004000052101EB800085B2C5F1DC0000EB04
:10166000D0704408FFF780FD144F01268021388890
:10167000CDE9000604F10C0000B214232A4605F05F
:1016800013FD3888CDE9000604F10800842100B27A
:1016900014232A46A41E05F0A3FC022005F06CFFCB
:1016A0000C34862120B2424606F0ACFA012005F047
:1016B00063FFBDE8FC4105F003BF00007602002097
:1016C000F8B50546012005F057FF544C2A20A084A8
:1016D0006869FEF7F1FF401C0C287DD96869FEF7A8
:1016E000EBFF00EB4000132101EB800080B260842F
:1016F000922801D29220608480B2C0F1DC0101EB1B
:10170000D1714F10E783A28CA0F15203C2F1C8013E
:1017100001EBD17149102184414EE384921C33883E
:10172000009393B2801C82B22731093709B238B2D4
:1017300005F089FB3B4800880090208CA38C283062
:1017400001B2E08B628C0A3000B204F087FF208C7B
:10175000E1786A690844283001B2E08B0D3000B2AC
:1017600006F050FA6869FEF7A7FFE18B00EB400036
:1017700001EB8000218CE2780D301144283100B259
:1017800009B229A206F03EFA30880090208CE17858
:10179000102308443C3001B2E08BE28C0D3000B2E3
:1017A00005F051FB686A9FED211A90ED000AE08C6C
:1017B000C0EE010A00EE100AB8EE401AB1EE000ABF
:1017C00010EE810ABCEEC00A10EE100A82B2308818
:1017D0000090208CE17800E01DE008443E3001B22A
:1017E000E08B0C230F3000B204F038FF686AE17818
:1017F000628C90ED000A208C022308443C3001B238
:10180000E08B1044423800B2032206F0BCF9BDE878
:10181000F84005F055BE97206DE70000E00100207C
:1018200076020020780200203A0000000000C84242
:101830002DE9FC47DFF85C80DDE90AA70646B8F829
:101840000000CDE900070D4601F1280001B21C4659
:1018500006F10A009146134600B205F025FCBAF1E4
:10186000000F15D0604207EB4001891EC9B2B8F8DD
:10187000002009EB4000CDE90021801E83B282B236
:101880002819293001B230190B3000B205F0A8FB3D
:10189000BDE8FC87760200202DE9F047824605F07E
:1018A00001FE012005F068FE6C4DDFF8B481287858
:1018B000EC6C18F8000000E02468217C8142FBD128
:1018C0006878A8B1A468A87D0EE0617981420AD148
:1018D0002079042802D12046FFF7F2FE2046616BF2
:1018E000BDE8F04708472468002CEED1BDE8F0873A
:1018F00004F094FE00F0A0FB2079DFF8649100264C
:1019000009F10A09022803D0012827D0A7684EE070
:101910006169204688476E772E77AE766E762E7692
:101920002878C8B1E97E91B1EE7608F8006009F830
:101930000060401EC0B2287019F80000A87500F0C1
:1019400061FA01235246A97D2046FFF76DFD454807
:10195000007800287DD1C9E7EE767AE06E772E77A1
:10196000AE766E762E7628780028F5D0E97E0029AE
:101970006FD0EE7608F8006009F80060401EC0B233
:10198000287019F80000A87500F03CFA01235246AF
:10199000A97D2046FFF748FD5BE05346AA7D394606
:1019A000204600F063F83846FFF72AFC3F68002F16
:1019B000F3D100235246A97D2046FFF735FDE068AC
:1019C0004079E875297E41B1A97D814202D2491C46
:1019D000A97502E0A97801B1AE75697E39B1A97D1A
:1019E00011B1491EA97502E0A97801B1A875A87EB8
:1019F00070B1A87DA16809E04A79824205D1174AF1
:101A00002046163200F000F902E009680029F3D1FF
:101A10006E772E77AE766E762E76287800289BD05D
:101A2000E97EB1B1EE7608F8006009F80060401E6A
:101A3000C0B2287019F80000A8759FED0B0AA068C5
:101A400003E0068280ED020A00680028F9D100F068
:101A5000D9F9BDE8F04705F033BD0000E0010020F2
:101A6000581E00205402002000000000F0B546245B
:101A7000B4FBF3F7364C8568A679E6B9284617E03B
:101A800090F805C0944506D1B0F906E0BEF1000F0C
:101A900001DAC08808E0944509D1B0F906C0BCF16C
:101AA000090F04DDC08809386085012602E000685E
:101AB0000028E5D1A671B4F92A0003E0EE88361AB1
:101AC000EE802D68002DF9D16585A571C88826792D
:101AD00000EB800006EB800000B2A085268D1EB1D1
:101AE00094F805C0624513D0B1F910C000EE10CAD9
:101AF000F8EEC00A00EE100AB8EEC00A70EE600AF6
:101B000000EE107AB8EE400A80EE801A81ED031ADA
:101B1000462E04D300EE100AB8EEC00A05E091ED9F
:101B2000020AD1ED030A30EE200A81ED020ABDEE71
:101B3000C00A10EE107A3FB20F8262710968002964
:101B400002D1874201D12585F0BDF0182085F0BD76
:101B5000E001002038B50446204805F00DFB204D7B
:101B60004FF4807229461F48FFF7F6F91D486A15A1
:101B700029462030FFF7F0F91A484FF400421A497D
:101B80004030FFF7E9F92A15184D1648294660300C
:101B9000FFF7E2F91348EA1429468030FFF7DCF931
:101BA00005F080FC04F03AFD34B1114838233A22A4
:101BB000702100905B2005E00E4800901C231D2240
:101BC0007E21692005F04AFD0BA2DF213D2006F0B1
:101BD00019F8BDE8384005F073BC0000B00D0020D6
:101BE000000402406C1E0020000002400008024079
:101BF000EED2010896CC0108456173795549284514
:101C00007242575F73290000F0B40E790125264C0B
:101C10000023082E29D2DFE806F02804383D3D2AAB
:101C200038412578092D20D0204F16789FED200AC5
:101C30007E556D1CEDB22570A7F10A0491F83010A5
:101C400061551370806807E0B0F90610002902DBC7
:101C5000038280ED020A00680028F5D1F0BC00F094
:101C6000D1B8012100E000210170F0BC704780680C
:101C700009E00279052A05D142794C79A24201D0C6
:101C8000C269137000680028F3D1C869017800297F
:101C9000E9D1E6E76570F0BCFFF766BA6570886960
:101CA000F0BCFFF7CFBC0000E0010020621E002066
:101CB0000000000010B52A4C207E617E0843A17E02
:101CC0000843E17E0843217F084348D1607F002814
:101CD00045D12448437E20302376407E60762148DB
:101CE0004030417EA176807EE0761E484038407EBE
:101CF00020771C482038407E60772BB140F2A94203
:101D000019491AA008F030FC637E2BB140F2AB42B7
:101D100015491DA008F028FCA37E2BB140F2AD426E
:101D2000114920A008F020FCE37E2BB140F2AF4225
:101D30000D4922A008F018FC237F2BB140F2B142DC
:101D4000094924A008F010FC637F002B07D0BDE8F0
:101D5000104040F2B342044924A008F005BC10BD75
:101D6000E0010020AC1E002076CC010825735B2525
:101D7000645D3A206F706E466F72776172643A25C7
:101D80006420200D0A00000025735B25645D3A2065
:101D90006F706E4261636B776172643A25642020D4
:101DA0000D0A000025735B25645D3A206F706E4557
:101DB0006E7465723A256420200D0A0025735B2538
:101DC000645D3A206F706E457869743A256420200E
:101DD0000D0A000025735B25645D3A206F706E5517
:101DE000703A256420200D0A0000000025735B2551
:101DF000645D3A206F706E446F776E3A25642020E0
:101E00000D0A00002DE9F0412F4C012505F12800B5
:101E1000002607B206F10A002288394600B205F012
:101E2000B5F8B61CDD2EF5DBAD1CC92DEEDB0F20A1
:101E300000F01CFB05F044FB012505F128000126FC
:101E400007B206F10A002288394600B205F09EF872
:101E5000B61CDD2EF5DBAD1CC92DEEDB0F2000F02E
:101E600005FB05F02DFB002505F12800012607B232
:101E700006F10A002288394600B205F087F8B61C40
:101E8000DD2EF5DBAD1CC92DEEDB0F2000F0EEFAE8
:101E900005F016FB012505F12700012607B206F122
:101EA00009002288394600B205F070F8B61CDD2E14
:101EB000F5DBAD1CC92DEEDB0F2000F0D7FABDE835
:101EC000F04105F0FDBA00007802002072B6FEE78E
:101ED0002DE9F05F4C4F04462DED028B38784B4EC8
:101EE000DFED4B8AB2EE048A002518B3606A90EDEC
:101EF000000A30EE080A10EE101AB14201DD9FED23
:101F0000450A80ED000A606A90ED000A10EE100AA2
:101F1000B04202D1B0EE680A01E020EE080A642265
:101F20003D48BCEEC00A10EE101A0AF049FC3B48CE
:101F300005703D70DFF8E880DFF8E8B098F8000041
:101F400030B3606A384A90ED000A30EE480A10EE6D
:101F5000101A914202DB80ED000A01E080ED008A58
:101F6000606A90ED000A10EE100AB04202D1B0EEA5
:101F7000680A01E020EE080A64222748BCEEC00A85
:101F800010EE101A0AF01CFC8BF8005088F8005074
:101F9000DFF89890DFF898A099F8000050B1606AD7
:101FA00090ED000A84ED0B0AFFF7DEF88AF8005086
:101FB00089F800501F480078C0B1606A94ED0B0AA0
:101FC00080ED000A10EE100AB04201D060EE088ADF
:101FD00064221148BCEEE80A10EE101A0AF0F0FB79
:101FE000FFF7C2F813488AF80050057088F80050CF
:101FF0003D700A4889F800508BF800500570BDEC20
:10200000028BBDE8F09F0000FC0100200000C842E8
:10201000008077440000C842880D0020F8010020AD
:10202000FD010020F901002000002041FA010020FC
:10203000E1010020FB01002010B5124CA07808B18E
:1020400002F09EFFE07808B102F058FD207908B157
:1020500003F0E0FB607908B103F0D0F8A07908B193
:1020600003F05CFAE07908B103F0C6FD207A08B10C
:1020700003F006FD607A002803D0BDE8104002F0AE
:10208000BBBD10BD54020020F8B5294D00EB800601
:10209000062155F8260005EB860490FBF1F201FBC2
:1020A0001201103100EE101AD4ED040AB8EEC01A75
:1020B0009FED200AB4EEE01AF1EE10FA34DD94ED53
:1020C000021A71EE600AF5EEC00AF1EE10FA2BD397
:1020D000BCEEE00A0F27009710EE101AA38900B299
:1020E0008AB2A18809B204F067FC009794ED020A55
:1020F000D4ED040A48F2304330EE200ABCEEC00AA8
:1021000010EE100A82B2A08801B235F8260000B2A3
:1021100004F0BEFA94ED040ADFED070A022030EE67
:10212000200A84ED040AF8BD84ED040A0320F8BDFA
:10213000D82A012000000000CDCCCC3E10B5040010
:1021400002D0607910B106E0012010BD002020719E
:10215000204600F005F801206071002010BD00004D
:1021600008B500680649884208D10648016841F46C
:1021700080510160006800F48050009008BD0000AC
:1021800000300240303802402DE9F84304464FF059
:102190000009CDF8009063484FF41651A56D006812
:1021A000B0FBF1F72E6894F85C10082000FA01F1FA
:1021B00031420FD021680A6852070BD50A6822F015
:1021C00004020A6094F85C108840A860606D40F0DA
:1021D0000100606594F85C104FF0010808FA01F006
:1021E000304208D021684969090604D5A860606DAD
:1021F00040F00200606594F85C1004208840304292
:1022000008D021680968890704D5A860606D40F08E
:102210000400606594F85C1010208840304218D0AB
:1022200021680968090714D5A86020680168490376
:1022300004D50068000308D5A16C07E00168C90552
:1022400003D4016821F008010160216C09B1204626
:10225000884794F85C1020208840304231D02168B3
:102260000968C9062DD5A86094F8350005282068AE
:10227000016806D0490347D5006800031DD4616C8E
:102280001CE021F0160101602068416921F0800105
:102290004161206C08B9A06C20B12068016821F070
:1022A0000801016094F85C103F208840A86084F821
:1022B000358084F83490216D1FE0E16B09B1204630
:1022C0008847606D00282BD0606DC00714D00520B2
:1022D00084F835002068016821F001010160009850
:1022E000401C0090B84203D820680068C007F6D1AF
:1022F00084F8358084F83490E16C002910D001B066
:102300002046BDE8F04308470168C905D5D40168F7
:1023100021F01001016084F8358084F83490CCE716
:10232000BDE8F883200000202DE9F041044600F0CC
:10233000B9F906465CB1022084F83500002584F81E
:1023400034502068016821F0010101600DE0012096
:10235000BDE8F08100F0A6F9801B052805D92020F2
:102360006065032084F83500F2E720680068C00744
:10237000F0D12268116820480140D4E901031843D4
:10238000D4E903363343184363691843A3691843F8
:10239000E3691843236A18430843616A042903D197
:1023A000D4E90B1319430843106020684069666A3A
:1023B00020F0070130460E43012704280CD1A06A03
:1023C0000643E06A40B12046FEF764FD20B140209C
:1023D000606584F83570BAE7206846612046FEF7EC
:1023E00045FD94F85C203F2191408160656584F84B
:1023F00035700020ACE700003F8010F02DE9F0417F
:102400000446866D90F83400002501280DD0012087
:1024100084F8340094F835700020012F07D084F838
:10242000340002252846BDE8F0810220FBE70227A0
:1024300084F8357060652046FEF756FD94F85C1010
:102440003F208840B0602068016841F016010160BB
:10245000206C20B12068016841F00801016020680B
:10246000016841F001010160DCE7000070B504463D
:1024700000F018F90546601C02D0044800780444B6
:1024800000F010F9401BA042FAD370BD14000020E8
:102490002DE9F84FDFF8BCA10022012503264FF0FB
:1024A0000F090AF1040BAAF1040E00BF0B6805FA2C
:1024B00002F42340A34270D10F7907F00307012FE4
:1024C00001D0022F16D187684FEA420806FA08FCAD
:1024D00027EA0C07D1F80CC00CFA08FC4CEA070CF0
:1024E000C0F808C04768A7430C79C4F300149440AF
:1024F0003C4344600C79E443A4070AD0C4684FEA23
:10250000420C06FA0CF7BC438F6807FA0CF7274316
:10251000C7600C7904F00304022C12D1D40800EB3C
:10252000840CDCF820405707FF0E09FA07F824EA6C
:102530000804D1F8108008FA07F848EA0408CCF833
:10254000208004684FEA420C06FA0CF7BC430F796E
:1025500007F0030707FA0CF7274307604C6814F4E9
:10256000403F70D03C4C276847F480472760246880
:1025700022F0030704F480440094384C07EB040C69
:10258000DCF8084897074FEA177809FA08F7BC43C0
:10259000334FB84202D1002724E054E0314FB84213
:1025A00001D101271EE0304FB84201D1022719E0C6
:1025B0002E4FB84201D1032714E02D4FB84201D16C
:1025C00004270FE02B4FB84201D105270AE02A4F1C
:1025D000B84201D1062705E0284FB84201D10727AC
:1025E00000E0082707FA08F72743CCF80878DAF85C
:1025F00000405746D1F804C09C435FEACC2C00D57C
:102600001C433C60DBF800405F46D1F804C09C43AB
:102610005FEA8C2C00D51C433C60DEF80040774616
:10262000D1F804C09C435FEA8C3C00D51C433C605D
:10263000084F083F3C68D1F804C09C435FEACC3C9B
:1026400000D51C433C60521C102AFFF42FAFBDE89C
:10265000F88F0000083C014044380240003001403F
:10266000000002400004024000080240000C02404A
:10267000001002400014024000180240001C0240FA
:102680000069084000D001207047426921EA020336
:102690000A4043EA0241816170470AB18161704793
:1026A0000904FBE70148806870470000140000201F
:1026B000024881680278114481607047140000204C
:1026C0000B4810B5016841F400710160016841F4E4
:1026D00080610160016841F480710160032000F0B5
:1026E0006FF80F2000F006F800F024F8002010BD6D
:1026F000003C024070B50D4D04464FF47A712878C5
:10270000B1FBF0F00A490968B1FBF0F001F0A8FA5A
:1027100048B9102C07D200222146501E00F030F894
:1027200000206C6070BD012070BD0000140000200E
:10273000200000200A4808B5016841F4804101608A
:10274000006800F4804000900548001F016841F0D7
:1027500080510160006800F08050009008BD0000CA
:1027600044380240002809DB00F01F02012191409B
:102770004009800000F1E020C0F80011704700001F
:10278000F0B40E4B1B680C46C3F30223C3F10705DC
:10279000042D00D90425191D072901D2002300E0CA
:1027A000DB1E012606FA05F1491E214099409E4094
:1027B000761E16403143F0BC07F0FEBE0CED00E083
:1027C000064900F0070208684FF6FF03184040EA88
:1027D0000220034A10430860704700000CED00E03F
:1027E0000000FA0570470068416200207047F0B5AC
:1027F0000368586A39B19C6A4FF4827600EB14443E
:1028000000204D1E0AE040EA024098620FE006EB0D
:102810008007DF59401C04EB1744C0B2A842F6D32E
:1028200044EA02404FF4807202EB810158500020CC
:10283000F0BDD0F8080506F073BA01EBC10200EB59
:102840008202D0F80805D26C06F0DEB901EBC102B5
:1028500000EB8202D0F80805D2F88C2206F029BAE3
:10286000D0F8080506F05EBA0A0601F00F0101EB88
:10287000C10100EB810101D53C3101E001F51F717F
:10288000006807F0B7BC70B504460B0601F00F00F6
:1028900000EBC00104EB81014FF001024FF0000595
:1028A00003D581F83D203C3103E081F87D5201F5EC
:1028B0001F71087094F8BC04012808D084F8BC2467
:1028C000206807F051F984F8BC54002070BD022044
:1028D00070BD70B5044601F00F006268904201D9E6
:1028E000012070BD0B0601F00F0101EBC10104EBEB
:1028F00081014FF001024FF0000503D581F83D2022
:102900003C3103E081F87D5201F51F718D70087034
:1029100094F8BC04012808D084F8BC24206807F08F
:102920001FFB84F8BC54002070BD022070BD01F074
:102930000F0101EBC10100EB8100D0F89C02704750
:102940002DE9F04104460F0601F00F0000EBC00135
:1029500004EB81014FF001064FF0000503D581F82B
:102960003D603C3103E081F87D5201F51F71087034
:10297000CA600B714A7802B10881022B00D14D71F7
:1029800094F8BC04012809D084F8BC64206807F0DE
:1029900043F8284684F8BC54BDE8F0810220FBE7E8
:1029A00070B50C4601F00F0505EBC50100EB810188
:1029B000C1F89432C1F88C220023C1F89C3281F80E
:1029C0007D3281F87C52036901F51F71012B00D122
:1029D0004A612207027C006803D007F019FB00203F
:1029E00070BD07F003FAFAE770B504460D4601F032
:1029F0000F006168884201D9012070BD29064FF09F
:102A000000064FF0010207D500EBC00104EB810185
:102A100081F83D203C3107E005EBC50104EB810165
:102A200081F87D6201F51F718A70087094F8BC040A
:102A3000012807D084F8BC24206807F0BDFA2807D5
:102A400002D007E0022070BD217C04F2C44220685D
:102A500007F05AFA84F8BC64002070BD70B50C46CB
:102A600001F00F0505EBC50100EB81014B65CA6460
:102A70000023CB65012381F83D3001F83C5F0369F9
:102A8000012B00D14A612207027C006803D007F0C5
:102A9000BFFA002070BD07F0A9F9FAE72DE9FC5F45
:102AA00005680446284607F046FC00287DD12068CA
:102AB00007F06DFC002878D0D5F80808C0F30D2089
:102AC000C4F8FC04206807F062FC800704D5206885
:102AD000416901F002014161206807F058FCC1061C
:102AE00004F2C440009034D52068816921F01001BF
:102AF00081612F6A07F00F0000EBC00004EB800635
:102B0000C7F3434006F51F76022802D0062811D0ED
:102B10001AE047F6F070074216D0C7F30A121746BC
:102B20002846316907F037FC306938443061306A33
:102B3000384408E008222846009907F02CFC306A47
:102B4000C7F30A11084430622068816941F010011E
:102B50008161206807F01BFC00034FF0080B4FF069
:102B6000000A4FF001097CD50026206807F0EEFB33
:102B7000074674E0F80770D0F1B2206807F0FFFB59
:102B80008046C00707D005EB4611C1F8089B3146C7
:102B9000204605F08BF85FEA087024D505EB461156
:102BA000C1F808BB2068016C00E025E200EB46108C
:102BB0000191D0F8082BFC4B994205D9110403D59B
:102BC0004FF40041C0F8081B204600F02FFBF649E7
:102BD0000198884207D92069012804D12068012181
:102BE000009A07F091F95FEAC86004D505EB461139
:102BF0001020C1F8080B5FEA88701DD568690006CF
:102C000005D5D5F8040840F48061C5F8041806EB32
:102C1000C60004EB800090F87F1200F51F700129B8
:102C200005D180F803A0F1B2204600F0EBF905EBE6
:102C300046110220C1F8080B5FEA886004D505EB55
:102C400046102021C0F8081B5FEA884005D505EB37
:102C500046104FF40051C0F8081B7F08761C002F67
:102C600088D1206807F093FB40036FD5206807F0F8
:102C700066FB0746002667E0F80763D0F1B22068DC
:102C800007F06BFB8046C00723D006F00F0209FA5D
:102C900002F0D5F834288243C5F8342805EB4610F5
:102CA000C0F80899206901280FD106EBC60004EB93
:102CB0008000D0E912211144C16436B9606D20B999
:102CC00020680121009A07F01FF9F1B22046FFF7B2
:102CD000B4FD5FEA087003D505EB4611C1F808B9E9
:102CE0005FEAC86004D505EB46111020C1F8080959
:102CF0005FEA486004D505EB46104021C0F808198A
:102D00005FEA887017D53146284607F0E7FA06EBE8
:102D1000C60004EB800090F83F103C30012905D13B
:102D200080F803A0F1B2204600F068F905EB4611E7
:102D30000220C1F808095FEA086003D53146204641
:102D400005F01AF87F08761C002F95D1206807F04F
:102D50001EFB002811DAD5F8040820F00101C5F89F
:102D6000041894F8F40401282BD0204600F042FA0D
:102D70002068416901F000414161206807F007FBCC
:102D800000050BD5D5F80808C00702D0204600F092
:102D900099FA2068416901F400614161206807F0F7
:102DA000F6FAC00466D5D5F8040820F00100C5F88D
:102DB00004081021206807F091FA00214FF67F32B5
:102DC0001FE084F8F4A400212046FFF70BFDCFE7B5
:102DD00005EB4110C0F80829D0F8003923F400139E
:102DE000C0F80039C0F8082BD0F8003B23F40013DA
:102DF000C0F8003BD0F8003B43F00063C0F8003B54
:102E0000491C60688842E3D8D5F81C0840F00111DD
:102E1000C5F81C18206B002828460DD0D0F884086F
:102E200040F00B01C5F88418D5F8440840F00B01B8
:102E30002846C5F844180DE0D0F8140842F22B01DA
:102E40000843C5F81408D5F8100840F00B012846CF
:102E5000C5F81018D0F8000820F4FE61C5F8001875
:102E6000217C2068009A07F04FF82068416901F43E
:102E700080514161206807F08AFA800415D52068E6
:102E800006F00AFE206807F049FAE06000F0CCFA8C
:102E90000146227B206807F0DDFA204600F094F915
:102EA0002068416901F400514161206807F06FFA20
:102EB000000707D5204600F0A1F92068416901F01C
:102EC00008014161206807F062FA000616D5A8697A
:102ED00020F08000A86101260DE000BF06EBC600CF
:102EE00004EB800090F87F02012803D1F1B2204664
:102EF000FFF7BAFC761C6068B042EFD8206807F094
:102F000046FAC00221D501264F4616E005EB4610D1
:102F1000D0F8001906EBC60004EB800090F84020C2
:102F2000012A09D1002907DA80F83F70F0B240F099
:102F300080012046FFF798FC761C6068B042E5D817
:102F40002068416901F480114161206807F01FFA8F
:102F5000800234D501204B4629E000BF05EB40112B
:102F6000D1F8001B00EBC00204EB820696F8802229
:102F7000012A1BD1002919DA94F8FC2401F48031CC
:102F800002F00102914211D186F87F32A96941F025
:102F90008002AA616969090608D4D5F8040840F4DA
:102FA0000070C5F8040805E00A30544F401C616801
:102FB0008142D3D82068416901F400114161206841
:102FC00007F0E5F9400007D52046FFF732FC2068FE
:102FD000416901F080414161206807F0D8F940075C
:102FE0000AD520684568680702D52046FFF738FCF7
:102FF0002068416829434160BDE8FC9FD0F808057E
:1030000005F0E4BED0F8080505F0E2BE2DE9F04178
:103010008AB0040005D094F8BD042668002520B1CC
:1030200008E001200AB0BDE8F08184F8BC542046D5
:1030300000F05EF8032084F8BD04F06BC00500D4F6
:103040002561206806F0CCFE04F110012822884694
:103050006846FDF70DFB94E80F0006F02BFD0226F5
:10306000C8BB0021206807F0B5F9002001270EE059
:1030700000EBC00104EB810181F83D7001F83C0FC9
:1030800008810D71CD600D61401CC0B28D61616819
:103090008142EDD8002011E000EBC00104EB81017A
:1030A00081F87D5281F87C0281F88052C1F8885203
:1030B000C1F88C52401CC0B2C1F894526168814280
:1030C000EAD8282241466846FDF7D2FA94E80F0074
:1030D00006F0CCFD10B184F8BD64A2E784F8385046
:1030E00084F8BD74206806F0B3FD00209AE7000064
:1030F0002DE9F04186B0044614216846FDF7D1FA67
:103100002C492068884251D12B4C4FF00008206890
:1031100040F004002060206800F004000590206862
:1031200040F001002060206800F001000590206858
:1031300040F0020020602068022500F002000590A7
:103140000D208DE8210103260A2769461B48CDE999
:103150000367FFF79DF928208DE82101694618488B
:10316000CDE90367FFF794F943F623408DE8210189
:1031700069461448CDE90367FFF78AF9206840F0F3
:1031800000502060206800F000500590206840F05A
:10319000804020602068002200F0804005900121DE
:1031A0004D20FFF7EDFA4D20FFF7DCFA06B0BDE841
:1031B000F081000000000440303802400008024066
:1031C000000002400004024070B50446C0680125BA
:1031D00070B1022801D0FEF779FE2946D4F808051F
:1031E00005F04CFED4F80805BDE8704005F007BEB8
:1031F0000025F2E7D0F8080505F02ABED0F808054A
:1032000005F030BE10B5044690F8BC0401280BD080
:10321000012084F8BC0484F83810206807F008F90D
:10322000002084F8BC0410BD022010BD2DE9F0413F
:1032300000F2C441D0F80845054604F2AA200F4622
:10324000064606F0FDF994F8AA120020C90603D13B
:103250003146204605F006FF94F8AA1201F01F013E
:10326000012903D13146204605F040FF002806D150
:103270003946D5F80805BDE8F04105F00BBEBDE8BC
:10328000F08110B50446006894F8BC14012906D0FA
:10329000012184F8BC14A16A012902D008E00220AF
:1032A00010BDA169012903D0816B41F48031816394
:1032B000206806F0EEFF206806F0BCFC002084F8D1
:1032C000BC0410BD10B50446D0F8080505F024FE76
:1032D0002068D0F8001E41F00101C0F8001E206AED
:1032E000002804D00248016841F00601016010BDC9
:1032F00010ED00E02DE9F0470E46050065D0DFF83F
:103300001481D8F80000F7B200F00700B04207D2ED
:1033100088F80070D8F8000000F00700B04254D1DF
:1033200028683D4C810712D5400703D5206840F43A
:10333000E05020602878000703D5206840F4604002
:1033400020602068A96820F0F000084320602878F9
:10335000C0072DD0304968680839012812D00228EA
:1033600013D0032811D00968890700292DDA2168B4
:1033700021F0030101432160FFF794F9814641F2F6
:10338000883A0EE009688903EFE709688901ECE7EC
:10339000FFF788F9A0EB0901514502D90320BDE8E8
:1033A000F0872068696800F00C00B0EB810FEFD166
:1033B000D8F80010404601F00701B14207D9077064
:1033C000006800F00700B04201D00120E7E728784C
:1033D000400705D52068E96820F4E05008432060E4
:1033E0002878000706D52068296920F4604040EA63
:1033F000C100206000F03EF82168084AC1F30311C3
:10340000515CC8400649086006480068FFF772F939
:103410000020C4E7003C02400838024043CB0108CA
:1034200020000020180000200148006870470000BC
:10343000200000200448054900680968044AC1F3D7
:103440008221515CC84070472000002008380240AB
:1034500053CB01080448054900680968044AC1F3D0
:103460004231515CC84070472000002008380240BB
:1034700053CB0108154810B5006810F00C02144831
:1034800013D04110042A0FD0082A0ED10F4C241F4C
:103490002268236802F03F025B0207D52068C0F370
:1034A0008810A0FB010106E0084610BD2168C1F3A9
:1034B0008811A1FB00010023FCF782FE2168C1F303
:1034C0000141491C4900B0FBF1F010BD0838024031
:1034D0000024F4002DE9F84F04006ED02078DFF8C6
:1034E0004C93C007A9F104054AD009F10400016812
:1034F000C1F38101012908D00068C0F381000228CE
:103500000AD1D9F80000400206D52868800337D5D3
:1035100060680028E1D033E06068B0F5803F10D0EB
:10352000B0F5A02F286810D020F4803028602868DB
:1035300020F4802028606068A8B1FFF7B3F8064641
:103540000DE0286840F48030F4E740F480202860E3
:10355000F7E700BFFFF7A6F8801B642873D8286838
:103560008003F7D50CE0FFF79DF8064605E000BFA5
:10357000FFF798F8801B6428F0D828688003F7D4F8
:103580002078DFF8AC8280074FF0000A3ED5A748CC
:10359000001D016811F00C0F08D00068C0F3810015
:1035A00002280BD1D9F80000400207D42868800710
:1035B00016D5E068012800D112E033E1E068B8B127
:1035C0000120C8F80000FFF76DF8064605E000BFCF
:1035D000FFF768F8801B0228C0D828688007F7D555
:1035E0002868216920F0F80040EAC10028600DE059
:1035F000C8F800A0FFF756F8064604E0FFF752F8B7
:10360000801B02281FD828688007F7D4207800077D
:1036100022D5864F87486169703771B101210160F9
:10362000FFF740F8064604E0FFF73CF8801B02284D
:1036300009D838688007F7D50EE0C0F800A0FFF77A
:1036400031F8064605E082E0FFF72CF8801B0228DF
:103650007DD838688007F7D42078400768D5DFF830
:10366000CCB100270BF13C0BDBF80000C0000BD401
:10367000DBF8001041F08051CBF80010DBF80000BF
:10368000012700F0805000906B4E3068C00510D4C8
:10369000306840F480703060FFF704F8009005E077
:1036A000FFF700F80099401A022850D83068C0058A
:1036B000F6D55E4EA0686C3601280FD0052830681C
:1036C00010D020F001003060306820F0040030603D
:1036D000A068B8B1FEF7E6FF00900FE0306840F058
:1036E0000100F4E740F004003060F7E7FEF7DAFF8E
:1036F0000099411A41F28830814266D830688007CB
:10370000F4D50EE0FEF7CEFF009007E0FEF7CAFF0B
:103710000099411A41F28830814256D830688007BA
:10372000F4D42FB1DBF8001021F08051CBF8001059
:10373000A069C8B33D49091D0968C1F38101022987
:103740004AD00228504607D0C8F8600000E03CE0AC
:10375000FEF7A8FF04463BE04746C8F86000FEF7C6
:10376000A1FF064605E000BFFEF79CFF801B022874
:103770002BD828688001F7D4D4E907010843A16A4F
:103780002E4A490802EB0141626A41EA821108436C
:1037900094F82C1040EA0161C9F800100120386645
:1037A000FEF780FF044606E03EE000BFFEF77AFF2A
:1037B000001B022809D828688001F7D534E000BF33
:1037C000FEF770FF001B022802D90320BDE8F88F26
:1037D00028688001F4D427E00128F7D0D9F8000048
:1037E000E26900F4800191421CD1226A00F03F019D
:1037F000914217D147F6C071626A0140B1EB821F56
:1038000010D1A26A4FF0FF3300F4403103EB5202B3
:10381000B1EB024F06D194F82C1000F07060B0EBC1
:10382000016F01D00120D1E70020CFE7043802402A
:1038300000004742800E4742007000400000FFFF3A
:1038400070B5040003D06079002510B105E00120B7
:1038500070BD2571204600F00DF8022060712068CF
:10386000016841F00401016001206071A560002041
:1038700070BD000008B500680649884208D10648B6
:10388000016841F040010160006800F040000090D4
:1038900008BD00000008065034380240704770B57B
:1038A000040009D0606A002540B125616561A56208
:1038B00094F8510040B10CE0012070BD6068B0F593
:1038C000827FF4D0E561F2E784F85050204600F0A2
:1038D00045F8022084F851002068016821F0400179
:1038E0000160A088218900F4827001F4044108433A
:1038F000A18901F400610843217C01F00201084321
:10390000217D01F001010843218B01F4007108437E
:10391000217F01F03801084394F8201001F0800164
:103920000843218D01F40051084321680860A06913
:10393000042101EA104094F8241001F0100108431A
:10394000216848602068C16921F40061C161656532
:10395000012084F85100002070BD00002DE9F041E5
:1039600086B0064614216846FCF79BFE2549306860
:10397000884244D124480025016841F48051016007
:103980000068214900F4805014390590086840F01F
:1039900001000860086800F001000590086840F028
:1039A000020008600868022400F0020005908020F0
:1039B00003274FF005088DE8B10169461348FEF76B
:1039C00067FD08208DE8B10169461148FEF760FDEA
:1039D000114C10482060780660604020C4E9020560
:1039E0000001C4E90405A561E56125622046656220
:1039F000FEF79AFC08B1FEF769FAB464A66306B054
:103A0000BDE8F0810030014044380240000002402F
:103A10000004024058640240181600202DE9F84FB7
:103A2000044690F8500000271D4616468946012896
:103A30000DD04FF0010B84F850B0FEF733FE8046F6
:103A400094F85100BA46012804D0022793E00220DE
:103A5000BDE8F88FB9F1000F73D0002E71D00320AC
:103A600084F85100C4F854A0C4F83090A686E686C5
:103A7000C4F838A0A4F83CA0A4F83EA0C4F844A020
:103A8000C4F840A0A068B0F5004F09D120680168D3
:103A900021F0400101602068016841F4804101602B
:103AA00020680168490603D4016841F040010160C3
:103AB000E068B0F5006F606803D030B3012E24D009
:103AC00041E008B1012E1CD1206B21680088C8603C
:103AD00006E020688168890709D5216B0988C160E3
:103AE000206B801C2063E08E401EE08609E0FEF71C
:103AF000D9FDA0EB0800A84202D3681C01D031E038
:103B00007DB3E08E0028E4D120E0206B21680078AE
:103B1000087306E020688168890709D5216B097858
:103B20000173206B401C2063E08E401EE0860AE09B
:103B3000FEF7B8FDA0EB0800A84203D3681C02D032
:103B400010E017E06DB1E08E0028E3D1424629462F
:103B5000204604F033FB08B120206065A06818B14E
:103B600006E0FFE7032706E02068C1688068009050
:103B7000606D00B1012784F851B084F850A0384638
:103B800066E700002DE9F041044690F85000002659
:103B9000012809D0012784F8507094F851000025BD
:103BA000012804D002264EE00220BDE8F08189B150
:103BB00082B1032084F8510065652163A286E28604
:103BC000A56365642564A587E587A068B0F5004F07
:103BD00002D00BE0012636E02068016821F04001A8
:103BE00001602068016841F480410160A16C1848BF
:103BF0000864A16C1748C863A16C1748C864A06C1E
:103C00000565E38E2268216B0C32A06CFEF7F6FB93
:103C100038B1606D40F010006065012684F8517085
:103C200011E020680168490603D4016841F04001B1
:103C300001602068416841F02001416020684168CE
:103C400041F00201416084F850503046ADE7000079
:103C50004D810108578101082B8101087047704789
:103C600010B5401EB0F1807F01D3012010BD4FF090
:103C7000E02460610F21601706F09EFC0020A06127
:103C800007202061002010BD7047704770B590F884
:103C90003C20012A32D0012480F83C40022280F8E6
:103CA0003D2003685A689D6822F070060A68324316
:103CB0005A60134B02689A4214D0B2F1804F11D06F
:103CC000104B9A420ED0104B9A420BD00F4B9A4297
:103CD00008D00F4B9A4205D00E4B9A4202D00E4BA1
:103CE0009A4204D1496825F080031943916080F815
:103CF0003D40002180F83C10084670BD022070BD98
:103D0000000001400004004000080040000C00409A
:103D100000040140004001400018004010B50400BC
:103D200003D094F83D0010B107E0012010BD002041
:103D300084F83C00204600F01FF8022084F83D0083
:103D4000211D206804F042FB012084F8460084F81D
:103D50003E0084F83F0084F8400084F8410084F875
:103D6000420084F8430084F8440084F8450084F855
:103D70003D00002010BD000008B5114A016811483F
:103D8000914211D1016841F00201016000680022F6
:103D900000F00200009011461D20FEF7F1FCBDE886
:103DA00008401D20FEF7DEBC074A914207D101689A
:103DB00041F080010160006800F08000009008BDC3
:103DC0000004004040380240001C004090F83D10C4
:103DD000012901D001207047022180F83D100168BF
:103DE000CA6842F00102CA6000681149884214D0D2
:103DF000B0F1804F11D00F4988420ED00E49884251
:103E00000BD00E49884208D00D49884205D00D4993
:103E1000884202D00C49884204D1816801F0070130
:103E2000062903D0016841F00101016000207047BC
:103E3000000001400004004000080040000C004069
:103E400000040140004001400018004070B50446E5
:103E500090F83C000025012817D0012684F83C602A
:103E6000022084F83D002068826822F0770222F464
:103E70007F4282600868502838D00DDC20284FD05F
:103E800005DC90B3102811D14AE0022070BD302823
:103E900046D040280AD13BE060282FD070280DD0B2
:103EA000B0F5805F03D0B0F5005F12D0012584F833
:103EB0003D60002084F83C00284670BDCB68D1E905
:103EC0000121206804F0F3FA2068816841F077014D
:103ED00009E0CB68D1E90121206804F0E8FA206804
:103EE000816841F480418160E1E719E0CA6849686E
:103EF000206804F0B1FB5021206806E0CA684968D8
:103F0000206804F0BAFB6021206804F0DAFACEE7FA
:103F1000CA684968206804F09FFB40212068F4E7E4
:103F2000226801461046F0E7704770B50446006805
:103F300001694FF00005C943890715D4C168C94319
:103F4000890711D4E91E016101202077206880696A
:103F50008007204602D0FFF7E7FF04E000F0C2F838
:103F6000204600F054F9257720680169C9434907C4
:103F700017D4C168C943490713D46FF00401016124
:103F8000022020772068806910F4407F204602D00C
:103F9000FFF7CAFF04E000F0A5F8204600F037F96B
:103FA000257720680169C943090716D4C168C94348
:103FB000090712D46FF008010161042020772068FE
:103FC000C0698007204602D0FFF7AEFF04E000F092
:103FD00089F8204600F01BF9257720680169C9435C
:103FE000C90617D4C168C943C90613D46FF01001BC
:103FF0000161082020772068C06910F4407F2046C6
:1040000002D0FFF791FF04E000F06CF8204600F0CA
:10401000FEF8257720680169C943C90708D1C1683E
:10402000C943C90704D1891E0161204600F092F9F5
:1040300020680169C943090609D4C168C943090652
:1040400005D46FF0800101612046FFF71DFE206856
:104050000169C943490609D4C168C943490605D461
:104060006FF040010161204600F086F92068016987
:10407000C94389060BD4C168C943890607D46FF0C8
:10408000200101612046BDE87040FFF7FEBD70BD14
:1040900010B586B0044614216846FCF702FB0E49B1
:1040A0002068884215D10D480021026842F00102C3
:1040B0000260006800F0010005904020009002209E
:1040C000CDE901010920CDE9031069460448FEF756
:1040D000DFF906B010BD0000001C0040303802407F
:1040E00000000240704770B5044690F83C0000267E
:1040F0000D4601280FD0012084F83C006AB1042A43
:104100001DD0082A2FD00C2A3FD00126002084F889
:104110003C00304670BD022070BD206804F0DAF922
:104120002068816941F0080181612068816921F07E
:1041300004018161206881692A69114311E02068C6
:1041400004F0F8F92068816941F400618161206818
:10415000816921F480618161206881692A6941EA6D
:1041600002218161D2E7206804F01AFA2068C1694F
:1041700041F00801C1612068C16921F00401C161F9
:104180002068C1692A69114311E0206804F03CFAF3
:104190002068C16941F40061C1612068C16921F4EE
:1041A0008061C1612068C1692A6941EA0221C16157
:1041B000ACE710B5040003D094F83D0010B107E05F
:1041C000012010BD002084F83C00204600F01EF8BD
:1041D000022084F83D00211D206804F0F7F801203A
:1041E00084F8460084F83E0084F83F0084F84000DC
:1041F00084F8410084F8420084F8430084F84400C5
:1042000084F8450084F83D00002010BD70477047D9
:1042100010B50446022249B104290ED0082913D052
:1042200094F84100012816D0012010BD94F83E00FA
:104230000128F9D184F83E200FE094F83F000128CE
:10424000F2D184F83F2008E094F840000128EBD137
:1042500084F8402001E084F841200122206804F025
:1042600019F916492068164A884201D0904203D1B4
:10427000436C43F4004343642068884213D0B0F198
:10428000804F10D00F4988420DD00F4988420AD084
:104290000E49884207D0904205D00D49884202D08D
:1042A0000C49884204D1816801F00701062903D036
:1042B000016841F001010160002010BD00000140D3
:1042C000000401400004004000080040000C0040D1
:1042D000004001400018004030B504460D4600681B
:1042E000002204F0D7F8194B41F2111120688A100E
:1042F000984202D0164B984209D1036A0B4206D16C
:10430000036A134203D1436C23F4004343642068DF
:10431000036A0B4206D1016A114203D1016821F000
:104320000101016001203DB1042D08D0082D09D004
:1043300084F84100002030BD84F83E00FAE784F89C
:104340003F00F7E784F84000F4E700000000014078
:104350000004014010B5074900680968884207D188
:10436000FCF710FEFCF744FEBDE81040FDF7A2BCD0
:1043700010BD000078160020704770B5040004D00E
:1043800094F83D00002510B106E0012070BD84F8CE
:104390003C50204600F022F8242084F83D0020689C
:1043A000C16821F40051C160204604F0CFF92068B3
:1043B000016921F4904101612068416921F02A01DD
:1043C00041612068C16841F40051C160256420202A
:1043D00084F83D0084F83E00002070BD10B586B022
:1043E000044614216846FCF75CF9134920688842AA
:1043F00020D112480021026842F0100202600068D9
:1044000000F0100005900D481438026842F00202D6
:104410000260006800F002000590C02000900220B9
:10442000CDE9010103200390072004906946044868
:10443000FEF72EF806B010BD0010014044380240CF
:10444000000402402DE9F843044690F83D001F4661
:1044500016460D4620284CD1C5B1BEB194F83C009B
:10446000012846D0012084F83C004FF00008C4F831
:104470004080212084F83D00FEF714F9A68481468F
:10448000E684A068B0F5805F03D004E00120BDE8B9
:10449000F883206928B12E465FF0000584F83C803F
:1044A0000EE00026FAE78021204604F0D5F9A0B9F5
:1044B000AEB116F8010B21684860E08C401EE08424
:1044C000E08C4B464FF0000200970028EBD14FF0F4
:1044D0004001204604F0C0F930B10320D7E735F899
:1044E000020BC0F30800E6E7202084F83D0000201E
:1044F000CDE70220CBE7FEE70021C176417601211E
:1045000081767047F0B500230A24302537261F46F0
:1045100011E000BFB4EB107F02D905EB107C01E085
:1045200006EB107C01F813C001EB430C00015B1C8F
:104530008CF80170DBB29342ECD3F0BD074910B5A3
:10454000054808600846FDF7F9FD002803D0BDE8DE
:104550001040FDF7BBBC10BD003002400C00002035
:10456000094808B5016841F4800101600068002233
:1045700000F48000009011463B20FEF701F9BDE8F1
:1045800008403B20FEF7EEB8303802402DE9F04FEE
:1045900087B014216846FCF784F84B480025016871
:1045A00041F004010160016801F004010591016816
:1045B00041F080010160016801F08001059101680E
:1045C00041F001010160016801F0010105910168FC
:1045D00041F002010160016801F0020105910168EA
:1045E00041F0080101600068DFF8E0B000F0080069
:1045F0004FF400540590002221465846FEF74DF82E
:104600004FF48876012231463148FEF746F84FF4E0
:104610004047002239462F48FEF73FF8DFF8B8A0A0
:104620004FF48078002241465046FEF736F84FF4AA
:104630000079012249465846FEF72FF800940124DC
:10464000694658460194CDE90245FDF721FFCDE9C1
:1046500000640326CDE9024669461D48FDF718FFB0
:10466000CDE9007469461B48CDE90245FDF710FF0E
:10467000CDE9008469465046CDE90245FDF708FFC3
:10468000CDE90094CDE9024669465846FDF700FFA2
:10469000E003CDE90005694602940D48FDF7F8FEF8
:1046A000B002CDE90005694602945846FDF7F0FED8
:1046B0003002CDE90005694602940648FDF7E8FEA0
:1046C00007B0BDE8F08F000030380240000802401B
:1046D0000000024000040240000C0240074910B5EF
:1046E000054808600846FFF7ABF8002803D0BDE88E
:1046F0001040FDF7EBBB10BD00080650B0150020C0
:104700000F4810B50D4901604FF4827141600021DE
:104710008160C1604FF400720161C0E90512C1619E
:104720000162416281620A21C162FFF7B8F8002884
:1047300003D0BDE81040FDF7C9BB10BD00300140FB
:10474000C015002010B588B01C216846FBF7A9FFF2
:1047500015481449002401605321C0E9011440F2B6
:10476000E731C0E903148461FFF7D8FA08B1FDF717
:10477000ADFB0D48FFF71DFD08B1FDF7A7FB60205D
:10478000CDE9000402940022694607480494FFF72B
:10479000AAFC08B1FDF79AFB0348FFF779FC08B0C3
:1047A00010BD0000001C0040C016002010B586B0EF
:1047B000002417480094019402940394049413492C
:1047C000059401605321C0E9011442F20F71C0E960
:1047D00003148461FFF7A2FA08B1FDF777FB4FF4E9
:1047E0008050009069460A48FFF730FB08B1FDF79A
:1047F0006DFB049404A906480594FFF747FA0028C6
:1048000001D0FDF763FB06B010BD000000040040BE
:10481000781600200C4810B50A4901600B49416028
:10482000002181600C22C160C0E904128161C16174
:10483000FFF7A3FD002803D0BDE81040FDF746BBFD
:1048400010BD0000001001400817002040420F007A
:10485000FEE700001CB500216E48FCF767FC6D48C0
:1048600000214830FCF762FC6A486B4A022118308C
:10487000FCF75CFC674800213030FCF757FC6548CA
:10488000664A02216030FCF751FC624861491830E9
:104890000123007C009062A278315E48FCF7F4FBB3
:1048A0005C485C4930300123007C00905EA2B0314E
:1048B0005848FCF7E9FB5748564948300123007C2B
:1048C00000905CA2E8315348FCF7DEFB514801231D
:1048D00060305AA2007C00905A494E48FCF7D4FB45
:1048E00058490023383958A2A1F5A470FCF7CCFB35
:1048F00054495848A8390090022357A2A1F1D80082
:10490000FCF7C2FB57495848CDE900014D49042343
:10491000703956A2A1F58870FCF7B6FB59490023FF
:1049200055A2A1F56470FCF7AFFB4F484549163816
:1049300038310090052354A2A1F5E870FCF7A4FBE0
:1049400049484049153870310090052350A2A1F51F
:104950000270FCF799FB44483A491438A83100909A
:1049600005234DA2A1F51070FCF78EFB3E4835499A
:104970001338E031009005234AA2A1F51E70FCF720
:1049800083FB39483F491238E0390090052347A29C
:10499000A1F52C70FCF778FB33483A491138A83957
:1049A0000090052343A2A1F53A70FCF76DFB2E4859
:1049B0003449103870390090052341A2A1F54870A0
:1049C000FCF762FB28482F490F383839009005233F
:1049D0003DA2A1F55670FCF757FB3D480A2100891E
:1049E000401CB0FBF1F000EE100A1F48B8EE400A80
:1049F000183880ED060A10EE100AFCF750F8CDE9E1
:104A00000001C822334934A005F0AEFDBDE81C40CA
:104A100000F0A3BA0C1F0020E97F01081D7E0108E9
:104A2000555342466F726D00416E696D6174696FD6
:104A30006E00000053657474696E67003C41626FDC
:104A400075743E00D42000205B53657474696E67F2
:104A50005D00000074020020526576657273656423
:104A600000000000D11E01086C020020427269673C
:104A700068746E65737300005B416E696D61746983
:104A80006F6E5D00CC2200204D696E640000000056
:104A9000436972636C650000536E6F77666C616B7F
:104AA000650000004D6574656F000000506C616E1C
:104AB00065740000547269616E676C6500000000E7
:104AC000537461727761720047436972636C650069
:104AD000780D00208DCC010825735B25645D3A209C
:104AE00073657474696E675F6272696768746E6516
:104AF00073733A20256620200D0A00002DE9F0414D
:104B000000251F4C36E0E8B2FDF7BEFA032830D18D
:104B1000FBF788FBE42190FBF1F201FB1200194F37
:104B200005EB8506801D47F8260000BFFBF77AFBE2
:104B30004FF48C7190FBF1F201FB120007EB86063B
:104B4000706000BFFBF76EFB0A2190FBF1F201FBE6
:104B50001200801C00EE100AB8EEC00A86ED020AB0
:104B600000BF07F06DFFB0816078082801D2401CBB
:104B700060706D1C6078A842C5DCBDE8F081000063
:104B800088020020D82A01202DE9F0470024194E80
:104B9000E4274FF48C784FF00A0900BFFBF742FB83
:104BA00090FBF7F107FB110004EB8405801D46F82C
:104BB000250000BFFBF736FB90FBF8F208FB120064
:104BC00006EB8505686000BFFBF72CFB90FBF9F254
:104BD00009FB1200801C00EE100AB8EEC00A85ED39
:104BE000020A00BF07F02CFF641CA881082CD5DB4B
:104BF000BDE8F087D82A01202DE9F04300252DEDEE
:104C00000C8B81B0F6EE00BA9FEDC0AB4FF00F08F1
:104C10009FEDC0BA9FEDC09BDFF80493C14E70E1D9
:104C200009EB851494F8280001287BD194ED01DA72
:104C3000D4ED070A3BEE4D0A60EEAB0AB4EEE00A93
:104C4000F1EE10FA70D294ED0C0B53EC1A2B51ECE0
:104C5000100BFBF746FD41EC180B84ED0C8B606AE2
:104C6000FBF71DFF41EC1C0B53EC182B51EC180B00
:104C7000FBF7DEFD53EC1C2BFBF7DAFDFBF73AFFED
:104C800000EE100A012784ED030A3DEE400AB0EE63
:104C9000498AF0EE698A84ED010A3AE09FEDA20BA1
:104CA00051EC180B53EC102BFBF7C2FD41EC1C0B25
:104CB0006068FBF7F4FE53EC1C2BFBF712FDFBF7CF
:104CC000B6FE00EE107ACDF80080D4ED050AB8EEFD
:104CD000C00A01B248F2304330EEC00ABCEEC00A4E
:104CE00010EE100A94ED000A82B2BDEEC00A10EE7A
:104CF000100A00B201F060FEB0EE4A0AF0EE6A0A55
:104D000053EC102B51EC180B7F1CFBF7EAFC41EC29
:104D1000180BE068FBF7C3FE53EC182BFBF7D2FE31
:104D20006DD2BBE76FE0FFE772DD94ED0C0B53EC47
:104D30001A2B51EC100BFBF775FD41EC180B84EDB1
:104D40000C8B606AFBF7ABFE41EC1C0B53EC182B91
:104D500051EC180BFBF76CFD53EC1C2BFBF768FDBB
:104D6000FBF7C8FE00EE100A012784ED030A3DEEB2
:104D7000400AB0EE498AF0EE698A84ED010AB7EE86
:104D800000CA2FE06068FBF78AFE53EC182BFBF794
:104D9000A8FCFBF74CFE00EE107ACDF80080D4EDB5
:104DA000050AB8EEC00A01B2638F30EEC00ABCEE4D
:104DB000C00A10EE100A94ED000A82B2BDEEC00ADD
:104DC00010EE100A00B201F0F7FDB0EE4A0AF0EE64
:104DD0006A0A53EC102B51EC180B7F1CFBF781FC7B
:104DE00041EC180B94ED030A30EE4C0A10EE100A59
:104DF000FBF755FE53EC182BFBF764FEC2D394F877
:104E00002800012804D010F0FF0F12D078E0FFE74F
:104E100094ED010AD4ED070A3BEE400AB4EEE00A35
:104E2000F1EE10FA6CDB84ED0C9B002084F8280076
:104E300066E0D4ED020A94ED050A3D4970EE800A61
:104E400010EE900A884208DCD4ED030A394930EEAE
:104E5000800A10EE100A88420CDD284603F008F99B
:104E60007078062801D2401C707001B0BDEC0C8B2C
:104E7000BDE8F08394ED0C0B9FED2F1B51EC100B54
:104E800053EC112BFBF72DFC9FED2DCBC4E90C014E
:104E9000B0EE4C0AF0EE6C0A05F09EFBB0EE401A44
:104EA000F0EE601A94ED0C0B51EC110B53EC102B3F
:104EB000FBF7BEFC41EC180B2068FBF7F0FD53EC50
:104EC000182BFBF70EFCFBF715FEB0EE4C0AF0EECC
:104ED0006C0AA06006F00CFA94ED0C1B51EC100B60
:104EE00053EC112BFBF7A4FC41EC180B6068FBF7AB
:104EF000D6FD53EC182BFBF7F4FBFBF7FBFDE06052
:104F00006D1C7078A8423FF78BAEAEE70000000042
:104F10000000F03F00008C43000000000000000093
:104F2000D032012088020020000000000000144060
:104F300000008C4300007043000000000000284087
:104F4000000000807CD9024010B50024204603F008
:104F50008FF8641C062CF9DB10BD10B500F0DAF8F0
:104F6000FFF712FE00F04AFD00F07EFA00F0F8FBB9
:104F700001F042F900F0F8FDBDE81040FFF7E4BF92
:104F80002DE9F04700272DED028B82B0DFF86C9100
:104F9000DFF86C81B6EE008A5A4D5B4C44E0F8B203
:104FA00001F0F2F903283ED107F04AFD07EB470173
:104FB00005EBC106B082FBF735F94FF01E0A90FBF6
:104FC000FAF20AFB12000F3800EE100AB8EEC00A1F
:104FD000DFED4E8A20EE280A86ED020AFBF722F961
:104FE00090FBFAF20AFB12000F3800EE100AB8EE3E
:104FF000C00A20EE280A86ED030AB068484503DAA5
:10500000404501D286ED028A10EE100A484505DAC5
:1050100010EE100A404501D286ED038A20780E2852
:1050200001D2401C20707F1C2078B842B7DC0026DB
:105030003DE0002737E000BF06EB460005EBC0016E
:1050400007EB470005EBC000D1ED001AD0ED002AB8
:1050500091ED012AD0ED010A31EEE20A2C4932EE3F
:10506000601A20EE000A01EE010A10EE100A8842D2
:1050700018DABDEEC20A48F23040009010EE100A75
:10508000BDEEE10A03B210EE100ABDEEE00A02B274
:1050900010EE100ABDEEE20A01B210EE100A00B2E4
:1050A00001F0FFFE7F1C2078B842C5DC761CC0B240
:1050B000B042BEDC00260F2718E000BF06EB46001A
:1050C00005EBC000009790ED010A838A0222BDEE35
:1050D000C00A10EE101A90ED000A09B2BDEEC00A27
:1050E00010EE100A00B201F067FC761C2078B04286
:1050F000E4DC02B0BDEC028BBDE8F087CDCC4C3EC9
:10510000CDCC4CBE8829012088020020CDCCCC3DDE
:10511000000061442DE9F05F00252DED028B4FF07A
:10512000EC0A9FED328A324FDFF8C880DFF8C89072
:105130004FF48C7B1E26F6EE008A00BF07F080FC41
:1051400005EB450209EBC204A08200BFFBF76AF839
:1051500090FBFAF20AFB1200001D00EE100AB8EEF6
:10516000C00A84ED000A00BFFBF75CF890FBFBF27D
:105170000BFB120000EE100AB8EEC00A84ED010A23
:10518000FBF750F890FBF6F106FB11000F3800EE2C
:10519000100AB8EEC00A20EE080A84ED020AFBF7F6
:1051A00041F890FBF6F106FB11000F3800EE100AF3
:1051B000B8EEC00A20EE080A84ED030AA068B842DF
:1051C00003DA404501D2C4ED028A10EE100AB8425B
:1051D00005DA10EE100A404501D2C4ED038A6D1CB9
:1051E0000E2DABDBBDEC028BBDE8F09FCDCCCC3DF2
:1051F000CDCC4C3ECDCC4CBE882901202DE9F04FC2
:1052000000252DED028B81B048F2304BB0EE088ABC
:10521000DFF848824FF00F0ADFF84492F0E00027F1
:10522000C5EBC50644E0E8B201F0CAF903283ED157
:10523000FAF7F8FFF02290FBF2F102FB110000EE0A
:10524000100A48F82600B8EEC00A84ED030A9FED64
:10525000850A84ED040AFAF7E5FF052290FBF2F1D6
:1052600002FB1100401C00EE100AB8EEC00A84EDEB
:10527000020A00BFFAF7D6FFC11700EB917121F0C7
:105280000301401AA06100BFFAF7CCFF90FBFAF1CE
:105290000AFB1100606100BF07F0D2FBA08000BFD5
:1052A00099F80310142902D2491C89F803107F1CB5
:1052B00000EE107A08EB86044046B8EEC00AD4ED42
:1052C000020AF4EEC00AF1EE10FAACDC00EB860143
:1052D0004969012916DD491E6161CDF800B094EDE0
:1052E000040A38F82600BDEEC00A00B210EE101A0B
:1052F00094ED030A0BB2BDEEC00A10EE101A0AB20A
:10530000002130E094ED040AB0EE601AF0EE400A9D
:1053100041EE480AF5EEC00AF1EE10FA25DDBDEEC9
:10532000E01ACDF800B058F8260011EE101A01EE80
:10533000100A4B48BDEEC00A001FB8EEC11AD0EDEE
:10534000001A10EE102A94ED030A00EEA11A13B20F
:10535000BDEEC00A09B210EE102AFDEEC10A12B26B
:1053600010EE900A00B201F09CFDA06930B1012856
:1053700008D002282FD0032841D14BE0A28894ED19
:10538000040A19E094ED040AF7EE008AA288BDEE43
:10539000C00A10EE100A94ED030A01B230EE280A9A
:1053A000BDEEC00A10EE100A00B201F0EFFD94ED60
:1053B000040AA28830EE280ABDEEC00A10EE100AD8
:1053C00094ED030A01B2BDEEC00A10EE100A00B25D
:1053D00001F0DCFD13E0CDF800A094ED040AA388F1
:1053E0000122BDEEC00A10EE100A94ED030A01B2CC
:1053F000BDEEC00A10EE100A00B201F0DDFA6D1C1D
:1054000099F80300A8423FF70AAF01B0BDEC028B48
:10541000BDE8F08FCDF800A094ED040AA388012226
:10542000BDEEC00A10EE100A94ED030A01B2BDEE03
:10543000C00A10EE100A00B201F02AF994ED040A35
:105440000022BDEEC00A10EE100A94ED030A01B26C
:10545000BDEEC00A10EE100A00B2B9E7B82C012068
:1054600088020020000000002DE9F047284F2A4E56
:1054700000252DED028B4FF0F0089FED268A4FF0AE
:1054800005094FF00F0A00BFFAF7CCFE90FBF8F2C7
:1054900008FB120100EE101AC5EBC50007EB8004F3
:1054A000B8EEC00A47F8201084ED030A84ED048AA0
:1054B000FAF7B8FE90FBF9F209FB1200401C00EE6F
:1054C000100AB8EEC00A84ED020A00BFFAF7AAFE7D
:1054D000C11700EB917121F00301401AA06100BFD8
:1054E000FAF7A0FE90FBFAF20AFB1200606100BF1F
:1054F00007F0A6FAA08000BFF078142801D2401C63
:10550000F0706D1C142DBFDBBDEC028BBDE8F08785
:10551000B82C01200000000088020020F0B5002611
:105520002DED048B81B0844C844D93E0F0B202F0F9
:105530006BFD032841D1FAF775FEC11700EB91719D
:1055400021F00301401AC6EBC607401C44F82700AF
:1055500000BF07F075FA04EB8707B88000BFFAF7C1
:1055600061FE142190FBF1F201FB120005210A30CB
:1055700090FBF1F000EE100AB8EEC00A87ED020AC7
:1055800000BFFAF74FFE3C2190FBF1F201FB120045
:10559000001D00EE100AB8EEC00A87ED030A00BF36
:1055A0009FED670A87ED040A87ED050A87ED060A75
:1055B0002879052801D2401C2871C6EBC60004EBEF
:1055C000800797ED040ADFED5F8A60EE280A9FED01
:1055D0005E8A80EE880A10EE100AFBF760FA41EC52
:1055E000100B04F0F9FFB0EE409AF0EE609AF86804
:1055F000FBF755FA53EC192BFBF71AF99FED531BE8
:1056000053EC112BFBF76DF8FBF774FA786197ED0B
:10561000040A60EE280A80EE880A10EE100AFBF7F2
:105620003EFA41EC100B05F063FEB0EE408AF0EE5E
:10563000608AF868FBF733FA53EC182BFBF7F8F89D
:105640009FED441B53EC112BFBF74BF8FBF752FA81
:10565000761CB8612879B0423FF768AF002644E075
:1056600000273EE0C6EBC601C7EBC70004EB810391
:1056700004EB8002D3ED052A92ED052A93ED061A7C
:10568000D2ED061A32EEC20A344B60EE000A31EE59
:10569000610A40EE000A10EE902A9A4220DA54F88D
:1056A000211001291CD054F82000012818D0BDEE8B
:1056B000C10A48F23040009010EE100ABDEEE20A36
:1056C00003B210EE100ABDEEE10A02B210EE100AAB
:1056D000BDEEC20A01B210EE100A00B201F0E1FB09
:1056E0007F1C2879B842BDDC761CC0B2B042B7DC62
:1056F00000261AE00F20C6EBC601009004EB8100E3
:1057000034F8211090ED060A8AB28388BDEEC00AF3
:1057100010EE101A90ED050A09B2BDEEC00A10EEA7
:10572000100A00B201F048F9761C2879B042E1DC99
:1057300001B0BDEC048BF0BDE82E012088020020F2
:1057400000000000DA0F4940000034430000000070
:1057500000005E4000000000008061400000C8447E
:105760002DE9F047284F2A4E00252DED028B4FF0F2
:1057700014089FED268A4FF005094FF03C0A00BF40
:10578000FAF750FDC11700EB917121F00301401AA7
:10579000C5EBC504401C47F8240000BF07F050F9D2
:1057A00007EB8404A08000BFFAF73CFD90FBF8F201
:1057B00008FB12000A3090FBF9F000EE100AB8EE78
:1057C000C00A84ED020A00BFFAF72CFD90FBFAF242
:1057D0000AFB1200001D00EE100AB8EEC00A84EDAC
:1057E000030A00BF84ED048A84ED058A84ED068AED
:1057F0003079052801D2401C30716D1C052DBFDBAE
:10580000BDEC028BBDE8F087E82E0120000000000F
:10581000880200202DE9F04700252DED028B82B093
:1058200005274FF00F0ADFF8C891B7EE008ADFF8BE
:10583000C48186E0002609EB05142BE0E8B200F0F5
:10584000EBFD032825D1FAF7EDFCE42190FBF1F202
:1058500001FB1200801D00EE100AB8EEC00A84EDB4
:10586000000A84ED018A9FED640A84ED020A00BFFC
:10587000FAF7D8FC90FBF7F107FB1100E08107F085
:10588000DFF8A08198F80210142902D2491C88F888
:105890000210761CA089B0FBF7F107FB1100401C39
:1058A000B042CBDCE08905284AD2DFE800F00318DB
:1058B0003C546B00CDF800A094ED010AA3890122AD
:1058C000BDEEC00A10EE100A94ED000A01B2BDEE62
:1058D000C00A10EE100A00B201F06EF830E0CDF808
:1058E00000A094ED010AA3890122BDEEC00A10EECA
:1058F000100A94ED000A01B2BDEEC00A10EE100AC3
:1059000000B201F059F894ED010A0022BDEEC00A80
:1059100010EE100A94ED000A01B2BDEEC00A10EEBE
:10592000100A00B20AE094ED010AA289BDEEC00A95
:1059300010EE100A94ED000A01B253E001F026FBCC
:105940006D1C98F80200A8423FF774AF02B0BDEC9E
:10595000028BBDE8F08794ED010AA289BDEEC00A72
:1059600010EE100A94ED000A01B2BDEEC00A10EE6E
:10597000100A00B201F00AFB94ED010AA28930EE90
:10598000080A26E094ED010AA289BDEEC00A10EED5
:10599000100A94ED000A01B2BDEEC00A10EE100A22
:1059A00000B201F0F3FA94ED010AA28930EE080A80
:1059B000BDEEC00A10EE100A94ED000A01B2BDEE71
:1059C000C00A10EE100A00B201F0E0FAA28994EDCC
:1059D000010ABDEEC00A10EE100A94ED000A01B2F1
:1059E00030EE080ABDEEC00A10EE100A00B2A5E7BC
:1059F000782B012088020020A10EEA3D2DE9F04716
:105A00001C4F1E4E00252DED028B4FF0E408DFEDFC
:105A10001A8AB7EE008A4FF0050900BFFAF702FCB8
:105A200090FBF8F208FB1200801D00EE100A07EB55
:105A30000514B8EEC00A84ED000A30EE280A84EDA1
:105A4000018A84ED020A00BFFAF7ECFB90FBF9F241
:105A500009FB1200E08106F0F3FFA081B078142862
:105A600001D2401CB0706D1C142DD7DBBDEC028B35
:105A7000BDE8F087782B012000000042880200205A
:105A8000F8B50026344F354C3DE0F0B200F0F6FC9E
:105A9000032837D1FAF7C6FBF02190FBF1F201FBA6
:105AA000120100EE101A06EBC60007EB8005B8EEF7
:105AB000C00A47F8201085ED020AFAF7B3FB4FF44D
:105AC0008C7190FBF1F201FB120000EE100A68608D
:105AD000DFED230AB8EEC00A85ED030AB7EE000A2F
