:020000040800F2
:10000000303A01209D0100082D400008673A0008A1
:100010004D3D0008130D0008B178000800000000F5
:100020000000000000000000000000003D57000834
:10003000C50D000800000000995500088157000810
:10004000B7010008B7010008B7010008B7010008B0
:10005000B7010008B7010008B7010008B7010008A0
:10006000B7010008B7010008B7010008B701000890
:10007000B7010008B7010008B7010008B701000880
:10008000B7010008B7010008B7010008B701000870
:10009000B7010008B7010008B7010008B701000860
:1000A000B7010008B7010008B7010008B701000850
:1000B000B7010008B7010008B7010008B701000840
:1000C000B7010008B7010008B7010008B701000830
:1000D000B7010008B7010008B7010008B701000820
:1000E000B7010008B7010008B7010008B701000810
:1000F000B7010008B7010008B7010008B701000800
:10010000B7010008B7010008B7010008B7010008EF
:10011000B7010008B7010008B7010008B7010008DF
:10012000B7010008B7010008B7010008150D000865
:10013000B7010008B7010008B7010008B7010008BF
:10014000B7010008B7010008B7010008B7010008AF
:10015000B7010008B7010008B7010008B70100089F
:10016000B7010008B7010008B7010008B70100088F
:10017000B701000811520008B70100080000000094
:10018000B7010008B7010008DFF80CD000F084FDCB
:1001900000480047ED940008303A012006488047A7
:1001A00006480047FEE7FEE7FEE7FEE7FEE7FEE75C
:1001B000FEE7FEE7FEE7FEE71558000889010008A4
:1001C0002DE9F05F0546002092469B46884606468C
:1001D000814640241BE0284641464746224600F01F
:1001E00074FC53465A46C01A914110D31146184622
:1001F000224600F05BFC2D1A67EB01084F462246B1
:100200000120002100F052FC17EB00094E41201E96
:10021000A4F10104DFDC484631462A464346BDE8E6
:10022000F09F0000014610B509683C22B1FBF2F3D3
:1002300002FB1313B1FBF2F11D480360B1FBF2F3B3
:1002400002FB1313B1FBF2F118224360B1FBF2F38E
:1002500002FB1313B1FBF2F183600A1D0723B2FB0B
:10026000F3F403FB142282618A0040F2B55102F6D6
:100270006C32B2FBF1F344334361B2FBF1F301FBA7
:1002800013218908C1613B2903D3027D920700D065
:10029000491C0022074C13460261E25C8A4203D8E3
:1002A000891A5B1C0361F8E7491CC16010BD00009E
:1002B0000022012090A1000870B5054601B9072170
:1002C000541A241DB4F5B67F09DD286800F036F90C
:1002D000A04204DC2868401C2860012070BD002C6E
:1002E00005DA2868401E286000F028F90444072039
:1002F00094FBF0F0401C70BD2DE9F04F89B01D4615
:100300008A468046002401AF4FF0070B0192079008
:1003100057F8241011F8010B47F8241048B125288C
:100320000DD0BAF1010F06D908F8010BAAF1010AA4
:100330005CE0641E5AE0002009B0BDE8F08F11F8BF
:10034000010B47F824100028F3D002264FF03009A3
:100350005A284BD020DC4D2873D014DC442871D0AF
:1003600008DC2528DDD041282AD042282ED0432879
:100370003CD130E0462847D0472857D0482862D0A3
:10038000492833D161E0523808282FD2DFE800F045
:10039000787AA6838A97A6A86138192826D2DFE83A
:1003A00000F00D1318202E253513255C25256064DB
:1003B0002566256D257375258B9BA0006AA000E03E
:1003C00070A0A9690091B4E07DA000E08848296987
:1003D000F8E788A007E06969642091FBF0F013302A
:1003E00082E0E86880E0641C47F82400002C8FDA83
:1003F000002088F800000799A8EB01009CE7E86856
:100400004FF02009009070E07EA0ECE7686900F2F0
:100410006C700090D5E906126846FFF74DFF009911
:10042000642091FBF0F200FB12105DE06869042685
:1004300000F26C700090D5E906126846FFF73CFFA9
:1004400053E010E048E0A8684EE0A8680C2117309F
:1004500090FBF1F201FB120001E0E8690326401C69
:1004600042E02869FBE768683EE069A0BBE7A8684E
:100470000C2801DA67A0B6E767A0B4E767A0B2E787
:1004800069A0B0E728682FE069A0ACE7A869012659
:1004900008BB072028E0D5E90610401AC01D90FBD4
:1004A000FBF021E0686900F26C700090D5E906125B
:1004B0006846FFF701FF17E00126A86914E0A96963
:1004C0005846891D91FBF0F20BFB1211EA69511A93
:1004D000C91D91FBFBF007E056A084E758A082E716
:1004E0000426686900F26C70009000218DF81810E5
:1004F00006A80A2113E0009A92FBF1F301FB1322F4
:10050000303200F8012D009A92FBF1F2009232B9DC
:1005100001E000F8019D321EA6F10106F9DC321E51
:10052000A6F10106E7DC5EE710F8011B0029FBD10C
:1005300000994A1E00920029F6DC54E781070CD18D
:10054000642190FBF1F201FB120151B94FF4C87123
:1005500090FBF1F201FB120018B1002000F26D10C7
:1005600070470120FAE7000053756E004D6F6E0072
:1005700054756500576564005468750046726900DB
:100580005361740053756E646179004D6F6E6461E0
:10059000790054756573646179005765646E65739D
:1005A0006461790054687572736461790046726998
:1005B00064617900536174757264617900000000B0
:1005C0004A616E00466562004D61720041707200C2
:1005D0004D6179004A756E004A756C00417567007F
:1005E000536570004F6374004E6F7600446563007E
:1005F0009CA1000825612025622025652025542026
:100600002559000025592D256D2D25640000000079
:100610000A000000414D0000504D000025493A25D8
:100620004D3A25532025700025483A254D000000FD
:1006300009000000256D2F25642F2579000000009A
:1006400025483A254D3A25530000000040EA0103B1
:100650009B0703D009E008C9121F08C0042AFAD278
:1006600003E011F8013B00F8013B521EF9D270473C
:10067000D2B201E000F8012B491EFBD270470022E4
:10068000F6E710B513460A4604461946FFF7F0FF91
:10069000204610BD421C10F8011B0029FBD1801A16
:1006A000704710B54843044608F0ACFF002805D059
:1006B0000021002C02D0641E0155FAE710BD2DE97F
:1006C000FE4F804681EA0300C00F0C46009021F0E7
:1006D000004123F00045B8EB0200A94105D2404695
:1006E000214690461C460B46024623F0004010432C
:1006F00047D0270DC7F30A00C3F30A510290401AEE
:10070000019040286BDAC3F3130040F4801B00987B
:10071000924620B10023D2EB030A63EB0B0B019846
:100720005946C0F14002504600F0C0F906460D4659
:1007300050465946019A00F0D8F910EB0800614183
:10074000002487EA115284EAE7731A4340D0009AE2
:1007500062B3019A012A4FEA075215DC001B61EBD4
:1007600002014FF0004202EA0752CDE90042001CAC
:1007700041F5801132462B4600F0D8F903B0BDE8B0
:10078000F08F40462146F9E7001B61EB0201001C97
:1007900041F5801300185B412018A2F5001747EBC4
:1007A000030140EAD570B6196D4111E06D084FEABA
:1007B000360645EAC0754FEA0752001B61EB02019D
:1007C000001C41F5801149084FEA300000195141E1
:1007D00032462B4603B0BDE8F04F00F098B90098C0
:1007E000012240000023D0EB020263EBE07300988B
:1007F00021464FEAE074B8EB000061EB0401E9E741
:1008000083F000435BE781F0004158E72DE9FE4F9C
:1008100081EA030404F0004421F0004100944FF009
:10082000000B23F0004350EA01045ED052EA0304B7
:100830005BD0C3F30A54C1F30A552C44A4F2F33439
:100840000194A0FB0254C1F3130141F48011C3F3DE
:10085000130343F4801301FB024400FB034E840A9C
:10086000970A44EA815447EA8357A4FB0768029534
:100870008D0A05FB07854FEA932C04FB0C542705D2
:10088000029D4FEA065847EA1637B5EB08056EEBAE
:10089000070C870E920E47EA811742EA8312A7FBE4
:1008A0000201B6EB0B0164EB00042B0D43EA0C33A1
:1008B0005E1844EB1C50DA465146E7FB0201C5F3D3
:1008C00013044FEA0B3343EA14534FEA0432019CFA
:1008D00043EA0603A4F10C040294009CCDE900B4A1
:1008E00000F024F903B0BDE8F08F00200146F9E7DD
:1008F0002DE9F04D81EA030404F0004B21F000459E
:1009000014464FF0000A23F0004150EA050220D0BF
:1009100054EA01021DD0C5F30A570246C5F313037A
:10092000C1F31300C1F30A5640F4801543F4801359
:10093000A7EB0608101BD64608F2FD3873EB05003E
:1009400002D308F1010801E092185B41B8F1000FF1
:1009500003DA00200146BDE8F08D00204FF480113D
:10096000064684460EE0171B73EB050705D3121BE2
:1009700063EB050306434CEA010C49084FEA3000DB
:1009800092185B4150EA0107EDD152EA030012D000
:1009900082EA040083EA0501084305D0101BAB413D
:1009A00006D20122002306E000224FF0004302E0BD
:1009B0006FF0010253101AEB06004CEB085110EBDC
:1009C0000A0041EB0B01BDE8F04D00F0A0B80EB5F8
:1009D000C10F80EAE0700844CA07002140F23343A7
:1009E0008DE80E000A460B4600F0A0F803B000BDEB
:1009F0000EB540F2334102910021CDE900110A46C3
:100A00000B4600F093F803B000BD70B5C1F30A5275
:100A100001F000450024C1F3130140F2FF3341F41B
:100A200080119A4201DA002070BD40F233439A42AD
:100A3000A2F2334203DC524200F047F800E090405B
:100A40002C43F1D0404270BDC1F30A5210B5C1F33E
:100A5000130140F2FF3341F480119A4201DA002081
:100A600010BD40F233439A42A2F2334203DC5242B9
:100A700000F02BF810BD904010BD000030B5041EF2
:100A800071F1000404DB4FF00044404264EB0101CB
:100A9000141E73F1000405DB1C464FF00043524264
:100AA00063EB0403994208BF904230BD202A04DB67
:100AB000203A00FA02F1002070479140C2F1200371
:100AC00020FA03F3194390407047202A04DB203AB0
:100AD00021FA02F00021704721FA02F3D040C2F15E
:100AE00020029140084319467047202A06DBCB17A5
:100AF000203A41FA02F043EAE07306E041FA02F3D9
:100B0000D040C2F12002914008431946704710B509
:100B1000141E73F1000408DA401C41F10001921820
:100B20005B411A4301D120F0010010BD2DE9F04DC9
:100B300092469B4611B1B1FA81F202E0B0FA80F21E
:100B400020329046FFF7B2FF04460F4640EA0A0003
:100B500041EA0B0153465A46084313D0114653EA63
:100B6000010019D0C8F140025046FFF7AEFF05461C
:100B70000E46504659464246FFF798FF084305D0B7
:100B8000012004E020463946BDE8F08D00200543F1
:100B900046EAE0762C4337430A986305E40AA0EB63
:100BA00008000022FD0A44EA47540A3002D500201A
:100BB0000146E9E7010510196941DDE90845001919
:100BC0006941BDE8F04DA2E770B521F00043034351
:100BD0000CD0C1F30A550024D5EB040564EB0403E3
:100BE000D617AD1AB34102DB0020014670BD2018B4
:100BF00041EB025170BD2DE9F04D00231A461B1A3E
:100C00008A4103DB00200146BDE8F08DC1F30A52A2
:100C1000C1F3130141F480154FF0000BD10702D14D
:100C200000186D41521E0027044640F2FF1138465D
:100C300001EB620A3E468046024600204FF48011D6
:100C4000FFF743FFC2197141BB1846EB0100B4EB3B
:100C5000030C75EB000C04D3E41A65EB0005174692
:100C60000E46241908F101006D4180463428E3DD69
:100C7000F91946EB0600091BA84103D24FF0FF32D9
:100C8000134601E0002213461BEB070046EB0A5116
:100C9000BDE8F04DFFF73BBF064C074D06E0E068AE
:100CA00040F0010394E8070098471034AC42F6D3B3
:100CB000FFF76EFA28A3000848A3000870B58C1847
:100CC00010F8015B15F0070301D110F8013B2A1160
:100CD00006D110F8012B03E010F8016B01F8016B4D
:100CE0005B1EF9D12B0705D40023521E0DD401F849
:100CF000013BFAE710F8013BCB1A921C03E013F812
:100D0000015B01F8015B521EF9D5A142D8D3002046
:100D100070BDFEE7014800F0C9BE0000081A0120BE
:100D200001681823CAB2103AB2FBF3F2054B6FF315
:100D30000901032A9B5CC36500D9091D816508462A
:100D400070470000C69F000810B5014600208B695F
:100D50008A6A4FF0C07453B1B3F5005F15D072B119
:100D6000012A0CD0022A0AD0032A09D104E01AB1C0
:100D7000012A06D0022A03D1C96AC90100D501207F
:100D800010BDC96AA142FAD010BD002AF7D0012ACD
:100D9000F2D0022AF3D0032AF3D010BD30B5046894
:100DA000256825F480252560046863608368402BEE
:100DB000036803D099600068C26030BD9A60006823
:100DC000C16030BD704700000323037600234360F9
:100DD00003614361816082810121817004494A6815
:100DE0001AB18A685060886070474860FBE700006D
:100DF000180000202DE9F04782462DED028BDFED33
:100E0000758A754C00252079C0B19FED748AB5EEC6
:100E1000C08AF1EE10FA06D2E07820B970A000F096
:100E200093FB0120E070B5EEC08AF1EE10FA05DB0D
:100E3000E07830B100F04EF9E57002E0E07800288B
:100E400027D104F039F8012004F0A0F82078DFF869
:100E5000A081E66D18F8000000E03668317C814220
:100E6000FBD16078C8B1207FB56810E06979814214
:100E70000CD12879042802D1284600F0A7FB696B21
:100E80002846BDEC028BBDE8F04708472D68002DD1
:100E9000ECD1BDEC028BBDE8F08703F0C9F83079E6
:100EA000DFF84C91022809F10A0903D0012804D087
:100EB000B76832E071693046884784F8235084F877
:100EC000225084F82050E577A5772078C0B194F8B7
:100ED0002110002977D084F8215008F8005009F833
:100EE0000050401EC0B2207019F80000207700F0BA
:100EF00057FD01235246217F304600F017FA62E089
:100F000084F821505FE05346227F3946304600F096
:100F10003BFC384600F024F93F68002FF3D1002352
:100F20005246217F304600F001FAF068417961773E
:100F3000A07F40B1207F884202D2401C207702E08F
:100F4000A07800B12577E07F38B1207F10B1401E36
:100F5000207702E0A07800B1217794F8200070B1EA
:100F6000207FB16809E04A79824205D11A4A3046A9
:100F70001C3200F0BFFC02E009680029F3D184F8BC
:100F8000235084F8225084F82050E577A577207804
:100F90000028B5D094F82110A9B184F8215008F8A0
:100FA000005009F80050401EC0B2207019F800002F
:100FB0002077B06803E00582C0ED028A006800284F
:100FC000F9D100F0EDFCBDEC028BBDE8F04703F079
:100FD00081BF0000000000002800002066668640F7
:100FE0004C6F7720426174746572792100000000B3
:100FF0001C0901200FB4002310B5CC699FED250A10
:10100000237081F820304C6A84ED000A81ED0A0AD1
:1010100081ED0B0A81F830304B634A619DF8142052
:101020000A71082A1ED2DFE802F01D04080E0E081D
:101030000819069A81F8302014E0069ACA611278DD
:1010400081F820200EE0069A4A62D2ED000AC1ED36
:101050000B0AD2ED000AC1ED0A0A01E0069A8A6184
:10106000079A4A630B60826882B1C2685279521C47
:101070004A71C2681160C1604879C88081ED020A76
:1010800081ED030A0B8210BC5DF814FB4B7181608B
:10109000F1E70000000000000FB400214161816011
:1010A000C16001609DF804200271022A01D1029AF8
:1010B0004261074AD36D3BB1116E0B7C5B1C03741C
:1010C0000860106604B070470174D065F9E700004D
:1010D000280000202DE9F041204C01264FF48C78A7
:1010E000002537B22288394628B203F059FCAD1CDE
:1010F000F12DF7DB4546B61CAE42F1DD282000F0AD
:1011000047FE03F0E7FE0126A846012537B22288F4
:10111000394628B203F044FCAD1CF12DF7DB4546FF
:10112000B61CAE42F1DD282000F032FE03F0D2FE04
:101130000026A846012537B22288394628B203F096
:101140002FFCAD1CF12DF7DBB61C4645F2DD282047
:1011500000F01EFEBDE8F04103F0BCBE0C00002014
:101160001CB504460079B4F9101007287BD2DFE8DB
:1011700000F00D04283D3D1010004BA2022004F0A9
:1011800025F8B4F910100B20626985E0022062692D
:1011900082E046A2022004F019F8B4F910100B20E6
:1011A000626904F013F8E069012103230078CDE9B6
:1011B0000001208A0A22401E01B2DB2000F08EF8D6
:1011C0001CBD3AA2022004F001F8B4F910100B2063
:1011D000626903F0FBFFE069B4F91010007810B108
:1011E00033A2D92058E033A2D32055E02FA2022009
:1011F00003F0ECFFB4F910100B20626903F0E6FF76
:10120000606A2D4990ED000A10EE100A88420ADA51
:10121000B5EEC00AF1EE10FA05DB02230422B4F9A0
:101220001010CD202FE010EE100A244988420ADA6F
:1012300010EE100A2249884205D202230422B4F992
:101240001010C7201FE010EE100A1E4988420BDA6A
:1012500010EE100A1C49884206D202230422B4F977
:101260001010C1200FE01CE010EE100A1749884250
:101270000EDA10EE100A1649884209D2B4F910109D
:1012800002230422BB2002B0BDE8104003F05EBF81
:10129000B4F910100FA2C72002B0BDE8104003F04F
:1012A00095BF02A26AE700002B0000002D0000009D
:1012B0006F6E00006F666600000020410000C842AB
:1012C000000020C100007A440000C8C200401C4653
:1012D00000007AC42A2A2E2A2A0000002DE9FC47A1
:1012E000114FDDE90AA681463888CDE900061C4683
:1012F000154688461346484603F0E0FBBAF1000F56
:101300000FD03888CDE90006604205EB400083B27B
:1013100082B208EB040001B209EB040000B203F052
:1013200069FBBDE8FC8700000A0000202DE9F043BE
:101330000D4691468C21B1FBF9F82DED028B83B05F
:101340007D4C07461BB19FED7D0A84ED1C0A387960
:1013500000287CD194ED1B0ABDEEC00A10EE100AE5
:1013600090B9B868B1EE088A0179406971B1FFF7A8
:1013700091F9401C00EE100AF8EE400AB2EE000AA5
:1013800000EE880A84ED1B0ABE6840E0FFF782F990
:1013900000EE100AF8EE400AB1EE040AF0E77079A8
:1013A000A84233D130790028706921D0FFF772F953
:1013B00000EB40005FF00E0101EB4000E086F0889A
:1013C0004FF6FF7100EB400001EA80002087607A51
:1013D00085421ED0281A00D54042F96849798842D2
:1013E00017DAB6F91000002808DAB2EE020A0AE0AD
:1013F000FFF750F900EB40000521DDE7B0F58A7FEB
:1014000007DB9FED4F0A84ED1C0A02E03668002ED0
:10141000C5D1A08E10B1617A8D4223D0E18ED4ED7A
:101420001B0A00EE101AB8EE400A70EE600A00EED9
:10143000108AB8EE400A80EE801A84ED191A218FC6
:10144000D4ED1C0A00EE101AB8EE400A00E06DE080
:1014500070EE600A00EE108AB8EE400A80EE801A44
:1014600084ED1A1A8C280CD3E08E00EE100AB8EE28
:10147000400A84ED1B0A208F00EE100AB8EE400AE5
:101480000DE094ED1B0AD4ED190A30EE200A84ED2C
:101490001B0A94ED1C0AD4ED1A0A30EE200A022031
:1014A00084ED1C0A03F072FD264F01260C233888B8
:1014B000CDE9000694ED1B0ABDEEC00A10EE100A3D
:1014C00094ED1C0A82B2BDEEC00A10EE100A01B201
:1014D000002003F08FFA012003F058FD3888CDE991
:1014E000000694ED1C0A0C230422BDEEC00A10EE87
:1014F000100A01B2EC2003F07DFA657294ED1B0A2C
:10150000E18EBDEEC00A10EE100A88420AD194EDB9
:101510001C0A218FBDEEC00A10EE100A884201D1CC
:10152000002002E0A18E01EB0900A08603B0BDEC13
:10153000028BBDE8F08300002800002000008C43EF
:1015400000007F430A0000202DE9FC418046FFF7A0
:10155000A1F800EB4000052101EB400085B2C5F188
:10156000F00000EBD0704408FFF7B4FD164F0126E1
:1015700084213888CDE90006A01C00B20C232A463D
:1015800003F09CFA3888CDE90006A01E882100B23D
:101590000C232A4603F02EFA022003F0F7FC8A21DE
:1015A00020B2424603F012FE012003F0EFFC03F0EC
:1015B00091FC00F005FD044600F002FD001B5028E0
:1015C000FAD3BDE8FC8100000A000020F8B505460A
:1015D000012003F0DBFC534C1A2060856869FFF79B
:1015E00059F8401C0C280CD96869FFF753F800EB38
:1015F00040000D2101EB400080B22085A02802D3DD
:1016000003E04F202085A020208580B2C0F1F001AA
:1016100001EBD1714F10A784618D434EC1F58C72DF
:1016200002EBD2724FEA620CA4F826C0A0F12E029F
:10163000A2853288891C801C00928BB282B2ACF1E8
:10164000010C7F1E0FFA8CF138B203F006F937480F
:1016500000880090638D228DB4F92610B4F924001F
:1016600002F006FDE08C61796A69084401B2A08C41
:10167000C01C00B203F0AAFD6869FFF70BF8A18C4B
:1016800000EB400001EB4000E18C6279C01C11448A
:1016900000B209B226A203F099FD30880090E08CD8
:1016A0006179082308440C3001B2A08CA28DC01CC3
:1016B00000B203F0D2F8686A9FED1E1A042390ED81
:1016C000000AA08DC0EE010A00EE100AB8EE401A22
:1016D000B1EE000A10EE810ABCEEC00A10EE100A4C
:1016E00082B230880090E08C617908440E3001B2FB
:1016F000A08C401D00B202F0BBFC686A6179228DAB
:1017000090ED000AE08C022308440C3001B2A08C5A
:101710001044283800B2032203F018FDBDE8F84059
:1017200003F0D8BB280000200A0000200C00002095
:101730003A0000000000C842114A30B4D16D18E0F0
:10174000886813E003799B1E052B0ED2DFE803F0B7
:10175000030808030300C46990F82030237004E0F4
:10176000436A90ED0A0A83ED000A00680028E9D177
:1017700009680029E4D10020507030BCFFF7AABCF2
:101780002800002070470000F0B58C24B4FBF3F76C
:10179000364C8568267AE6B9284617E090F805C0E9
:1017A000944506D1B0F906E0BEF1000F01DAC08819
:1017B00008E0944509D1B0F906C0BCF1160F04DD6C
:1017C000C08816382086012602E000680028E5D18E
:1017D0002672B4F9300003E0EE88361AEE802D68E8
:1017E000002DF9D125862572C888A67900EB400026
:1017F00006EB800000B26086E68D1EB194F807C04B
:10180000624513D0B1F910C000EE10CAF8EEC00A5C
:1018100000EE100AB8EEC00A70EE600A00EE107A10
:10182000B8EE400A80EE801A81ED031A8C2E04D3A4
:1018300000EE100AB8EEC00A05E091ED020AD1ED03
:10184000030A30EE200A81ED020ABDEEC00A10EE56
:10185000107A3FB20F82E2710968002902D18742F3
:1018600001D1E585F0BDF018E085F0BD280000202D
:1018700010B5174803F08AF9164C4FF480722146D0
:101880001548FFF7A1FA1448621521462030FFF7EA
:101890009BFA11484FF4004210494030FFF794FA88
:1018A00022150F4C0C4821466030FFF78DFA0A488C
:1018B000E21421468030FFF787FA0AA240F20F11A6
:1018C0009B2003F083FCBDE8104003F003BB000045
:1018D0007011012000040240300901200000024084
:1018E0000008024045617379554928457242575FA7
:1018F00073290000F0B40E790125264C0023082E30
:1019000029D2DFE806F02804383D3D2A3841257801
:10191000092D20D0204F16789FED200A7E556D1C92
:10192000EDB22570A7F10A0491F8301061551370DB
:10193000806807E0B0F90610002902DB038280ED21
:10194000020A00680028F5D1F0BC00F029B8012196
:1019500000E000210170F0BC7047806809E0027966
:10196000052A05D142794C79A24201D0C26913708F
:1019700000680028F3D1C86901780029E9D1E6E7B9
:101980006570F0BCFFF7A6BB65708869F0BCFFF717
:10199000DBBD000028000020260901200000000017
:1019A0002DE9F0412C4C01264FF48C78002537B2FC
:1019B0002288394628B202F0F3FFAD1CF12DF7DB87
:1019C0004546B61CAE42F1DD1E2000F0E1F903F001
:1019D00081FA0126A846012537B22288394628B265
:1019E00002F0DEFFAD1CF12DF7DB4546B61CAE4222
:1019F000F1DD1E2000F0CCF903F06CFA0026A846B9
:101A0000012537B22288394628B202F0C9FFAD1C41
:101A1000F12DF7DB4546B61CAE42F1DD1E2000F08D
:101A2000B7F903F057FA0126A8460125701E07B240
:101A3000681E2288394600B202F0B2FFAD1CF12DBB
:101A4000F6DBB61C4645F0DD1E2000F0A1F9BDE82E
:101A5000F04103F03FBA00000C00002072B6FEE730
:101A6000704710B5040002D0607910B106E0012083
:101A700010BD00202071204600F004F801206071A4
:101A8000002010BD08B500680649884208D1064804
:101A9000016841F480510160006800F480500090BA
:101AA00008BD000000300240303802402DE9F84304
:101AB00004464FF00009CDF8009063484FF41651EA
:101AC000A56D0068B0FBF1F72E6894F85C10082053
:101AD00000FA01F131420FD021680A6852070BD594
:101AE0000A6822F004020A6094F85C108840A8603A
:101AF000606D40F00100606594F85C104FF00108E3
:101B000008FA01F0304208D021684969090604D575
:101B1000A860606D40F00200606594F85C100420DD
:101B20008840304208D021680968890704D5A86038
:101B3000606D40F00400606594F85C1010208840EF
:101B4000304218D021680968090714D5A8602068B8
:101B50000168490304D50068000308D5A16C07E0BB
:101B60000168C90503D4016821F008010160216CF6
:101B700009B12046884794F85C1020208840304204
:101B800031D021680968C9062DD5A86094F83500C0
:101B900005282068016806D0490347D5006800037E
:101BA0001DD4616C1CE021F01601016020684169C0
:101BB00021F080014161206C08B9A06C20B120683F
:101BC000016821F00801016094F85C103F20884012
:101BD000A86084F8358084F83490216D1FE0E16BB3
:101BE00009B120468847606D00282BD0606DC00782
:101BF00014D0052084F835002068016821F0010127
:101C000001600098401C0090B84203D8206800682A
:101C1000C007F6D184F8358084F83490E16C00294F
:101C200010D001B02046BDE8F04308470168C9055F
:101C3000D5D4016821F01001016084F8358084F862
:101C40003490CCE7BDE8F883DC0000202DE9F041BA
:101C5000044600F0B5F906465CB1022084F8350070
:101C6000002584F834502068016821F001010160EA
:101C70000DE00120BDE8F08100F0A2F9801B0528ED
:101C800005D920206065032084F83500F2E720683C
:101C90000068C007F0D12268116820480140D4E9EB
:101CA00001031843D4E903363343184363691843E7
:101CB000A3691843E3691843236A18430843616A18
:101CC000042903D1D4E90B13194308431060206899
:101CD0004069666A20F0070130460E430127042858
:101CE0000CD1A06A0643E06A40B12046FFF72CF809
:101CF00020B14020606584F83570BAE720684661FD
:101D00002046FFF70DF894F85C203F219140816058
:101D1000656584F835700020ACE700003F8010F066
:101D20002DE9F0410446866D90F834000025012825
:101D30000DD0012084F8340094F835700020012F74
:101D400007D084F8340002252846BDE8F08102203F
:101D5000FBE7022784F8357060652046FFF71EF820
:101D600094F85C103F208840B0602068016841F022
:101D700016010160206C20B12068016841F0080163
:101D800001602068016841F001010160DCE70000AA
:101D900070B5044600F014F90546601C02D00448F2
:101DA0000078044400F00CF9401BA042FAD370BD47
:101DB000D00000202DE9F84FDFF8BCA1002201255A
:101DC00003264FF00F090AF1040BAAF1040E00BF1D
:101DD0000B6805FA02F42340A34270D10F7907F093
:101DE0000307012F01D0022F16D187684FEA42085E
:101DF00006FA08FC27EA0C07D1F80CC00CFA08FC1C
:101E00004CEA070CC0F808C04768A7430C79C4F334
:101E1000001494403C4344600C79E443A4070AD086
:101E2000C4684FEA420C06FA0CF7BC438F6807FA05
:101E30000CF72743C7600C7904F00304022C12D17D
:101E4000D40800EB840CDCF820405707FF0E09FA99
:101E500007F824EA0804D1F8108008FA07F848EADD
:101E60000408CCF8208004684FEA420C06FA0CF70C
:101E7000BC430F7907F0030707FA0CF72743076005
:101E80004C6814F4403F70D03C4C276847F48047BE
:101E90002760246822F0030704F480440094384C3F
:101EA00007EB040CDCF8084897074FEA177809FAA3
:101EB00008F7BC43334FB84202D1002724E054E076
:101EC000314FB84201D101271EE0304FB84201D155
:101ED000022719E02E4FB84201D1032714E02D4FFD
:101EE000B84201D104270FE02B4FB84201D105279A
:101EF0000AE02A4FB84201D1062705E0284FB84230
:101F000001D1072700E0082707FA08F72743CCF894
:101F10000878DAF800405746D1F804C09C435FEADD
:101F2000CC2C00D51C433C60DBF800405F46D1F868
:101F300004C09C435FEA8C2C00D51C433C60DEF857
:101F400000407746D1F804C09C435FEA8C3C00D542
:101F50001C433C60084F083F3C68D1F804C09C43D8
:101F60005FEACC3C00D51C433C60521C102AFFF4B5
:101F70002FAFBDE8F88F0000083C01404438024014
:101F8000003001400000024000040240000802400E
:101F9000000C0240001002400014024000180240F1
:101FA000001C0240426921EA02030A4043EA02415E
:101FB000816170470AB1816170470904FBE7000045
:101FC0000148806870470000D00000200248816806
:101FD0000278114481607047D00000200B4810B592
:101FE000016841F400710160016841F480610160A1
:101FF000016841F480710160032000F06FF80F2048
:1020000000F006F800F024F8002010BD003C02406B
:1020100070B50D4D04464FF47A712878B1FBF0F09D
:102020000A490968B1FBF0F001F0A8FA48B9102C90
:1020300007D200222146501E00F030F800206C60CC
:1020400070BD012070BD0000D0000020DC00002029
:102050000A4808B5016841F480410160006800F455
:10206000804000900548001F016841F080510160E8
:10207000006800F08050009008BD00004438024025
:10208000002809DB00F01F02012191404009800077
:1020900000F1E020C0F8001170470000F0B40E4BD2
:1020A0001B680C46C3F30223C3F10705042D00D9B6
:1020B0000425191D072901D2002300E0DB1E01269B
:1020C00006FA05F1491E214099409E40761E1640B1
:1020D0003143F0BC05F016BC0CED00E0064900F001
:1020E000070208684FF6FF03184040EA0220034A3F
:1020F00010430860704700000CED00E00000FA0596
:1021000070470068416200207047F0B50368586A64
:1021100039B19C6A4FF4827600EB144400204D1EC6
:102120000AE040EA024098620FE006EB8007DF59C0
:10213000401C04EB1744C0B2A842F6D344EA024064
:102140004FF4807202EB810158500020F0BDD0F8AE
:10215000080503F085BF01EBC10200EB8202D0F855
:102160000805D26C03F0F0BE01EBC10200EB820265
:10217000D0F80805D2F88C2203F03BBFD0F8080550
:1021800003F070BF0A0601F00F0101EBC10100EB83
:10219000810101D53C3101E001F51F71006805F0B6
:1021A000CFB970B504460B0601F00F0000EBC0017B
:1021B00004EB81014FF001024FF0000503D581F8D7
:1021C0003D203C3103E081F87D5201F51F7108701C
:1021D00094F8BC04012808D084F8BC24206804F0DA
:1021E00069FE84F8BC54002070BD022070BD70B53B
:1021F000044601F00F006268904201D9012070BDD1
:102200000B0601F00F0101EBC10104EB81014FF05E
:1022100001024FF0000503D581F83D203C3103E079
:1022200081F87D5201F51F718D70087094F8BC041F
:10223000012808D084F8BC24206805F037F884F819
:10224000BC54002070BD022070BD01F00F0101EBF5
:10225000C10100EB8100D0F89C0270472DE9F041EC
:1022600004460F0601F00F0000EBC00104EB8101F2
:102270004FF001064FF0000503D581F83D603C3179
:1022800003E081F87D5201F51F710870CA600B717F
:102290004A7802B10881022B00D14D7194F8BC0438
:1022A000012809D084F8BC64206804F05BFD28464E
:1022B00084F8BC54BDE8F0810220FBE770B50C4601
:1022C00001F00F0505EBC50100EB8101C1F8943267
:1022D000C1F88C220023C1F89C3281F87D3281F84C
:1022E0007C52036901F51F71012B00D14A6122075D
:1022F000027C006803D005F031F8002070BD04F0C6
:102300001BFFFAE770B504460D4601F00F00616847
:10231000884201D9012070BD29064FF000064FF018
:10232000010207D500EBC00104EB810181F83D20DB
:102330003C3107E005EBC50104EB810181F87D62CA
:1023400001F51F718A70087094F8BC04012807D049
:1023500084F8BC24206804F0D5FF280702D007E0E9
:10236000022070BD217C04F2C442206804F072FF98
:1023700084F8BC64002070BD70B50C4601F00F05F8
:1023800005EBC50100EB81014B65CA640023CB65F9
:10239000012381F83D3001F83C5F0369012B00D136
:1023A0004A612207027C006803D004F0D7FF0020B6
:1023B00070BD04F0C1FEFAE72DE9FC5F0568044634
:1023C000284605F05EF900287DD1206805F085F9E2
:1023D000002878D0D5F80808C0F30D20C4F8FC0414
:1023E000206805F07AF9800704D52068416901F07A
:1023F00002014161206805F070F9C10604F2C44091
:10240000009034D52068816921F0100181612F6A24
:1024100007F00F0000EBC00004EB8006C7F3434059
:1024200006F51F76022802D0062811D01AE047F6DA
:10243000F070074216D0C7F30A12174628463169D2
:1024400005F04FF9306938443061306A384408E0AB
:1024500008222846009905F044F9306AC7F30A11AA
:10246000084430622068816941F010018161206870
:1024700005F033F900034FF0080B4FF0000A4FF05E
:1024800001097CD50026206805F006F9074674E0AE
:10249000F80770D0F1B2206805F017F98046C00740
:1024A00007D005EB4611C1F8089B3146204602F0E3
:1024B000B5FE5FEA087024D505EB4611C1F808BBEC
:1024C0002068016C00E025E200EB46100191D0F895
:1024D000082BFC4B994205D9110403D54FF4004158
:1024E000C0F8081B204600F02FFBF64901988842EF
:1024F00007D92069012804D120680121009A04F03D
:10250000A9FE5FEAC86004D505EB46111020C1F8AA
:10251000080B5FEA88701DD56869000605D5D5F8F7
:10252000040840F48061C5F8041806EBC60004EB0B
:10253000800090F87F1200F51F70012905D180F806
:1025400003A0F1B2204600F0EBF905EB46110220A2
:10255000C1F8080B5FEA886004D505EB461020211E
:10256000C0F8081B5FEA884005D505EB46104FF41C
:102570000051C0F8081B7F08761C002F88D1206806
:1025800005F0ABF840036FD5206805F07EF80746EC
:10259000002667E0F80763D0F1B2206805F083F801
:1025A0008046C00723D006F00F0209FA02F0D5F8E2
:1025B00034288243C5F8342805EB4610C0F8089942
:1025C000206901280FD106EBC60004EB8000D0E99A
:1025D00012211144C16436B9606D20B9206801210F
:1025E000009A04F037FEF1B22046FFF7B4FD5FEA2F
:1025F000087003D505EB4611C1F808B95FEAC86059
:1026000004D505EB46111020C1F808095FEA4860BF
:1026100004D505EB46104021C0F808195FEA887020
:1026200017D53146284604F0FFFF06EBC60004EB41
:10263000800090F83F103C30012905D180F803A0BC
:10264000F1B2204600F068F905EB46110220C1F80E
:1026500008095FEA086003D53146204602F044FECF
:102660007F08761C002F95D1206805F036F80028E9
:1026700011DAD5F8040820F00101C5F8041894F81F
:10268000F40401282BD0204600F042FA206841696A
:1026900001F000414161206805F01FF800050BD5ED
:1026A000D5F80808C00702D0204600F099FA206843
:1026B000416901F400614161206805F00EF8C00431
:1026C00066D5D5F8040820F00100C5F804081021EB
:1026D000206804F0A9FF00214FF67F321FE084F844
:1026E000F4A400212046FFF70BFDCFE705EB4110D6
:1026F000C0F80829D0F8003923F40013C0F80039D5
:10270000C0F8082BD0F8003B23F40013C0F8003BBE
:10271000D0F8003B43F00063C0F8003B491C606800
:102720008842E3D8D5F81C0840F00111C5F81C1800
:10273000206B002828460DD0D0F8840840F00B010B
:10274000C5F88418D5F8440840F00B012846C5F8B0
:1027500044180DE0D0F8140842F22B010843C5F8E4
:102760001408D5F8100840F00B012846C5F81018D9
:10277000D0F8000820F4FE61C5F80018217C20681C
:10278000009A04F067FD2068416901F480514161BD
:10279000206804F0A2FF800415D5206804F022FB15
:1027A000206804F061FFE06000F0CCFA0146227B73
:1027B000206804F0F5FF204600F094F92068416994
:1027C00001F400514161206804F087FF000707D53C
:1027D000204600F0A1F92068416901F0080141613B
:1027E000206804F07AFF000616D5A86920F0800062
:1027F000A86101260DE000BF06EBC60004EB8000D7
:1028000090F87F02012803D1F1B22046FFF7BAFC0D
:10281000761C6068B042EFD8206804F05EFFC0020A
:1028200021D501264F4616E005EB4610D0F80019D9
:1028300006EBC60004EB800090F84020012A09D185
:10284000002907DA80F83F70F0B240F0800120469E
:10285000FFF798FC761C6068B042E5D820684169B3
:1028600001F480114161206804F037FF800234D503
:1028700001204B4629E000BF05EB4011D1F8001BB9
:1028800000EBC00204EB820696F88022012A1BD1DD
:10289000002919DA94F8FC2401F4803102F00102D5
:1028A000914211D186F87F32A96941F08002AA6174
:1028B0006969090608D4D5F8040840F40070C5F821
:1028C000040805E00A30544F401C61688142D3D8A7
:1028D0002068416901F400114161206804F0FDFEA7
:1028E000400007D52046FFF732FC2068416901F01F
:1028F00080414161206804F0F0FE40070AD520685D
:102900004568680702D52046FFF738FC2068416813
:1029100029434160BDE8FC9FD0F8080503F0F6BBF1
:10292000D0F8080503F0F4BB2DE9F0418AB00400AB
:1029300005D094F8BD042668002520B108E00120E8
:102940000AB0BDE8F08184F8BC54204600F05EF87F
:10295000032084F8BD04F06BC00500D42561206815
:1029600004F0E4FB04F11001282288466846FDF7D4
:102970006DFE94E80F0004F043FA0226C8BB002164
:10298000206804F0CDFE002001270EE000EBC0011E
:1029900004EB810181F83D7001F83C0F08810D7155
:1029A000CD600D61401CC0B28D6161688142EDD87F
:1029B000002011E000EBC00104EB810181F87D52A1
:1029C00081F87C0281F88052C1F88852C1F88C529B
:1029D000401CC0B2C1F8945261688142EAD82822F2
:1029E00041466846FDF732FE94E80F0004F0E4FA31
:1029F00010B184F8BD64A2E784F8385084F8BD743F
:102A0000206804F0CBFA00209AE700002DE9F0419D
:102A100086B0044614216846FDF731FE2C49206833
:102A2000884251D12B4C4FF00008206840F0040040
:102A30002060206800F004000590206840F001004C
:102A40002060206800F001000590206840F002003E
:102A500020602068022500F0020005900D208DE81E
:102A6000210103260A2769461B48CDE90367FFF7C2
:102A7000A1F928208DE8210169461848CDE90367AE
:102A8000FFF798F943F623408DE821016946144881
:102A9000CDE90367FFF78EF9206840F00050206011
:102AA000206800F000500590206840F080402060D1
:102AB0002068002200F08040059001214D20FFF7A2
:102AC000EDFA4D20FFF7DCFA06B0BDE8F08100001A
:102AD000000004403038024000080240000002407C
:102AE0000004024070B50446C068012570B1022898
:102AF00001D0FEF7B3FF2946D4F8080503F05EFBCA
:102B0000D4F80805BDE8704003F019BB0025F2E7D2
:102B1000D0F8080503F03CBBD0F8080503F042BB31
:102B200010B5044690F8BC0401280BD0012084F8AD
:102B3000BC0484F83810206804F020FE002084F8DB
:102B4000BC0410BD022010BD2DE9F04100F2C441CB
:102B5000D0F80845054604F2AA200F46064603F0C1
:102B600015FF94F8AA120020C90603D13146204669
:102B700003F018FC94F8AA1201F01F01012903D1F7
:102B80003146204603F052FC002806D13946D5F8DC
:102B90000805BDE8F04103F01DBBBDE8F08110B5AC
:102BA0000446006894F8BC14012906D0012184F879
:102BB000BC14A16A012902D008E0022010BDA1695D
:102BC000012903D0816B41F480318163206804F0D6
:102BD00006FD206804F0D4F9002084F8BC0410BD80
:102BE00010B50446D0F8080503F036FB2068D0F88D
:102BF000001E41F00101C0F8001E206A002804D028
:102C00000248016841F00601016010BD10ED00E0CE
:102C10002DE9F0470E46050065D0DFF81481D8F89D
:102C20000000F7B200F00700B04207D288F8007049
:102C3000D8F8000000F00700B04254D128683D4C9D
:102C4000810712D5400703D5206840F4E05020608A
:102C50002878000703D5206840F460402060206891
:102C6000A96820F0F000084320602878C0072DD024
:102C7000304968680839012812D0022813D0032887
:102C800011D00968890700292DDA216821F0030194
:102C900001432160FFF794F9814641F2883A0EE042
:102CA00009688903EFE709688901ECE7FFF788F90C
:102CB000A0EB0901514502D90320BDE8F087206847
:102CC000696800F00C00B0EB810FEFD1D8F800106C
:102CD000404601F00701B14207D90770006800F0D3
:102CE0000700B04201D00120E7E72878400705D56A
:102CF0002068E96820F4E050084320602878000745
:102D000006D52068296920F4604040EAC1002060AF
:102D100000F03EF82168084AC1F30311515CC84035
:102D20000649086006480068FFF772F90020C4E70A
:102D3000003C024008380240CE9F0008DC00002022
:102D4000D40000200148006870470000DC0000202B
:102D50000448054900680968044AC1F38221515CAE
:102D6000C8407047DC00002008380240DE9F0008A1
:102D70000448054900680968044AC1F34231515CBE
:102D8000C8407047DC00002008380240DE9F000881
:102D9000154810B5006810F00C02144813D041100B
:102DA000042A0FD0082A0ED10F4C241F2268236852
:102DB00002F03F025B0207D52068C0F38810A0FB39
:102DC000010106E0084610BD2168C1F38811A1FB8E
:102DD00000010023FDF7F4F92168C1F30141491C0A
:102DE0004900B0FBF1F010BD083802400024F400A7
:102DF0002DE9F84F04006ED02078DFF84C93C0071F
:102E0000A9F104054AD009F104000168C1F3810168
:102E1000012908D00068C0F3810002280AD1D9F83E
:102E20000000400206D52868800337D56068002876
:102E3000E1D033E06068B0F5803F10D0B0F5A02F4E
:102E4000286810D020F480302860286820F4802082
:102E500028606068A8B1FFF7B3F806460DE028685F
:102E600040F48030F4E740F480202860F7E700BFAA
:102E7000FFF7A6F8801B642873D828688003F7D56D
:102E80000CE0FFF79DF8064605E000BFFFF798F855
:102E9000801B6428F0D828688003F7D42078DFF8F6
:102EA000AC8280074FF0000A3ED5A748001D01689C
:102EB00011F00C0F08D00068C0F3810002280BD17C
:102EC000D9F80000400207D42868800716D5E068CA
:102ED000012800D112E033E1E068B8B10120C8F860
:102EE0000000FFF76DF8064605E000BFFFF768F841
:102EF000801B0228C0D828688007F7D52868216978
:102F000020F0F80040EAC10028600DE0C8F800A0F9
:102F1000FFF756F8064604E0FFF752F8801B022838
:102F20001FD828688007F7D42078000722D5864F5D
:102F300087486169703771B101210160FFF740F87E
:102F4000064604E0FFF73CF8801B022809D83868E1
:102F50008007F7D50EE0C0F800A0FFF731F806466D
:102F600005E082E0FFF72CF8801B02287DD8386846
:102F70008007F7D42078400768D5DFF8CCB1002768
:102F80000BF13C0BDBF80000C0000BD4DBF80010A9
:102F900041F08051CBF80010DBF80000012700F071
:102FA000805000906B4E3068C00510D4306840F4FB
:102FB00080703060FFF704F8009005E0FFF700F83C
:102FC0000099401A022850D83068C005F6D55E4EE8
:102FD000A0686C3601280FD00528306810D020F08A
:102FE00001003060306820F004003060A068B8B1A3
:102FF000FEF7E6FF00900FE0306840F00100F4E7D4
:1030000040F004003060F7E7FEF7DAFF0099411A5C
:1030100041F28830814266D830688007F4D50EE0EE
:10302000FEF7CEFF009007E0FEF7CAFF0099411AB5
:1030300041F28830814256D830688007F4D42FB1ED
:10304000DBF8001021F08051CBF80010A069C8B364
:103050003D49091D0968C1F3810102294AD00228AE
:10306000504607D0C8F8600000E03CE0FEF7A8FF3B
:1030700004463BE04746C8F86000FEF7A1FF06465D
:1030800005E000BFFEF79CFF801B02282BD82868B4
:103090008001F7D4D4E907010843A16A2E4A490800
:1030A00002EB0141626A41EA8211084394F82C1054
:1030B00040EA0161C9F8001001203866FEF780FF80
:1030C000044606E03EE000BFFEF77AFF001B022840
:1030D00009D828688001F7D534E000BFFEF770FFFB
:1030E000001B022802D90320BDE8F88F2868800160
:1030F000F4D427E00128F7D0D9F80000E26900F401
:10310000800191421CD1226A00F03F01914217D107
:1031100047F6C071626A0140B1EB821F10D1A26A0A
:103120004FF0FF3300F4403103EB5202B1EB024F9A
:1031300006D194F82C1000F07060B0EB016F01D054
:103140000120D1E70020CFE70438024000004742C9
:10315000800E4742007000400000FFFF70B5040081
:1031600003D06079002510B105E0012070BD257104
:10317000204600F00DF8022060712068016841F0DF
:103180000401016001206071A560002070BD000095
:1031900008B500680649884208D10648016841F030
:1031A00040010160006800F04000009008BD000090
:1031B0000008065034380240704770B5040009D04A
:1031C000606A002540B125616561A56294F85100EF
:1031D00040B10CE0012070BD6068B0F5827FF4D092
:1031E000E561F2E784F85050204600F045F80220EF
:1031F00084F851002068016821F040010160A08836
:10320000218900F4827001F404410843A18901F48A
:1032100000610843217C01F002010843217D01F097
:1032200001010843218B01F400710843217F01F063
:103230003801084394F8201001F080010843218DE3
:1032400001F40051084321680860A069042101EAE3
:10325000104094F8241001F01001084321684860E0
:103260002068C16921F40061C1616565012084F8AD
:103270005100002070BD00002DE9F04186B00646E7
:1032800014216846FDF7FBF925493068884244D18E
:1032900024480025016841F48051016000682149FB
:1032A00000F4805014390590086840F0010008606F
:1032B000086800F001000590086840F0020008600E
:1032C0000868022400F002000590802003274FF0D8
:1032D00005088DE8B10169461348FEF76BFD08202B
:1032E0008DE8B10169461148FEF764FD114C1048A4
:1032F0002060780660604020C4E902050001C4E94E
:103300000405A561E561256220466562FEF79EFC25
:1033100008B1FEF7A3FBB464A66306B0BDE8F08174
:1033200000300140443802400000024000040240E6
:1033300058640240081A01202DE9F84F044690F81D
:10334000500000271D461646894601280DD04FF033
:10335000010B84F850B0FEF733FE804694F851001C
:10336000BA46012804D0022793E00220BDE8F88F76
:10337000B9F1000F73D0002E71D0032084F85100F2
:10338000C4F854A0C4F83090A686E686C4F838A0E5
:10339000A4F83CA0A4F83EA0C4F844A0C4F840A0FF
:1033A000A068B0F5004F09D12068016821F0400104
:1033B00001602068016841F4804101602068016873
:1033C000490603D4016841F040010160E068B0F5AE
:1033D000006F606803D030B3012E24D041E008B103
:1033E000012E1CD1206B21680088C86006E020688F
:1033F0008168890709D5216B0988C160206B801C11
:103400002063E08E401EE08609E0FEF7D9FDA0EBC8
:103410000800A84202D3681C01D031E07DB3E08EE1
:103420000028E4D120E0206B21680078087306E0D2
:1034300020688168890709D5216B09780173206BA1
:10344000401C2063E08E401EE0860AE0FEF7B8FDD7
:10345000A0EB0800A84203D3681C02D010E017E0DC
:103460006DB1E08E0028E3D142462946204602F0A5
:10347000DDF808B120206065A06818B106E0FFE71C
:10348000032706E02068C16880680090606D00B185
:10349000012784F851B084F850A0384666E7000050
:1034A0002DE9F041044690F850000026012809D08B
:1034B000012784F8507094F851000025012804D0A9
:1034C00002264EE00220BDE8F08189B182B10320DE
:1034D00084F8510065652163A286E286A563656470
:1034E0002564A587E587A068B0F5004F02D00BE002
:1034F000012636E02068016821F040010160206863
:10350000016841F480410160A16C18480864A16C15
:103510001748C863A16C1748C864A06C0565E38EA2
:103520002268216B0C32A06CFEF7FAFB38B1606D9B
:1035300040F010006065012684F8517011E02068A9
:103540000168490603D4016841F040010160206828
:10355000416841F0200141602068416841F002016A
:10356000416084F850503046ADE70000BD5500087A
:10357000C75500089B5500087047704710B5401E9E
:10358000B0F1807F01D3012010BD4FF0E0246061D5
:103590000F21601704F0B6F90020A0610720206118
:1035A000002010BD10B5040003D094F83D0010B108
:1035B00007E0012010BD002084F83C00204600F008
:1035C0001FF8022084F83D00211D206802F02AF92E
:1035D000012084F8460084F83E0084F83F0084F817
:1035E000400084F8410084F8420084F8430084F8E5
:1035F000440084F8450084F83D00002010BD000020
:1036000008B500680649884208D10648016841F0BB
:1036100080010160006800F08000009008BD00009B
:10362000001C00404038024010B586B0044614210A
:103630006846FDF724F80E492068884215D10D48E8
:103640000021026842F001020260006800F00100FF
:103650000590402000900220CDE901010920CDE92C
:10366000031069460448FEF7A5FB06B010BD000034
:10367000001C0040303802400000024070B5044693
:1036800090F83C0000260D4601280FD0012084F858
:103690003C006AB1042A1DD0082A2FD00C2A3FD042
:1036A0000126002084F83C00304670BD022070BD29
:1036B000206802F029F92068816941F008018161E0
:1036C0002068816921F004018161206881692A698B
:1036D000114311E0206802F047F92068816941F444
:1036E000006181612068816921F4806181612068C5
:1036F00081692A6941EA02218161D2E7206802F0EA
:1037000069F92068C16941F00801C1612068C16997
:1037100021F00401C1612068C1692A69114311E0E7
:10372000206802F08BF92068C16941F40061C16131
:103730002068C16921F48061C1612068C1692A697A
:1037400041EA0221C161ACE710B5040003D094F84E
:103750003D0010B107E0012010BD002084F83C00BE
:10376000204600F01EF8022084F83D00211D20684C
:1037700002F058F8012084F8460084F83E0084F8EE
:103780003F0084F8400084F8410084F8420084F847
:10379000430084F8440084F8450084F83D0000208C
:1037A00010BD704710B50446022249B104290ED05D
:1037B000082913D094F84100012816D0012010BD2B
:1037C00094F83E000128F9D184F83E200FE094F8E7
:1037D0003F000128F2D184F83F2008E094F840002F
:1037E0000128EBD184F8402001E084F84120012237
:1037F000206802F07BF816492068164A884201D0FA
:10380000904203D1436C43F40043436420688842F0
:1038100013D0B0F1804F10D00F4988420DD00F491E
:1038200088420AD00E49884207D0904205D00D49FF
:10383000884202D00C49884204D1816801F0070116
:10384000062903D0016841F001010160002010BD8C
:103850000000014000040140000400400008004056
:10386000000C0040004001400018004030B5044604
:103870000D460068002202F039F8194B41F211118F
:1038800020688A10984202D0164B984209D1036AE8
:103890000B4206D1036A134203D1436C23F4004365
:1038A00043642068036A0B4206D1016A114203D1C6
:1038B000016821F00101016001203DB1042D08D013
:1038C000082D09D084F84100002030BD84F83E0066
:1038D000FAE784F83F00F7E784F84000F4E70000D7
:1038E000000001400004014070B5040004D094F8C9
:1038F0003D00002510B106E0012070BD84F83C5069
:10390000204600F023F8242084F83D002068C16898
:1039100021F40051C160204602F0B8F82068016926
:1039200021F4904101612068416921F02A0141613F
:103930002068C16841F40051C1602564202084F8EA
:103940003D0084F83E00002070BD000010B586B038
:10395000044614216846FCF792FE13492068884209
:1039600020D112480021026842F010020260006873
:1039700000F0100005900D481438026842F0020271
:103980000260006800F002000590C0200090022054
:10399000CDE9010103200390072004906946044803
:1039A000FEF708FA06B010BD00100140443802408E
:1039B000000402402DE9F843044690F83D001F46FC
:1039C00016460D4620284CD1C5B1BEB194F83C0036
:1039D000012846D0012084F83C004FF00008C4F8CC
:1039E0004080212084F83D00FEF7EAFAA684814653
:1039F000E684A068B0F5805F03D004E00120BDE854
:103A0000F883206928B12E465FF0000584F83C80D9
:103A10000EE00026FAE78021204602F0BDF8A0B9AA
:103A2000AEB116F8010B21684860E08C401EE084BE
:103A3000E08C4B464FF0000200970028EBD14FF08E
:103A40004001204602F0A8F830B10320D7E735F84E
:103A5000020BC0F30800E6E7202084F83D000020B8
:103A6000CDE70220CBE7FEE7F0B500230A2430259E
:103A700037261F4611E000BFB4EB107F02D905EBDB
:103A8000107C01E006EB107C01F813C001EB430C45
:103A900000015B1C8CF80170DBB29342ECD3F0BDEB
:103AA000074910B5054808600846FDF7DAFF002809
:103AB00003D0BDE81040FDF7D1BF10BD003002407B
:103AC000C8000020094808B5016841F48001016080
:103AD0000068002200F48000009011463B20FEF7B1
:103AE000DDFABDE808403B20FEF7CABA3038024094
:103AF0002DE9F04F87B014216846FCF7C0FD4B4814
:103B00000025016841F004010160016801F0040131
:103B10000591016841F080010160016801F08001B8
:103B20000591016841F001010160016801F00101A6
:103B30000591016841F002010160016801F0020194
:103B40000591016841F0080101600068DFF8E0B00C
:103B500000F008004FF4005405900022214658461A
:103B6000FEF728FA4FF48876012231463148FEF7F5
:103B700021FA4FF44047002239462F48FEF71AFA3F
:103B8000DFF8B8A04FF48078002241465046FEF797
:103B900011FA4FF40079012249465846FEF70AFA15
:103BA00000940124694658460194CDE90245FEF788
:103BB00001F9CDE900640326CDE9024669461D48B6
:103BC000FEF7F8F8CDE9007469461B48CDE90245D7
:103BD000FEF7F0F8CDE9008469465046CDE902458C
:103BE000FEF7E8F8CDE90094CDE90246694658466B
:103BF000FEF7E0F8E003CDE90005694602940D48C0
:103C0000FEF7D8F8B002CDE900056946029458469F
:103C1000FEF7D0F83002CDE9000569460294064867
:103C2000FEF7C8F807B0BDE8F08F0000303802405A
:103C3000000802400000024000040240000C024064
:103C4000074910B5054808600846FFF787FA0028BD
:103C500003D0BDE81040FDF701BF10BD00080650BD
:103C6000A01901200F4810B50D4901604FF4827171
:103C7000416000218160C1604FF400720161C0E9C0
:103C80000512C1610162416281620A21C162FFF7CE
:103C900094FA002803D0BDE81040FDF7DFBE10BD48
:103CA00000300140B019012010B588B01C216846D1
:103CB000FCF7E5FC15481449002401605321C0E9D4
:103CC000011440F2E731C0E903148461FFF76AFC94
:103CD00008B1FDF7C3FE0D48FFF736FD08B1FDF74B
:103CE000BDFE6020CDE90004029400226946074829
:103CF0000494FFF7C3FC08B1FDF7B0FE0348FFF7DB
:103D000093FC08B010BD0000001C0040681A0120A0
:103D10000C4810B50A4901600B49416000218160DF
:103D20000C22C160C0E904128161C161FFF7DCFDB2
:103D3000002803D0BDE81040FDF790BE10BD000084
:103D400000100140B01A012040420F00FEE70000C1
:103D50001CB500216D48FDF79FF96C4800216030CB
:103D6000FDF79AF900216A48FDF796F968480021A5
:103D70001830FDF791F9654800211830FDF78CF9EE
:103D8000624800213030FDF787F960480021483053
:103D9000FDF782F95E4800214838FDF77DF95C485F
:103DA0005C4A02213038FDF777F959485A4A022116
:103DB0001838FDF771F95649002358A2303153489D
:103DC000FDF718F9574958A0CDE9000150490723DC
:103DD00058A268314D48FDF70DF94C484C49603008
:103DE0000123007C009054A2A0314848FDF702F95D
:103DF0004748474948380123007C009051A2D831F8
:103E00004248FDF7F7F85649002351A2A1F5E870A2
:103E1000FDF7F0F83D48524990303831007C009071
:103E2000012350A2A1F50270FDF7E4F837484C4990
:103E300078307031007C009001234DA2A1F5107004
:103E4000FDF7D8F8324846497838A831007C009010
:103E500001234BA2A1F51E70FDF7CCF82C48404978
:103E60006038E031007C0090012348A2A1F52C705D
:103E7000FDF7C0F84B49002347A2A1F51C70FDF7E0
:103E8000B9F823484C4918380123007C009046A219
:103E9000A1F57070FDF7AEF84249484838310090FE
:103EA000022347A2A1F52A70FDF7A4F83D4948482E
:103EB00070310090022347A2A1F53870FDF79AF8FF
:103EC000474948A0CDE9000136490723A83148A257
:103ED000A1F54670FDF78EF849494AA0CDE90001E9
:103EE0003549072370394BA2A1F55470FDF782F8CC
:103EF0000748314930383839007C0090012349A205
:103F0000A1F56270FDF776F81CBD0000D009012014
:103F1000F00A01208D530008355500085B4D61699A
:103F20006E5D0000611A000852756E6E696E672E34
:103F30002E2E000052756E0047505320506F696E50
:103F40007473000053657474696E67730000000039
:103F50005B47505320506F696E74735D0000000022
:103F6000000C01204261736520506F696E7473000C
:103F70004E6F726D616C20506F696E74730000003B
:103F8000436F6E6520506F696E74730050696C6585
:103F900020506F696E7473005B53657474696E674B
:103FA000735D0000180D012053686F7720566F6C09
:103FB0007461676500000000680E012008000020A1
:103FC000526576657273656420436F6C6F72000092
:103FD0002A0000204C697374204C6F6F7000000041
:103FE00085170008536176696E672E2E2E0000003B
:103FF000536176652053657474696E6773000000C1
:1040000039170008526573657474696E672E2E2E19
:104010000000000052657365742053657474696E06
:10402000677300003C41626F75743E00FEE700005C
:1040300010B5064C208905F0FDF802466189A0897B
:10404000BDE8104041430248FCF712BB04000020C9
:104050009C020020054A00BF92F85130012BFBD191
:104060000A4601460148FFF71BBA0000B0190120BB
:104070002DE9F047861881460C46CF18DDF820A0C0
:104080000CE04D460FFA84F805E05246414628B24E
:1040900000F086FC6D1CAE42F7DC641CA742F0DC2D
:1040A000BDE8F0872DE9FF4F91462DED048B83B0DD
:1040B0000D4606469FEDC10BDDF8508003F034FC41
:1040C000B0EE408AF0EE608A4846FCF791FC8346E9
:1040D00053EC182B0091FCF799FBFCF7B5FC84B26C
:1040E000C4F101079FEDB78B78E03846FCF76FFC11
:1040F00041EC100BB0EE481AF0EE681A03F078FCB1
:10410000B0EE402AF0EE602A0099B0EE429AF0EE4E
:10411000629A41EC10BBB0EE481AF0EE681A03F058
:1041200067FC53EC192B51EC100BFCF769FB41ECCD
:10413000100B04F085FA51EC100BFCF785FC1FFA0C
:1041400080FA5FEAC8700FD0A5EB0A0001B2F01B3D
:1041500000B20A9A00F024FCE81901B206EB0A004A
:1041600000B20A9A00F01CFC5FEA88700FD5A5EB3C
:104170000A0001B2F01900B20A9A00F011FCE81925
:1041800001B2A6EB0A0000B20A9A00F009FC5FEA4D
:1041900048700FD505EB0A0001B2F01900B20A9A77
:1041A00000F0FEFBE81B01B2A6EB0A0000B20A9A7F
:1041B00000F0F6FB5FEA08700FD505EB0A0001B2CC
:1041C000F01B00B20A9A00F0EBFBE81B01B206EB11
:1041D0000A0000B20A9A00F0E3FB7F1C002F84DB88
:1041E0002046FCF705FC41EC100BB0EE481AF0EE4F
:1041F000681A03F0FDFBB0EE402AF0EE602A009949
:10420000B0EE429AF0EE629A41EC10BBB0EE481A62
:10421000F0EE681A03F0ECFB53EC192B51EC100B89
:10422000FCF7EEFA41EC100B04F00AFA51EC100B1B
:10423000FCF70AFC87B2A5EB090000B2019006EB7F
:1042400009005FEAC8710FFA80FB20D0B9F1010FB5
:1042500009D9584629460A9A00F0A2FB30460A9A24
:10426000019900F09DFBBC4203D1281B01B230191B
:1042700009E0E81B01B2301900B20A9A00F090FB85
:10428000281B01B2F01900B20A9A00F089FBA6EBD4
:10429000090000B25FEA8871009020D5B9F1010FE2
:1042A00009D929460A9A009800F07AFB30460A9A02
:1042B000019900F075FBBC4203D1281B01B2301BF1
:1042C00009E0E81B01B2301B00B20A9A00F068FB5B
:1042D000281B01B2F01B00B20A9A00F061FB05EB4B
:1042E00009005FEA48710FFA80FA20D5B9F1010F91
:1042F00009D929460A9A009800F052FB51463046E7
:104300000A9A00F04DFBBC4203D1281901B2301BC0
:1043100009E0E81901B2301B00B20A9A00F040FB34
:10432000281901B2F01B00B20A9A00F039FB5FEACB
:10433000087020D5B9F1010F09D9584629460A9AC3
:1043400000F02EFB514630460A9A00F029FBBC4291
:1043500003D1281901B2301909E0E81901B2301966
:1043600000B20A9A00F01CFB281901B2F01900B241
:104370000A9A00F015FBB8F10F0F19D158462946DB
:104380000A9A00F00DFB29460A9A009800F008FBF3
:1043900030460A9A019900F003FB0A9A03B051468D
:1043A000BDEC048B04B03046BDE8F04F00F0F8BA25
:1043B00003B0BDEC048BBDE8FF8F000054E3A59B68
:1043C000C420E93F00000000000000402DE9F04F4C
:1043D0001F462DED048B85B090460D4606469FED99
:1043E000F80BDDF848A003F09FFAB0EE408AF0EE3B
:1043F000608A4046FCF7FCFACDE9010153EC182B2A
:10440000FCF704FAFCF720FB84B2C4F101008146FA
:104410009FEDED8BA7E000BFFCF7D9FA41EC100B44
:10442000B0EE481AF0EE681A03F0E2FADDE9010195
:10443000B0EE402AF0EE602AB0EE429AF0EE629AB8
:1044400041EC100BB0EE481AF0EE681A03F0D0FA07
:1044500053EC192B51EC100BFCF7D2F941EC100B7B
:1044600004F0EEF851EC100BFCF7EEFA1FFA80FBAB
:104470005FEACA701AD005EB090001B2A6EB090089
:1044800000B2A5EB0B020FFA82FC0097CDE9030105
:104490000B460246614600F00EFA0097DDE9032163
:1044A00006EB0B0000B20B4600F005FA5FEA8A70DB
:1044B0001AD505EB090001B206EB090000B2A5EB25
:1044C0000B020FFA82FC0097CDE903010B4602466E
:1044D000614600F0F0F90097DDE90321A6EB0B003F
:1044E00000B20B4600F0E7F95FEA4A701AD5A5EB77
:1044F000090001B206EB090000B205EB0B020FFA4E
:1045000082FC0097CDE903010B460246614600F0AC
:10451000D2F90097DDE90321A6EB0B0000B20B46B0
:1045200000F0C9F95FEA0A701AD5A5EB090001B2DB
:10453000A6EB090000B205EB0B020FFA82FC009714
:10454000CDE903010B460246614600F0B4F900973D
:10455000DDE9032106EB0B0000B20B4600F0ABF9DE
:1045600009F101008146B9F1000FFFF655AF3A4657
:104570002946304600F014FAB8F1020F04D03A464A
:104580002946304600F00CFA2046FCF731FA41EC9F
:10459000100BB0EE481AF0EE681A03F029FADDE9C4
:1045A0000101B0EE409AF0EE609A41EC100BB0EED3
:1045B000481AF0EE681A03F01BFA53EC192B51EC71
:1045C000100BFCF71DF941EC100B04F039F851EC1D
:1045D000100BFCF739FA1FFA80F9A5EB080000B2BE
:1045E000029006EB080000B25FEACA7103903AD06D
:1045F000B8F1010F19D92B46009732461946039896
:1046000000F059F9324600972B461046029900F007
:1046100052F9B8F1020F08D9281B03B2301902B2BF
:1046200029463046009700F046F94C4504D1281B36
:1046300001B2301900B213E0A5EB090001B2301944
:1046400000B23A46009000F0ABF9281B01B206EB2D
:1046500009008B4600B23A4600F0A2F9009859468C
:104660003A4600F09DF9A6EB080000B25FEA8A71B5
:1046700004903AD5B8F1010F19D92B46009732466C
:104680001946049800F017F9324600972B46104659
:10469000029900F010F9B8F1020F08D9281B03B2F3
:1046A000301B02B229463046009700F004F94C4511
:1046B00004D1281B01B2301B00B213E0A5EB0900A6
:1046C00001B2301B00B283463A4600F069F9281B5C
:1046D00001B2A6EB090000B23A46009100F060F981
:1046E000009958463A4600F05BF905EB08005FEA8E
:1046F0004A710FFA80FB3BD5B8F1010F19D92B464F
:10470000009732461946049800F0D5F832465946CB
:104710002B461046009700F0CEF8B8F1020F08D9EA
:10472000281903B2301B02B229463046009700F028
:10473000C2F84C4505D1281901B2301B00B23A46E7
:1047400014E005EB090001B2301B00B23A460190BB
:1047500000F026F9281901B2A6EB090000B23A468A
:10476000009100F01DF9DDE900103A4600F018F95B
:104770005FEA0A7043D5B8F1010F19D92B460097AB
:1047800032461946039800F096F8324659462B46B1
:104790001046009700F08FF8B8F1020F08D92819D9
:1047A00003B2301902B229463046009700F083F870
:1047B0004C450DD1281901B2301900B21CE000009F
:1047C00054E3A59BC420E93F000000000000004026
:1047D00005EB090001B2301900B280463A4600F0FC
:1047E000DFF8281904B206EB090000B23A46214668
:1047F00000F0D6F8214640463A4600F0D1F8BAF12A
:104800000F0F25D12B46009732461946039800F02A
:1048100052F82B46009732461946049800F04BF8A0
:10482000324600972B461046029900F044F8324673
:1048300059462B461046009700F03DF805B03A4621
:10484000BDEC048B29463046BDE8F04F00F0A8B817
:1048500005B0BDEC048BBDE8F08F2DE9F05F81461B
:1048600004468618CD18681E884607B2DDF828B0C1
:104870000BE020B25A464146824600F091F8394694
:104880005A46504600F08CF8641CA642F1DC761EB5
:10489000444636B20BE021B25A460F46484600F075
:1048A0007FF830465A46394600F07AF8641CA54233
:1048B000F1DCBDE8F09F2DE9F04705462DED028BB8
:1048C0001746DDF828A01E460C464FF0FF30BD42CB
:1048D00001DA012100E001468946B44200DA0120F4
:1048E0008046BD4226D0A11B00EE101AE81B00290D
:1048F000F8EEC00A00EE100AB8EEC00AC0EE808AD8
:1049000000EE104AB8EEC08A00EE105AB8EEC00AA7
:1049100000EE688A00D5311B002800D5781B814243
:1049200023DC3AE052462146284600F039F804EBF1
:10493000080004B2B442F5D1BDEC028BBDE8F087AB
:1049400052462146284600F02BF804EB080004B23A
:1049500000EE104AB8EEC00A30EE480AC0EE280A4F
:10496000BDEEE00A10EE100A05B2B442E8D1E3E76A
:1049700052462146284600F013F805EB090005B21F
:1049800000EE105AF8EEC00AB0EE480A00EEA80A8F
:10499000BDEEC00A10EE100A04B2BD42E8D1CBE76A
:1049A0002DE9F041114D044617466889844216DA14
:1049B000A889814213DA002C11DB00290FDBC1EB3F
:1049C0000110AA780A49022A01EB001609D13846DB
:1049D00004F030FC315D884203D1287A3055BDE8BF
:1049E000F081384604F026FCF8E7000004000020BF
:1049F0009C0200202DE9FF4F85B08146DDE912645D
:104A000002200090081905B2019009EB0400029001
:104A10001746884600B28346334622462946FFF7AA
:104A2000D5FC0120009009EB0700001B401E00B2DE
:104A30002946824633462246FFF7C8FC04200899DF
:104A4000009008EB0100001B401E05B2584633469B
:104A500022462946FFF7BAFC082000902946504616
:104A600033462246FFF7B2FC6042039007EB40005A
:104A7000A0F1020B02980096401C00B21FFA8BF2C4
:104A80008246631C4146FFF7F3FA089903980096A3
:104A900001EB4000801E83B201983A46401C01B2EF
:104AA0004846FFF7E5FA1FFA8BF229465046631C89
:104AB0000096FFF7DDFA09B0BDE8F08F2DE9FF4F52
:104AC00081B09B4601980F9D00EB020800EB0509A1
:104AD00001EB0B00401EA8EB05060F4609F101048F
:104AE0000FFA80FA761E0BE020B239460E9A00903B
:104AF000FFF756FF51460E9A0098FFF751FF641CCE
:104B0000A642F1DC07EB050A07EB0B00471BA8F1F7
:104B100001000AF101040FFA80F87F1E0BE021B2B8
:104B20008B460E9A0198FFF73BFF404659460E9A76
:104B3000FFF736FF641CA742F1DC02200FFA8AF16E
:104B40000FFA89F4009088462A4620460E9BFFF70C
:104B5000A9FA012036B2009041462A4630460E9B03
:104B6000FFF7A0FA04203FB2009020462A463946BB
:104B70000E9BFFF797FA08200090394630462A46E8
:104B80000E9BFFF78FFA05B0BDE8F08F70B5C84CEB
:104B9000C84D20614FF000702860C820FDF7F8F87C
:104BA000681528600A20FDF7F3F8FD2004F060FD89
:104BB000062004F09FFD082004F09CFD612004F015
:104BC00057FD072004F096FD042004F093FD6220B9
:104BD00004F04EFD002004F08DFD442004F08AFD19
:104BE000452004F087FD632004F042FD412004F0DD
:104BF00081FD072004F07EFD122004F07BFD1220D1
:104C000004F078FD642004F033FD372004F072FDD9
:104C1000652004F02DFD092004F06CFD102004F047
:104C200069FD212004F066FD662004F021FD0920C5
:104C300004F060FD102004F05DFD212004F05AFD19
:104C4000672004F015FD202004F054FD402004F0FE
:104C500051FD682004F00CFD902004F04BFD4C2029
:104C600004F048FD7C2004F045FD662004F042FD80
:104C7000B12004F0FDFC0F2004F03CFD022004F004
:104C800039FD012004F036FDB42004F0F1FC0120D0
:104C900004F030FDB52004F0EBFC022004F02AFD06
:104CA000022004F027FD0A2004F024FD142004F063
:104CB00021FDB62004F0DCFC042004F01BFD0120E3
:104CC00004F018FD9F2004F015FD002004F012FDF3
:104CD000022004F00FFDDF2004F0CAFC112004F0D4
:104CE00009FDE22004F0C4FC132004F003FD0020C1
:104CF00004F000FD002004F0FDFC302004F0FAFC7C
:104D0000332004F0F7FC3F2004F0F4FCE52004F02D
:104D1000AFFC3F2004F0EEFC332004F0EBFC30202D
:104D200004F0E8FC002004F0E5FC002004F0E2FCC4
:104D3000132004F0DFFCE12004F09AFC002004F0D2
:104D4000D9FC572004F0D6FCE42004F091FC582054
:104D500004F0D0FC002004F0CDFCE02004F088FC3E
:104D6000012004F0C7FC032004F0C4FC0D2004F073
:104D7000C1FC0E2004F0BEFC0E2004F0BBFC0C2095
:104D800004F0B8FC152004F0B5FC192004F0B2FCC6
:104D9000E32004F06DFC1A2004F0ACFC162004F0B3
:104DA000A9FC0C2004F0A6FC0F2004F0A3FC0E20AC
:104DB00004F0A0FC0D2004F09DFC022004F09AFCFD
:104DC000012004F097FCE62004F052FC002004F0DF
:104DD00091FCFF2004F08EFCE72004F049FC012048
:104DE00004F088FC042004F085FC032004F082FC1D
:104DF000032004F07FFC002004F07CFC122004F06F
:104E000079FCE82004F034FC002004F073FC7020EE
:104E100004F070FC002004F06DFCEC2004F028FC91
:104E2000522004F067FCF12004F022FC012004F081
:104E300061FC012004F05EFC022004F05BFCF62023
:104E400004F016FC092004F055FC102004F052FC7C
:104E5000002004F04FFC002004F04CFCFD2004F086
:104E600007FCFA2004F046FCFC2004F043FC3A2046
:104E700004F0FEFB052004F03DFC352004F0F8FBB7
:104E8000002004F037FC207800F0D6F8212004F050
:104E9000EFFB112004F0ECFBC820FCF779FF292080
:104EA00004F0E6FBBDE870400A20FCF771BF00008B
:104EB0000400002018080240054800224FF6FF7148
:104EC000037913B1C28001817047C18002817047AC
:104ED000040000202DE9F84F2A4C0021284EA0891B
:104EE000401E83B26089401E82B2084600F054F82A
:104EF00000254FF4F07A3AE0E27801209043E07028
:104F0000D4F810C00020C5EB0517E94600EB4711A7
:104F10001D4A715C1268009201F01C02930101F0BD
:104F2000C00843EA481301F0E00843EA082301F00F
:104F3000030843EAC20219F8081011430A0A42EAB8
:104F40000121E278C2EB021200EB4212401C2CF865
:104F500012105045DADBE0782169C0EB001001EB5C
:104F6000801000224FF47071FFF774F86D1C608997
:104F7000A189484390FBFAF0A842BDDCBDE8F88F58
:104F80009C020020040000209097000801498870CE
:104F900070470000040000202DE9F0470446234834
:104FA000994690468A4600BF90F851100129FBD1DE
:104FB0001F4F1020B8611F4801780AF1140609F14B
:104FC000140509B3017801291ED0007808F11405F1
:104FD00014342A2004F04CFBA0B204F079FBA8B2F0
:104FE00004F076FB2B2004F043FB504604F070FBEA
:104FF0004FEA090004F06CFB2C2004F039FB4FF45D
:105000008010B861BDE8F0872A2004F031FB20460B
:1050100004F05EFB404604F05BFB2B2004F028FB11
:10502000B0B204F055FBA8B2E4E70000B0190120CB
:10503000000002400400002010B50C4C2070362007
:1050400004F016FB207850B12078012809D0207890
:10505000022808D0A820BDE8104004F04BBB08206F
:10506000F9E7C820F7E77820F5E700000400002002
:105070002DE9F84FDFF8C8B0824689469BF8010059
:10508000C0B3012859D12F48002400EB0210009032
:105090002044A0F58050002590F8007E90F8086E1E
:1050A0000AEB04000FFA80F8F80707D009EB0500B7
:1050B00001B24046BBF80620FFF772FC6D1C7F086A
:1050C000EDB2082DF0D300255F46F00707D009EBBD
:1050D0000500083001B24046FA88FFF761FC6D1CFC
:1050E0007608EDB2082DF0D3641CE4B2082C24D26B
:1050F0000098CDE7FFE7144902EB4200002401EBE2
:10510000400800BF08EB0400002510F8C06C0AEB53
:10511000040007B2F00707D009EB050001B23846DA
:10512000BBF80620FFF73CFC6D1C7608EDB2082D9D
:10513000F0D3641CE4B2062CE4D3BDE8F88F000081
:105140000400002094970008849D0008F0B50E46E6
:105150002DED028B85B007461D461446B0EE408A01
:10516000F7EE008A14216846FBF789FA61192022BC
:105170006846891CFBF77CFA0A2C17D2B2EE040AA7
:1051800024B1641E68EE808AE4B2F9E7BDEEC80A75
:1051900010EE100ABDEEE80A10EE101A90FBF1F0C6
:1051A00000EE100AB8EEC00A00EE688A294668468A
:1051B000B0EE480A04F062F86A463146384600F01C
:1051C00005F805B0BDEC028BF0BD00002DE9F04103
:1051D00016460F460546002412E00C48407810B1F0
:1051E00001280DD104E004EB440005EB400001E090
:1051F00005EBC40000B23946FFF73AFF641CA4B2C5
:10520000325D002AE9D1BDE8F081000004000020F1
:105210000148FDF7D1B80000F41C01202DE9F04150
:1052200003680D4604461E6C03EB4511D1F8080BCC
:10523000D4F810E04FF400474FF0200C04F2C442C1
:10524000BEF1010F09D0DFF898E0764539D10204AC
:1052500032D500BFC1F8087B3FE0224B5FEA007EF9
:1052600004D59E4239D90004F4D436E05FEA806E5A
:1052700002D5C1F808CB30E010F0280F2DD19E42A6
:1052800001D90004E6D405EBC50004EB8000D1F899
:10529000101BD0F89832C1F31201591AC0F89C12B1
:1052A00000F51F70ADB983691BB10269114401613A
:1052B0000FE0012120680AE080060AD5C1F808CB7A
:1052C00007E035B9D4F8940218B90021184601F066
:1052D000C1FFE9B22046FCF747FF0020BDE8F0819E
:1052E0000A31544F0A30544F2DE9F84F0E4601EB66
:1052F000C60100EB810481460568616DE06D3C34B8
:10530000884202D90120BDE8F88F081AE16881427D
:1053100000D20846C01C870805EB46181BE000BFFA
:10532000A0EB010AE068504500D282460AF1030072
:10533000870899F8100000901FFA8AF3F2B2284605
:10534000216902F0A1FA216901EB0A002061216ABA
:1053500001EB0A002062D8F8180980B2B84205D3E0
:10536000216AA069814201D20028D9D1216AA069AD
:10537000884208D806F00F0101208840D5F834187B
:105380008143C5F834180020BDE7000070B590B027
:10539000FEF74EFE45A204210320FFF717FF02206F
:1053A000FFF7F4FD434C01210C232088CDE90001D7
:1053B0001D220846FFF71EFB0120FFF7E7FD2088AE
:1053C000022200903C2310211046FEF751FE3AA223
:1053D00004212420FFF7FAFE39A212210820FFF74A
:1053E000F5FE3BA21E210820FFF7F0FE3B481E21E0
:1053F00002683E20FFF7EAFE39A22A210820FFF7C3
:10540000E5FE3BA236210820FFF7E0FE3BA2422149
:105410000820FFF7DBFE3F4C3FA20DF1080C21698D
:10542000D1E900016CCA8CE86C0000231A4606AD75
:1054300000F00F06EE5400095B1C40EA0170DBB27D
:105440000909102BF4D30C200AA902AB2E1816F967
:10545000016C9E5D8E54521C401ED2B210F0FF00B3
:10546000F4D100258D540A4636213E20FFF7AEFECA
:10547000607805280AD294ED020AD4ED030A401C94
:1054800030EE600A84ED020A607003E09FED260AA8
:1054900084ED020A25480078002804D065709FED4D
:1054A000240A84ED020A10B070BD00005343455039
:1054B000000000000A00002076312E3200000000BB
:1054C0004D4355202020203A2043483332563300A4
:1054D000456173795549203A20000000B000002052
:1054E000466C61736820203A203235364B4200000A
:1054F000554944202020203A200000003E3E205004
:105500006F77657265642062793A20457242575F11
:1055100073000000B40000203031323334353637A8
:1055200038394142434445460000E64249000020E4
:105530000000704310B5104C2078411C21703228B7
:1055400005D300209FED0D0A84ED010A20700CA206
:1055500002210020FFF73AFE02231A4694ED010AC9
:1055600028213C20FFF7F2FD2821BDE8104009A2C8
:105570005F20FFF72BBE0000B40000206666864067
:105580004261747465727920566F6C746167653A14
:105590000000000056000000704710B5806B0168E5
:1055A0004A6822F003024A60416D41F010014165F2
:1055B000012180F85110FDF7FFFD10BD10B5806B83
:1055C000FDF7DBFF10BD38B50546846BFCF7F8FC32
:1055D000024628680068C00523D42068416821F08D
:1055E000200141602068416821F00201416064218E
:1055F000204600F01BF818B1606D40F02000606597
:10560000A068002118B92068C26880680090E1860F
:10561000012084F85100606D18B12046FDF7CCFDE3
:1056200038BD2046FDF7A8FF38BD000038B5044658
:105630001248134B0068B0FBF3F04FF47A735843F1
:1056400000906068B0F5827F0DD10B460092002279
:105650008021204600F016F870B1606D40F0200007
:105660006065032038BD009830B1401E009020686E
:105670008068C0430006F6D5002038BDDC0000205D
:1056800000366E012DE9F8431E46914688460446D1
:10569000089DFCF795FC401B351AFCF791FC07466A
:1056A00025480068C0F3CB30684338E0701C37D021
:1056B000FCF786FCC01BA84203D215B1009860B36A
:1056C0002CE02068416821F0E00141606068B0F59D
:1056D000827F0BD1A068B0F5004F02D0B0F5806F8B
:1056E00004D12068016821F040010160A06AB0F592
:1056F000005F09D12068016821F400510160206831
:10570000016841F400510160012084F8510000203B
:1057100084F850000320BDE8F8830025401E009067
:105720002068816838EA010004D000214945BDD1D4
:105730000020F0E70121F9E7DC0000207047017844
:10574000407841EA0020704710B5044688B0002137
:105750000A48FEF78BF86020CDE900040020029093
:1057600004200490002269460448FDF787FF0021C9
:105770000248FEF717F808B010BD0000681A0120B3
:10578000FCF724BC30B593B030216846FAF777FFB8
:1057900014210CA8FAF773FF1C480025016841F09A
:1057A00080510160006800F0805011901848016835
:1057B00041F4804101600068022400F480401190AF
:1057C00001200090000401908001CDE906400420F2
:1057D0000890A820CDE9090407200B906846FDF742
:1057E00007FB08B172B6FEE70CA90F2081E8310073
:1057F0004FF4A050CDE90F0505210CA8FDF708FADC
:10580000002801D072B6FEE713B030BD4038024028
:10581000007000400248016841F470010160704767
:1058200088ED00E0F0B50268254C264D264E274F46
:10583000274B4FF0804CA04209D0604507D0A842CA
:1058400005D0B04203D0B84201D0984204D122F032
:10585000700E4A6842EA0E02A0421BD0604519D081
:10586000A84217D0B04215D0B84213D0984211D0F8
:10587000184DA8420ED0184DA8420BD0174DA84283
:1058800008D0174DA84205D0164DA84202D0164D9B
:10589000A84203D122F44075CA682A434D6922F018
:1058A00080022A4302608A68C2620A688262A04259
:1058B00001D0984201D10969016301214161F0BD24
:1058C000000001400004004000080040000C0040BF
:1058D00000040140004001400044014000480140F4
:1058E00000180040001C00400020004010B501F0EE
:1058F0001F030121046A99408C430462016A9A40A3
:105900001143016210BD0000F0B5026A22F00102ED
:105910000262036A42688469124E24F073050C68BF
:105920002C4323F002058B682B430D4DA84201D078
:10593000B04205D123F00807CB683B4323F00403B2
:10594000A84201D0B04205D14D6922F440721543FE
:105950008A692A4342608461496841630362F0BDF9
:105960000000014000040140F0B5026A22F010027C
:105970000262026A436884690D6824F4E64444EADA
:1059800005248D6822F0200242EA05120F4D104EC8
:10599000A84201D0B04206D1CF6822F0800242EA8C
:1059A000071222F04002A84201D0B04207D14D694F
:1059B00023F4406343EA85038D6943EA850343602A
:1059C0008461496881630262F0BD0000000001400B
:1059D00000040140F0B5026A22F480720262026A99
:1059E0004368C46922F4007224F073050C68124EF7
:1059F0002C438D6842EA05220E4DA84201D0B042E8
:105A000006D1CF6822F4006242EA072222F48062C3
:105A1000A84201D0B04207D14D6923F4405343EA74
:105A200005138D6943EA05134360C4614968C16386
:105A30000262F0BD000001400004014030B5026A7E
:105A400022F480520262046A4268C3690D6823F43A
:105A5000E64343EA05238D6824F4005444EA053400
:105A6000084DA84202D0084DA84204D14D6922F445
:105A7000804242EA85124260C3614968016404625F
:105A800030BD0000000001400004014070B5044634
:105A900000680169E26821F4405111430161216904
:105AA000A068E26908436169114308432168CA6834
:105AB00049F20C639A430243CA6020684169A269B3
:105AC00021F440711143416131492068884202D07C
:105AD0003049884202D1FDF74BF901E0FDF738F972
